{
	"ERC20Token.sol": {
		"Milo": {
			"abi": [
				{
					"inputs": [],
					"stateMutability": "nonpayable",
					"type": "constructor"
				},
				{
					"anonymous": false,
					"inputs": [
						{
							"indexed": true,
							"internalType": "address",
							"name": "owner",
							"type": "address"
						},
						{
							"indexed": true,
							"internalType": "address",
							"name": "spender",
							"type": "address"
						},
						{
							"indexed": false,
							"internalType": "uint256",
							"name": "value",
							"type": "uint256"
						}
					],
					"name": "Approval",
					"type": "event"
				},
				{
					"anonymous": false,
					"inputs": [
						{
							"indexed": true,
							"internalType": "address",
							"name": "previousOwner",
							"type": "address"
						},
						{
							"indexed": true,
							"internalType": "address",
							"name": "newOwner",
							"type": "address"
						}
					],
					"name": "OwnershipTransferred",
					"type": "event"
				},
				{
					"anonymous": false,
					"inputs": [
						{
							"indexed": true,
							"internalType": "address",
							"name": "from",
							"type": "address"
						},
						{
							"indexed": true,
							"internalType": "address",
							"name": "to",
							"type": "address"
						},
						{
							"indexed": false,
							"internalType": "uint256",
							"name": "value",
							"type": "uint256"
						}
					],
					"name": "Transfer",
					"type": "event"
				},
				{
					"inputs": [
						{
							"internalType": "address",
							"name": "owner",
							"type": "address"
						},
						{
							"internalType": "address",
							"name": "spender",
							"type": "address"
						}
					],
					"name": "allowance",
					"outputs": [
						{
							"internalType": "uint256",
							"name": "",
							"type": "uint256"
						}
					],
					"stateMutability": "view",
					"type": "function"
				},
				{
					"inputs": [
						{
							"internalType": "address",
							"name": "spender",
							"type": "address"
						},
						{
							"internalType": "uint256",
							"name": "amount",
							"type": "uint256"
						}
					],
					"name": "approve",
					"outputs": [
						{
							"internalType": "bool",
							"name": "",
							"type": "bool"
						}
					],
					"stateMutability": "nonpayable",
					"type": "function"
				},
				{
					"inputs": [
						{
							"internalType": "address",
							"name": "account",
							"type": "address"
						}
					],
					"name": "balanceOf",
					"outputs": [
						{
							"internalType": "uint256",
							"name": "",
							"type": "uint256"
						}
					],
					"stateMutability": "view",
					"type": "function"
				},
				{
					"inputs": [],
					"name": "decimals",
					"outputs": [
						{
							"internalType": "uint8",
							"name": "",
							"type": "uint8"
						}
					],
					"stateMutability": "view",
					"type": "function"
				},
				{
					"inputs": [
						{
							"internalType": "address",
							"name": "spender",
							"type": "address"
						},
						{
							"internalType": "uint256",
							"name": "subtractedValue",
							"type": "uint256"
						}
					],
					"name": "decreaseAllowance",
					"outputs": [
						{
							"internalType": "bool",
							"name": "",
							"type": "bool"
						}
					],
					"stateMutability": "nonpayable",
					"type": "function"
				},
				{
					"inputs": [],
					"name": "geUnlockTime",
					"outputs": [
						{
							"internalType": "uint256",
							"name": "",
							"type": "uint256"
						}
					],
					"stateMutability": "view",
					"type": "function"
				},
				{
					"inputs": [
						{
							"internalType": "address",
							"name": "spender",
							"type": "address"
						},
						{
							"internalType": "uint256",
							"name": "addedValue",
							"type": "uint256"
						}
					],
					"name": "increaseAllowance",
					"outputs": [
						{
							"internalType": "bool",
							"name": "",
							"type": "bool"
						}
					],
					"stateMutability": "nonpayable",
					"type": "function"
				},
				{
					"inputs": [
						{
							"internalType": "uint256",
							"name": "time",
							"type": "uint256"
						}
					],
					"name": "lock",
					"outputs": [],
					"stateMutability": "nonpayable",
					"type": "function"
				},
				{
					"inputs": [],
					"name": "name",
					"outputs": [
						{
							"internalType": "string",
							"name": "",
							"type": "string"
						}
					],
					"stateMutability": "view",
					"type": "function"
				},
				{
					"inputs": [],
					"name": "owner",
					"outputs": [
						{
							"internalType": "address",
							"name": "",
							"type": "address"
						}
					],
					"stateMutability": "view",
					"type": "function"
				},
				{
					"inputs": [],
					"name": "renounceOwnership",
					"outputs": [],
					"stateMutability": "nonpayable",
					"type": "function"
				},
				{
					"inputs": [],
					"name": "symbol",
					"outputs": [
						{
							"internalType": "string",
							"name": "",
							"type": "string"
						}
					],
					"stateMutability": "view",
					"type": "function"
				},
				{
					"inputs": [],
					"name": "totalSupply",
					"outputs": [
						{
							"internalType": "uint256",
							"name": "",
							"type": "uint256"
						}
					],
					"stateMutability": "view",
					"type": "function"
				},
				{
					"inputs": [
						{
							"internalType": "address",
							"name": "recipient",
							"type": "address"
						},
						{
							"internalType": "uint256",
							"name": "amount",
							"type": "uint256"
						}
					],
					"name": "transfer",
					"outputs": [
						{
							"internalType": "bool",
							"name": "",
							"type": "bool"
						}
					],
					"stateMutability": "nonpayable",
					"type": "function"
				},
				{
					"inputs": [
						{
							"internalType": "address",
							"name": "sender",
							"type": "address"
						},
						{
							"internalType": "address",
							"name": "recipient",
							"type": "address"
						},
						{
							"internalType": "uint256",
							"name": "amount",
							"type": "uint256"
						}
					],
					"name": "transferFrom",
					"outputs": [
						{
							"internalType": "bool",
							"name": "",
							"type": "bool"
						}
					],
					"stateMutability": "nonpayable",
					"type": "function"
				},
				{
					"inputs": [
						{
							"internalType": "address",
							"name": "newOwner",
							"type": "address"
						}
					],
					"name": "transferOwnership",
					"outputs": [],
					"stateMutability": "nonpayable",
					"type": "function"
				},
				{
					"inputs": [],
					"name": "unlock",
					"outputs": [],
					"stateMutability": "nonpayable",
					"type": "function"
				}
			],
			"devdoc": {
				"kind": "dev",
				"methods": {
					"owner()": {
						"details": "Returns the address of the current owner."
					},
					"renounceOwnership()": {
						"details": "Leaves the contract without owner. It will not be possible to call `onlyOwner` functions anymore. Can only be called by the current owner. NOTE: Renouncing ownership will leave the contract without an owner, thereby removing any functionality that is only available to the owner."
					},
					"transferOwnership(address)": {
						"details": "Transfers ownership of the contract to a new account (`newOwner`). Can only be called by the current owner."
					}
				},
				"version": 1
			},
			"evm": {
				"assembly": "    /* \"ERC20Token.sol\":15934:19746  contract Milo is IBEP20, Ownable {... */\n  mstore(0x40, 0x80)\n    /* \"ERC20Token.sol\":16275:16308  string private _name = \"Milo Inu\" */\n  mload(0x40)\n  dup1\n  0x40\n  add\n  0x40\n  mstore\n  dup1\n  0x08\n  dup2\n  mstore\n  0x20\n  add\n  0x4d696c6f20496e75000000000000000000000000000000000000000000000000\n  dup2\n  mstore\n  pop\n  0x07\n  swap1\n  dup2\n  tag_1\n  swap2\n  swap1\n  tag_2\n  jump\t// in\ntag_1:\n  pop\n    /* \"ERC20Token.sol\":16315:16346  string private _symbol = \"MILO\" */\n  mload(0x40)\n  dup1\n  0x40\n  add\n  0x40\n  mstore\n  dup1\n  0x04\n  dup2\n  mstore\n  0x20\n  add\n  0x4d494c4f00000000000000000000000000000000000000000000000000000000\n  dup2\n  mstore\n  pop\n  0x08\n  swap1\n  dup2\n  tag_3\n  swap2\n  swap1\n  tag_2\n  jump\t// in\ntag_3:\n  pop\n    /* \"ERC20Token.sol\":16379:16381  18 */\n  0x12\n    /* \"ERC20Token.sol\":16353:16381  uint8 private _decimals = 18 */\n  0x09\n  exp(0x0100, 0x00)\n  dup2\n  sload\n  dup2\n  0xff\n  mul\n  not\n  and\n  swap1\n  dup4\n  0xff\n  and\n  mul\n  or\n  swap1\n  sstore\n  pop\n    /* \"ERC20Token.sol\":16436:16445  _decimals */\n  0x09\n  0x00\n  swap1\n  sload\n  swap1\n  0x0100\n  exp\n  swap1\n  div\n  0xff\n  and\n    /* \"ERC20Token.sol\":16432:16434  10 */\n  0x0a\n    /* \"ERC20Token.sol\":16432:16445  10**_decimals */\n  tag_4\n  swap2\n  swap1\n  tag_5\n  jump\t// in\ntag_4:\n    /* \"ERC20Token.sol\":16414:16429  690000000000000 */\n  0x02738d24e52000\n    /* \"ERC20Token.sol\":16414:16445  690000000000000 * 10**_decimals */\n  tag_6\n  swap2\n  swap1\n  tag_7\n  jump\t// in\ntag_6:\n    /* \"ERC20Token.sol\":16388:16445  uint256 private _tTotal = 690000000000000 * 10**_decimals */\n  0x0a\n  sstore\n    /* \"ERC20Token.sol\":16458:16585  constructor() {... */\n  callvalue\n  dup1\n  iszero\n  tag_8\n  jumpi\n  0x00\n  dup1\n  revert\ntag_8:\n  pop\n    /* \"ERC20Token.sol\":13647:13664  address msgSender */\n  0x00\n    /* \"ERC20Token.sol\":13667:13679  _msgSender() */\n  tag_12\n    /* \"ERC20Token.sol\":13667:13677  _msgSender */\n  shl(0x20, tag_13)\n    /* \"ERC20Token.sol\":13667:13679  _msgSender() */\n  0x20\n  shr\n  jump\t// in\ntag_12:\n    /* \"ERC20Token.sol\":13647:13679  address msgSender = _msgSender() */\n  swap1\n  pop\n    /* \"ERC20Token.sol\":13699:13708  msgSender */\n  dup1\n    /* \"ERC20Token.sol\":13690:13696  _owner */\n  0x00\n  dup1\n    /* \"ERC20Token.sol\":13690:13708  _owner = msgSender */\n  0x0100\n  exp\n  dup2\n  sload\n  dup2\n  0xffffffffffffffffffffffffffffffffffffffff\n  mul\n  not\n  and\n  swap1\n  dup4\n  0xffffffffffffffffffffffffffffffffffffffff\n  and\n  mul\n  or\n  swap1\n  sstore\n  pop\n    /* \"ERC20Token.sol\":13757:13766  msgSender */\n  dup1\n    /* \"ERC20Token.sol\":13724:13767  OwnershipTransferred(address(0), msgSender) */\n  0xffffffffffffffffffffffffffffffffffffffff\n  and\n    /* \"ERC20Token.sol\":13753:13754  0 */\n  0x00\n    /* \"ERC20Token.sol\":13724:13767  OwnershipTransferred(address(0), msgSender) */\n  0xffffffffffffffffffffffffffffffffffffffff\n  and\n  0x8be0079c531659141344cd1fd0a4f28419497f9722a3daafe3b4186f6b6457e0\n  mload(0x40)\n  mload(0x40)\n  dup1\n  swap2\n  sub\n  swap1\n  log3\n    /* \"ERC20Token.sol\":13636:13775  {... */\n  pop\n    /* \"ERC20Token.sol\":16509:16516  _tTotal */\n  sload(0x0a)\n    /* \"ERC20Token.sol\":16483:16492  _balances */\n  0x03\n    /* \"ERC20Token.sol\":16483:16506  _balances[_msgSender()] */\n  0x00\n    /* \"ERC20Token.sol\":16493:16505  _msgSender() */\n  tag_15\n    /* \"ERC20Token.sol\":16493:16503  _msgSender */\n  shl(0x20, tag_13)\n    /* \"ERC20Token.sol\":16493:16505  _msgSender() */\n  0x20\n  shr\n  jump\t// in\ntag_15:\n    /* \"ERC20Token.sol\":16483:16506  _balances[_msgSender()] */\n  0xffffffffffffffffffffffffffffffffffffffff\n  and\n  0xffffffffffffffffffffffffffffffffffffffff\n  and\n  dup2\n  mstore\n  0x20\n  add\n  swap1\n  dup2\n  mstore\n  0x20\n  add\n  0x00\n  keccak256\n    /* \"ERC20Token.sol\":16483:16516  _balances[_msgSender()] = _tTotal */\n  dup2\n  swap1\n  sstore\n  pop\n    /* \"ERC20Token.sol\":16555:16567  _msgSender() */\n  tag_16\n    /* \"ERC20Token.sol\":16555:16565  _msgSender */\n  shl(0x20, tag_13)\n    /* \"ERC20Token.sol\":16555:16567  _msgSender() */\n  0x20\n  shr\n  jump\t// in\ntag_16:\n    /* \"ERC20Token.sol\":16534:16577  Transfer(address(0), _msgSender(), _tTotal) */\n  0xffffffffffffffffffffffffffffffffffffffff\n  and\n    /* \"ERC20Token.sol\":16551:16552  0 */\n  0x00\n    /* \"ERC20Token.sol\":16534:16577  Transfer(address(0), _msgSender(), _tTotal) */\n  0xffffffffffffffffffffffffffffffffffffffff\n  and\n  0xddf252ad1be2c89b69c2b068fc378daa952ba7f163c4a11628f55a4df523b3ef\n    /* \"ERC20Token.sol\":16569:16576  _tTotal */\n  sload(0x0a)\n    /* \"ERC20Token.sol\":16534:16577  Transfer(address(0), _msgSender(), _tTotal) */\n  mload(0x40)\n  tag_17\n  swap2\n  swap1\n  tag_18\n  jump\t// in\ntag_17:\n  mload(0x40)\n  dup1\n  swap2\n  sub\n  swap1\n  log3\n    /* \"ERC20Token.sol\":15934:19746  contract Milo is IBEP20, Ownable {... */\n  jump(tag_19)\n    /* \"ERC20Token.sol\":5814:5929  function _msgSender() internal view virtual returns (address payable) {... */\ntag_13:\n    /* \"ERC20Token.sol\":5867:5882  address payable */\n  0x00\n    /* \"ERC20Token.sol\":5910:5920  msg.sender */\n  caller\n    /* \"ERC20Token.sol\":5895:5921  return payable(msg.sender) */\n  swap1\n  pop\n    /* \"ERC20Token.sol\":5814:5929  function _msgSender() internal view virtual returns (address payable) {... */\n  swap1\n  jump\t// out\n    /* \"#utility.yul\":7:106   */\ntag_21:\n    /* \"#utility.yul\":59:65   */\n  0x00\n    /* \"#utility.yul\":93:98   */\n  dup2\n    /* \"#utility.yul\":87:99   */\n  mload\n    /* \"#utility.yul\":77:99   */\n  swap1\n  pop\n    /* \"#utility.yul\":7:106   */\n  swap2\n  swap1\n  pop\n  jump\t// out\n    /* \"#utility.yul\":112:292   */\ntag_22:\n    /* \"#utility.yul\":160:237   */\n  0x4e487b7100000000000000000000000000000000000000000000000000000000\n    /* \"#utility.yul\":157:158   */\n  0x00\n    /* \"#utility.yul\":150:238   */\n  mstore\n    /* \"#utility.yul\":257:261   */\n  0x41\n    /* \"#utility.yul\":254:255   */\n  0x04\n    /* \"#utility.yul\":247:262   */\n  mstore\n    /* \"#utility.yul\":281:285   */\n  0x24\n    /* \"#utility.yul\":278:279   */\n  0x00\n    /* \"#utility.yul\":271:286   */\n  revert\n    /* \"#utility.yul\":298:478   */\ntag_23:\n    /* \"#utility.yul\":346:423   */\n  0x4e487b7100000000000000000000000000000000000000000000000000000000\n    /* \"#utility.yul\":343:344   */\n  0x00\n    /* \"#utility.yul\":336:424   */\n  mstore\n    /* \"#utility.yul\":443:447   */\n  0x22\n    /* \"#utility.yul\":440:441   */\n  0x04\n    /* \"#utility.yul\":433:448   */\n  mstore\n    /* \"#utility.yul\":467:471   */\n  0x24\n    /* \"#utility.yul\":464:465   */\n  0x00\n    /* \"#utility.yul\":457:472   */\n  revert\n    /* \"#utility.yul\":484:804   */\ntag_24:\n    /* \"#utility.yul\":528:534   */\n  0x00\n    /* \"#utility.yul\":565:566   */\n  0x02\n    /* \"#utility.yul\":559:563   */\n  dup3\n    /* \"#utility.yul\":555:567   */\n  div\n    /* \"#utility.yul\":545:567   */\n  swap1\n  pop\n    /* \"#utility.yul\":612:613   */\n  0x01\n    /* \"#utility.yul\":606:610   */\n  dup3\n    /* \"#utility.yul\":602:614   */\n  and\n    /* \"#utility.yul\":633:651   */\n  dup1\n    /* \"#utility.yul\":623:704   */\n  tag_52\n  jumpi\n    /* \"#utility.yul\":689:693   */\n  0x7f\n    /* \"#utility.yul\":681:687   */\n  dup3\n    /* \"#utility.yul\":677:694   */\n  and\n    /* \"#utility.yul\":667:694   */\n  swap2\n  pop\n    /* \"#utility.yul\":623:704   */\ntag_52:\n    /* \"#utility.yul\":751:753   */\n  0x20\n    /* \"#utility.yul\":743:749   */\n  dup3\n    /* \"#utility.yul\":740:754   */\n  lt\n    /* \"#utility.yul\":720:738   */\n  dup2\n    /* \"#utility.yul\":717:755   */\n  sub\n    /* \"#utility.yul\":714:798   */\n  tag_53\n  jumpi\n    /* \"#utility.yul\":770:788   */\n  tag_54\n  tag_23\n  jump\t// in\ntag_54:\n    /* \"#utility.yul\":714:798   */\ntag_53:\n    /* \"#utility.yul\":535:804   */\n  pop\n    /* \"#utility.yul\":484:804   */\n  swap2\n  swap1\n  pop\n  jump\t// out\n    /* \"#utility.yul\":810:951   */\ntag_25:\n    /* \"#utility.yul\":859:863   */\n  0x00\n    /* \"#utility.yul\":882:885   */\n  dup2\n    /* \"#utility.yul\":874:885   */\n  swap1\n  pop\n    /* \"#utility.yul\":905:908   */\n  dup2\n    /* \"#utility.yul\":902:903   */\n  0x00\n    /* \"#utility.yul\":895:909   */\n  mstore\n    /* \"#utility.yul\":939:943   */\n  0x20\n    /* \"#utility.yul\":936:937   */\n  0x00\n    /* \"#utility.yul\":926:944   */\n  keccak256\n    /* \"#utility.yul\":918:944   */\n  swap1\n  pop\n    /* \"#utility.yul\":810:951   */\n  swap2\n  swap1\n  pop\n  jump\t// out\n    /* \"#utility.yul\":957:1050   */\ntag_26:\n    /* \"#utility.yul\":994:1000   */\n  0x00\n    /* \"#utility.yul\":1041:1043   */\n  0x20\n    /* \"#utility.yul\":1036:1038   */\n  0x1f\n    /* \"#utility.yul\":1029:1034   */\n  dup4\n    /* \"#utility.yul\":1025:1039   */\n  add\n    /* \"#utility.yul\":1021:1044   */\n  div\n    /* \"#utility.yul\":1011:1044   */\n  swap1\n  pop\n    /* \"#utility.yul\":957:1050   */\n  swap2\n  swap1\n  pop\n  jump\t// out\n    /* \"#utility.yul\":1056:1163   */\ntag_27:\n    /* \"#utility.yul\":1100:1108   */\n  0x00\n    /* \"#utility.yul\":1150:1155   */\n  dup3\n    /* \"#utility.yul\":1144:1148   */\n  dup3\n    /* \"#utility.yul\":1140:1156   */\n  shl\n    /* \"#utility.yul\":1119:1156   */\n  swap1\n  pop\n    /* \"#utility.yul\":1056:1163   */\n  swap3\n  swap2\n  pop\n  pop\n  jump\t// out\n    /* \"#utility.yul\":1169:1562   */\ntag_28:\n    /* \"#utility.yul\":1238:1244   */\n  0x00\n    /* \"#utility.yul\":1288:1289   */\n  0x08\n    /* \"#utility.yul\":1276:1286   */\n  dup4\n    /* \"#utility.yul\":1272:1290   */\n  mul\n    /* \"#utility.yul\":1311:1408   */\n  tag_59\n    /* \"#utility.yul\":1341:1407   */\n  0xffffffffffffffffffffffffffffffffffffffffffffffffffffffffffffffff\n    /* \"#utility.yul\":1330:1339   */\n  dup3\n    /* \"#utility.yul\":1311:1408   */\n  tag_27\n  jump\t// in\ntag_59:\n    /* \"#utility.yul\":1429:1468   */\n  tag_60\n    /* \"#utility.yul\":1459:1467   */\n  dup7\n    /* \"#utility.yul\":1448:1457   */\n  dup4\n    /* \"#utility.yul\":1429:1468   */\n  tag_27\n  jump\t// in\ntag_60:\n    /* \"#utility.yul\":1417:1468   */\n  swap6\n  pop\n    /* \"#utility.yul\":1501:1505   */\n  dup1\n    /* \"#utility.yul\":1497:1506   */\n  not\n    /* \"#utility.yul\":1490:1495   */\n  dup5\n    /* \"#utility.yul\":1486:1507   */\n  and\n    /* \"#utility.yul\":1477:1507   */\n  swap4\n  pop\n    /* \"#utility.yul\":1550:1554   */\n  dup1\n    /* \"#utility.yul\":1540:1548   */\n  dup7\n    /* \"#utility.yul\":1536:1555   */\n  and\n    /* \"#utility.yul\":1529:1534   */\n  dup5\n    /* \"#utility.yul\":1526:1556   */\n  or\n    /* \"#utility.yul\":1516:1556   */\n  swap3\n  pop\n    /* \"#utility.yul\":1245:1562   */\n  pop\n  pop\n    /* \"#utility.yul\":1169:1562   */\n  swap4\n  swap3\n  pop\n  pop\n  pop\n  jump\t// out\n    /* \"#utility.yul\":1568:1645   */\ntag_29:\n    /* \"#utility.yul\":1605:1612   */\n  0x00\n    /* \"#utility.yul\":1634:1639   */\n  dup2\n    /* \"#utility.yul\":1623:1639   */\n  swap1\n  pop\n    /* \"#utility.yul\":1568:1645   */\n  swap2\n  swap1\n  pop\n  jump\t// out\n    /* \"#utility.yul\":1651:1711   */\ntag_30:\n    /* \"#utility.yul\":1679:1682   */\n  0x00\n    /* \"#utility.yul\":1700:1705   */\n  dup2\n    /* \"#utility.yul\":1693:1705   */\n  swap1\n  pop\n    /* \"#utility.yul\":1651:1711   */\n  swap2\n  swap1\n  pop\n  jump\t// out\n    /* \"#utility.yul\":1717:1859   */\ntag_31:\n    /* \"#utility.yul\":1767:1776   */\n  0x00\n    /* \"#utility.yul\":1800:1853   */\n  tag_64\n    /* \"#utility.yul\":1818:1852   */\n  tag_65\n    /* \"#utility.yul\":1827:1851   */\n  tag_66\n    /* \"#utility.yul\":1845:1850   */\n  dup5\n    /* \"#utility.yul\":1827:1851   */\n  tag_29\n  jump\t// in\ntag_66:\n    /* \"#utility.yul\":1818:1852   */\n  tag_30\n  jump\t// in\ntag_65:\n    /* \"#utility.yul\":1800:1853   */\n  tag_29\n  jump\t// in\ntag_64:\n    /* \"#utility.yul\":1787:1853   */\n  swap1\n  pop\n    /* \"#utility.yul\":1717:1859   */\n  swap2\n  swap1\n  pop\n  jump\t// out\n    /* \"#utility.yul\":1865:1940   */\ntag_32:\n    /* \"#utility.yul\":1908:1911   */\n  0x00\n    /* \"#utility.yul\":1929:1934   */\n  dup2\n    /* \"#utility.yul\":1922:1934   */\n  swap1\n  pop\n    /* \"#utility.yul\":1865:1940   */\n  swap2\n  swap1\n  pop\n  jump\t// out\n    /* \"#utility.yul\":1946:2215   */\ntag_33:\n    /* \"#utility.yul\":2056:2095   */\n  tag_69\n    /* \"#utility.yul\":2087:2094   */\n  dup4\n    /* \"#utility.yul\":2056:2095   */\n  tag_31\n  jump\t// in\ntag_69:\n    /* \"#utility.yul\":2117:2208   */\n  tag_70\n    /* \"#utility.yul\":2166:2207   */\n  tag_71\n    /* \"#utility.yul\":2190:2206   */\n  dup3\n    /* \"#utility.yul\":2166:2207   */\n  tag_32\n  jump\t// in\ntag_71:\n    /* \"#utility.yul\":2158:2164   */\n  dup5\n    /* \"#utility.yul\":2151:2155   */\n  dup5\n    /* \"#utility.yul\":2145:2156   */\n  sload\n    /* \"#utility.yul\":2117:2208   */\n  tag_28\n  jump\t// in\ntag_70:\n    /* \"#utility.yul\":2111:2115   */\n  dup3\n    /* \"#utility.yul\":2104:2209   */\n  sstore\n    /* \"#utility.yul\":2022:2215   */\n  pop\n    /* \"#utility.yul\":1946:2215   */\n  pop\n  pop\n  pop\n  jump\t// out\n    /* \"#utility.yul\":2221:2294   */\ntag_34:\n    /* \"#utility.yul\":2266:2269   */\n  0x00\n    /* \"#utility.yul\":2221:2294   */\n  swap1\n  jump\t// out\n    /* \"#utility.yul\":2300:2489   */\ntag_35:\n    /* \"#utility.yul\":2377:2409   */\n  tag_74\n  tag_34\n  jump\t// in\ntag_74:\n    /* \"#utility.yul\":2418:2483   */\n  tag_75\n    /* \"#utility.yul\":2476:2482   */\n  dup2\n    /* \"#utility.yul\":2468:2474   */\n  dup5\n    /* \"#utility.yul\":2462:2466   */\n  dup5\n    /* \"#utility.yul\":2418:2483   */\n  tag_33\n  jump\t// in\ntag_75:\n    /* \"#utility.yul\":2353:2489   */\n  pop\n    /* \"#utility.yul\":2300:2489   */\n  pop\n  pop\n  jump\t// out\n    /* \"#utility.yul\":2495:2681   */\ntag_36:\n    /* \"#utility.yul\":2555:2675   */\ntag_77:\n    /* \"#utility.yul\":2572:2575   */\n  dup2\n    /* \"#utility.yul\":2565:2570   */\n  dup2\n    /* \"#utility.yul\":2562:2576   */\n  lt\n    /* \"#utility.yul\":2555:2675   */\n  iszero\n  tag_79\n  jumpi\n    /* \"#utility.yul\":2626:2665   */\n  tag_80\n    /* \"#utility.yul\":2663:2664   */\n  0x00\n    /* \"#utility.yul\":2656:2661   */\n  dup3\n    /* \"#utility.yul\":2626:2665   */\n  tag_35\n  jump\t// in\ntag_80:\n    /* \"#utility.yul\":2599:2600   */\n  0x01\n    /* \"#utility.yul\":2592:2597   */\n  dup2\n    /* \"#utility.yul\":2588:2601   */\n  add\n    /* \"#utility.yul\":2579:2601   */\n  swap1\n  pop\n    /* \"#utility.yul\":2555:2675   */\n  jump(tag_77)\ntag_79:\n    /* \"#utility.yul\":2495:2681   */\n  pop\n  pop\n  jump\t// out\n    /* \"#utility.yul\":2687:3230   */\ntag_37:\n    /* \"#utility.yul\":2788:2790   */\n  0x1f\n    /* \"#utility.yul\":2783:2786   */\n  dup3\n    /* \"#utility.yul\":2780:2791   */\n  gt\n    /* \"#utility.yul\":2777:3223   */\n  iszero\n  tag_82\n  jumpi\n    /* \"#utility.yul\":2822:2860   */\n  tag_83\n    /* \"#utility.yul\":2854:2859   */\n  dup2\n    /* \"#utility.yul\":2822:2860   */\n  tag_25\n  jump\t// in\ntag_83:\n    /* \"#utility.yul\":2906:2935   */\n  tag_84\n    /* \"#utility.yul\":2924:2934   */\n  dup5\n    /* \"#utility.yul\":2906:2935   */\n  tag_26\n  jump\t// in\ntag_84:\n    /* \"#utility.yul\":2896:2904   */\n  dup2\n    /* \"#utility.yul\":2892:2936   */\n  add\n    /* \"#utility.yul\":3089:3091   */\n  0x20\n    /* \"#utility.yul\":3077:3087   */\n  dup6\n    /* \"#utility.yul\":3074:3092   */\n  lt\n    /* \"#utility.yul\":3071:3120   */\n  iszero\n  tag_85\n  jumpi\n    /* \"#utility.yul\":3110:3118   */\n  dup2\n    /* \"#utility.yul\":3095:3118   */\n  swap1\n  pop\n    /* \"#utility.yul\":3071:3120   */\ntag_85:\n    /* \"#utility.yul\":3133:3213   */\n  tag_86\n    /* \"#utility.yul\":3189:3211   */\n  tag_87\n    /* \"#utility.yul\":3207:3210   */\n  dup6\n    /* \"#utility.yul\":3189:3211   */\n  tag_26\n  jump\t// in\ntag_87:\n    /* \"#utility.yul\":3179:3187   */\n  dup4\n    /* \"#utility.yul\":3175:3212   */\n  add\n    /* \"#utility.yul\":3162:3173   */\n  dup3\n    /* \"#utility.yul\":3133:3213   */\n  tag_36\n  jump\t// in\ntag_86:\n    /* \"#utility.yul\":2792:3223   */\n  pop\n  pop\n    /* \"#utility.yul\":2777:3223   */\ntag_82:\n    /* \"#utility.yul\":2687:3230   */\n  pop\n  pop\n  pop\n  jump\t// out\n    /* \"#utility.yul\":3236:3353   */\ntag_38:\n    /* \"#utility.yul\":3290:3298   */\n  0x00\n    /* \"#utility.yul\":3340:3345   */\n  dup3\n    /* \"#utility.yul\":3334:3338   */\n  dup3\n    /* \"#utility.yul\":3330:3346   */\n  shr\n    /* \"#utility.yul\":3309:3346   */\n  swap1\n  pop\n    /* \"#utility.yul\":3236:3353   */\n  swap3\n  swap2\n  pop\n  pop\n  jump\t// out\n    /* \"#utility.yul\":3359:3528   */\ntag_39:\n    /* \"#utility.yul\":3403:3409   */\n  0x00\n    /* \"#utility.yul\":3436:3487   */\n  tag_90\n    /* \"#utility.yul\":3484:3485   */\n  0x00\n    /* \"#utility.yul\":3480:3486   */\n  not\n    /* \"#utility.yul\":3472:3477   */\n  dup5\n    /* \"#utility.yul\":3469:3470   */\n  0x08\n    /* \"#utility.yul\":3465:3478   */\n  mul\n    /* \"#utility.yul\":3436:3487   */\n  tag_38\n  jump\t// in\ntag_90:\n    /* \"#utility.yul\":3432:3488   */\n  not\n    /* \"#utility.yul\":3517:3521   */\n  dup1\n    /* \"#utility.yul\":3511:3515   */\n  dup4\n    /* \"#utility.yul\":3507:3522   */\n  and\n    /* \"#utility.yul\":3497:3522   */\n  swap2\n  pop\n    /* \"#utility.yul\":3410:3528   */\n  pop\n    /* \"#utility.yul\":3359:3528   */\n  swap3\n  swap2\n  pop\n  pop\n  jump\t// out\n    /* \"#utility.yul\":3533:3828   */\ntag_40:\n    /* \"#utility.yul\":3609:3613   */\n  0x00\n    /* \"#utility.yul\":3755:3784   */\n  tag_92\n    /* \"#utility.yul\":3780:3783   */\n  dup4\n    /* \"#utility.yul\":3774:3778   */\n  dup4\n    /* \"#utility.yul\":3755:3784   */\n  tag_39\n  jump\t// in\ntag_92:\n    /* \"#utility.yul\":3747:3784   */\n  swap2\n  pop\n    /* \"#utility.yul\":3817:3820   */\n  dup3\n    /* \"#utility.yul\":3814:3815   */\n  0x02\n    /* \"#utility.yul\":3810:3821   */\n  mul\n    /* \"#utility.yul\":3804:3808   */\n  dup3\n    /* \"#utility.yul\":3801:3822   */\n  or\n    /* \"#utility.yul\":3793:3822   */\n  swap1\n  pop\n    /* \"#utility.yul\":3533:3828   */\n  swap3\n  swap2\n  pop\n  pop\n  jump\t// out\n    /* \"#utility.yul\":3833:5228   */\ntag_2:\n    /* \"#utility.yul\":3950:3987   */\n  tag_94\n    /* \"#utility.yul\":3983:3986   */\n  dup3\n    /* \"#utility.yul\":3950:3987   */\n  tag_21\n  jump\t// in\ntag_94:\n    /* \"#utility.yul\":4052:4070   */\n  0xffffffffffffffff\n    /* \"#utility.yul\":4044:4050   */\n  dup2\n    /* \"#utility.yul\":4041:4071   */\n  gt\n    /* \"#utility.yul\":4038:4094   */\n  iszero\n  tag_95\n  jumpi\n    /* \"#utility.yul\":4074:4092   */\n  tag_96\n  tag_22\n  jump\t// in\ntag_96:\n    /* \"#utility.yul\":4038:4094   */\ntag_95:\n    /* \"#utility.yul\":4118:4156   */\n  tag_97\n    /* \"#utility.yul\":4150:4154   */\n  dup3\n    /* \"#utility.yul\":4144:4155   */\n  sload\n    /* \"#utility.yul\":4118:4156   */\n  tag_24\n  jump\t// in\ntag_97:\n    /* \"#utility.yul\":4203:4270   */\n  tag_98\n    /* \"#utility.yul\":4263:4269   */\n  dup3\n    /* \"#utility.yul\":4255:4261   */\n  dup3\n    /* \"#utility.yul\":4249:4253   */\n  dup6\n    /* \"#utility.yul\":4203:4270   */\n  tag_37\n  jump\t// in\ntag_98:\n    /* \"#utility.yul\":4297:4298   */\n  0x00\n    /* \"#utility.yul\":4321:4325   */\n  0x20\n    /* \"#utility.yul\":4308:4325   */\n  swap1\n  pop\n    /* \"#utility.yul\":4353:4355   */\n  0x1f\n    /* \"#utility.yul\":4345:4351   */\n  dup4\n    /* \"#utility.yul\":4342:4356   */\n  gt\n    /* \"#utility.yul\":4370:4371   */\n  0x01\n    /* \"#utility.yul\":4365:4983   */\n  dup2\n  eq\n  tag_100\n  jumpi\n    /* \"#utility.yul\":5027:5028   */\n  0x00\n    /* \"#utility.yul\":5044:5050   */\n  dup5\n    /* \"#utility.yul\":5041:5118   */\n  iszero\n  tag_101\n  jumpi\n    /* \"#utility.yul\":5093:5102   */\n  dup3\n    /* \"#utility.yul\":5088:5091   */\n  dup8\n    /* \"#utility.yul\":5084:5103   */\n  add\n    /* \"#utility.yul\":5078:5104   */\n  mload\n    /* \"#utility.yul\":5069:5104   */\n  swap1\n  pop\n    /* \"#utility.yul\":5041:5118   */\ntag_101:\n    /* \"#utility.yul\":5144:5211   */\n  tag_102\n    /* \"#utility.yul\":5204:5210   */\n  dup6\n    /* \"#utility.yul\":5197:5202   */\n  dup3\n    /* \"#utility.yul\":5144:5211   */\n  tag_40\n  jump\t// in\ntag_102:\n    /* \"#utility.yul\":5138:5142   */\n  dup7\n    /* \"#utility.yul\":5131:5212   */\n  sstore\n    /* \"#utility.yul\":5000:5222   */\n  pop\n    /* \"#utility.yul\":4335:5222   */\n  jump(tag_99)\n    /* \"#utility.yul\":4365:4983   */\ntag_100:\n    /* \"#utility.yul\":4417:4421   */\n  0x1f\n    /* \"#utility.yul\":4413:4422   */\n  not\n    /* \"#utility.yul\":4405:4411   */\n  dup5\n    /* \"#utility.yul\":4401:4423   */\n  and\n    /* \"#utility.yul\":4451:4488   */\n  tag_103\n    /* \"#utility.yul\":4483:4487   */\n  dup7\n    /* \"#utility.yul\":4451:4488   */\n  tag_25\n  jump\t// in\ntag_103:\n    /* \"#utility.yul\":4510:4511   */\n  0x00\n    /* \"#utility.yul\":4524:4732   */\ntag_104:\n    /* \"#utility.yul\":4538:4545   */\n  dup3\n    /* \"#utility.yul\":4535:4536   */\n  dup2\n    /* \"#utility.yul\":4532:4546   */\n  lt\n    /* \"#utility.yul\":4524:4732   */\n  iszero\n  tag_106\n  jumpi\n    /* \"#utility.yul\":4617:4626   */\n  dup5\n    /* \"#utility.yul\":4612:4615   */\n  dup10\n    /* \"#utility.yul\":4608:4627   */\n  add\n    /* \"#utility.yul\":4602:4628   */\n  mload\n    /* \"#utility.yul\":4594:4600   */\n  dup3\n    /* \"#utility.yul\":4587:4629   */\n  sstore\n    /* \"#utility.yul\":4668:4669   */\n  0x01\n    /* \"#utility.yul\":4660:4666   */\n  dup3\n    /* \"#utility.yul\":4656:4670   */\n  add\n    /* \"#utility.yul\":4646:4670   */\n  swap2\n  pop\n    /* \"#utility.yul\":4715:4717   */\n  0x20\n    /* \"#utility.yul\":4704:4713   */\n  dup6\n    /* \"#utility.yul\":4700:4718   */\n  add\n    /* \"#utility.yul\":4687:4718   */\n  swap5\n  pop\n    /* \"#utility.yul\":4561:4565   */\n  0x20\n    /* \"#utility.yul\":4558:4559   */\n  dup2\n    /* \"#utility.yul\":4554:4566   */\n  add\n    /* \"#utility.yul\":4549:4566   */\n  swap1\n  pop\n    /* \"#utility.yul\":4524:4732   */\n  jump(tag_104)\ntag_106:\n    /* \"#utility.yul\":4760:4766   */\n  dup7\n    /* \"#utility.yul\":4751:4758   */\n  dup4\n    /* \"#utility.yul\":4748:4767   */\n  lt\n    /* \"#utility.yul\":4745:4924   */\n  iszero\n  tag_107\n  jumpi\n    /* \"#utility.yul\":4818:4827   */\n  dup5\n    /* \"#utility.yul\":4813:4816   */\n  dup10\n    /* \"#utility.yul\":4809:4828   */\n  add\n    /* \"#utility.yul\":4803:4829   */\n  mload\n    /* \"#utility.yul\":4861:4909   */\n  tag_108\n    /* \"#utility.yul\":4903:4907   */\n  0x1f\n    /* \"#utility.yul\":4895:4901   */\n  dup10\n    /* \"#utility.yul\":4891:4908   */\n  and\n    /* \"#utility.yul\":4880:4889   */\n  dup3\n    /* \"#utility.yul\":4861:4909   */\n  tag_39\n  jump\t// in\ntag_108:\n    /* \"#utility.yul\":4853:4859   */\n  dup4\n    /* \"#utility.yul\":4846:4910   */\n  sstore\n    /* \"#utility.yul\":4768:4924   */\n  pop\n    /* \"#utility.yul\":4745:4924   */\ntag_107:\n    /* \"#utility.yul\":4970:4971   */\n  0x01\n    /* \"#utility.yul\":4966:4967   */\n  0x02\n    /* \"#utility.yul\":4958:4964   */\n  dup9\n    /* \"#utility.yul\":4954:4968   */\n  mul\n    /* \"#utility.yul\":4950:4972   */\n  add\n    /* \"#utility.yul\":4944:4948   */\n  dup9\n    /* \"#utility.yul\":4937:4973   */\n  sstore\n    /* \"#utility.yul\":4372:4983   */\n  pop\n  pop\n  pop\n    /* \"#utility.yul\":4335:5222   */\ntag_99:\n  pop\n    /* \"#utility.yul\":3925:5228   */\n  pop\n  pop\n  pop\n    /* \"#utility.yul\":3833:5228   */\n  pop\n  pop\n  jump\t// out\n    /* \"#utility.yul\":5234:5414   */\ntag_41:\n    /* \"#utility.yul\":5282:5359   */\n  0x4e487b7100000000000000000000000000000000000000000000000000000000\n    /* \"#utility.yul\":5279:5280   */\n  0x00\n    /* \"#utility.yul\":5272:5360   */\n  mstore\n    /* \"#utility.yul\":5379:5383   */\n  0x11\n    /* \"#utility.yul\":5376:5377   */\n  0x04\n    /* \"#utility.yul\":5369:5384   */\n  mstore\n    /* \"#utility.yul\":5403:5407   */\n  0x24\n    /* \"#utility.yul\":5400:5401   */\n  0x00\n    /* \"#utility.yul\":5393:5408   */\n  revert\n    /* \"#utility.yul\":5420:5522   */\ntag_42:\n    /* \"#utility.yul\":5462:5470   */\n  0x00\n    /* \"#utility.yul\":5509:5514   */\n  dup2\n    /* \"#utility.yul\":5506:5507   */\n  0x01\n    /* \"#utility.yul\":5502:5515   */\n  shr\n    /* \"#utility.yul\":5481:5515   */\n  swap1\n  pop\n    /* \"#utility.yul\":5420:5522   */\n  swap2\n  swap1\n  pop\n  jump\t// out\n    /* \"#utility.yul\":5528:6376   */\ntag_43:\n    /* \"#utility.yul\":5589:5594   */\n  0x00\n    /* \"#utility.yul\":5596:5600   */\n  dup1\n    /* \"#utility.yul\":5620:5626   */\n  dup3\n    /* \"#utility.yul\":5611:5626   */\n  swap2\n  pop\n    /* \"#utility.yul\":5644:5649   */\n  dup4\n    /* \"#utility.yul\":5635:5649   */\n  swap1\n  pop\n    /* \"#utility.yul\":5658:6370   */\ntag_112:\n    /* \"#utility.yul\":5679:5680   */\n  0x01\n    /* \"#utility.yul\":5669:5677   */\n  dup6\n    /* \"#utility.yul\":5666:5681   */\n  gt\n    /* \"#utility.yul\":5658:6370   */\n  iszero\n  tag_114\n  jumpi\n    /* \"#utility.yul\":5774:5778   */\n  dup1\n    /* \"#utility.yul\":5769:5772   */\n  dup7\n    /* \"#utility.yul\":5765:5779   */\n  div\n    /* \"#utility.yul\":5759:5763   */\n  dup2\n    /* \"#utility.yul\":5756:5780   */\n  gt\n    /* \"#utility.yul\":5753:5803   */\n  iszero\n  tag_115\n  jumpi\n    /* \"#utility.yul\":5783:5801   */\n  tag_116\n  tag_41\n  jump\t// in\ntag_116:\n    /* \"#utility.yul\":5753:5803   */\ntag_115:\n    /* \"#utility.yul\":5833:5834   */\n  0x01\n    /* \"#utility.yul\":5823:5831   */\n  dup6\n    /* \"#utility.yul\":5819:5835   */\n  and\n    /* \"#utility.yul\":5816:6267   */\n  iszero\n  tag_117\n  jumpi\n    /* \"#utility.yul\":6248:6252   */\n  dup1\n    /* \"#utility.yul\":6241:6246   */\n  dup3\n    /* \"#utility.yul\":6237:6253   */\n  mul\n    /* \"#utility.yul\":6228:6253   */\n  swap2\n  pop\n    /* \"#utility.yul\":5816:6267   */\ntag_117:\n    /* \"#utility.yul\":6298:6302   */\n  dup1\n    /* \"#utility.yul\":6292:6296   */\n  dup2\n    /* \"#utility.yul\":6288:6303   */\n  mul\n    /* \"#utility.yul\":6280:6303   */\n  swap1\n  pop\n    /* \"#utility.yul\":6328:6360   */\n  tag_118\n    /* \"#utility.yul\":6351:6359   */\n  dup6\n    /* \"#utility.yul\":6328:6360   */\n  tag_42\n  jump\t// in\ntag_118:\n    /* \"#utility.yul\":6316:6360   */\n  swap5\n  pop\n    /* \"#utility.yul\":5658:6370   */\n  jump(tag_112)\ntag_114:\n    /* \"#utility.yul\":5528:6376   */\n  swap5\n  pop\n  swap5\n  swap3\n  pop\n  pop\n  pop\n  jump\t// out\n    /* \"#utility.yul\":6382:7455   */\ntag_44:\n    /* \"#utility.yul\":6436:6441   */\n  0x00\n    /* \"#utility.yul\":6627:6635   */\n  dup3\n    /* \"#utility.yul\":6617:6657   */\n  tag_120\n  jumpi\n    /* \"#utility.yul\":6648:6649   */\n  0x01\n    /* \"#utility.yul\":6639:6649   */\n  swap1\n  pop\n    /* \"#utility.yul\":6650:6655   */\n  jump(tag_119)\n    /* \"#utility.yul\":6617:6657   */\ntag_120:\n    /* \"#utility.yul\":6676:6680   */\n  dup2\n    /* \"#utility.yul\":6666:6702   */\n  tag_121\n  jumpi\n    /* \"#utility.yul\":6693:6694   */\n  0x00\n    /* \"#utility.yul\":6684:6694   */\n  swap1\n  pop\n    /* \"#utility.yul\":6695:6700   */\n  jump(tag_119)\n    /* \"#utility.yul\":6666:6702   */\ntag_121:\n    /* \"#utility.yul\":6762:6766   */\n  dup2\n    /* \"#utility.yul\":6810:6811   */\n  0x01\n    /* \"#utility.yul\":6805:6832   */\n  dup2\n  eq\n  tag_123\n  jumpi\n    /* \"#utility.yul\":6846:6847   */\n  0x02\n    /* \"#utility.yul\":6841:7032   */\n  dup2\n  eq\n  tag_124\n  jumpi\n    /* \"#utility.yul\":6755:7032   */\n  jump(tag_122)\n    /* \"#utility.yul\":6805:6832   */\ntag_123:\n    /* \"#utility.yul\":6823:6824   */\n  0x01\n    /* \"#utility.yul\":6814:6824   */\n  swap2\n  pop\n    /* \"#utility.yul\":6825:6830   */\n  pop\n  jump(tag_119)\n    /* \"#utility.yul\":6841:7032   */\ntag_124:\n    /* \"#utility.yul\":6886:6889   */\n  0xff\n    /* \"#utility.yul\":6876:6884   */\n  dup5\n    /* \"#utility.yul\":6873:6890   */\n  gt\n    /* \"#utility.yul\":6870:6913   */\n  iszero\n  tag_125\n  jumpi\n    /* \"#utility.yul\":6893:6911   */\n  tag_126\n  tag_41\n  jump\t// in\ntag_126:\n    /* \"#utility.yul\":6870:6913   */\ntag_125:\n    /* \"#utility.yul\":6942:6950   */\n  dup4\n    /* \"#utility.yul\":6939:6940   */\n  0x02\n    /* \"#utility.yul\":6935:6951   */\n  exp\n    /* \"#utility.yul\":6926:6951   */\n  swap2\n  pop\n    /* \"#utility.yul\":6977:6980   */\n  dup5\n    /* \"#utility.yul\":6970:6975   */\n  dup3\n    /* \"#utility.yul\":6967:6981   */\n  gt\n    /* \"#utility.yul\":6964:7004   */\n  iszero\n  tag_127\n  jumpi\n    /* \"#utility.yul\":6984:7002   */\n  tag_128\n  tag_41\n  jump\t// in\ntag_128:\n    /* \"#utility.yul\":6964:7004   */\ntag_127:\n    /* \"#utility.yul\":7017:7022   */\n  pop\n  jump(tag_119)\n    /* \"#utility.yul\":6755:7032   */\ntag_122:\n  pop\n    /* \"#utility.yul\":7141:7143   */\n  0x20\n    /* \"#utility.yul\":7131:7139   */\n  dup4\n    /* \"#utility.yul\":7128:7144   */\n  lt\n    /* \"#utility.yul\":7122:7125   */\n  0x0133\n    /* \"#utility.yul\":7116:7120   */\n  dup4\n    /* \"#utility.yul\":7113:7126   */\n  lt\n    /* \"#utility.yul\":7109:7145   */\n  and\n    /* \"#utility.yul\":7091:7093   */\n  0x4e\n    /* \"#utility.yul\":7081:7089   */\n  dup5\n    /* \"#utility.yul\":7078:7094   */\n  lt\n    /* \"#utility.yul\":7073:7075   */\n  0x0b\n    /* \"#utility.yul\":7067:7071   */\n  dup5\n    /* \"#utility.yul\":7064:7076   */\n  lt\n    /* \"#utility.yul\":7060:7095   */\n  and\n    /* \"#utility.yul\":7044:7155   */\n  or\n    /* \"#utility.yul\":7041:7287   */\n  iszero\n  tag_129\n  jumpi\n    /* \"#utility.yul\":7197:7205   */\n  dup3\n    /* \"#utility.yul\":7191:7195   */\n  dup3\n    /* \"#utility.yul\":7187:7206   */\n  exp\n    /* \"#utility.yul\":7178:7206   */\n  swap1\n  pop\n    /* \"#utility.yul\":7232:7235   */\n  dup4\n    /* \"#utility.yul\":7225:7230   */\n  dup2\n    /* \"#utility.yul\":7222:7236   */\n  gt\n    /* \"#utility.yul\":7219:7259   */\n  iszero\n  tag_130\n  jumpi\n    /* \"#utility.yul\":7239:7257   */\n  tag_131\n  tag_41\n  jump\t// in\ntag_131:\n    /* \"#utility.yul\":7219:7259   */\ntag_130:\n    /* \"#utility.yul\":7272:7277   */\n  jump(tag_119)\n    /* \"#utility.yul\":7041:7287   */\ntag_129:\n    /* \"#utility.yul\":7312:7354   */\n  tag_132\n    /* \"#utility.yul\":7350:7353   */\n  dup5\n    /* \"#utility.yul\":7340:7348   */\n  dup5\n    /* \"#utility.yul\":7334:7338   */\n  dup5\n    /* \"#utility.yul\":7331:7332   */\n  0x01\n    /* \"#utility.yul\":7312:7354   */\n  tag_43\n  jump\t// in\ntag_132:\n    /* \"#utility.yul\":7297:7354   */\n  swap3\n  pop\n  swap1\n  pop\n    /* \"#utility.yul\":7386:7390   */\n  dup2\n    /* \"#utility.yul\":7381:7384   */\n  dup5\n    /* \"#utility.yul\":7377:7391   */\n  div\n    /* \"#utility.yul\":7370:7375   */\n  dup2\n    /* \"#utility.yul\":7367:7392   */\n  gt\n    /* \"#utility.yul\":7364:7415   */\n  iszero\n  tag_133\n  jumpi\n    /* \"#utility.yul\":7395:7413   */\n  tag_134\n  tag_41\n  jump\t// in\ntag_134:\n    /* \"#utility.yul\":7364:7415   */\ntag_133:\n    /* \"#utility.yul\":7444:7448   */\n  dup2\n    /* \"#utility.yul\":7437:7442   */\n  dup2\n    /* \"#utility.yul\":7433:7449   */\n  mul\n    /* \"#utility.yul\":7424:7449   */\n  swap1\n  pop\n    /* \"#utility.yul\":6382:7455   */\ntag_119:\n  swap4\n  swap3\n  pop\n  pop\n  pop\n  jump\t// out\n    /* \"#utility.yul\":7461:7547   */\ntag_45:\n    /* \"#utility.yul\":7496:7503   */\n  0x00\n    /* \"#utility.yul\":7536:7540   */\n  0xff\n    /* \"#utility.yul\":7529:7534   */\n  dup3\n    /* \"#utility.yul\":7525:7541   */\n  and\n    /* \"#utility.yul\":7514:7541   */\n  swap1\n  pop\n    /* \"#utility.yul\":7461:7547   */\n  swap2\n  swap1\n  pop\n  jump\t// out\n    /* \"#utility.yul\":7553:7834   */\ntag_5:\n    /* \"#utility.yul\":7611:7616   */\n  0x00\n    /* \"#utility.yul\":7635:7658   */\n  tag_137\n    /* \"#utility.yul\":7653:7657   */\n  dup3\n    /* \"#utility.yul\":7635:7658   */\n  tag_29\n  jump\t// in\ntag_137:\n    /* \"#utility.yul\":7627:7658   */\n  swap2\n  pop\n    /* \"#utility.yul\":7679:7704   */\n  tag_138\n    /* \"#utility.yul\":7695:7703   */\n  dup4\n    /* \"#utility.yul\":7679:7704   */\n  tag_45\n  jump\t// in\ntag_138:\n    /* \"#utility.yul\":7667:7704   */\n  swap3\n  pop\n    /* \"#utility.yul\":7723:7827   */\n  tag_139\n    /* \"#utility.yul\":7760:7826   */\n  0xffffffffffffffffffffffffffffffffffffffffffffffffffffffffffffffff\n    /* \"#utility.yul\":7750:7758   */\n  dup5\n    /* \"#utility.yul\":7744:7748   */\n  dup5\n    /* \"#utility.yul\":7723:7827   */\n  tag_44\n  jump\t// in\ntag_139:\n    /* \"#utility.yul\":7714:7827   */\n  swap1\n  pop\n    /* \"#utility.yul\":7553:7834   */\n  swap3\n  swap2\n  pop\n  pop\n  jump\t// out\n    /* \"#utility.yul\":7840:8188   */\ntag_7:\n    /* \"#utility.yul\":7880:7887   */\n  0x00\n    /* \"#utility.yul\":7903:7923   */\n  tag_141\n    /* \"#utility.yul\":7921:7922   */\n  dup3\n    /* \"#utility.yul\":7903:7923   */\n  tag_29\n  jump\t// in\ntag_141:\n    /* \"#utility.yul\":7898:7923   */\n  swap2\n  pop\n    /* \"#utility.yul\":7937:7957   */\n  tag_142\n    /* \"#utility.yul\":7955:7956   */\n  dup4\n    /* \"#utility.yul\":7937:7957   */\n  tag_29\n  jump\t// in\ntag_142:\n    /* \"#utility.yul\":7932:7957   */\n  swap3\n  pop\n    /* \"#utility.yul\":8125:8126   */\n  dup2\n    /* \"#utility.yul\":8057:8123   */\n  0xffffffffffffffffffffffffffffffffffffffffffffffffffffffffffffffff\n    /* \"#utility.yul\":8053:8127   */\n  div\n    /* \"#utility.yul\":8050:8051   */\n  dup4\n    /* \"#utility.yul\":8047:8128   */\n  gt\n    /* \"#utility.yul\":8042:8043   */\n  dup3\n    /* \"#utility.yul\":8035:8044   */\n  iszero\n    /* \"#utility.yul\":8028:8045   */\n  iszero\n    /* \"#utility.yul\":8024:8129   */\n  and\n    /* \"#utility.yul\":8021:8152   */\n  iszero\n  tag_143\n  jumpi\n    /* \"#utility.yul\":8132:8150   */\n  tag_144\n  tag_41\n  jump\t// in\ntag_144:\n    /* \"#utility.yul\":8021:8152   */\ntag_143:\n    /* \"#utility.yul\":8180:8181   */\n  dup3\n    /* \"#utility.yul\":8177:8178   */\n  dup3\n    /* \"#utility.yul\":8173:8182   */\n  mul\n    /* \"#utility.yul\":8162:8182   */\n  swap1\n  pop\n    /* \"#utility.yul\":7840:8188   */\n  swap3\n  swap2\n  pop\n  pop\n  jump\t// out\n    /* \"#utility.yul\":8194:8312   */\ntag_46:\n    /* \"#utility.yul\":8281:8305   */\n  tag_146\n    /* \"#utility.yul\":8299:8304   */\n  dup2\n    /* \"#utility.yul\":8281:8305   */\n  tag_29\n  jump\t// in\ntag_146:\n    /* \"#utility.yul\":8276:8279   */\n  dup3\n    /* \"#utility.yul\":8269:8306   */\n  mstore\n    /* \"#utility.yul\":8194:8312   */\n  pop\n  pop\n  jump\t// out\n    /* \"#utility.yul\":8318:8540   */\ntag_18:\n    /* \"#utility.yul\":8411:8415   */\n  0x00\n    /* \"#utility.yul\":8449:8451   */\n  0x20\n    /* \"#utility.yul\":8438:8447   */\n  dup3\n    /* \"#utility.yul\":8434:8452   */\n  add\n    /* \"#utility.yul\":8426:8452   */\n  swap1\n  pop\n    /* \"#utility.yul\":8462:8533   */\n  tag_148\n    /* \"#utility.yul\":8530:8531   */\n  0x00\n    /* \"#utility.yul\":8519:8528   */\n  dup4\n    /* \"#utility.yul\":8515:8532   */\n  add\n    /* \"#utility.yul\":8506:8512   */\n  dup5\n    /* \"#utility.yul\":8462:8533   */\n  tag_46\n  jump\t// in\ntag_148:\n    /* \"#utility.yul\":8318:8540   */\n  swap3\n  swap2\n  pop\n  pop\n  jump\t// out\n    /* \"ERC20Token.sol\":15934:19746  contract Milo is IBEP20, Ownable {... */\ntag_19:\n  dataSize(sub_0)\n  dup1\n  dataOffset(sub_0)\n  0x00\n  codecopy\n  0x00\n  return\nstop\n\nsub_0: assembly {\n        /* \"ERC20Token.sol\":15934:19746  contract Milo is IBEP20, Ownable {... */\n      mstore(0x40, 0x80)\n      callvalue\n      dup1\n      iszero\n      tag_1\n      jumpi\n      0x00\n      dup1\n      revert\n    tag_1:\n      pop\n      jumpi(tag_2, lt(calldatasize, 0x04))\n      shr(0xe0, calldataload(0x00))\n      dup1\n      0x8da5cb5b\n      gt\n      tag_20\n      jumpi\n      dup1\n      0xa9059cbb\n      gt\n      tag_21\n      jumpi\n      dup1\n      0xa9059cbb\n      eq\n      tag_15\n      jumpi\n      dup1\n      0xb6c52324\n      eq\n      tag_16\n      jumpi\n      dup1\n      0xdd467064\n      eq\n      tag_17\n      jumpi\n      dup1\n      0xdd62ed3e\n      eq\n      tag_18\n      jumpi\n      dup1\n      0xf2fde38b\n      eq\n      tag_19\n      jumpi\n      jump(tag_2)\n    tag_21:\n      dup1\n      0x8da5cb5b\n      eq\n      tag_11\n      jumpi\n      dup1\n      0x95d89b41\n      eq\n      tag_12\n      jumpi\n      dup1\n      0xa457c2d7\n      eq\n      tag_13\n      jumpi\n      dup1\n      0xa69df4b5\n      eq\n      tag_14\n      jumpi\n      jump(tag_2)\n    tag_20:\n      dup1\n      0x313ce567\n      gt\n      tag_22\n      jumpi\n      dup1\n      0x313ce567\n      eq\n      tag_7\n      jumpi\n      dup1\n      0x39509351\n      eq\n      tag_8\n      jumpi\n      dup1\n      0x70a08231\n      eq\n      tag_9\n      jumpi\n      dup1\n      0x715018a6\n      eq\n      tag_10\n      jumpi\n      jump(tag_2)\n    tag_22:\n      dup1\n      0x06fdde03\n      eq\n      tag_3\n      jumpi\n      dup1\n      0x095ea7b3\n      eq\n      tag_4\n      jumpi\n      dup1\n      0x18160ddd\n      eq\n      tag_5\n      jumpi\n      dup1\n      0x23b872dd\n      eq\n      tag_6\n      jumpi\n    tag_2:\n      0x00\n      dup1\n      revert\n        /* \"ERC20Token.sol\":16593:16676  function name() public view returns (string memory) {... */\n    tag_3:\n      tag_23\n      tag_24\n      jump\t// in\n    tag_23:\n      mload(0x40)\n      tag_25\n      swap2\n      swap1\n      tag_26\n      jump\t// in\n    tag_25:\n      mload(0x40)\n      dup1\n      swap2\n      sub\n      swap1\n      return\n        /* \"ERC20Token.sol\":17499:17692  function approve(address spender, uint256 amount)... */\n    tag_4:\n      tag_27\n      0x04\n      dup1\n      calldatasize\n      sub\n      dup2\n      add\n      swap1\n      tag_28\n      swap2\n      swap1\n      tag_29\n      jump\t// in\n    tag_28:\n      tag_30\n      jump\t// in\n    tag_27:\n      mload(0x40)\n      tag_31\n      swap2\n      swap1\n      tag_32\n      jump\t// in\n    tag_31:\n      mload(0x40)\n      dup1\n      swap2\n      sub\n      swap1\n      return\n        /* \"ERC20Token.sol\":16870:16965  function totalSupply() public view override returns (uint256) {... */\n    tag_5:\n      tag_33\n      tag_34\n      jump\t// in\n    tag_33:\n      mload(0x40)\n      tag_35\n      swap2\n      swap1\n      tag_36\n      jump\t// in\n    tag_35:\n      mload(0x40)\n      dup1\n      swap2\n      sub\n      swap1\n      return\n        /* \"ERC20Token.sol\":17700:18146  function transferFrom(... */\n    tag_6:\n      tag_37\n      0x04\n      dup1\n      calldatasize\n      sub\n      dup2\n      add\n      swap1\n      tag_38\n      swap2\n      swap1\n      tag_39\n      jump\t// in\n    tag_38:\n      tag_40\n      jump\t// in\n    tag_37:\n      mload(0x40)\n      tag_41\n      swap2\n      swap1\n      tag_32\n      jump\t// in\n    tag_41:\n      mload(0x40)\n      dup1\n      swap2\n      sub\n      swap1\n      return\n        /* \"ERC20Token.sol\":16779:16862  function decimals() public view returns (uint8) {... */\n    tag_7:\n      tag_42\n      tag_43\n      jump\t// in\n    tag_42:\n      mload(0x40)\n      tag_44\n      swap2\n      swap1\n      tag_45\n      jump\t// in\n    tag_44:\n      mload(0x40)\n      dup1\n      swap2\n      sub\n      swap1\n      return\n        /* \"ERC20Token.sol\":18154:18454  function increaseAllowance(address spender, uint256 addedValue)... */\n    tag_8:\n      tag_46\n      0x04\n      dup1\n      calldatasize\n      sub\n      dup2\n      add\n      swap1\n      tag_47\n      swap2\n      swap1\n      tag_29\n      jump\t// in\n    tag_47:\n      tag_48\n      jump\t// in\n    tag_46:\n      mload(0x40)\n      tag_49\n      swap2\n      swap1\n      tag_32\n      jump\t// in\n    tag_49:\n      mload(0x40)\n      dup1\n      swap2\n      sub\n      swap1\n      return\n        /* \"ERC20Token.sol\":16973:17092  function balanceOf(address account) public view override returns (uint256) {... */\n    tag_9:\n      tag_50\n      0x04\n      dup1\n      calldatasize\n      sub\n      dup2\n      add\n      swap1\n      tag_51\n      swap2\n      swap1\n      tag_52\n      jump\t// in\n    tag_51:\n      tag_53\n      jump\t// in\n    tag_50:\n      mload(0x40)\n      tag_54\n      swap2\n      swap1\n      tag_36\n      jump\t// in\n    tag_54:\n      mload(0x40)\n      dup1\n      swap2\n      sub\n      swap1\n      return\n        /* \"ERC20Token.sol\":14498:14646  function renounceOwnership() public virtual onlyOwner {... */\n    tag_10:\n      tag_55\n      tag_56\n      jump\t// in\n    tag_55:\n      stop\n        /* \"ERC20Token.sol\":13856:13935  function owner() public view returns (address) {... */\n    tag_11:\n      tag_57\n      tag_58\n      jump\t// in\n    tag_57:\n      mload(0x40)\n      tag_59\n      swap2\n      swap1\n      tag_60\n      jump\t// in\n    tag_59:\n      mload(0x40)\n      dup1\n      swap2\n      sub\n      swap1\n      return\n        /* \"ERC20Token.sol\":16684:16771  function symbol() public view returns (string memory) {... */\n    tag_12:\n      tag_61\n      tag_62\n      jump\t// in\n    tag_61:\n      mload(0x40)\n      tag_63\n      swap2\n      swap1\n      tag_26\n      jump\t// in\n    tag_63:\n      mload(0x40)\n      dup1\n      swap2\n      sub\n      swap1\n      return\n        /* \"ERC20Token.sol\":18462:18862  function decreaseAllowance(address spender, uint256 subtractedValue)... */\n    tag_13:\n      tag_64\n      0x04\n      dup1\n      calldatasize\n      sub\n      dup2\n      add\n      swap1\n      tag_65\n      swap2\n      swap1\n      tag_29\n      jump\t// in\n    tag_65:\n      tag_66\n      jump\t// in\n    tag_64:\n      mload(0x40)\n      tag_67\n      swap2\n      swap1\n      tag_32\n      jump\t// in\n    tag_67:\n      mload(0x40)\n      dup1\n      swap2\n      sub\n      swap1\n      return\n        /* \"ERC20Token.sol\":15553:15894  function unlock() public virtual {... */\n    tag_14:\n      tag_68\n      tag_69\n      jump\t// in\n    tag_68:\n      stop\n        /* \"ERC20Token.sol\":17100:17299  function transfer(address recipient, uint256 amount)... */\n    tag_15:\n      tag_70\n      0x04\n      dup1\n      calldatasize\n      sub\n      dup2\n      add\n      swap1\n      tag_71\n      swap2\n      swap1\n      tag_29\n      jump\t// in\n    tag_71:\n      tag_72\n      jump\t// in\n    tag_70:\n      mload(0x40)\n      tag_73\n      swap2\n      swap1\n      tag_32\n      jump\t// in\n    tag_73:\n      mload(0x40)\n      dup1\n      swap2\n      sub\n      swap1\n      return\n        /* \"ERC20Token.sol\":15090:15179  function geUnlockTime() public view returns (uint256) {... */\n    tag_16:\n      tag_74\n      tag_75\n      jump\t// in\n    tag_74:\n      mload(0x40)\n      tag_76\n      swap2\n      swap1\n      tag_36\n      jump\t// in\n    tag_76:\n      mload(0x40)\n      dup1\n      swap2\n      sub\n      swap1\n      return\n        /* \"ERC20Token.sol\":15255:15481  function lock(uint256 time) public virtual onlyOwner {... */\n    tag_17:\n      tag_77\n      0x04\n      dup1\n      calldatasize\n      sub\n      dup2\n      add\n      swap1\n      tag_78\n      swap2\n      swap1\n      tag_79\n      jump\t// in\n    tag_78:\n      tag_80\n      jump\t// in\n    tag_77:\n      stop\n        /* \"ERC20Token.sol\":17307:17491  function allowance(address owner, address spender)... */\n    tag_18:\n      tag_81\n      0x04\n      dup1\n      calldatasize\n      sub\n      dup2\n      add\n      swap1\n      tag_82\n      swap2\n      swap1\n      tag_83\n      jump\t// in\n    tag_82:\n      tag_84\n      jump\t// in\n    tag_81:\n      mload(0x40)\n      tag_85\n      swap2\n      swap1\n      tag_36\n      jump\t// in\n    tag_85:\n      mload(0x40)\n      dup1\n      swap2\n      sub\n      swap1\n      return\n        /* \"ERC20Token.sol\":14801:15082  function transferOwnership(address newOwner) public virtual onlyOwner {... */\n    tag_19:\n      tag_86\n      0x04\n      dup1\n      calldatasize\n      sub\n      dup2\n      add\n      swap1\n      tag_87\n      swap2\n      swap1\n      tag_52\n      jump\t// in\n    tag_87:\n      tag_88\n      jump\t// in\n    tag_86:\n      stop\n        /* \"ERC20Token.sol\":16593:16676  function name() public view returns (string memory) {... */\n    tag_24:\n        /* \"ERC20Token.sol\":16630:16643  string memory */\n      0x60\n        /* \"ERC20Token.sol\":16663:16668  _name */\n      0x07\n        /* \"ERC20Token.sol\":16656:16668  return _name */\n      dup1\n      sload\n      tag_90\n      swap1\n      tag_91\n      jump\t// in\n    tag_90:\n      dup1\n      0x1f\n      add\n      0x20\n      dup1\n      swap2\n      div\n      mul\n      0x20\n      add\n      mload(0x40)\n      swap1\n      dup2\n      add\n      0x40\n      mstore\n      dup1\n      swap3\n      swap2\n      swap1\n      dup2\n      dup2\n      mstore\n      0x20\n      add\n      dup3\n      dup1\n      sload\n      tag_92\n      swap1\n      tag_91\n      jump\t// in\n    tag_92:\n      dup1\n      iszero\n      tag_93\n      jumpi\n      dup1\n      0x1f\n      lt\n      tag_94\n      jumpi\n      0x0100\n      dup1\n      dup4\n      sload\n      div\n      mul\n      dup4\n      mstore\n      swap2\n      0x20\n      add\n      swap2\n      jump(tag_93)\n    tag_94:\n      dup3\n      add\n      swap2\n      swap1\n      0x00\n      mstore\n      keccak256(0x00, 0x20)\n      swap1\n    tag_95:\n      dup2\n      sload\n      dup2\n      mstore\n      swap1\n      0x01\n      add\n      swap1\n      0x20\n      add\n      dup1\n      dup4\n      gt\n      tag_95\n      jumpi\n      dup3\n      swap1\n      sub\n      0x1f\n      and\n      dup3\n      add\n      swap2\n    tag_93:\n      pop\n      pop\n      pop\n      pop\n      pop\n      swap1\n      pop\n        /* \"ERC20Token.sol\":16593:16676  function name() public view returns (string memory) {... */\n      swap1\n      jump\t// out\n        /* \"ERC20Token.sol\":17499:17692  function approve(address spender, uint256 amount)... */\n    tag_30:\n        /* \"ERC20Token.sol\":17601:17605  bool */\n      0x00\n        /* \"ERC20Token.sol\":17623:17662  _approve(_msgSender(), spender, amount) */\n      tag_97\n        /* \"ERC20Token.sol\":17632:17644  _msgSender() */\n      tag_98\n        /* \"ERC20Token.sol\":17632:17642  _msgSender */\n      tag_99\n        /* \"ERC20Token.sol\":17632:17644  _msgSender() */\n      jump\t// in\n    tag_98:\n        /* \"ERC20Token.sol\":17646:17653  spender */\n      dup5\n        /* \"ERC20Token.sol\":17655:17661  amount */\n      dup5\n        /* \"ERC20Token.sol\":17623:17631  _approve */\n      tag_100\n        /* \"ERC20Token.sol\":17623:17662  _approve(_msgSender(), spender, amount) */\n      jump\t// in\n    tag_97:\n        /* \"ERC20Token.sol\":17680:17684  true */\n      0x01\n        /* \"ERC20Token.sol\":17673:17684  return true */\n      swap1\n      pop\n        /* \"ERC20Token.sol\":17499:17692  function approve(address spender, uint256 amount)... */\n      swap3\n      swap2\n      pop\n      pop\n      jump\t// out\n        /* \"ERC20Token.sol\":16870:16965  function totalSupply() public view override returns (uint256) {... */\n    tag_34:\n        /* \"ERC20Token.sol\":16923:16930  uint256 */\n      0x00\n        /* \"ERC20Token.sol\":16950:16957  _tTotal */\n      sload(0x0a)\n        /* \"ERC20Token.sol\":16943:16957  return _tTotal */\n      swap1\n      pop\n        /* \"ERC20Token.sol\":16870:16965  function totalSupply() public view override returns (uint256) {... */\n      swap1\n      jump\t// out\n        /* \"ERC20Token.sol\":17700:18146  function transferFrom(... */\n    tag_40:\n        /* \"ERC20Token.sol\":17832:17836  bool */\n      0x00\n        /* \"ERC20Token.sol\":17849:17885  _transfer(sender, recipient, amount) */\n      tag_103\n        /* \"ERC20Token.sol\":17859:17865  sender */\n      dup5\n        /* \"ERC20Token.sol\":17867:17876  recipient */\n      dup5\n        /* \"ERC20Token.sol\":17878:17884  amount */\n      dup5\n        /* \"ERC20Token.sol\":17849:17858  _transfer */\n      tag_104\n        /* \"ERC20Token.sol\":17849:17885  _transfer(sender, recipient, amount) */\n      jump\t// in\n    tag_103:\n        /* \"ERC20Token.sol\":17896:18116  _approve(... */\n      tag_105\n        /* \"ERC20Token.sol\":17919:17925  sender */\n      dup5\n        /* \"ERC20Token.sol\":17940:17952  _msgSender() */\n      tag_106\n        /* \"ERC20Token.sol\":17940:17950  _msgSender */\n      tag_99\n        /* \"ERC20Token.sol\":17940:17952  _msgSender() */\n      jump\t// in\n    tag_106:\n        /* \"ERC20Token.sol\":17967:18105  _allowances[sender][_msgSender()].sub(... */\n      tag_107\n        /* \"ERC20Token.sol\":18023:18029  amount */\n      dup6\n        /* \"ERC20Token.sol\":17967:18105  _allowances[sender][_msgSender()].sub(... */\n      mload(0x40)\n      dup1\n      0x60\n      add\n      0x40\n      mstore\n      dup1\n      0x28\n      dup2\n      mstore\n      0x20\n      add\n      data_974d1b4421da69cc60b481194f0dad36a5bb4e23da810da7a7fb30cdba178330\n      0x28\n      swap2\n      codecopy\n        /* \"ERC20Token.sol\":17967:17978  _allowances */\n      0x04\n        /* \"ERC20Token.sol\":17967:17986  _allowances[sender] */\n      0x00\n        /* \"ERC20Token.sol\":17979:17985  sender */\n      dup12\n        /* \"ERC20Token.sol\":17967:17986  _allowances[sender] */\n      0xffffffffffffffffffffffffffffffffffffffff\n      and\n      0xffffffffffffffffffffffffffffffffffffffff\n      and\n      dup2\n      mstore\n      0x20\n      add\n      swap1\n      dup2\n      mstore\n      0x20\n      add\n      0x00\n      keccak256\n        /* \"ERC20Token.sol\":17967:18000  _allowances[sender][_msgSender()] */\n      0x00\n        /* \"ERC20Token.sol\":17987:17999  _msgSender() */\n      tag_108\n        /* \"ERC20Token.sol\":17987:17997  _msgSender */\n      tag_99\n        /* \"ERC20Token.sol\":17987:17999  _msgSender() */\n      jump\t// in\n    tag_108:\n        /* \"ERC20Token.sol\":17967:18000  _allowances[sender][_msgSender()] */\n      0xffffffffffffffffffffffffffffffffffffffff\n      and\n      0xffffffffffffffffffffffffffffffffffffffff\n      and\n      dup2\n      mstore\n      0x20\n      add\n      swap1\n      dup2\n      mstore\n      0x20\n      add\n      0x00\n      keccak256\n      sload\n        /* \"ERC20Token.sol\":17967:18004  _allowances[sender][_msgSender()].sub */\n      tag_109\n      swap1\n        /* \"ERC20Token.sol\":17967:18105  _allowances[sender][_msgSender()].sub(... */\n      swap3\n      swap2\n      swap1\n      0xffffffff\n      and\n      jump\t// in\n    tag_107:\n        /* \"ERC20Token.sol\":17896:17904  _approve */\n      tag_100\n        /* \"ERC20Token.sol\":17896:18116  _approve(... */\n      jump\t// in\n    tag_105:\n        /* \"ERC20Token.sol\":18134:18138  true */\n      0x01\n        /* \"ERC20Token.sol\":18127:18138  return true */\n      swap1\n      pop\n        /* \"ERC20Token.sol\":17700:18146  function transferFrom(... */\n      swap4\n      swap3\n      pop\n      pop\n      pop\n      jump\t// out\n        /* \"ERC20Token.sol\":16779:16862  function decimals() public view returns (uint8) {... */\n    tag_43:\n        /* \"ERC20Token.sol\":16820:16825  uint8 */\n      0x00\n        /* \"ERC20Token.sol\":16845:16854  _decimals */\n      0x09\n      0x00\n      swap1\n      sload\n      swap1\n      0x0100\n      exp\n      swap1\n      div\n      0xff\n      and\n        /* \"ERC20Token.sol\":16838:16854  return _decimals */\n      swap1\n      pop\n        /* \"ERC20Token.sol\":16779:16862  function decimals() public view returns (uint8) {... */\n      swap1\n      jump\t// out\n        /* \"ERC20Token.sol\":18154:18454  function increaseAllowance(address spender, uint256 addedValue)... */\n    tag_48:\n        /* \"ERC20Token.sol\":18269:18273  bool */\n      0x00\n        /* \"ERC20Token.sol\":18291:18424  _approve(... */\n      tag_112\n        /* \"ERC20Token.sol\":18314:18326  _msgSender() */\n      tag_113\n        /* \"ERC20Token.sol\":18314:18324  _msgSender */\n      tag_99\n        /* \"ERC20Token.sol\":18314:18326  _msgSender() */\n      jump\t// in\n    tag_113:\n        /* \"ERC20Token.sol\":18341:18348  spender */\n      dup5\n        /* \"ERC20Token.sol\":18363:18413  _allowances[_msgSender()][spender].add(addedValue) */\n      tag_114\n        /* \"ERC20Token.sol\":18402:18412  addedValue */\n      dup6\n        /* \"ERC20Token.sol\":18363:18374  _allowances */\n      0x04\n        /* \"ERC20Token.sol\":18363:18388  _allowances[_msgSender()] */\n      0x00\n        /* \"ERC20Token.sol\":18375:18387  _msgSender() */\n      tag_115\n        /* \"ERC20Token.sol\":18375:18385  _msgSender */\n      tag_99\n        /* \"ERC20Token.sol\":18375:18387  _msgSender() */\n      jump\t// in\n    tag_115:\n        /* \"ERC20Token.sol\":18363:18388  _allowances[_msgSender()] */\n      0xffffffffffffffffffffffffffffffffffffffff\n      and\n      0xffffffffffffffffffffffffffffffffffffffff\n      and\n      dup2\n      mstore\n      0x20\n      add\n      swap1\n      dup2\n      mstore\n      0x20\n      add\n      0x00\n      keccak256\n        /* \"ERC20Token.sol\":18363:18397  _allowances[_msgSender()][spender] */\n      0x00\n        /* \"ERC20Token.sol\":18389:18396  spender */\n      dup10\n        /* \"ERC20Token.sol\":18363:18397  _allowances[_msgSender()][spender] */\n      0xffffffffffffffffffffffffffffffffffffffff\n      and\n      0xffffffffffffffffffffffffffffffffffffffff\n      and\n      dup2\n      mstore\n      0x20\n      add\n      swap1\n      dup2\n      mstore\n      0x20\n      add\n      0x00\n      keccak256\n      sload\n        /* \"ERC20Token.sol\":18363:18401  _allowances[_msgSender()][spender].add */\n      tag_116\n      swap1\n        /* \"ERC20Token.sol\":18363:18413  _allowances[_msgSender()][spender].add(addedValue) */\n      swap2\n      swap1\n      0xffffffff\n      and\n      jump\t// in\n    tag_114:\n        /* \"ERC20Token.sol\":18291:18299  _approve */\n      tag_100\n        /* \"ERC20Token.sol\":18291:18424  _approve(... */\n      jump\t// in\n    tag_112:\n        /* \"ERC20Token.sol\":18442:18446  true */\n      0x01\n        /* \"ERC20Token.sol\":18435:18446  return true */\n      swap1\n      pop\n        /* \"ERC20Token.sol\":18154:18454  function increaseAllowance(address spender, uint256 addedValue)... */\n      swap3\n      swap2\n      pop\n      pop\n      jump\t// out\n        /* \"ERC20Token.sol\":16973:17092  function balanceOf(address account) public view override returns (uint256) {... */\n    tag_53:\n        /* \"ERC20Token.sol\":17039:17046  uint256 */\n      0x00\n        /* \"ERC20Token.sol\":17066:17075  _balances */\n      0x03\n        /* \"ERC20Token.sol\":17066:17084  _balances[account] */\n      0x00\n        /* \"ERC20Token.sol\":17076:17083  account */\n      dup4\n        /* \"ERC20Token.sol\":17066:17084  _balances[account] */\n      0xffffffffffffffffffffffffffffffffffffffff\n      and\n      0xffffffffffffffffffffffffffffffffffffffff\n      and\n      dup2\n      mstore\n      0x20\n      add\n      swap1\n      dup2\n      mstore\n      0x20\n      add\n      0x00\n      keccak256\n      sload\n        /* \"ERC20Token.sol\":17059:17084  return _balances[account] */\n      swap1\n      pop\n        /* \"ERC20Token.sol\":16973:17092  function balanceOf(address account) public view override returns (uint256) {... */\n      swap2\n      swap1\n      pop\n      jump\t// out\n        /* \"ERC20Token.sol\":14498:14646  function renounceOwnership() public virtual onlyOwner {... */\n    tag_56:\n        /* \"ERC20Token.sol\":14078:14090  _msgSender() */\n      tag_119\n        /* \"ERC20Token.sol\":14078:14088  _msgSender */\n      tag_99\n        /* \"ERC20Token.sol\":14078:14090  _msgSender() */\n      jump\t// in\n    tag_119:\n        /* \"ERC20Token.sol\":14068:14090  _owner == _msgSender() */\n      0xffffffffffffffffffffffffffffffffffffffff\n      and\n        /* \"ERC20Token.sol\":14068:14074  _owner */\n      0x00\n      dup1\n      sload\n      swap1\n      0x0100\n      exp\n      swap1\n      div\n      0xffffffffffffffffffffffffffffffffffffffff\n      and\n        /* \"ERC20Token.sol\":14068:14090  _owner == _msgSender() */\n      0xffffffffffffffffffffffffffffffffffffffff\n      and\n      eq\n        /* \"ERC20Token.sol\":14060:14127  require(_owner == _msgSender(), \"Ownable: caller is not the owner\") */\n      tag_120\n      jumpi\n      mload(0x40)\n      0x08c379a000000000000000000000000000000000000000000000000000000000\n      dup2\n      mstore\n      0x04\n      add\n      tag_121\n      swap1\n      tag_122\n      jump\t// in\n    tag_121:\n      mload(0x40)\n      dup1\n      swap2\n      sub\n      swap1\n      revert\n    tag_120:\n        /* \"ERC20Token.sol\":14605:14606  0 */\n      0x00\n        /* \"ERC20Token.sol\":14568:14608  OwnershipTransferred(_owner, address(0)) */\n      0xffffffffffffffffffffffffffffffffffffffff\n      and\n        /* \"ERC20Token.sol\":14589:14595  _owner */\n      0x00\n      dup1\n      sload\n      swap1\n      0x0100\n      exp\n      swap1\n      div\n      0xffffffffffffffffffffffffffffffffffffffff\n      and\n        /* \"ERC20Token.sol\":14568:14608  OwnershipTransferred(_owner, address(0)) */\n      0xffffffffffffffffffffffffffffffffffffffff\n      and\n      0x8be0079c531659141344cd1fd0a4f28419497f9722a3daafe3b4186f6b6457e0\n      mload(0x40)\n      mload(0x40)\n      dup1\n      swap2\n      sub\n      swap1\n      log3\n        /* \"ERC20Token.sol\":14636:14637  0 */\n      0x00\n        /* \"ERC20Token.sol\":14619:14625  _owner */\n      dup1\n      0x00\n        /* \"ERC20Token.sol\":14619:14638  _owner = address(0) */\n      0x0100\n      exp\n      dup2\n      sload\n      dup2\n      0xffffffffffffffffffffffffffffffffffffffff\n      mul\n      not\n      and\n      swap1\n      dup4\n      0xffffffffffffffffffffffffffffffffffffffff\n      and\n      mul\n      or\n      swap1\n      sstore\n      pop\n        /* \"ERC20Token.sol\":14498:14646  function renounceOwnership() public virtual onlyOwner {... */\n      jump\t// out\n        /* \"ERC20Token.sol\":13856:13935  function owner() public view returns (address) {... */\n    tag_58:\n        /* \"ERC20Token.sol\":13894:13901  address */\n      0x00\n        /* \"ERC20Token.sol\":13921:13927  _owner */\n      dup1\n      0x00\n      swap1\n      sload\n      swap1\n      0x0100\n      exp\n      swap1\n      div\n      0xffffffffffffffffffffffffffffffffffffffff\n      and\n        /* \"ERC20Token.sol\":13914:13927  return _owner */\n      swap1\n      pop\n        /* \"ERC20Token.sol\":13856:13935  function owner() public view returns (address) {... */\n      swap1\n      jump\t// out\n        /* \"ERC20Token.sol\":16684:16771  function symbol() public view returns (string memory) {... */\n    tag_62:\n        /* \"ERC20Token.sol\":16723:16736  string memory */\n      0x60\n        /* \"ERC20Token.sol\":16756:16763  _symbol */\n      0x08\n        /* \"ERC20Token.sol\":16749:16763  return _symbol */\n      dup1\n      sload\n      tag_126\n      swap1\n      tag_91\n      jump\t// in\n    tag_126:\n      dup1\n      0x1f\n      add\n      0x20\n      dup1\n      swap2\n      div\n      mul\n      0x20\n      add\n      mload(0x40)\n      swap1\n      dup2\n      add\n      0x40\n      mstore\n      dup1\n      swap3\n      swap2\n      swap1\n      dup2\n      dup2\n      mstore\n      0x20\n      add\n      dup3\n      dup1\n      sload\n      tag_127\n      swap1\n      tag_91\n      jump\t// in\n    tag_127:\n      dup1\n      iszero\n      tag_128\n      jumpi\n      dup1\n      0x1f\n      lt\n      tag_129\n      jumpi\n      0x0100\n      dup1\n      dup4\n      sload\n      div\n      mul\n      dup4\n      mstore\n      swap2\n      0x20\n      add\n      swap2\n      jump(tag_128)\n    tag_129:\n      dup3\n      add\n      swap2\n      swap1\n      0x00\n      mstore\n      keccak256(0x00, 0x20)\n      swap1\n    tag_130:\n      dup2\n      sload\n      dup2\n      mstore\n      swap1\n      0x01\n      add\n      swap1\n      0x20\n      add\n      dup1\n      dup4\n      gt\n      tag_130\n      jumpi\n      dup3\n      swap1\n      sub\n      0x1f\n      and\n      dup3\n      add\n      swap2\n    tag_128:\n      pop\n      pop\n      pop\n      pop\n      pop\n      swap1\n      pop\n        /* \"ERC20Token.sol\":16684:16771  function symbol() public view returns (string memory) {... */\n      swap1\n      jump\t// out\n        /* \"ERC20Token.sol\":18462:18862  function decreaseAllowance(address spender, uint256 subtractedValue)... */\n    tag_66:\n        /* \"ERC20Token.sol\":18582:18586  bool */\n      0x00\n        /* \"ERC20Token.sol\":18604:18832  _approve(... */\n      tag_132\n        /* \"ERC20Token.sol\":18627:18639  _msgSender() */\n      tag_133\n        /* \"ERC20Token.sol\":18627:18637  _msgSender */\n      tag_99\n        /* \"ERC20Token.sol\":18627:18639  _msgSender() */\n      jump\t// in\n    tag_133:\n        /* \"ERC20Token.sol\":18654:18661  spender */\n      dup5\n        /* \"ERC20Token.sol\":18676:18821  _allowances[_msgSender()][spender].sub(... */\n      tag_134\n        /* \"ERC20Token.sol\":18733:18748  subtractedValue */\n      dup6\n        /* \"ERC20Token.sol\":18676:18821  _allowances[_msgSender()][spender].sub(... */\n      mload(0x40)\n      dup1\n      0x60\n      add\n      0x40\n      mstore\n      dup1\n      0x25\n      dup2\n      mstore\n      0x20\n      add\n      data_f8b476f7d28209d77d4a4ac1fe36b9f8259aa1bb6bddfa6e89de7e51615cf8a8\n      0x25\n      swap2\n      codecopy\n        /* \"ERC20Token.sol\":18676:18687  _allowances */\n      0x04\n        /* \"ERC20Token.sol\":18676:18701  _allowances[_msgSender()] */\n      0x00\n        /* \"ERC20Token.sol\":18688:18700  _msgSender() */\n      tag_135\n        /* \"ERC20Token.sol\":18688:18698  _msgSender */\n      tag_99\n        /* \"ERC20Token.sol\":18688:18700  _msgSender() */\n      jump\t// in\n    tag_135:\n        /* \"ERC20Token.sol\":18676:18701  _allowances[_msgSender()] */\n      0xffffffffffffffffffffffffffffffffffffffff\n      and\n      0xffffffffffffffffffffffffffffffffffffffff\n      and\n      dup2\n      mstore\n      0x20\n      add\n      swap1\n      dup2\n      mstore\n      0x20\n      add\n      0x00\n      keccak256\n        /* \"ERC20Token.sol\":18676:18710  _allowances[_msgSender()][spender] */\n      0x00\n        /* \"ERC20Token.sol\":18702:18709  spender */\n      dup11\n        /* \"ERC20Token.sol\":18676:18710  _allowances[_msgSender()][spender] */\n      0xffffffffffffffffffffffffffffffffffffffff\n      and\n      0xffffffffffffffffffffffffffffffffffffffff\n      and\n      dup2\n      mstore\n      0x20\n      add\n      swap1\n      dup2\n      mstore\n      0x20\n      add\n      0x00\n      keccak256\n      sload\n        /* \"ERC20Token.sol\":18676:18714  _allowances[_msgSender()][spender].sub */\n      tag_109\n      swap1\n        /* \"ERC20Token.sol\":18676:18821  _allowances[_msgSender()][spender].sub(... */\n      swap3\n      swap2\n      swap1\n      0xffffffff\n      and\n      jump\t// in\n    tag_134:\n        /* \"ERC20Token.sol\":18604:18612  _approve */\n      tag_100\n        /* \"ERC20Token.sol\":18604:18832  _approve(... */\n      jump\t// in\n    tag_132:\n        /* \"ERC20Token.sol\":18850:18854  true */\n      0x01\n        /* \"ERC20Token.sol\":18843:18854  return true */\n      swap1\n      pop\n        /* \"ERC20Token.sol\":18462:18862  function decreaseAllowance(address spender, uint256 subtractedValue)... */\n      swap3\n      swap2\n      pop\n      pop\n      jump\t// out\n        /* \"ERC20Token.sol\":15553:15894  function unlock() public virtual {... */\n    tag_69:\n        /* \"ERC20Token.sol\":15637:15647  msg.sender */\n      caller\n        /* \"ERC20Token.sol\":15619:15647  _previousOwner == msg.sender */\n      0xffffffffffffffffffffffffffffffffffffffff\n      and\n        /* \"ERC20Token.sol\":15619:15633  _previousOwner */\n      0x01\n      0x00\n      swap1\n      sload\n      swap1\n      0x0100\n      exp\n      swap1\n      div\n      0xffffffffffffffffffffffffffffffffffffffff\n      and\n        /* \"ERC20Token.sol\":15619:15647  _previousOwner == msg.sender */\n      0xffffffffffffffffffffffffffffffffffffffff\n      and\n      eq\n        /* \"ERC20Token.sol\":15597:15710  require(... */\n      tag_137\n      jumpi\n      mload(0x40)\n      0x08c379a000000000000000000000000000000000000000000000000000000000\n      dup2\n      mstore\n      0x04\n      add\n      tag_138\n      swap1\n      tag_139\n      jump\t// in\n    tag_138:\n      mload(0x40)\n      dup1\n      swap2\n      sub\n      swap1\n      revert\n    tag_137:\n        /* \"ERC20Token.sol\":15747:15756  _lockTime */\n      sload(0x02)\n        /* \"ERC20Token.sol\":15729:15744  block.timestamp */\n      timestamp\n        /* \"ERC20Token.sol\":15729:15756  block.timestamp > _lockTime */\n      gt\n        /* \"ERC20Token.sol\":15721:15792  require(block.timestamp > _lockTime, \"Contract is locked until 7 days\") */\n      tag_140\n      jumpi\n      mload(0x40)\n      0x08c379a000000000000000000000000000000000000000000000000000000000\n      dup2\n      mstore\n      0x04\n      add\n      tag_141\n      swap1\n      tag_142\n      jump\t// in\n    tag_141:\n      mload(0x40)\n      dup1\n      swap2\n      sub\n      swap1\n      revert\n    tag_140:\n        /* \"ERC20Token.sol\":15837:15851  _previousOwner */\n      0x01\n      0x00\n      swap1\n      sload\n      swap1\n      0x0100\n      exp\n      swap1\n      div\n      0xffffffffffffffffffffffffffffffffffffffff\n      and\n        /* \"ERC20Token.sol\":15808:15852  OwnershipTransferred(_owner, _previousOwner) */\n      0xffffffffffffffffffffffffffffffffffffffff\n      and\n        /* \"ERC20Token.sol\":15829:15835  _owner */\n      0x00\n      dup1\n      sload\n      swap1\n      0x0100\n      exp\n      swap1\n      div\n      0xffffffffffffffffffffffffffffffffffffffff\n      and\n        /* \"ERC20Token.sol\":15808:15852  OwnershipTransferred(_owner, _previousOwner) */\n      0xffffffffffffffffffffffffffffffffffffffff\n      and\n      0x8be0079c531659141344cd1fd0a4f28419497f9722a3daafe3b4186f6b6457e0\n      mload(0x40)\n      mload(0x40)\n      dup1\n      swap2\n      sub\n      swap1\n      log3\n        /* \"ERC20Token.sol\":15872:15886  _previousOwner */\n      0x01\n      0x00\n      swap1\n      sload\n      swap1\n      0x0100\n      exp\n      swap1\n      div\n      0xffffffffffffffffffffffffffffffffffffffff\n      and\n        /* \"ERC20Token.sol\":15863:15869  _owner */\n      0x00\n      dup1\n        /* \"ERC20Token.sol\":15863:15886  _owner = _previousOwner */\n      0x0100\n      exp\n      dup2\n      sload\n      dup2\n      0xffffffffffffffffffffffffffffffffffffffff\n      mul\n      not\n      and\n      swap1\n      dup4\n      0xffffffffffffffffffffffffffffffffffffffff\n      and\n      mul\n      or\n      swap1\n      sstore\n      pop\n        /* \"ERC20Token.sol\":15553:15894  function unlock() public virtual {... */\n      jump\t// out\n        /* \"ERC20Token.sol\":17100:17299  function transfer(address recipient, uint256 amount)... */\n    tag_72:\n        /* \"ERC20Token.sol\":17205:17209  bool */\n      0x00\n        /* \"ERC20Token.sol\":17227:17269  _transfer(_msgSender(), recipient, amount) */\n      tag_144\n        /* \"ERC20Token.sol\":17237:17249  _msgSender() */\n      tag_145\n        /* \"ERC20Token.sol\":17237:17247  _msgSender */\n      tag_99\n        /* \"ERC20Token.sol\":17237:17249  _msgSender() */\n      jump\t// in\n    tag_145:\n        /* \"ERC20Token.sol\":17251:17260  recipient */\n      dup5\n        /* \"ERC20Token.sol\":17262:17268  amount */\n      dup5\n        /* \"ERC20Token.sol\":17227:17236  _transfer */\n      tag_104\n        /* \"ERC20Token.sol\":17227:17269  _transfer(_msgSender(), recipient, amount) */\n      jump\t// in\n    tag_144:\n        /* \"ERC20Token.sol\":17287:17291  true */\n      0x01\n        /* \"ERC20Token.sol\":17280:17291  return true */\n      swap1\n      pop\n        /* \"ERC20Token.sol\":17100:17299  function transfer(address recipient, uint256 amount)... */\n      swap3\n      swap2\n      pop\n      pop\n      jump\t// out\n        /* \"ERC20Token.sol\":15090:15179  function geUnlockTime() public view returns (uint256) {... */\n    tag_75:\n        /* \"ERC20Token.sol\":15135:15142  uint256 */\n      0x00\n        /* \"ERC20Token.sol\":15162:15171  _lockTime */\n      sload(0x02)\n        /* \"ERC20Token.sol\":15155:15171  return _lockTime */\n      swap1\n      pop\n        /* \"ERC20Token.sol\":15090:15179  function geUnlockTime() public view returns (uint256) {... */\n      swap1\n      jump\t// out\n        /* \"ERC20Token.sol\":15255:15481  function lock(uint256 time) public virtual onlyOwner {... */\n    tag_80:\n        /* \"ERC20Token.sol\":14078:14090  _msgSender() */\n      tag_148\n        /* \"ERC20Token.sol\":14078:14088  _msgSender */\n      tag_99\n        /* \"ERC20Token.sol\":14078:14090  _msgSender() */\n      jump\t// in\n    tag_148:\n        /* \"ERC20Token.sol\":14068:14090  _owner == _msgSender() */\n      0xffffffffffffffffffffffffffffffffffffffff\n      and\n        /* \"ERC20Token.sol\":14068:14074  _owner */\n      0x00\n      dup1\n      sload\n      swap1\n      0x0100\n      exp\n      swap1\n      div\n      0xffffffffffffffffffffffffffffffffffffffff\n      and\n        /* \"ERC20Token.sol\":14068:14090  _owner == _msgSender() */\n      0xffffffffffffffffffffffffffffffffffffffff\n      and\n      eq\n        /* \"ERC20Token.sol\":14060:14127  require(_owner == _msgSender(), \"Ownable: caller is not the owner\") */\n      tag_149\n      jumpi\n      mload(0x40)\n      0x08c379a000000000000000000000000000000000000000000000000000000000\n      dup2\n      mstore\n      0x04\n      add\n      tag_150\n      swap1\n      tag_122\n      jump\t// in\n    tag_150:\n      mload(0x40)\n      dup1\n      swap2\n      sub\n      swap1\n      revert\n    tag_149:\n        /* \"ERC20Token.sol\":15336:15342  _owner */\n      0x00\n      dup1\n      sload\n      swap1\n      0x0100\n      exp\n      swap1\n      div\n      0xffffffffffffffffffffffffffffffffffffffff\n      and\n        /* \"ERC20Token.sol\":15319:15333  _previousOwner */\n      0x01\n      0x00\n        /* \"ERC20Token.sol\":15319:15342  _previousOwner = _owner */\n      0x0100\n      exp\n      dup2\n      sload\n      dup2\n      0xffffffffffffffffffffffffffffffffffffffff\n      mul\n      not\n      and\n      swap1\n      dup4\n      0xffffffffffffffffffffffffffffffffffffffff\n      and\n      mul\n      or\n      swap1\n      sstore\n      pop\n        /* \"ERC20Token.sol\":15370:15371  0 */\n      0x00\n        /* \"ERC20Token.sol\":15353:15359  _owner */\n      dup1\n      0x00\n        /* \"ERC20Token.sol\":15353:15372  _owner = address(0) */\n      0x0100\n      exp\n      dup2\n      sload\n      dup2\n      0xffffffffffffffffffffffffffffffffffffffff\n      mul\n      not\n      and\n      swap1\n      dup4\n      0xffffffffffffffffffffffffffffffffffffffff\n      and\n      mul\n      or\n      swap1\n      sstore\n      pop\n        /* \"ERC20Token.sol\":15413:15417  time */\n      dup1\n        /* \"ERC20Token.sol\":15395:15410  block.timestamp */\n      timestamp\n        /* \"ERC20Token.sol\":15395:15417  block.timestamp + time */\n      tag_152\n      swap2\n      swap1\n      tag_153\n      jump\t// in\n    tag_152:\n        /* \"ERC20Token.sol\":15383:15392  _lockTime */\n      0x02\n        /* \"ERC20Token.sol\":15383:15417  _lockTime = block.timestamp + time */\n      dup2\n      swap1\n      sstore\n      pop\n        /* \"ERC20Token.sol\":15470:15471  0 */\n      0x00\n        /* \"ERC20Token.sol\":15433:15473  OwnershipTransferred(_owner, address(0)) */\n      0xffffffffffffffffffffffffffffffffffffffff\n      and\n        /* \"ERC20Token.sol\":15454:15460  _owner */\n      0x00\n      dup1\n      sload\n      swap1\n      0x0100\n      exp\n      swap1\n      div\n      0xffffffffffffffffffffffffffffffffffffffff\n      and\n        /* \"ERC20Token.sol\":15433:15473  OwnershipTransferred(_owner, address(0)) */\n      0xffffffffffffffffffffffffffffffffffffffff\n      and\n      0x8be0079c531659141344cd1fd0a4f28419497f9722a3daafe3b4186f6b6457e0\n      mload(0x40)\n      mload(0x40)\n      dup1\n      swap2\n      sub\n      swap1\n      log3\n        /* \"ERC20Token.sol\":15255:15481  function lock(uint256 time) public virtual onlyOwner {... */\n      pop\n      jump\t// out\n        /* \"ERC20Token.sol\":17307:17491  function allowance(address owner, address spender)... */\n    tag_84:\n        /* \"ERC20Token.sol\":17424:17431  uint256 */\n      0x00\n        /* \"ERC20Token.sol\":17456:17467  _allowances */\n      0x04\n        /* \"ERC20Token.sol\":17456:17474  _allowances[owner] */\n      0x00\n        /* \"ERC20Token.sol\":17468:17473  owner */\n      dup5\n        /* \"ERC20Token.sol\":17456:17474  _allowances[owner] */\n      0xffffffffffffffffffffffffffffffffffffffff\n      and\n      0xffffffffffffffffffffffffffffffffffffffff\n      and\n      dup2\n      mstore\n      0x20\n      add\n      swap1\n      dup2\n      mstore\n      0x20\n      add\n      0x00\n      keccak256\n        /* \"ERC20Token.sol\":17456:17483  _allowances[owner][spender] */\n      0x00\n        /* \"ERC20Token.sol\":17475:17482  spender */\n      dup4\n        /* \"ERC20Token.sol\":17456:17483  _allowances[owner][spender] */\n      0xffffffffffffffffffffffffffffffffffffffff\n      and\n      0xffffffffffffffffffffffffffffffffffffffff\n      and\n      dup2\n      mstore\n      0x20\n      add\n      swap1\n      dup2\n      mstore\n      0x20\n      add\n      0x00\n      keccak256\n      sload\n        /* \"ERC20Token.sol\":17449:17483  return _allowances[owner][spender] */\n      swap1\n      pop\n        /* \"ERC20Token.sol\":17307:17491  function allowance(address owner, address spender)... */\n      swap3\n      swap2\n      pop\n      pop\n      jump\t// out\n        /* \"ERC20Token.sol\":14801:15082  function transferOwnership(address newOwner) public virtual onlyOwner {... */\n    tag_88:\n        /* \"ERC20Token.sol\":14078:14090  _msgSender() */\n      tag_156\n        /* \"ERC20Token.sol\":14078:14088  _msgSender */\n      tag_99\n        /* \"ERC20Token.sol\":14078:14090  _msgSender() */\n      jump\t// in\n    tag_156:\n        /* \"ERC20Token.sol\":14068:14090  _owner == _msgSender() */\n      0xffffffffffffffffffffffffffffffffffffffff\n      and\n        /* \"ERC20Token.sol\":14068:14074  _owner */\n      0x00\n      dup1\n      sload\n      swap1\n      0x0100\n      exp\n      swap1\n      div\n      0xffffffffffffffffffffffffffffffffffffffff\n      and\n        /* \"ERC20Token.sol\":14068:14090  _owner == _msgSender() */\n      0xffffffffffffffffffffffffffffffffffffffff\n      and\n      eq\n        /* \"ERC20Token.sol\":14060:14127  require(_owner == _msgSender(), \"Ownable: caller is not the owner\") */\n      tag_157\n      jumpi\n      mload(0x40)\n      0x08c379a000000000000000000000000000000000000000000000000000000000\n      dup2\n      mstore\n      0x04\n      add\n      tag_158\n      swap1\n      tag_122\n      jump\t// in\n    tag_158:\n      mload(0x40)\n      dup1\n      swap2\n      sub\n      swap1\n      revert\n    tag_157:\n        /* \"ERC20Token.sol\":14924:14925  0 */\n      0x00\n        /* \"ERC20Token.sol\":14904:14926  newOwner != address(0) */\n      0xffffffffffffffffffffffffffffffffffffffff\n      and\n        /* \"ERC20Token.sol\":14904:14912  newOwner */\n      dup2\n        /* \"ERC20Token.sol\":14904:14926  newOwner != address(0) */\n      0xffffffffffffffffffffffffffffffffffffffff\n      and\n      sub\n        /* \"ERC20Token.sol\":14882:14992  require(... */\n      tag_160\n      jumpi\n      mload(0x40)\n      0x08c379a000000000000000000000000000000000000000000000000000000000\n      dup2\n      mstore\n      0x04\n      add\n      tag_161\n      swap1\n      tag_162\n      jump\t// in\n    tag_161:\n      mload(0x40)\n      dup1\n      swap2\n      sub\n      swap1\n      revert\n    tag_160:\n        /* \"ERC20Token.sol\":15037:15045  newOwner */\n      dup1\n        /* \"ERC20Token.sol\":15008:15046  OwnershipTransferred(_owner, newOwner) */\n      0xffffffffffffffffffffffffffffffffffffffff\n      and\n        /* \"ERC20Token.sol\":15029:15035  _owner */\n      0x00\n      dup1\n      sload\n      swap1\n      0x0100\n      exp\n      swap1\n      div\n      0xffffffffffffffffffffffffffffffffffffffff\n      and\n        /* \"ERC20Token.sol\":15008:15046  OwnershipTransferred(_owner, newOwner) */\n      0xffffffffffffffffffffffffffffffffffffffff\n      and\n      0x8be0079c531659141344cd1fd0a4f28419497f9722a3daafe3b4186f6b6457e0\n      mload(0x40)\n      mload(0x40)\n      dup1\n      swap2\n      sub\n      swap1\n      log3\n        /* \"ERC20Token.sol\":15066:15074  newOwner */\n      dup1\n        /* \"ERC20Token.sol\":15057:15063  _owner */\n      0x00\n      dup1\n        /* \"ERC20Token.sol\":15057:15074  _owner = newOwner */\n      0x0100\n      exp\n      dup2\n      sload\n      dup2\n      0xffffffffffffffffffffffffffffffffffffffff\n      mul\n      not\n      and\n      swap1\n      dup4\n      0xffffffffffffffffffffffffffffffffffffffff\n      and\n      mul\n      or\n      swap1\n      sstore\n      pop\n        /* \"ERC20Token.sol\":14801:15082  function transferOwnership(address newOwner) public virtual onlyOwner {... */\n      pop\n      jump\t// out\n        /* \"ERC20Token.sol\":5814:5929  function _msgSender() internal view virtual returns (address payable) {... */\n    tag_99:\n        /* \"ERC20Token.sol\":5867:5882  address payable */\n      0x00\n        /* \"ERC20Token.sol\":5910:5920  msg.sender */\n      caller\n        /* \"ERC20Token.sol\":5895:5921  return payable(msg.sender) */\n      swap1\n      pop\n        /* \"ERC20Token.sol\":5814:5929  function _msgSender() internal view virtual returns (address payable) {... */\n      swap1\n      jump\t// out\n        /* \"ERC20Token.sol\":18870:19241  function _approve(... */\n    tag_100:\n        /* \"ERC20Token.sol\":19014:19015  0 */\n      0x00\n        /* \"ERC20Token.sol\":18997:19016  owner != address(0) */\n      0xffffffffffffffffffffffffffffffffffffffff\n      and\n        /* \"ERC20Token.sol\":18997:19002  owner */\n      dup4\n        /* \"ERC20Token.sol\":18997:19016  owner != address(0) */\n      0xffffffffffffffffffffffffffffffffffffffff\n      and\n      sub\n        /* \"ERC20Token.sol\":18989:19057  require(owner != address(0), \"ERC20: approve from the zero address\") */\n      tag_165\n      jumpi\n      mload(0x40)\n      0x08c379a000000000000000000000000000000000000000000000000000000000\n      dup2\n      mstore\n      0x04\n      add\n      tag_166\n      swap1\n      tag_167\n      jump\t// in\n    tag_166:\n      mload(0x40)\n      dup1\n      swap2\n      sub\n      swap1\n      revert\n    tag_165:\n        /* \"ERC20Token.sol\":19095:19096  0 */\n      0x00\n        /* \"ERC20Token.sol\":19076:19097  spender != address(0) */\n      0xffffffffffffffffffffffffffffffffffffffff\n      and\n        /* \"ERC20Token.sol\":19076:19083  spender */\n      dup3\n        /* \"ERC20Token.sol\":19076:19097  spender != address(0) */\n      0xffffffffffffffffffffffffffffffffffffffff\n      and\n      sub\n        /* \"ERC20Token.sol\":19068:19136  require(spender != address(0), \"ERC20: approve to the zero address\") */\n      tag_168\n      jumpi\n      mload(0x40)\n      0x08c379a000000000000000000000000000000000000000000000000000000000\n      dup2\n      mstore\n      0x04\n      add\n      tag_169\n      swap1\n      tag_170\n      jump\t// in\n    tag_169:\n      mload(0x40)\n      dup1\n      swap2\n      sub\n      swap1\n      revert\n    tag_168:\n        /* \"ERC20Token.sol\":19179:19185  amount */\n      dup1\n        /* \"ERC20Token.sol\":19149:19160  _allowances */\n      0x04\n        /* \"ERC20Token.sol\":19149:19167  _allowances[owner] */\n      0x00\n        /* \"ERC20Token.sol\":19161:19166  owner */\n      dup6\n        /* \"ERC20Token.sol\":19149:19167  _allowances[owner] */\n      0xffffffffffffffffffffffffffffffffffffffff\n      and\n      0xffffffffffffffffffffffffffffffffffffffff\n      and\n      dup2\n      mstore\n      0x20\n      add\n      swap1\n      dup2\n      mstore\n      0x20\n      add\n      0x00\n      keccak256\n        /* \"ERC20Token.sol\":19149:19176  _allowances[owner][spender] */\n      0x00\n        /* \"ERC20Token.sol\":19168:19175  spender */\n      dup5\n        /* \"ERC20Token.sol\":19149:19176  _allowances[owner][spender] */\n      0xffffffffffffffffffffffffffffffffffffffff\n      and\n      0xffffffffffffffffffffffffffffffffffffffff\n      and\n      dup2\n      mstore\n      0x20\n      add\n      swap1\n      dup2\n      mstore\n      0x20\n      add\n      0x00\n      keccak256\n        /* \"ERC20Token.sol\":19149:19185  _allowances[owner][spender] = amount */\n      dup2\n      swap1\n      sstore\n      pop\n        /* \"ERC20Token.sol\":19217:19224  spender */\n      dup2\n        /* \"ERC20Token.sol\":19201:19233  Approval(owner, spender, amount) */\n      0xffffffffffffffffffffffffffffffffffffffff\n      and\n        /* \"ERC20Token.sol\":19210:19215  owner */\n      dup4\n        /* \"ERC20Token.sol\":19201:19233  Approval(owner, spender, amount) */\n      0xffffffffffffffffffffffffffffffffffffffff\n      and\n      0x8c5be1e5ebec7d5bd14f71427d1e84f3dd0314c0f7b2291e5b200ac8c7c3b925\n        /* \"ERC20Token.sol\":19226:19232  amount */\n      dup4\n        /* \"ERC20Token.sol\":19201:19233  Approval(owner, spender, amount) */\n      mload(0x40)\n      tag_171\n      swap2\n      swap1\n      tag_36\n      jump\t// in\n    tag_171:\n      mload(0x40)\n      dup1\n      swap2\n      sub\n      swap1\n      log3\n        /* \"ERC20Token.sol\":18870:19241  function _approve(... */\n      pop\n      pop\n      pop\n      jump\t// out\n        /* \"ERC20Token.sol\":19249:19743  function _transfer(... */\n    tag_104:\n        /* \"ERC20Token.sol\":19387:19388  0 */\n      0x00\n        /* \"ERC20Token.sol\":19371:19389  from != address(0) */\n      0xffffffffffffffffffffffffffffffffffffffff\n      and\n        /* \"ERC20Token.sol\":19371:19375  from */\n      dup4\n        /* \"ERC20Token.sol\":19371:19389  from != address(0) */\n      0xffffffffffffffffffffffffffffffffffffffff\n      and\n      sub\n        /* \"ERC20Token.sol\":19363:19431  require(from != address(0), \"ERC20: transfer from the zero address\") */\n      tag_173\n      jumpi\n      mload(0x40)\n      0x08c379a000000000000000000000000000000000000000000000000000000000\n      dup2\n      mstore\n      0x04\n      add\n      tag_174\n      swap1\n      tag_175\n      jump\t// in\n    tag_174:\n      mload(0x40)\n      dup1\n      swap2\n      sub\n      swap1\n      revert\n    tag_173:\n        /* \"ERC20Token.sol\":19464:19465  0 */\n      0x00\n        /* \"ERC20Token.sol\":19450:19466  to != address(0) */\n      0xffffffffffffffffffffffffffffffffffffffff\n      and\n        /* \"ERC20Token.sol\":19450:19452  to */\n      dup3\n        /* \"ERC20Token.sol\":19450:19466  to != address(0) */\n      0xffffffffffffffffffffffffffffffffffffffff\n      and\n      sub\n        /* \"ERC20Token.sol\":19442:19506  require(to != address(0), \"ERC20: transfer to the zero address\") */\n      tag_176\n      jumpi\n      mload(0x40)\n      0x08c379a000000000000000000000000000000000000000000000000000000000\n      dup2\n      mstore\n      0x04\n      add\n      tag_177\n      swap1\n      tag_178\n      jump\t// in\n    tag_177:\n      mload(0x40)\n      dup1\n      swap2\n      sub\n      swap1\n      revert\n    tag_176:\n        /* \"ERC20Token.sol\":19534:19535  0 */\n      0x00\n        /* \"ERC20Token.sol\":19525:19531  amount */\n      dup2\n        /* \"ERC20Token.sol\":19525:19535  amount > 0 */\n      gt\n        /* \"ERC20Token.sol\":19517:19581  require(amount > 0, \"Transfer amount must be greater than zero\") */\n      tag_179\n      jumpi\n      mload(0x40)\n      0x08c379a000000000000000000000000000000000000000000000000000000000\n      dup2\n      mstore\n      0x04\n      add\n      tag_180\n      swap1\n      tag_181\n      jump\t// in\n    tag_180:\n      mload(0x40)\n      dup1\n      swap2\n      sub\n      swap1\n      revert\n    tag_179:\n        /* \"ERC20Token.sol\":19614:19641  _balances[from].sub(amount) */\n      tag_182\n        /* \"ERC20Token.sol\":19634:19640  amount */\n      dup2\n        /* \"ERC20Token.sol\":19614:19623  _balances */\n      0x03\n        /* \"ERC20Token.sol\":19614:19629  _balances[from] */\n      0x00\n        /* \"ERC20Token.sol\":19624:19628  from */\n      dup7\n        /* \"ERC20Token.sol\":19614:19629  _balances[from] */\n      0xffffffffffffffffffffffffffffffffffffffff\n      and\n      0xffffffffffffffffffffffffffffffffffffffff\n      and\n      dup2\n      mstore\n      0x20\n      add\n      swap1\n      dup2\n      mstore\n      0x20\n      add\n      0x00\n      keccak256\n      sload\n        /* \"ERC20Token.sol\":19614:19633  _balances[from].sub */\n      tag_183\n      swap1\n        /* \"ERC20Token.sol\":19614:19641  _balances[from].sub(amount) */\n      swap2\n      swap1\n      0xffffffff\n      and\n      jump\t// in\n    tag_182:\n        /* \"ERC20Token.sol\":19596:19605  _balances */\n      0x03\n        /* \"ERC20Token.sol\":19596:19611  _balances[from] */\n      0x00\n        /* \"ERC20Token.sol\":19606:19610  from */\n      dup6\n        /* \"ERC20Token.sol\":19596:19611  _balances[from] */\n      0xffffffffffffffffffffffffffffffffffffffff\n      and\n      0xffffffffffffffffffffffffffffffffffffffff\n      and\n      dup2\n      mstore\n      0x20\n      add\n      swap1\n      dup2\n      mstore\n      0x20\n      add\n      0x00\n      keccak256\n        /* \"ERC20Token.sol\":19596:19641  _balances[from] = _balances[from].sub(amount) */\n      dup2\n      swap1\n      sstore\n      pop\n        /* \"ERC20Token.sol\":19668:19693  _balances[to].add(amount) */\n      tag_184\n        /* \"ERC20Token.sol\":19686:19692  amount */\n      dup2\n        /* \"ERC20Token.sol\":19668:19677  _balances */\n      0x03\n        /* \"ERC20Token.sol\":19668:19681  _balances[to] */\n      0x00\n        /* \"ERC20Token.sol\":19678:19680  to */\n      dup6\n        /* \"ERC20Token.sol\":19668:19681  _balances[to] */\n      0xffffffffffffffffffffffffffffffffffffffff\n      and\n      0xffffffffffffffffffffffffffffffffffffffff\n      and\n      dup2\n      mstore\n      0x20\n      add\n      swap1\n      dup2\n      mstore\n      0x20\n      add\n      0x00\n      keccak256\n      sload\n        /* \"ERC20Token.sol\":19668:19685  _balances[to].add */\n      tag_116\n      swap1\n        /* \"ERC20Token.sol\":19668:19693  _balances[to].add(amount) */\n      swap2\n      swap1\n      0xffffffff\n      and\n      jump\t// in\n    tag_184:\n        /* \"ERC20Token.sol\":19652:19661  _balances */\n      0x03\n        /* \"ERC20Token.sol\":19652:19665  _balances[to] */\n      0x00\n        /* \"ERC20Token.sol\":19662:19664  to */\n      dup5\n        /* \"ERC20Token.sol\":19652:19665  _balances[to] */\n      0xffffffffffffffffffffffffffffffffffffffff\n      and\n      0xffffffffffffffffffffffffffffffffffffffff\n      and\n      dup2\n      mstore\n      0x20\n      add\n      swap1\n      dup2\n      mstore\n      0x20\n      add\n      0x00\n      keccak256\n        /* \"ERC20Token.sol\":19652:19693  _balances[to] = _balances[to].add(amount) */\n      dup2\n      swap1\n      sstore\n      pop\n        /* \"ERC20Token.sol\":19724:19726  to */\n      dup2\n        /* \"ERC20Token.sol\":19709:19735  Transfer(from, to, amount) */\n      0xffffffffffffffffffffffffffffffffffffffff\n      and\n        /* \"ERC20Token.sol\":19718:19722  from */\n      dup4\n        /* \"ERC20Token.sol\":19709:19735  Transfer(from, to, amount) */\n      0xffffffffffffffffffffffffffffffffffffffff\n      and\n      0xddf252ad1be2c89b69c2b068fc378daa952ba7f163c4a11628f55a4df523b3ef\n        /* \"ERC20Token.sol\":19728:19734  amount */\n      dup4\n        /* \"ERC20Token.sol\":19709:19735  Transfer(from, to, amount) */\n      mload(0x40)\n      tag_185\n      swap2\n      swap1\n      tag_36\n      jump\t// in\n    tag_185:\n      mload(0x40)\n      dup1\n      swap2\n      sub\n      swap1\n      log3\n        /* \"ERC20Token.sol\":19249:19743  function _transfer(... */\n      pop\n      pop\n      pop\n      jump\t// out\n        /* \"ERC20Token.sol\":2122:2348  function sub(... */\n    tag_109:\n        /* \"ERC20Token.sol\":2242:2249  uint256 */\n      0x00\n        /* \"ERC20Token.sol\":2275:2276  a */\n      dup4\n        /* \"ERC20Token.sol\":2270:2271  b */\n      dup4\n        /* \"ERC20Token.sol\":2270:2276  b <= a */\n      gt\n      iszero\n        /* \"ERC20Token.sol\":2278:2290  errorMessage */\n      dup3\n        /* \"ERC20Token.sol\":2262:2291  require(b <= a, errorMessage) */\n      swap1\n      tag_187\n      jumpi\n      mload(0x40)\n      0x08c379a000000000000000000000000000000000000000000000000000000000\n      dup2\n      mstore\n      0x04\n      add\n      tag_188\n      swap2\n      swap1\n      tag_26\n      jump\t// in\n    tag_188:\n      mload(0x40)\n      dup1\n      swap2\n      sub\n      swap1\n      revert\n    tag_187:\n      pop\n        /* \"ERC20Token.sol\":2302:2311  uint256 c */\n      0x00\n        /* \"ERC20Token.sol\":2318:2319  b */\n      dup4\n        /* \"ERC20Token.sol\":2314:2315  a */\n      dup6\n        /* \"ERC20Token.sol\":2314:2319  a - b */\n      tag_189\n      swap2\n      swap1\n      tag_190\n      jump\t// in\n    tag_189:\n        /* \"ERC20Token.sol\":2302:2319  uint256 c = a - b */\n      swap1\n      pop\n        /* \"ERC20Token.sol\":2339:2340  c */\n      dup1\n        /* \"ERC20Token.sol\":2332:2340  return c */\n      swap2\n      pop\n      pop\n        /* \"ERC20Token.sol\":2122:2348  function sub(... */\n      swap4\n      swap3\n      pop\n      pop\n      pop\n      jump\t// out\n        /* \"ERC20Token.sol\":1219:1400  function add(uint256 a, uint256 b) internal pure returns (uint256) {... */\n    tag_116:\n        /* \"ERC20Token.sol\":1277:1284  uint256 */\n      0x00\n        /* \"ERC20Token.sol\":1297:1306  uint256 c */\n      dup1\n        /* \"ERC20Token.sol\":1313:1314  b */\n      dup3\n        /* \"ERC20Token.sol\":1309:1310  a */\n      dup5\n        /* \"ERC20Token.sol\":1309:1314  a + b */\n      tag_192\n      swap2\n      swap1\n      tag_153\n      jump\t// in\n    tag_192:\n        /* \"ERC20Token.sol\":1297:1314  uint256 c = a + b */\n      swap1\n      pop\n        /* \"ERC20Token.sol\":1338:1339  a */\n      dup4\n        /* \"ERC20Token.sol\":1333:1334  c */\n      dup2\n        /* \"ERC20Token.sol\":1333:1339  c >= a */\n      lt\n      iszero\n        /* \"ERC20Token.sol\":1325:1371  require(c >= a, \"SafeMath: addition overflow\") */\n      tag_193\n      jumpi\n      mload(0x40)\n      0x08c379a000000000000000000000000000000000000000000000000000000000\n      dup2\n      mstore\n      0x04\n      add\n      tag_194\n      swap1\n      tag_195\n      jump\t// in\n    tag_194:\n      mload(0x40)\n      dup1\n      swap2\n      sub\n      swap1\n      revert\n    tag_193:\n        /* \"ERC20Token.sol\":1391:1392  c */\n      dup1\n        /* \"ERC20Token.sol\":1384:1392  return c */\n      swap2\n      pop\n      pop\n        /* \"ERC20Token.sol\":1219:1400  function add(uint256 a, uint256 b) internal pure returns (uint256) {... */\n      swap3\n      swap2\n      pop\n      pop\n      jump\t// out\n        /* \"ERC20Token.sol\":1683:1819  function sub(uint256 a, uint256 b) internal pure returns (uint256) {... */\n    tag_183:\n        /* \"ERC20Token.sol\":1741:1748  uint256 */\n      0x00\n        /* \"ERC20Token.sol\":1768:1811  sub(a, b, \"SafeMath: subtraction overflow\") */\n      tag_197\n        /* \"ERC20Token.sol\":1772:1773  a */\n      dup4\n        /* \"ERC20Token.sol\":1775:1776  b */\n      dup4\n        /* \"ERC20Token.sol\":1768:1811  sub(a, b, \"SafeMath: subtraction overflow\") */\n      mload(0x40)\n      dup1\n      0x40\n      add\n      0x40\n      mstore\n      dup1\n      0x1e\n      dup2\n      mstore\n      0x20\n      add\n      0x536166654d6174683a207375627472616374696f6e206f766572666c6f770000\n      dup2\n      mstore\n      pop\n        /* \"ERC20Token.sol\":1768:1771  sub */\n      tag_109\n        /* \"ERC20Token.sol\":1768:1811  sub(a, b, \"SafeMath: subtraction overflow\") */\n      jump\t// in\n    tag_197:\n        /* \"ERC20Token.sol\":1761:1811  return sub(a, b, \"SafeMath: subtraction overflow\") */\n      swap1\n      pop\n        /* \"ERC20Token.sol\":1683:1819  function sub(uint256 a, uint256 b) internal pure returns (uint256) {... */\n      swap3\n      swap2\n      pop\n      pop\n      jump\t// out\n        /* \"#utility.yul\":7:106   */\n    tag_198:\n        /* \"#utility.yul\":59:65   */\n      0x00\n        /* \"#utility.yul\":93:98   */\n      dup2\n        /* \"#utility.yul\":87:99   */\n      mload\n        /* \"#utility.yul\":77:99   */\n      swap1\n      pop\n        /* \"#utility.yul\":7:106   */\n      swap2\n      swap1\n      pop\n      jump\t// out\n        /* \"#utility.yul\":112:281   */\n    tag_199:\n        /* \"#utility.yul\":196:207   */\n      0x00\n        /* \"#utility.yul\":230:236   */\n      dup3\n        /* \"#utility.yul\":225:228   */\n      dup3\n        /* \"#utility.yul\":218:237   */\n      mstore\n        /* \"#utility.yul\":270:274   */\n      0x20\n        /* \"#utility.yul\":265:268   */\n      dup3\n        /* \"#utility.yul\":261:275   */\n      add\n        /* \"#utility.yul\":246:275   */\n      swap1\n      pop\n        /* \"#utility.yul\":112:281   */\n      swap3\n      swap2\n      pop\n      pop\n      jump\t// out\n        /* \"#utility.yul\":287:533   */\n    tag_200:\n        /* \"#utility.yul\":368:369   */\n      0x00\n        /* \"#utility.yul\":378:491   */\n    tag_245:\n        /* \"#utility.yul\":392:398   */\n      dup4\n        /* \"#utility.yul\":389:390   */\n      dup2\n        /* \"#utility.yul\":386:399   */\n      lt\n        /* \"#utility.yul\":378:491   */\n      iszero\n      tag_247\n      jumpi\n        /* \"#utility.yul\":477:478   */\n      dup1\n        /* \"#utility.yul\":472:475   */\n      dup3\n        /* \"#utility.yul\":468:479   */\n      add\n        /* \"#utility.yul\":462:480   */\n      mload\n        /* \"#utility.yul\":458:459   */\n      dup2\n        /* \"#utility.yul\":453:456   */\n      dup5\n        /* \"#utility.yul\":449:460   */\n      add\n        /* \"#utility.yul\":442:481   */\n      mstore\n        /* \"#utility.yul\":414:416   */\n      0x20\n        /* \"#utility.yul\":411:412   */\n      dup2\n        /* \"#utility.yul\":407:417   */\n      add\n        /* \"#utility.yul\":402:417   */\n      swap1\n      pop\n        /* \"#utility.yul\":378:491   */\n      jump(tag_245)\n    tag_247:\n        /* \"#utility.yul\":525:526   */\n      0x00\n        /* \"#utility.yul\":516:522   */\n      dup5\n        /* \"#utility.yul\":511:514   */\n      dup5\n        /* \"#utility.yul\":507:523   */\n      add\n        /* \"#utility.yul\":500:527   */\n      mstore\n        /* \"#utility.yul\":349:533   */\n      pop\n        /* \"#utility.yul\":287:533   */\n      pop\n      pop\n      pop\n      jump\t// out\n        /* \"#utility.yul\":539:641   */\n    tag_201:\n        /* \"#utility.yul\":580:586   */\n      0x00\n        /* \"#utility.yul\":631:633   */\n      0x1f\n        /* \"#utility.yul\":627:634   */\n      not\n        /* \"#utility.yul\":622:624   */\n      0x1f\n        /* \"#utility.yul\":615:620   */\n      dup4\n        /* \"#utility.yul\":611:625   */\n      add\n        /* \"#utility.yul\":607:635   */\n      and\n        /* \"#utility.yul\":597:635   */\n      swap1\n      pop\n        /* \"#utility.yul\":539:641   */\n      swap2\n      swap1\n      pop\n      jump\t// out\n        /* \"#utility.yul\":647:1024   */\n    tag_202:\n        /* \"#utility.yul\":735:738   */\n      0x00\n        /* \"#utility.yul\":763:802   */\n      tag_250\n        /* \"#utility.yul\":796:801   */\n      dup3\n        /* \"#utility.yul\":763:802   */\n      tag_198\n      jump\t// in\n    tag_250:\n        /* \"#utility.yul\":818:889   */\n      tag_251\n        /* \"#utility.yul\":882:888   */\n      dup2\n        /* \"#utility.yul\":877:880   */\n      dup6\n        /* \"#utility.yul\":818:889   */\n      tag_199\n      jump\t// in\n    tag_251:\n        /* \"#utility.yul\":811:889   */\n      swap4\n      pop\n        /* \"#utility.yul\":898:963   */\n      tag_252\n        /* \"#utility.yul\":956:962   */\n      dup2\n        /* \"#utility.yul\":951:954   */\n      dup6\n        /* \"#utility.yul\":944:948   */\n      0x20\n        /* \"#utility.yul\":937:942   */\n      dup7\n        /* \"#utility.yul\":933:949   */\n      add\n        /* \"#utility.yul\":898:963   */\n      tag_200\n      jump\t// in\n    tag_252:\n        /* \"#utility.yul\":988:1017   */\n      tag_253\n        /* \"#utility.yul\":1010:1016   */\n      dup2\n        /* \"#utility.yul\":988:1017   */\n      tag_201\n      jump\t// in\n    tag_253:\n        /* \"#utility.yul\":983:986   */\n      dup5\n        /* \"#utility.yul\":979:1018   */\n      add\n        /* \"#utility.yul\":972:1018   */\n      swap2\n      pop\n        /* \"#utility.yul\":739:1024   */\n      pop\n        /* \"#utility.yul\":647:1024   */\n      swap3\n      swap2\n      pop\n      pop\n      jump\t// out\n        /* \"#utility.yul\":1030:1343   */\n    tag_26:\n        /* \"#utility.yul\":1143:1147   */\n      0x00\n        /* \"#utility.yul\":1181:1183   */\n      0x20\n        /* \"#utility.yul\":1170:1179   */\n      dup3\n        /* \"#utility.yul\":1166:1184   */\n      add\n        /* \"#utility.yul\":1158:1184   */\n      swap1\n      pop\n        /* \"#utility.yul\":1230:1239   */\n      dup2\n        /* \"#utility.yul\":1224:1228   */\n      dup2\n        /* \"#utility.yul\":1220:1240   */\n      sub\n        /* \"#utility.yul\":1216:1217   */\n      0x00\n        /* \"#utility.yul\":1205:1214   */\n      dup4\n        /* \"#utility.yul\":1201:1218   */\n      add\n        /* \"#utility.yul\":1194:1241   */\n      mstore\n        /* \"#utility.yul\":1258:1336   */\n      tag_255\n        /* \"#utility.yul\":1331:1335   */\n      dup2\n        /* \"#utility.yul\":1322:1328   */\n      dup5\n        /* \"#utility.yul\":1258:1336   */\n      tag_202\n      jump\t// in\n    tag_255:\n        /* \"#utility.yul\":1250:1336   */\n      swap1\n      pop\n        /* \"#utility.yul\":1030:1343   */\n      swap3\n      swap2\n      pop\n      pop\n      jump\t// out\n        /* \"#utility.yul\":1430:1547   */\n    tag_204:\n        /* \"#utility.yul\":1539:1540   */\n      0x00\n        /* \"#utility.yul\":1536:1537   */\n      dup1\n        /* \"#utility.yul\":1529:1541   */\n      revert\n        /* \"#utility.yul\":1676:1802   */\n    tag_206:\n        /* \"#utility.yul\":1713:1720   */\n      0x00\n        /* \"#utility.yul\":1753:1795   */\n      0xffffffffffffffffffffffffffffffffffffffff\n        /* \"#utility.yul\":1746:1751   */\n      dup3\n        /* \"#utility.yul\":1742:1796   */\n      and\n        /* \"#utility.yul\":1731:1796   */\n      swap1\n      pop\n        /* \"#utility.yul\":1676:1802   */\n      swap2\n      swap1\n      pop\n      jump\t// out\n        /* \"#utility.yul\":1808:1904   */\n    tag_207:\n        /* \"#utility.yul\":1845:1852   */\n      0x00\n        /* \"#utility.yul\":1874:1898   */\n      tag_261\n        /* \"#utility.yul\":1892:1897   */\n      dup3\n        /* \"#utility.yul\":1874:1898   */\n      tag_206\n      jump\t// in\n    tag_261:\n        /* \"#utility.yul\":1863:1898   */\n      swap1\n      pop\n        /* \"#utility.yul\":1808:1904   */\n      swap2\n      swap1\n      pop\n      jump\t// out\n        /* \"#utility.yul\":1910:2032   */\n    tag_208:\n        /* \"#utility.yul\":1983:2007   */\n      tag_263\n        /* \"#utility.yul\":2001:2006   */\n      dup2\n        /* \"#utility.yul\":1983:2007   */\n      tag_207\n      jump\t// in\n    tag_263:\n        /* \"#utility.yul\":1976:1981   */\n      dup2\n        /* \"#utility.yul\":1973:2008   */\n      eq\n        /* \"#utility.yul\":1963:2026   */\n      tag_264\n      jumpi\n        /* \"#utility.yul\":2022:2023   */\n      0x00\n        /* \"#utility.yul\":2019:2020   */\n      dup1\n        /* \"#utility.yul\":2012:2024   */\n      revert\n        /* \"#utility.yul\":1963:2026   */\n    tag_264:\n        /* \"#utility.yul\":1910:2032   */\n      pop\n      jump\t// out\n        /* \"#utility.yul\":2038:2177   */\n    tag_209:\n        /* \"#utility.yul\":2084:2089   */\n      0x00\n        /* \"#utility.yul\":2122:2128   */\n      dup2\n        /* \"#utility.yul\":2109:2129   */\n      calldataload\n        /* \"#utility.yul\":2100:2129   */\n      swap1\n      pop\n        /* \"#utility.yul\":2138:2171   */\n      tag_266\n        /* \"#utility.yul\":2165:2170   */\n      dup2\n        /* \"#utility.yul\":2138:2171   */\n      tag_208\n      jump\t// in\n    tag_266:\n        /* \"#utility.yul\":2038:2177   */\n      swap3\n      swap2\n      pop\n      pop\n      jump\t// out\n        /* \"#utility.yul\":2183:2260   */\n    tag_210:\n        /* \"#utility.yul\":2220:2227   */\n      0x00\n        /* \"#utility.yul\":2249:2254   */\n      dup2\n        /* \"#utility.yul\":2238:2254   */\n      swap1\n      pop\n        /* \"#utility.yul\":2183:2260   */\n      swap2\n      swap1\n      pop\n      jump\t// out\n        /* \"#utility.yul\":2266:2388   */\n    tag_211:\n        /* \"#utility.yul\":2339:2363   */\n      tag_269\n        /* \"#utility.yul\":2357:2362   */\n      dup2\n        /* \"#utility.yul\":2339:2363   */\n      tag_210\n      jump\t// in\n    tag_269:\n        /* \"#utility.yul\":2332:2337   */\n      dup2\n        /* \"#utility.yul\":2329:2364   */\n      eq\n        /* \"#utility.yul\":2319:2382   */\n      tag_270\n      jumpi\n        /* \"#utility.yul\":2378:2379   */\n      0x00\n        /* \"#utility.yul\":2375:2376   */\n      dup1\n        /* \"#utility.yul\":2368:2380   */\n      revert\n        /* \"#utility.yul\":2319:2382   */\n    tag_270:\n        /* \"#utility.yul\":2266:2388   */\n      pop\n      jump\t// out\n        /* \"#utility.yul\":2394:2533   */\n    tag_212:\n        /* \"#utility.yul\":2440:2445   */\n      0x00\n        /* \"#utility.yul\":2478:2484   */\n      dup2\n        /* \"#utility.yul\":2465:2485   */\n      calldataload\n        /* \"#utility.yul\":2456:2485   */\n      swap1\n      pop\n        /* \"#utility.yul\":2494:2527   */\n      tag_272\n        /* \"#utility.yul\":2521:2526   */\n      dup2\n        /* \"#utility.yul\":2494:2527   */\n      tag_211\n      jump\t// in\n    tag_272:\n        /* \"#utility.yul\":2394:2533   */\n      swap3\n      swap2\n      pop\n      pop\n      jump\t// out\n        /* \"#utility.yul\":2539:3013   */\n    tag_29:\n        /* \"#utility.yul\":2607:2613   */\n      0x00\n        /* \"#utility.yul\":2615:2621   */\n      dup1\n        /* \"#utility.yul\":2664:2666   */\n      0x40\n        /* \"#utility.yul\":2652:2661   */\n      dup4\n        /* \"#utility.yul\":2643:2650   */\n      dup6\n        /* \"#utility.yul\":2639:2662   */\n      sub\n        /* \"#utility.yul\":2635:2667   */\n      slt\n        /* \"#utility.yul\":2632:2751   */\n      iszero\n      tag_274\n      jumpi\n        /* \"#utility.yul\":2670:2749   */\n      tag_275\n      tag_204\n      jump\t// in\n    tag_275:\n        /* \"#utility.yul\":2632:2751   */\n    tag_274:\n        /* \"#utility.yul\":2790:2791   */\n      0x00\n        /* \"#utility.yul\":2815:2868   */\n      tag_276\n        /* \"#utility.yul\":2860:2867   */\n      dup6\n        /* \"#utility.yul\":2851:2857   */\n      dup3\n        /* \"#utility.yul\":2840:2849   */\n      dup7\n        /* \"#utility.yul\":2836:2858   */\n      add\n        /* \"#utility.yul\":2815:2868   */\n      tag_209\n      jump\t// in\n    tag_276:\n        /* \"#utility.yul\":2805:2868   */\n      swap3\n      pop\n        /* \"#utility.yul\":2761:2878   */\n      pop\n        /* \"#utility.yul\":2917:2919   */\n      0x20\n        /* \"#utility.yul\":2943:2996   */\n      tag_277\n        /* \"#utility.yul\":2988:2995   */\n      dup6\n        /* \"#utility.yul\":2979:2985   */\n      dup3\n        /* \"#utility.yul\":2968:2977   */\n      dup7\n        /* \"#utility.yul\":2964:2986   */\n      add\n        /* \"#utility.yul\":2943:2996   */\n      tag_212\n      jump\t// in\n    tag_277:\n        /* \"#utility.yul\":2933:2996   */\n      swap2\n      pop\n        /* \"#utility.yul\":2888:3006   */\n      pop\n        /* \"#utility.yul\":2539:3013   */\n      swap3\n      pop\n      swap3\n      swap1\n      pop\n      jump\t// out\n        /* \"#utility.yul\":3019:3109   */\n    tag_213:\n        /* \"#utility.yul\":3053:3060   */\n      0x00\n        /* \"#utility.yul\":3096:3101   */\n      dup2\n        /* \"#utility.yul\":3089:3102   */\n      iszero\n        /* \"#utility.yul\":3082:3103   */\n      iszero\n        /* \"#utility.yul\":3071:3103   */\n      swap1\n      pop\n        /* \"#utility.yul\":3019:3109   */\n      swap2\n      swap1\n      pop\n      jump\t// out\n        /* \"#utility.yul\":3115:3224   */\n    tag_214:\n        /* \"#utility.yul\":3196:3217   */\n      tag_280\n        /* \"#utility.yul\":3211:3216   */\n      dup2\n        /* \"#utility.yul\":3196:3217   */\n      tag_213\n      jump\t// in\n    tag_280:\n        /* \"#utility.yul\":3191:3194   */\n      dup3\n        /* \"#utility.yul\":3184:3218   */\n      mstore\n        /* \"#utility.yul\":3115:3224   */\n      pop\n      pop\n      jump\t// out\n        /* \"#utility.yul\":3230:3440   */\n    tag_32:\n        /* \"#utility.yul\":3317:3321   */\n      0x00\n        /* \"#utility.yul\":3355:3357   */\n      0x20\n        /* \"#utility.yul\":3344:3353   */\n      dup3\n        /* \"#utility.yul\":3340:3358   */\n      add\n        /* \"#utility.yul\":3332:3358   */\n      swap1\n      pop\n        /* \"#utility.yul\":3368:3433   */\n      tag_282\n        /* \"#utility.yul\":3430:3431   */\n      0x00\n        /* \"#utility.yul\":3419:3428   */\n      dup4\n        /* \"#utility.yul\":3415:3432   */\n      add\n        /* \"#utility.yul\":3406:3412   */\n      dup5\n        /* \"#utility.yul\":3368:3433   */\n      tag_214\n      jump\t// in\n    tag_282:\n        /* \"#utility.yul\":3230:3440   */\n      swap3\n      swap2\n      pop\n      pop\n      jump\t// out\n        /* \"#utility.yul\":3446:3564   */\n    tag_215:\n        /* \"#utility.yul\":3533:3557   */\n      tag_284\n        /* \"#utility.yul\":3551:3556   */\n      dup2\n        /* \"#utility.yul\":3533:3557   */\n      tag_210\n      jump\t// in\n    tag_284:\n        /* \"#utility.yul\":3528:3531   */\n      dup3\n        /* \"#utility.yul\":3521:3558   */\n      mstore\n        /* \"#utility.yul\":3446:3564   */\n      pop\n      pop\n      jump\t// out\n        /* \"#utility.yul\":3570:3792   */\n    tag_36:\n        /* \"#utility.yul\":3663:3667   */\n      0x00\n        /* \"#utility.yul\":3701:3703   */\n      0x20\n        /* \"#utility.yul\":3690:3699   */\n      dup3\n        /* \"#utility.yul\":3686:3704   */\n      add\n        /* \"#utility.yul\":3678:3704   */\n      swap1\n      pop\n        /* \"#utility.yul\":3714:3785   */\n      tag_286\n        /* \"#utility.yul\":3782:3783   */\n      0x00\n        /* \"#utility.yul\":3771:3780   */\n      dup4\n        /* \"#utility.yul\":3767:3784   */\n      add\n        /* \"#utility.yul\":3758:3764   */\n      dup5\n        /* \"#utility.yul\":3714:3785   */\n      tag_215\n      jump\t// in\n    tag_286:\n        /* \"#utility.yul\":3570:3792   */\n      swap3\n      swap2\n      pop\n      pop\n      jump\t// out\n        /* \"#utility.yul\":3798:4417   */\n    tag_39:\n        /* \"#utility.yul\":3875:3881   */\n      0x00\n        /* \"#utility.yul\":3883:3889   */\n      dup1\n        /* \"#utility.yul\":3891:3897   */\n      0x00\n        /* \"#utility.yul\":3940:3942   */\n      0x60\n        /* \"#utility.yul\":3928:3937   */\n      dup5\n        /* \"#utility.yul\":3919:3926   */\n      dup7\n        /* \"#utility.yul\":3915:3938   */\n      sub\n        /* \"#utility.yul\":3911:3943   */\n      slt\n        /* \"#utility.yul\":3908:4027   */\n      iszero\n      tag_288\n      jumpi\n        /* \"#utility.yul\":3946:4025   */\n      tag_289\n      tag_204\n      jump\t// in\n    tag_289:\n        /* \"#utility.yul\":3908:4027   */\n    tag_288:\n        /* \"#utility.yul\":4066:4067   */\n      0x00\n        /* \"#utility.yul\":4091:4144   */\n      tag_290\n        /* \"#utility.yul\":4136:4143   */\n      dup7\n        /* \"#utility.yul\":4127:4133   */\n      dup3\n        /* \"#utility.yul\":4116:4125   */\n      dup8\n        /* \"#utility.yul\":4112:4134   */\n      add\n        /* \"#utility.yul\":4091:4144   */\n      tag_209\n      jump\t// in\n    tag_290:\n        /* \"#utility.yul\":4081:4144   */\n      swap4\n      pop\n        /* \"#utility.yul\":4037:4154   */\n      pop\n        /* \"#utility.yul\":4193:4195   */\n      0x20\n        /* \"#utility.yul\":4219:4272   */\n      tag_291\n        /* \"#utility.yul\":4264:4271   */\n      dup7\n        /* \"#utility.yul\":4255:4261   */\n      dup3\n        /* \"#utility.yul\":4244:4253   */\n      dup8\n        /* \"#utility.yul\":4240:4262   */\n      add\n        /* \"#utility.yul\":4219:4272   */\n      tag_209\n      jump\t// in\n    tag_291:\n        /* \"#utility.yul\":4209:4272   */\n      swap3\n      pop\n        /* \"#utility.yul\":4164:4282   */\n      pop\n        /* \"#utility.yul\":4321:4323   */\n      0x40\n        /* \"#utility.yul\":4347:4400   */\n      tag_292\n        /* \"#utility.yul\":4392:4399   */\n      dup7\n        /* \"#utility.yul\":4383:4389   */\n      dup3\n        /* \"#utility.yul\":4372:4381   */\n      dup8\n        /* \"#utility.yul\":4368:4390   */\n      add\n        /* \"#utility.yul\":4347:4400   */\n      tag_212\n      jump\t// in\n    tag_292:\n        /* \"#utility.yul\":4337:4400   */\n      swap2\n      pop\n        /* \"#utility.yul\":4292:4410   */\n      pop\n        /* \"#utility.yul\":3798:4417   */\n      swap3\n      pop\n      swap3\n      pop\n      swap3\n      jump\t// out\n        /* \"#utility.yul\":4423:4509   */\n    tag_216:\n        /* \"#utility.yul\":4458:4465   */\n      0x00\n        /* \"#utility.yul\":4498:4502   */\n      0xff\n        /* \"#utility.yul\":4491:4496   */\n      dup3\n        /* \"#utility.yul\":4487:4503   */\n      and\n        /* \"#utility.yul\":4476:4503   */\n      swap1\n      pop\n        /* \"#utility.yul\":4423:4509   */\n      swap2\n      swap1\n      pop\n      jump\t// out\n        /* \"#utility.yul\":4515:4627   */\n    tag_217:\n        /* \"#utility.yul\":4598:4620   */\n      tag_295\n        /* \"#utility.yul\":4614:4619   */\n      dup2\n        /* \"#utility.yul\":4598:4620   */\n      tag_216\n      jump\t// in\n    tag_295:\n        /* \"#utility.yul\":4593:4596   */\n      dup3\n        /* \"#utility.yul\":4586:4621   */\n      mstore\n        /* \"#utility.yul\":4515:4627   */\n      pop\n      pop\n      jump\t// out\n        /* \"#utility.yul\":4633:4847   */\n    tag_45:\n        /* \"#utility.yul\":4722:4726   */\n      0x00\n        /* \"#utility.yul\":4760:4762   */\n      0x20\n        /* \"#utility.yul\":4749:4758   */\n      dup3\n        /* \"#utility.yul\":4745:4763   */\n      add\n        /* \"#utility.yul\":4737:4763   */\n      swap1\n      pop\n        /* \"#utility.yul\":4773:4840   */\n      tag_297\n        /* \"#utility.yul\":4837:4838   */\n      0x00\n        /* \"#utility.yul\":4826:4835   */\n      dup4\n        /* \"#utility.yul\":4822:4839   */\n      add\n        /* \"#utility.yul\":4813:4819   */\n      dup5\n        /* \"#utility.yul\":4773:4840   */\n      tag_217\n      jump\t// in\n    tag_297:\n        /* \"#utility.yul\":4633:4847   */\n      swap3\n      swap2\n      pop\n      pop\n      jump\t// out\n        /* \"#utility.yul\":4853:5182   */\n    tag_52:\n        /* \"#utility.yul\":4912:4918   */\n      0x00\n        /* \"#utility.yul\":4961:4963   */\n      0x20\n        /* \"#utility.yul\":4949:4958   */\n      dup3\n        /* \"#utility.yul\":4940:4947   */\n      dup5\n        /* \"#utility.yul\":4936:4959   */\n      sub\n        /* \"#utility.yul\":4932:4964   */\n      slt\n        /* \"#utility.yul\":4929:5048   */\n      iszero\n      tag_299\n      jumpi\n        /* \"#utility.yul\":4967:5046   */\n      tag_300\n      tag_204\n      jump\t// in\n    tag_300:\n        /* \"#utility.yul\":4929:5048   */\n    tag_299:\n        /* \"#utility.yul\":5087:5088   */\n      0x00\n        /* \"#utility.yul\":5112:5165   */\n      tag_301\n        /* \"#utility.yul\":5157:5164   */\n      dup5\n        /* \"#utility.yul\":5148:5154   */\n      dup3\n        /* \"#utility.yul\":5137:5146   */\n      dup6\n        /* \"#utility.yul\":5133:5155   */\n      add\n        /* \"#utility.yul\":5112:5165   */\n      tag_209\n      jump\t// in\n    tag_301:\n        /* \"#utility.yul\":5102:5165   */\n      swap2\n      pop\n        /* \"#utility.yul\":5058:5175   */\n      pop\n        /* \"#utility.yul\":4853:5182   */\n      swap3\n      swap2\n      pop\n      pop\n      jump\t// out\n        /* \"#utility.yul\":5188:5306   */\n    tag_218:\n        /* \"#utility.yul\":5275:5299   */\n      tag_303\n        /* \"#utility.yul\":5293:5298   */\n      dup2\n        /* \"#utility.yul\":5275:5299   */\n      tag_207\n      jump\t// in\n    tag_303:\n        /* \"#utility.yul\":5270:5273   */\n      dup3\n        /* \"#utility.yul\":5263:5300   */\n      mstore\n        /* \"#utility.yul\":5188:5306   */\n      pop\n      pop\n      jump\t// out\n        /* \"#utility.yul\":5312:5534   */\n    tag_60:\n        /* \"#utility.yul\":5405:5409   */\n      0x00\n        /* \"#utility.yul\":5443:5445   */\n      0x20\n        /* \"#utility.yul\":5432:5441   */\n      dup3\n        /* \"#utility.yul\":5428:5446   */\n      add\n        /* \"#utility.yul\":5420:5446   */\n      swap1\n      pop\n        /* \"#utility.yul\":5456:5527   */\n      tag_305\n        /* \"#utility.yul\":5524:5525   */\n      0x00\n        /* \"#utility.yul\":5513:5522   */\n      dup4\n        /* \"#utility.yul\":5509:5526   */\n      add\n        /* \"#utility.yul\":5500:5506   */\n      dup5\n        /* \"#utility.yul\":5456:5527   */\n      tag_218\n      jump\t// in\n    tag_305:\n        /* \"#utility.yul\":5312:5534   */\n      swap3\n      swap2\n      pop\n      pop\n      jump\t// out\n        /* \"#utility.yul\":5540:5869   */\n    tag_79:\n        /* \"#utility.yul\":5599:5605   */\n      0x00\n        /* \"#utility.yul\":5648:5650   */\n      0x20\n        /* \"#utility.yul\":5636:5645   */\n      dup3\n        /* \"#utility.yul\":5627:5634   */\n      dup5\n        /* \"#utility.yul\":5623:5646   */\n      sub\n        /* \"#utility.yul\":5619:5651   */\n      slt\n        /* \"#utility.yul\":5616:5735   */\n      iszero\n      tag_307\n      jumpi\n        /* \"#utility.yul\":5654:5733   */\n      tag_308\n      tag_204\n      jump\t// in\n    tag_308:\n        /* \"#utility.yul\":5616:5735   */\n    tag_307:\n        /* \"#utility.yul\":5774:5775   */\n      0x00\n        /* \"#utility.yul\":5799:5852   */\n      tag_309\n        /* \"#utility.yul\":5844:5851   */\n      dup5\n        /* \"#utility.yul\":5835:5841   */\n      dup3\n        /* \"#utility.yul\":5824:5833   */\n      dup6\n        /* \"#utility.yul\":5820:5842   */\n      add\n        /* \"#utility.yul\":5799:5852   */\n      tag_212\n      jump\t// in\n    tag_309:\n        /* \"#utility.yul\":5789:5852   */\n      swap2\n      pop\n        /* \"#utility.yul\":5745:5862   */\n      pop\n        /* \"#utility.yul\":5540:5869   */\n      swap3\n      swap2\n      pop\n      pop\n      jump\t// out\n        /* \"#utility.yul\":5875:6349   */\n    tag_83:\n        /* \"#utility.yul\":5943:5949   */\n      0x00\n        /* \"#utility.yul\":5951:5957   */\n      dup1\n        /* \"#utility.yul\":6000:6002   */\n      0x40\n        /* \"#utility.yul\":5988:5997   */\n      dup4\n        /* \"#utility.yul\":5979:5986   */\n      dup6\n        /* \"#utility.yul\":5975:5998   */\n      sub\n        /* \"#utility.yul\":5971:6003   */\n      slt\n        /* \"#utility.yul\":5968:6087   */\n      iszero\n      tag_311\n      jumpi\n        /* \"#utility.yul\":6006:6085   */\n      tag_312\n      tag_204\n      jump\t// in\n    tag_312:\n        /* \"#utility.yul\":5968:6087   */\n    tag_311:\n        /* \"#utility.yul\":6126:6127   */\n      0x00\n        /* \"#utility.yul\":6151:6204   */\n      tag_313\n        /* \"#utility.yul\":6196:6203   */\n      dup6\n        /* \"#utility.yul\":6187:6193   */\n      dup3\n        /* \"#utility.yul\":6176:6185   */\n      dup7\n        /* \"#utility.yul\":6172:6194   */\n      add\n        /* \"#utility.yul\":6151:6204   */\n      tag_209\n      jump\t// in\n    tag_313:\n        /* \"#utility.yul\":6141:6204   */\n      swap3\n      pop\n        /* \"#utility.yul\":6097:6214   */\n      pop\n        /* \"#utility.yul\":6253:6255   */\n      0x20\n        /* \"#utility.yul\":6279:6332   */\n      tag_314\n        /* \"#utility.yul\":6324:6331   */\n      dup6\n        /* \"#utility.yul\":6315:6321   */\n      dup3\n        /* \"#utility.yul\":6304:6313   */\n      dup7\n        /* \"#utility.yul\":6300:6322   */\n      add\n        /* \"#utility.yul\":6279:6332   */\n      tag_209\n      jump\t// in\n    tag_314:\n        /* \"#utility.yul\":6269:6332   */\n      swap2\n      pop\n        /* \"#utility.yul\":6224:6342   */\n      pop\n        /* \"#utility.yul\":5875:6349   */\n      swap3\n      pop\n      swap3\n      swap1\n      pop\n      jump\t// out\n        /* \"#utility.yul\":6355:6535   */\n    tag_219:\n        /* \"#utility.yul\":6403:6480   */\n      0x4e487b7100000000000000000000000000000000000000000000000000000000\n        /* \"#utility.yul\":6400:6401   */\n      0x00\n        /* \"#utility.yul\":6393:6481   */\n      mstore\n        /* \"#utility.yul\":6500:6504   */\n      0x22\n        /* \"#utility.yul\":6497:6498   */\n      0x04\n        /* \"#utility.yul\":6490:6505   */\n      mstore\n        /* \"#utility.yul\":6524:6528   */\n      0x24\n        /* \"#utility.yul\":6521:6522   */\n      0x00\n        /* \"#utility.yul\":6514:6529   */\n      revert\n        /* \"#utility.yul\":6541:6861   */\n    tag_91:\n        /* \"#utility.yul\":6585:6591   */\n      0x00\n        /* \"#utility.yul\":6622:6623   */\n      0x02\n        /* \"#utility.yul\":6616:6620   */\n      dup3\n        /* \"#utility.yul\":6612:6624   */\n      div\n        /* \"#utility.yul\":6602:6624   */\n      swap1\n      pop\n        /* \"#utility.yul\":6669:6670   */\n      0x01\n        /* \"#utility.yul\":6663:6667   */\n      dup3\n        /* \"#utility.yul\":6659:6671   */\n      and\n        /* \"#utility.yul\":6690:6708   */\n      dup1\n        /* \"#utility.yul\":6680:6761   */\n      tag_317\n      jumpi\n        /* \"#utility.yul\":6746:6750   */\n      0x7f\n        /* \"#utility.yul\":6738:6744   */\n      dup3\n        /* \"#utility.yul\":6734:6751   */\n      and\n        /* \"#utility.yul\":6724:6751   */\n      swap2\n      pop\n        /* \"#utility.yul\":6680:6761   */\n    tag_317:\n        /* \"#utility.yul\":6808:6810   */\n      0x20\n        /* \"#utility.yul\":6800:6806   */\n      dup3\n        /* \"#utility.yul\":6797:6811   */\n      lt\n        /* \"#utility.yul\":6777:6795   */\n      dup2\n        /* \"#utility.yul\":6774:6812   */\n      sub\n        /* \"#utility.yul\":6771:6855   */\n      tag_318\n      jumpi\n        /* \"#utility.yul\":6827:6845   */\n      tag_319\n      tag_219\n      jump\t// in\n    tag_319:\n        /* \"#utility.yul\":6771:6855   */\n    tag_318:\n        /* \"#utility.yul\":6592:6861   */\n      pop\n        /* \"#utility.yul\":6541:6861   */\n      swap2\n      swap1\n      pop\n      jump\t// out\n        /* \"#utility.yul\":6867:7049   */\n    tag_220:\n        /* \"#utility.yul\":7007:7041   */\n      0x4f776e61626c653a2063616c6c6572206973206e6f7420746865206f776e6572\n        /* \"#utility.yul\":7003:7004   */\n      0x00\n        /* \"#utility.yul\":6995:7001   */\n      dup3\n        /* \"#utility.yul\":6991:7005   */\n      add\n        /* \"#utility.yul\":6984:7042   */\n      mstore\n        /* \"#utility.yul\":6867:7049   */\n      pop\n      jump\t// out\n        /* \"#utility.yul\":7055:7421   */\n    tag_221:\n        /* \"#utility.yul\":7197:7200   */\n      0x00\n        /* \"#utility.yul\":7218:7285   */\n      tag_322\n        /* \"#utility.yul\":7282:7284   */\n      0x20\n        /* \"#utility.yul\":7277:7280   */\n      dup4\n        /* \"#utility.yul\":7218:7285   */\n      tag_199\n      jump\t// in\n    tag_322:\n        /* \"#utility.yul\":7211:7285   */\n      swap2\n      pop\n        /* \"#utility.yul\":7294:7387   */\n      tag_323\n        /* \"#utility.yul\":7383:7386   */\n      dup3\n        /* \"#utility.yul\":7294:7387   */\n      tag_220\n      jump\t// in\n    tag_323:\n        /* \"#utility.yul\":7412:7414   */\n      0x20\n        /* \"#utility.yul\":7407:7410   */\n      dup3\n        /* \"#utility.yul\":7403:7415   */\n      add\n        /* \"#utility.yul\":7396:7415   */\n      swap1\n      pop\n        /* \"#utility.yul\":7055:7421   */\n      swap2\n      swap1\n      pop\n      jump\t// out\n        /* \"#utility.yul\":7427:7846   */\n    tag_122:\n        /* \"#utility.yul\":7593:7597   */\n      0x00\n        /* \"#utility.yul\":7631:7633   */\n      0x20\n        /* \"#utility.yul\":7620:7629   */\n      dup3\n        /* \"#utility.yul\":7616:7634   */\n      add\n        /* \"#utility.yul\":7608:7634   */\n      swap1\n      pop\n        /* \"#utility.yul\":7680:7689   */\n      dup2\n        /* \"#utility.yul\":7674:7678   */\n      dup2\n        /* \"#utility.yul\":7670:7690   */\n      sub\n        /* \"#utility.yul\":7666:7667   */\n      0x00\n        /* \"#utility.yul\":7655:7664   */\n      dup4\n        /* \"#utility.yul\":7651:7668   */\n      add\n        /* \"#utility.yul\":7644:7691   */\n      mstore\n        /* \"#utility.yul\":7708:7839   */\n      tag_325\n        /* \"#utility.yul\":7834:7838   */\n      dup2\n        /* \"#utility.yul\":7708:7839   */\n      tag_221\n      jump\t// in\n    tag_325:\n        /* \"#utility.yul\":7700:7839   */\n      swap1\n      pop\n        /* \"#utility.yul\":7427:7846   */\n      swap2\n      swap1\n      pop\n      jump\t// out\n        /* \"#utility.yul\":7852:8074   */\n    tag_222:\n        /* \"#utility.yul\":7992:8026   */\n      0x596f7520646f6e27742068617665207065726d697373696f6e20746f20756e6c\n        /* \"#utility.yul\":7988:7989   */\n      0x00\n        /* \"#utility.yul\":7980:7986   */\n      dup3\n        /* \"#utility.yul\":7976:7990   */\n      add\n        /* \"#utility.yul\":7969:8027   */\n      mstore\n        /* \"#utility.yul\":8061:8066   */\n      0x6f636b0000000000000000000000000000000000000000000000000000000000\n        /* \"#utility.yul\":8056:8058   */\n      0x20\n        /* \"#utility.yul\":8048:8054   */\n      dup3\n        /* \"#utility.yul\":8044:8059   */\n      add\n        /* \"#utility.yul\":8037:8067   */\n      mstore\n        /* \"#utility.yul\":7852:8074   */\n      pop\n      jump\t// out\n        /* \"#utility.yul\":8080:8446   */\n    tag_223:\n        /* \"#utility.yul\":8222:8225   */\n      0x00\n        /* \"#utility.yul\":8243:8310   */\n      tag_328\n        /* \"#utility.yul\":8307:8309   */\n      0x23\n        /* \"#utility.yul\":8302:8305   */\n      dup4\n        /* \"#utility.yul\":8243:8310   */\n      tag_199\n      jump\t// in\n    tag_328:\n        /* \"#utility.yul\":8236:8310   */\n      swap2\n      pop\n        /* \"#utility.yul\":8319:8412   */\n      tag_329\n        /* \"#utility.yul\":8408:8411   */\n      dup3\n        /* \"#utility.yul\":8319:8412   */\n      tag_222\n      jump\t// in\n    tag_329:\n        /* \"#utility.yul\":8437:8439   */\n      0x40\n        /* \"#utility.yul\":8432:8435   */\n      dup3\n        /* \"#utility.yul\":8428:8440   */\n      add\n        /* \"#utility.yul\":8421:8440   */\n      swap1\n      pop\n        /* \"#utility.yul\":8080:8446   */\n      swap2\n      swap1\n      pop\n      jump\t// out\n        /* \"#utility.yul\":8452:8871   */\n    tag_139:\n        /* \"#utility.yul\":8618:8622   */\n      0x00\n        /* \"#utility.yul\":8656:8658   */\n      0x20\n        /* \"#utility.yul\":8645:8654   */\n      dup3\n        /* \"#utility.yul\":8641:8659   */\n      add\n        /* \"#utility.yul\":8633:8659   */\n      swap1\n      pop\n        /* \"#utility.yul\":8705:8714   */\n      dup2\n        /* \"#utility.yul\":8699:8703   */\n      dup2\n        /* \"#utility.yul\":8695:8715   */\n      sub\n        /* \"#utility.yul\":8691:8692   */\n      0x00\n        /* \"#utility.yul\":8680:8689   */\n      dup4\n        /* \"#utility.yul\":8676:8693   */\n      add\n        /* \"#utility.yul\":8669:8716   */\n      mstore\n        /* \"#utility.yul\":8733:8864   */\n      tag_331\n        /* \"#utility.yul\":8859:8863   */\n      dup2\n        /* \"#utility.yul\":8733:8864   */\n      tag_223\n      jump\t// in\n    tag_331:\n        /* \"#utility.yul\":8725:8864   */\n      swap1\n      pop\n        /* \"#utility.yul\":8452:8871   */\n      swap2\n      swap1\n      pop\n      jump\t// out\n        /* \"#utility.yul\":8877:9058   */\n    tag_224:\n        /* \"#utility.yul\":9017:9050   */\n      0x436f6e7472616374206973206c6f636b656420756e74696c2037206461797300\n        /* \"#utility.yul\":9013:9014   */\n      0x00\n        /* \"#utility.yul\":9005:9011   */\n      dup3\n        /* \"#utility.yul\":9001:9015   */\n      add\n        /* \"#utility.yul\":8994:9051   */\n      mstore\n        /* \"#utility.yul\":8877:9058   */\n      pop\n      jump\t// out\n        /* \"#utility.yul\":9064:9430   */\n    tag_225:\n        /* \"#utility.yul\":9206:9209   */\n      0x00\n        /* \"#utility.yul\":9227:9294   */\n      tag_334\n        /* \"#utility.yul\":9291:9293   */\n      0x1f\n        /* \"#utility.yul\":9286:9289   */\n      dup4\n        /* \"#utility.yul\":9227:9294   */\n      tag_199\n      jump\t// in\n    tag_334:\n        /* \"#utility.yul\":9220:9294   */\n      swap2\n      pop\n        /* \"#utility.yul\":9303:9396   */\n      tag_335\n        /* \"#utility.yul\":9392:9395   */\n      dup3\n        /* \"#utility.yul\":9303:9396   */\n      tag_224\n      jump\t// in\n    tag_335:\n        /* \"#utility.yul\":9421:9423   */\n      0x20\n        /* \"#utility.yul\":9416:9419   */\n      dup3\n        /* \"#utility.yul\":9412:9424   */\n      add\n        /* \"#utility.yul\":9405:9424   */\n      swap1\n      pop\n        /* \"#utility.yul\":9064:9430   */\n      swap2\n      swap1\n      pop\n      jump\t// out\n        /* \"#utility.yul\":9436:9855   */\n    tag_142:\n        /* \"#utility.yul\":9602:9606   */\n      0x00\n        /* \"#utility.yul\":9640:9642   */\n      0x20\n        /* \"#utility.yul\":9629:9638   */\n      dup3\n        /* \"#utility.yul\":9625:9643   */\n      add\n        /* \"#utility.yul\":9617:9643   */\n      swap1\n      pop\n        /* \"#utility.yul\":9689:9698   */\n      dup2\n        /* \"#utility.yul\":9683:9687   */\n      dup2\n        /* \"#utility.yul\":9679:9699   */\n      sub\n        /* \"#utility.yul\":9675:9676   */\n      0x00\n        /* \"#utility.yul\":9664:9673   */\n      dup4\n        /* \"#utility.yul\":9660:9677   */\n      add\n        /* \"#utility.yul\":9653:9700   */\n      mstore\n        /* \"#utility.yul\":9717:9848   */\n      tag_337\n        /* \"#utility.yul\":9843:9847   */\n      dup2\n        /* \"#utility.yul\":9717:9848   */\n      tag_225\n      jump\t// in\n    tag_337:\n        /* \"#utility.yul\":9709:9848   */\n      swap1\n      pop\n        /* \"#utility.yul\":9436:9855   */\n      swap2\n      swap1\n      pop\n      jump\t// out\n        /* \"#utility.yul\":9861:10041   */\n    tag_226:\n        /* \"#utility.yul\":9909:9986   */\n      0x4e487b7100000000000000000000000000000000000000000000000000000000\n        /* \"#utility.yul\":9906:9907   */\n      0x00\n        /* \"#utility.yul\":9899:9987   */\n      mstore\n        /* \"#utility.yul\":10006:10010   */\n      0x11\n        /* \"#utility.yul\":10003:10004   */\n      0x04\n        /* \"#utility.yul\":9996:10011   */\n      mstore\n        /* \"#utility.yul\":10030:10034   */\n      0x24\n        /* \"#utility.yul\":10027:10028   */\n      0x00\n        /* \"#utility.yul\":10020:10035   */\n      revert\n        /* \"#utility.yul\":10047:10238   */\n    tag_153:\n        /* \"#utility.yul\":10087:10090   */\n      0x00\n        /* \"#utility.yul\":10106:10126   */\n      tag_340\n        /* \"#utility.yul\":10124:10125   */\n      dup3\n        /* \"#utility.yul\":10106:10126   */\n      tag_210\n      jump\t// in\n    tag_340:\n        /* \"#utility.yul\":10101:10126   */\n      swap2\n      pop\n        /* \"#utility.yul\":10140:10160   */\n      tag_341\n        /* \"#utility.yul\":10158:10159   */\n      dup4\n        /* \"#utility.yul\":10140:10160   */\n      tag_210\n      jump\t// in\n    tag_341:\n        /* \"#utility.yul\":10135:10160   */\n      swap3\n      pop\n        /* \"#utility.yul\":10183:10184   */\n      dup3\n        /* \"#utility.yul\":10180:10181   */\n      dup3\n        /* \"#utility.yul\":10176:10185   */\n      add\n        /* \"#utility.yul\":10169:10185   */\n      swap1\n      pop\n        /* \"#utility.yul\":10204:10207   */\n      dup1\n        /* \"#utility.yul\":10201:10202   */\n      dup3\n        /* \"#utility.yul\":10198:10208   */\n      gt\n        /* \"#utility.yul\":10195:10231   */\n      iszero\n      tag_342\n      jumpi\n        /* \"#utility.yul\":10211:10229   */\n      tag_343\n      tag_226\n      jump\t// in\n    tag_343:\n        /* \"#utility.yul\":10195:10231   */\n    tag_342:\n        /* \"#utility.yul\":10047:10238   */\n      swap3\n      swap2\n      pop\n      pop\n      jump\t// out\n        /* \"#utility.yul\":10244:10469   */\n    tag_227:\n        /* \"#utility.yul\":10384:10418   */\n      0x4f776e61626c653a206e6577206f776e657220697320746865207a65726f2061\n        /* \"#utility.yul\":10380:10381   */\n      0x00\n        /* \"#utility.yul\":10372:10378   */\n      dup3\n        /* \"#utility.yul\":10368:10382   */\n      add\n        /* \"#utility.yul\":10361:10419   */\n      mstore\n        /* \"#utility.yul\":10453:10461   */\n      0x6464726573730000000000000000000000000000000000000000000000000000\n        /* \"#utility.yul\":10448:10450   */\n      0x20\n        /* \"#utility.yul\":10440:10446   */\n      dup3\n        /* \"#utility.yul\":10436:10451   */\n      add\n        /* \"#utility.yul\":10429:10462   */\n      mstore\n        /* \"#utility.yul\":10244:10469   */\n      pop\n      jump\t// out\n        /* \"#utility.yul\":10475:10841   */\n    tag_228:\n        /* \"#utility.yul\":10617:10620   */\n      0x00\n        /* \"#utility.yul\":10638:10705   */\n      tag_346\n        /* \"#utility.yul\":10702:10704   */\n      0x26\n        /* \"#utility.yul\":10697:10700   */\n      dup4\n        /* \"#utility.yul\":10638:10705   */\n      tag_199\n      jump\t// in\n    tag_346:\n        /* \"#utility.yul\":10631:10705   */\n      swap2\n      pop\n        /* \"#utility.yul\":10714:10807   */\n      tag_347\n        /* \"#utility.yul\":10803:10806   */\n      dup3\n        /* \"#utility.yul\":10714:10807   */\n      tag_227\n      jump\t// in\n    tag_347:\n        /* \"#utility.yul\":10832:10834   */\n      0x40\n        /* \"#utility.yul\":10827:10830   */\n      dup3\n        /* \"#utility.yul\":10823:10835   */\n      add\n        /* \"#utility.yul\":10816:10835   */\n      swap1\n      pop\n        /* \"#utility.yul\":10475:10841   */\n      swap2\n      swap1\n      pop\n      jump\t// out\n        /* \"#utility.yul\":10847:11266   */\n    tag_162:\n        /* \"#utility.yul\":11013:11017   */\n      0x00\n        /* \"#utility.yul\":11051:11053   */\n      0x20\n        /* \"#utility.yul\":11040:11049   */\n      dup3\n        /* \"#utility.yul\":11036:11054   */\n      add\n        /* \"#utility.yul\":11028:11054   */\n      swap1\n      pop\n        /* \"#utility.yul\":11100:11109   */\n      dup2\n        /* \"#utility.yul\":11094:11098   */\n      dup2\n        /* \"#utility.yul\":11090:11110   */\n      sub\n        /* \"#utility.yul\":11086:11087   */\n      0x00\n        /* \"#utility.yul\":11075:11084   */\n      dup4\n        /* \"#utility.yul\":11071:11088   */\n      add\n        /* \"#utility.yul\":11064:11111   */\n      mstore\n        /* \"#utility.yul\":11128:11259   */\n      tag_349\n        /* \"#utility.yul\":11254:11258   */\n      dup2\n        /* \"#utility.yul\":11128:11259   */\n      tag_228\n      jump\t// in\n    tag_349:\n        /* \"#utility.yul\":11120:11259   */\n      swap1\n      pop\n        /* \"#utility.yul\":10847:11266   */\n      swap2\n      swap1\n      pop\n      jump\t// out\n        /* \"#utility.yul\":11272:11495   */\n    tag_229:\n        /* \"#utility.yul\":11412:11446   */\n      0x45524332303a20617070726f76652066726f6d20746865207a65726f20616464\n        /* \"#utility.yul\":11408:11409   */\n      0x00\n        /* \"#utility.yul\":11400:11406   */\n      dup3\n        /* \"#utility.yul\":11396:11410   */\n      add\n        /* \"#utility.yul\":11389:11447   */\n      mstore\n        /* \"#utility.yul\":11481:11487   */\n      0x7265737300000000000000000000000000000000000000000000000000000000\n        /* \"#utility.yul\":11476:11478   */\n      0x20\n        /* \"#utility.yul\":11468:11474   */\n      dup3\n        /* \"#utility.yul\":11464:11479   */\n      add\n        /* \"#utility.yul\":11457:11488   */\n      mstore\n        /* \"#utility.yul\":11272:11495   */\n      pop\n      jump\t// out\n        /* \"#utility.yul\":11501:11867   */\n    tag_230:\n        /* \"#utility.yul\":11643:11646   */\n      0x00\n        /* \"#utility.yul\":11664:11731   */\n      tag_352\n        /* \"#utility.yul\":11728:11730   */\n      0x24\n        /* \"#utility.yul\":11723:11726   */\n      dup4\n        /* \"#utility.yul\":11664:11731   */\n      tag_199\n      jump\t// in\n    tag_352:\n        /* \"#utility.yul\":11657:11731   */\n      swap2\n      pop\n        /* \"#utility.yul\":11740:11833   */\n      tag_353\n        /* \"#utility.yul\":11829:11832   */\n      dup3\n        /* \"#utility.yul\":11740:11833   */\n      tag_229\n      jump\t// in\n    tag_353:\n        /* \"#utility.yul\":11858:11860   */\n      0x40\n        /* \"#utility.yul\":11853:11856   */\n      dup3\n        /* \"#utility.yul\":11849:11861   */\n      add\n        /* \"#utility.yul\":11842:11861   */\n      swap1\n      pop\n        /* \"#utility.yul\":11501:11867   */\n      swap2\n      swap1\n      pop\n      jump\t// out\n        /* \"#utility.yul\":11873:12292   */\n    tag_167:\n        /* \"#utility.yul\":12039:12043   */\n      0x00\n        /* \"#utility.yul\":12077:12079   */\n      0x20\n        /* \"#utility.yul\":12066:12075   */\n      dup3\n        /* \"#utility.yul\":12062:12080   */\n      add\n        /* \"#utility.yul\":12054:12080   */\n      swap1\n      pop\n        /* \"#utility.yul\":12126:12135   */\n      dup2\n        /* \"#utility.yul\":12120:12124   */\n      dup2\n        /* \"#utility.yul\":12116:12136   */\n      sub\n        /* \"#utility.yul\":12112:12113   */\n      0x00\n        /* \"#utility.yul\":12101:12110   */\n      dup4\n        /* \"#utility.yul\":12097:12114   */\n      add\n        /* \"#utility.yul\":12090:12137   */\n      mstore\n        /* \"#utility.yul\":12154:12285   */\n      tag_355\n        /* \"#utility.yul\":12280:12284   */\n      dup2\n        /* \"#utility.yul\":12154:12285   */\n      tag_230\n      jump\t// in\n    tag_355:\n        /* \"#utility.yul\":12146:12285   */\n      swap1\n      pop\n        /* \"#utility.yul\":11873:12292   */\n      swap2\n      swap1\n      pop\n      jump\t// out\n        /* \"#utility.yul\":12298:12519   */\n    tag_231:\n        /* \"#utility.yul\":12438:12472   */\n      0x45524332303a20617070726f766520746f20746865207a65726f206164647265\n        /* \"#utility.yul\":12434:12435   */\n      0x00\n        /* \"#utility.yul\":12426:12432   */\n      dup3\n        /* \"#utility.yul\":12422:12436   */\n      add\n        /* \"#utility.yul\":12415:12473   */\n      mstore\n        /* \"#utility.yul\":12507:12511   */\n      0x7373000000000000000000000000000000000000000000000000000000000000\n        /* \"#utility.yul\":12502:12504   */\n      0x20\n        /* \"#utility.yul\":12494:12500   */\n      dup3\n        /* \"#utility.yul\":12490:12505   */\n      add\n        /* \"#utility.yul\":12483:12512   */\n      mstore\n        /* \"#utility.yul\":12298:12519   */\n      pop\n      jump\t// out\n        /* \"#utility.yul\":12525:12891   */\n    tag_232:\n        /* \"#utility.yul\":12667:12670   */\n      0x00\n        /* \"#utility.yul\":12688:12755   */\n      tag_358\n        /* \"#utility.yul\":12752:12754   */\n      0x22\n        /* \"#utility.yul\":12747:12750   */\n      dup4\n        /* \"#utility.yul\":12688:12755   */\n      tag_199\n      jump\t// in\n    tag_358:\n        /* \"#utility.yul\":12681:12755   */\n      swap2\n      pop\n        /* \"#utility.yul\":12764:12857   */\n      tag_359\n        /* \"#utility.yul\":12853:12856   */\n      dup3\n        /* \"#utility.yul\":12764:12857   */\n      tag_231\n      jump\t// in\n    tag_359:\n        /* \"#utility.yul\":12882:12884   */\n      0x40\n        /* \"#utility.yul\":12877:12880   */\n      dup3\n        /* \"#utility.yul\":12873:12885   */\n      add\n        /* \"#utility.yul\":12866:12885   */\n      swap1\n      pop\n        /* \"#utility.yul\":12525:12891   */\n      swap2\n      swap1\n      pop\n      jump\t// out\n        /* \"#utility.yul\":12897:13316   */\n    tag_170:\n        /* \"#utility.yul\":13063:13067   */\n      0x00\n        /* \"#utility.yul\":13101:13103   */\n      0x20\n        /* \"#utility.yul\":13090:13099   */\n      dup3\n        /* \"#utility.yul\":13086:13104   */\n      add\n        /* \"#utility.yul\":13078:13104   */\n      swap1\n      pop\n        /* \"#utility.yul\":13150:13159   */\n      dup2\n        /* \"#utility.yul\":13144:13148   */\n      dup2\n        /* \"#utility.yul\":13140:13160   */\n      sub\n        /* \"#utility.yul\":13136:13137   */\n      0x00\n        /* \"#utility.yul\":13125:13134   */\n      dup4\n        /* \"#utility.yul\":13121:13138   */\n      add\n        /* \"#utility.yul\":13114:13161   */\n      mstore\n        /* \"#utility.yul\":13178:13309   */\n      tag_361\n        /* \"#utility.yul\":13304:13308   */\n      dup2\n        /* \"#utility.yul\":13178:13309   */\n      tag_232\n      jump\t// in\n    tag_361:\n        /* \"#utility.yul\":13170:13309   */\n      swap1\n      pop\n        /* \"#utility.yul\":12897:13316   */\n      swap2\n      swap1\n      pop\n      jump\t// out\n        /* \"#utility.yul\":13322:13546   */\n    tag_233:\n        /* \"#utility.yul\":13462:13496   */\n      0x45524332303a207472616e736665722066726f6d20746865207a65726f206164\n        /* \"#utility.yul\":13458:13459   */\n      0x00\n        /* \"#utility.yul\":13450:13456   */\n      dup3\n        /* \"#utility.yul\":13446:13460   */\n      add\n        /* \"#utility.yul\":13439:13497   */\n      mstore\n        /* \"#utility.yul\":13531:13538   */\n      0x6472657373000000000000000000000000000000000000000000000000000000\n        /* \"#utility.yul\":13526:13528   */\n      0x20\n        /* \"#utility.yul\":13518:13524   */\n      dup3\n        /* \"#utility.yul\":13514:13529   */\n      add\n        /* \"#utility.yul\":13507:13539   */\n      mstore\n        /* \"#utility.yul\":13322:13546   */\n      pop\n      jump\t// out\n        /* \"#utility.yul\":13552:13918   */\n    tag_234:\n        /* \"#utility.yul\":13694:13697   */\n      0x00\n        /* \"#utility.yul\":13715:13782   */\n      tag_364\n        /* \"#utility.yul\":13779:13781   */\n      0x25\n        /* \"#utility.yul\":13774:13777   */\n      dup4\n        /* \"#utility.yul\":13715:13782   */\n      tag_199\n      jump\t// in\n    tag_364:\n        /* \"#utility.yul\":13708:13782   */\n      swap2\n      pop\n        /* \"#utility.yul\":13791:13884   */\n      tag_365\n        /* \"#utility.yul\":13880:13883   */\n      dup3\n        /* \"#utility.yul\":13791:13884   */\n      tag_233\n      jump\t// in\n    tag_365:\n        /* \"#utility.yul\":13909:13911   */\n      0x40\n        /* \"#utility.yul\":13904:13907   */\n      dup3\n        /* \"#utility.yul\":13900:13912   */\n      add\n        /* \"#utility.yul\":13893:13912   */\n      swap1\n      pop\n        /* \"#utility.yul\":13552:13918   */\n      swap2\n      swap1\n      pop\n      jump\t// out\n        /* \"#utility.yul\":13924:14343   */\n    tag_175:\n        /* \"#utility.yul\":14090:14094   */\n      0x00\n        /* \"#utility.yul\":14128:14130   */\n      0x20\n        /* \"#utility.yul\":14117:14126   */\n      dup3\n        /* \"#utility.yul\":14113:14131   */\n      add\n        /* \"#utility.yul\":14105:14131   */\n      swap1\n      pop\n        /* \"#utility.yul\":14177:14186   */\n      dup2\n        /* \"#utility.yul\":14171:14175   */\n      dup2\n        /* \"#utility.yul\":14167:14187   */\n      sub\n        /* \"#utility.yul\":14163:14164   */\n      0x00\n        /* \"#utility.yul\":14152:14161   */\n      dup4\n        /* \"#utility.yul\":14148:14165   */\n      add\n        /* \"#utility.yul\":14141:14188   */\n      mstore\n        /* \"#utility.yul\":14205:14336   */\n      tag_367\n        /* \"#utility.yul\":14331:14335   */\n      dup2\n        /* \"#utility.yul\":14205:14336   */\n      tag_234\n      jump\t// in\n    tag_367:\n        /* \"#utility.yul\":14197:14336   */\n      swap1\n      pop\n        /* \"#utility.yul\":13924:14343   */\n      swap2\n      swap1\n      pop\n      jump\t// out\n        /* \"#utility.yul\":14349:14571   */\n    tag_235:\n        /* \"#utility.yul\":14489:14523   */\n      0x45524332303a207472616e7366657220746f20746865207a65726f2061646472\n        /* \"#utility.yul\":14485:14486   */\n      0x00\n        /* \"#utility.yul\":14477:14483   */\n      dup3\n        /* \"#utility.yul\":14473:14487   */\n      add\n        /* \"#utility.yul\":14466:14524   */\n      mstore\n        /* \"#utility.yul\":14558:14563   */\n      0x6573730000000000000000000000000000000000000000000000000000000000\n        /* \"#utility.yul\":14553:14555   */\n      0x20\n        /* \"#utility.yul\":14545:14551   */\n      dup3\n        /* \"#utility.yul\":14541:14556   */\n      add\n        /* \"#utility.yul\":14534:14564   */\n      mstore\n        /* \"#utility.yul\":14349:14571   */\n      pop\n      jump\t// out\n        /* \"#utility.yul\":14577:14943   */\n    tag_236:\n        /* \"#utility.yul\":14719:14722   */\n      0x00\n        /* \"#utility.yul\":14740:14807   */\n      tag_370\n        /* \"#utility.yul\":14804:14806   */\n      0x23\n        /* \"#utility.yul\":14799:14802   */\n      dup4\n        /* \"#utility.yul\":14740:14807   */\n      tag_199\n      jump\t// in\n    tag_370:\n        /* \"#utility.yul\":14733:14807   */\n      swap2\n      pop\n        /* \"#utility.yul\":14816:14909   */\n      tag_371\n        /* \"#utility.yul\":14905:14908   */\n      dup3\n        /* \"#utility.yul\":14816:14909   */\n      tag_235\n      jump\t// in\n    tag_371:\n        /* \"#utility.yul\":14934:14936   */\n      0x40\n        /* \"#utility.yul\":14929:14932   */\n      dup3\n        /* \"#utility.yul\":14925:14937   */\n      add\n        /* \"#utility.yul\":14918:14937   */\n      swap1\n      pop\n        /* \"#utility.yul\":14577:14943   */\n      swap2\n      swap1\n      pop\n      jump\t// out\n        /* \"#utility.yul\":14949:15368   */\n    tag_178:\n        /* \"#utility.yul\":15115:15119   */\n      0x00\n        /* \"#utility.yul\":15153:15155   */\n      0x20\n        /* \"#utility.yul\":15142:15151   */\n      dup3\n        /* \"#utility.yul\":15138:15156   */\n      add\n        /* \"#utility.yul\":15130:15156   */\n      swap1\n      pop\n        /* \"#utility.yul\":15202:15211   */\n      dup2\n        /* \"#utility.yul\":15196:15200   */\n      dup2\n        /* \"#utility.yul\":15192:15212   */\n      sub\n        /* \"#utility.yul\":15188:15189   */\n      0x00\n        /* \"#utility.yul\":15177:15186   */\n      dup4\n        /* \"#utility.yul\":15173:15190   */\n      add\n        /* \"#utility.yul\":15166:15213   */\n      mstore\n        /* \"#utility.yul\":15230:15361   */\n      tag_373\n        /* \"#utility.yul\":15356:15360   */\n      dup2\n        /* \"#utility.yul\":15230:15361   */\n      tag_236\n      jump\t// in\n    tag_373:\n        /* \"#utility.yul\":15222:15361   */\n      swap1\n      pop\n        /* \"#utility.yul\":14949:15368   */\n      swap2\n      swap1\n      pop\n      jump\t// out\n        /* \"#utility.yul\":15374:15602   */\n    tag_237:\n        /* \"#utility.yul\":15514:15548   */\n      0x5472616e7366657220616d6f756e74206d757374206265206772656174657220\n        /* \"#utility.yul\":15510:15511   */\n      0x00\n        /* \"#utility.yul\":15502:15508   */\n      dup3\n        /* \"#utility.yul\":15498:15512   */\n      add\n        /* \"#utility.yul\":15491:15549   */\n      mstore\n        /* \"#utility.yul\":15583:15594   */\n      0x7468616e207a65726f0000000000000000000000000000000000000000000000\n        /* \"#utility.yul\":15578:15580   */\n      0x20\n        /* \"#utility.yul\":15570:15576   */\n      dup3\n        /* \"#utility.yul\":15566:15581   */\n      add\n        /* \"#utility.yul\":15559:15595   */\n      mstore\n        /* \"#utility.yul\":15374:15602   */\n      pop\n      jump\t// out\n        /* \"#utility.yul\":15608:15974   */\n    tag_238:\n        /* \"#utility.yul\":15750:15753   */\n      0x00\n        /* \"#utility.yul\":15771:15838   */\n      tag_376\n        /* \"#utility.yul\":15835:15837   */\n      0x29\n        /* \"#utility.yul\":15830:15833   */\n      dup4\n        /* \"#utility.yul\":15771:15838   */\n      tag_199\n      jump\t// in\n    tag_376:\n        /* \"#utility.yul\":15764:15838   */\n      swap2\n      pop\n        /* \"#utility.yul\":15847:15940   */\n      tag_377\n        /* \"#utility.yul\":15936:15939   */\n      dup3\n        /* \"#utility.yul\":15847:15940   */\n      tag_237\n      jump\t// in\n    tag_377:\n        /* \"#utility.yul\":15965:15967   */\n      0x40\n        /* \"#utility.yul\":15960:15963   */\n      dup3\n        /* \"#utility.yul\":15956:15968   */\n      add\n        /* \"#utility.yul\":15949:15968   */\n      swap1\n      pop\n        /* \"#utility.yul\":15608:15974   */\n      swap2\n      swap1\n      pop\n      jump\t// out\n        /* \"#utility.yul\":15980:16399   */\n    tag_181:\n        /* \"#utility.yul\":16146:16150   */\n      0x00\n        /* \"#utility.yul\":16184:16186   */\n      0x20\n        /* \"#utility.yul\":16173:16182   */\n      dup3\n        /* \"#utility.yul\":16169:16187   */\n      add\n        /* \"#utility.yul\":16161:16187   */\n      swap1\n      pop\n        /* \"#utility.yul\":16233:16242   */\n      dup2\n        /* \"#utility.yul\":16227:16231   */\n      dup2\n        /* \"#utility.yul\":16223:16243   */\n      sub\n        /* \"#utility.yul\":16219:16220   */\n      0x00\n        /* \"#utility.yul\":16208:16217   */\n      dup4\n        /* \"#utility.yul\":16204:16221   */\n      add\n        /* \"#utility.yul\":16197:16244   */\n      mstore\n        /* \"#utility.yul\":16261:16392   */\n      tag_379\n        /* \"#utility.yul\":16387:16391   */\n      dup2\n        /* \"#utility.yul\":16261:16392   */\n      tag_238\n      jump\t// in\n    tag_379:\n        /* \"#utility.yul\":16253:16392   */\n      swap1\n      pop\n        /* \"#utility.yul\":15980:16399   */\n      swap2\n      swap1\n      pop\n      jump\t// out\n        /* \"#utility.yul\":16405:16599   */\n    tag_190:\n        /* \"#utility.yul\":16445:16449   */\n      0x00\n        /* \"#utility.yul\":16465:16485   */\n      tag_381\n        /* \"#utility.yul\":16483:16484   */\n      dup3\n        /* \"#utility.yul\":16465:16485   */\n      tag_210\n      jump\t// in\n    tag_381:\n        /* \"#utility.yul\":16460:16485   */\n      swap2\n      pop\n        /* \"#utility.yul\":16499:16519   */\n      tag_382\n        /* \"#utility.yul\":16517:16518   */\n      dup4\n        /* \"#utility.yul\":16499:16519   */\n      tag_210\n      jump\t// in\n    tag_382:\n        /* \"#utility.yul\":16494:16519   */\n      swap3\n      pop\n        /* \"#utility.yul\":16543:16544   */\n      dup3\n        /* \"#utility.yul\":16540:16541   */\n      dup3\n        /* \"#utility.yul\":16536:16545   */\n      sub\n        /* \"#utility.yul\":16528:16545   */\n      swap1\n      pop\n        /* \"#utility.yul\":16567:16568   */\n      dup2\n        /* \"#utility.yul\":16561:16565   */\n      dup2\n        /* \"#utility.yul\":16558:16569   */\n      gt\n        /* \"#utility.yul\":16555:16592   */\n      iszero\n      tag_383\n      jumpi\n        /* \"#utility.yul\":16572:16590   */\n      tag_384\n      tag_226\n      jump\t// in\n    tag_384:\n        /* \"#utility.yul\":16555:16592   */\n    tag_383:\n        /* \"#utility.yul\":16405:16599   */\n      swap3\n      swap2\n      pop\n      pop\n      jump\t// out\n        /* \"#utility.yul\":16605:16782   */\n    tag_239:\n        /* \"#utility.yul\":16745:16774   */\n      0x536166654d6174683a206164646974696f6e206f766572666c6f770000000000\n        /* \"#utility.yul\":16741:16742   */\n      0x00\n        /* \"#utility.yul\":16733:16739   */\n      dup3\n        /* \"#utility.yul\":16729:16743   */\n      add\n        /* \"#utility.yul\":16722:16775   */\n      mstore\n        /* \"#utility.yul\":16605:16782   */\n      pop\n      jump\t// out\n        /* \"#utility.yul\":16788:17154   */\n    tag_240:\n        /* \"#utility.yul\":16930:16933   */\n      0x00\n        /* \"#utility.yul\":16951:17018   */\n      tag_387\n        /* \"#utility.yul\":17015:17017   */\n      0x1b\n        /* \"#utility.yul\":17010:17013   */\n      dup4\n        /* \"#utility.yul\":16951:17018   */\n      tag_199\n      jump\t// in\n    tag_387:\n        /* \"#utility.yul\":16944:17018   */\n      swap2\n      pop\n        /* \"#utility.yul\":17027:17120   */\n      tag_388\n        /* \"#utility.yul\":17116:17119   */\n      dup3\n        /* \"#utility.yul\":17027:17120   */\n      tag_239\n      jump\t// in\n    tag_388:\n        /* \"#utility.yul\":17145:17147   */\n      0x20\n        /* \"#utility.yul\":17140:17143   */\n      dup3\n        /* \"#utility.yul\":17136:17148   */\n      add\n        /* \"#utility.yul\":17129:17148   */\n      swap1\n      pop\n        /* \"#utility.yul\":16788:17154   */\n      swap2\n      swap1\n      pop\n      jump\t// out\n        /* \"#utility.yul\":17160:17579   */\n    tag_195:\n        /* \"#utility.yul\":17326:17330   */\n      0x00\n        /* \"#utility.yul\":17364:17366   */\n      0x20\n        /* \"#utility.yul\":17353:17362   */\n      dup3\n        /* \"#utility.yul\":17349:17367   */\n      add\n        /* \"#utility.yul\":17341:17367   */\n      swap1\n      pop\n        /* \"#utility.yul\":17413:17422   */\n      dup2\n        /* \"#utility.yul\":17407:17411   */\n      dup2\n        /* \"#utility.yul\":17403:17423   */\n      sub\n        /* \"#utility.yul\":17399:17400   */\n      0x00\n        /* \"#utility.yul\":17388:17397   */\n      dup4\n        /* \"#utility.yul\":17384:17401   */\n      add\n        /* \"#utility.yul\":17377:17424   */\n      mstore\n        /* \"#utility.yul\":17441:17572   */\n      tag_390\n        /* \"#utility.yul\":17567:17571   */\n      dup2\n        /* \"#utility.yul\":17441:17572   */\n      tag_240\n      jump\t// in\n    tag_390:\n        /* \"#utility.yul\":17433:17572   */\n      swap1\n      pop\n        /* \"#utility.yul\":17160:17579   */\n      swap2\n      swap1\n      pop\n      jump\t// out\n    stop\n    data_974d1b4421da69cc60b481194f0dad36a5bb4e23da810da7a7fb30cdba178330 45524332303a207472616e7366657220616d6f756e74206578636565647320616c6c6f77616e6365\n    data_f8b476f7d28209d77d4a4ac1fe36b9f8259aa1bb6bddfa6e89de7e51615cf8a8 45524332303a2064656372656173656420616c6c6f77616e63652062656c6f77207a65726f\n\n    auxdata: 0xa2646970667358221220aa1fb836237f9c08e8f8d018c80ea5afe90358b5eb4baa423cd63e830e86981864736f6c63430008100033\n}\n",
				"bytecode": {
					"linkReferences": {},
					"object": "60806040526040518060400160405280600881526020017f4d696c6f20496e75000000000000000000000000000000000000000000000000815250600790816200004a9190620004f7565b506040518060400160405280600481526020017f4d494c4f0000000000000000000000000000000000000000000000000000000081525060089081620000919190620004f7565b506012600960006101000a81548160ff021916908360ff160217905550600960009054906101000a900460ff16600a620000cc91906200076e565b6602738d24e52000620000e09190620007bf565b600a55348015620000f057600080fd5b506000620001036200027560201b60201c565b9050806000806101000a81548173ffffffffffffffffffffffffffffffffffffffff021916908373ffffffffffffffffffffffffffffffffffffffff1602179055508073ffffffffffffffffffffffffffffffffffffffff16600073ffffffffffffffffffffffffffffffffffffffff167f8be0079c531659141344cd1fd0a4f28419497f9722a3daafe3b4186f6b6457e060405160405180910390a350600a5460036000620001b86200027560201b60201c565b73ffffffffffffffffffffffffffffffffffffffff1673ffffffffffffffffffffffffffffffffffffffff16815260200190815260200160002081905550620002066200027560201b60201c565b73ffffffffffffffffffffffffffffffffffffffff16600073ffffffffffffffffffffffffffffffffffffffff167fddf252ad1be2c89b69c2b068fc378daa952ba7f163c4a11628f55a4df523b3ef600a5460405162000267919062000831565b60405180910390a36200084e565b600033905090565b600081519050919050565b7f4e487b7100000000000000000000000000000000000000000000000000000000600052604160045260246000fd5b7f4e487b7100000000000000000000000000000000000000000000000000000000600052602260045260246000fd5b60006002820490506001821680620002ff57607f821691505b602082108103620003155762000314620002b7565b5b50919050565b60008190508160005260206000209050919050565b60006020601f8301049050919050565b600082821b905092915050565b6000600883026200037f7fffffffffffffffffffffffffffffffffffffffffffffffffffffffffffffffff8262000340565b6200038b868362000340565b95508019841693508086168417925050509392505050565b6000819050919050565b6000819050919050565b6000620003d8620003d2620003cc84620003a3565b620003ad565b620003a3565b9050919050565b6000819050919050565b620003f483620003b7565b6200040c6200040382620003df565b8484546200034d565b825550505050565b600090565b6200042362000414565b62000430818484620003e9565b505050565b5b8181101562000458576200044c60008262000419565b60018101905062000436565b5050565b601f821115620004a75762000471816200031b565b6200047c8462000330565b810160208510156200048c578190505b620004a46200049b8562000330565b83018262000435565b50505b505050565b600082821c905092915050565b6000620004cc60001984600802620004ac565b1980831691505092915050565b6000620004e78383620004b9565b9150826002028217905092915050565b62000502826200027d565b67ffffffffffffffff8111156200051e576200051d62000288565b5b6200052a8254620002e6565b620005378282856200045c565b600060209050601f8311600181146200056f57600084156200055a578287015190505b620005668582620004d9565b865550620005d6565b601f1984166200057f866200031b565b60005b82811015620005a95784890151825560018201915060208501945060208101905062000582565b86831015620005c95784890151620005c5601f891682620004b9565b8355505b6001600288020188555050505b505050505050565b7f4e487b7100000000000000000000000000000000000000000000000000000000600052601160045260246000fd5b60008160011c9050919050565b6000808291508390505b60018511156200066c57808604811115620006445762000643620005de565b5b6001851615620006545780820291505b808102905062000664856200060d565b945062000624565b94509492505050565b6000826200068757600190506200075a565b816200069757600090506200075a565b8160018114620006b05760028114620006bb57620006f1565b60019150506200075a565b60ff841115620006d057620006cf620005de565b5b8360020a915084821115620006ea57620006e9620005de565b5b506200075a565b5060208310610133831016604e8410600b84101617156200072b5782820a905083811115620007255762000724620005de565b5b6200075a565b6200073a84848460016200061a565b92509050818404811115620007545762000753620005de565b5b81810290505b9392505050565b600060ff82169050919050565b60006200077b82620003a3565b9150620007888362000761565b9250620007b77fffffffffffffffffffffffffffffffffffffffffffffffffffffffffffffffff848462000675565b905092915050565b6000620007cc82620003a3565b9150620007d983620003a3565b9250817fffffffffffffffffffffffffffffffffffffffffffffffffffffffffffffffff0483118215151615620008155762000814620005de565b5b828202905092915050565b6200082b81620003a3565b82525050565b600060208201905062000848600083018462000820565b92915050565b611e73806200085e6000396000f3fe608060405234801561001057600080fd5b506004361061010b5760003560e01c80638da5cb5b116100a2578063a9059cbb11610071578063a9059cbb146102aa578063b6c52324146102da578063dd467064146102f8578063dd62ed3e14610314578063f2fde38b146103445761010b565b80638da5cb5b1461023457806395d89b4114610252578063a457c2d714610270578063a69df4b5146102a05761010b565b8063313ce567116100de578063313ce567146101ac57806339509351146101ca57806370a08231146101fa578063715018a61461022a5761010b565b806306fdde0314610110578063095ea7b31461012e57806318160ddd1461015e57806323b872dd1461017c575b600080fd5b610118610360565b604051610125919061150e565b60405180910390f35b610148600480360381019061014391906115c9565b6103f2565b6040516101559190611624565b60405180910390f35b610166610410565b604051610173919061164e565b60405180910390f35b61019660048036038101906101919190611669565b61041a565b6040516101a39190611624565b60405180910390f35b6101b46104f3565b6040516101c191906116d8565b60405180910390f35b6101e460048036038101906101df91906115c9565b61050a565b6040516101f19190611624565b60405180910390f35b610214600480360381019061020f91906116f3565b6105bd565b604051610221919061164e565b60405180910390f35b610232610606565b005b61023c610759565b604051610249919061172f565b60405180910390f35b61025a610782565b604051610267919061150e565b60405180910390f35b61028a600480360381019061028591906115c9565b610814565b6040516102979190611624565b60405180910390f35b6102a86108e1565b005b6102c460048036038101906102bf91906115c9565b610ab5565b6040516102d19190611624565b60405180910390f35b6102e2610ad3565b6040516102ef919061164e565b60405180910390f35b610312600480360381019061030d919061174a565b610add565b005b61032e60048036038101906103299190611777565b610ca4565b60405161033b919061164e565b60405180910390f35b61035e600480360381019061035991906116f3565b610d2b565b005b60606007805461036f906117e6565b80601f016020809104026020016040519081016040528092919081815260200182805461039b906117e6565b80156103e85780601f106103bd576101008083540402835291602001916103e8565b820191906000526020600020905b8154815290600101906020018083116103cb57829003601f168201915b5050505050905090565b60006104066103ff610eec565b8484610ef4565b6001905092915050565b6000600a54905090565b60006104278484846110bd565b6104e884610433610eec565b6104e385604051806060016040528060288152602001611df160289139600460008b73ffffffffffffffffffffffffffffffffffffffff1673ffffffffffffffffffffffffffffffffffffffff1681526020019081526020016000206000610499610eec565b73ffffffffffffffffffffffffffffffffffffffff1673ffffffffffffffffffffffffffffffffffffffff168152602001908152602001600020546113729092919063ffffffff16565b610ef4565b600190509392505050565b6000600960009054906101000a900460ff16905090565b60006105b3610517610eec565b846105ae8560046000610528610eec565b73ffffffffffffffffffffffffffffffffffffffff1673ffffffffffffffffffffffffffffffffffffffff16815260200190815260200160002060008973ffffffffffffffffffffffffffffffffffffffff1673ffffffffffffffffffffffffffffffffffffffff168152602001908152602001600020546113d690919063ffffffff16565b610ef4565b6001905092915050565b6000600360008373ffffffffffffffffffffffffffffffffffffffff1673ffffffffffffffffffffffffffffffffffffffff168152602001908152602001600020549050919050565b61060e610eec565b73ffffffffffffffffffffffffffffffffffffffff1660008054906101000a900473ffffffffffffffffffffffffffffffffffffffff1673ffffffffffffffffffffffffffffffffffffffff161461069b576040517f08c379a000000000000000000000000000000000000000000000000000000000815260040161069290611863565b60405180910390fd5b600073ffffffffffffffffffffffffffffffffffffffff1660008054906101000a900473ffffffffffffffffffffffffffffffffffffffff1673ffffffffffffffffffffffffffffffffffffffff167f8be0079c531659141344cd1fd0a4f28419497f9722a3daafe3b4186f6b6457e060405160405180910390a360008060006101000a81548173ffffffffffffffffffffffffffffffffffffffff021916908373ffffffffffffffffffffffffffffffffffffffff160217905550565b60008060009054906101000a900473ffffffffffffffffffffffffffffffffffffffff16905090565b606060088054610791906117e6565b80601f01602080910402602001604051908101604052809291908181526020018280546107bd906117e6565b801561080a5780601f106107df5761010080835404028352916020019161080a565b820191906000526020600020905b8154815290600101906020018083116107ed57829003601f168201915b5050505050905090565b60006108d7610821610eec565b846108d285604051806060016040528060258152602001611e19602591396004600061084b610eec565b73ffffffffffffffffffffffffffffffffffffffff1673ffffffffffffffffffffffffffffffffffffffff16815260200190815260200160002060008a73ffffffffffffffffffffffffffffffffffffffff1673ffffffffffffffffffffffffffffffffffffffff168152602001908152602001600020546113729092919063ffffffff16565b610ef4565b6001905092915050565b3373ffffffffffffffffffffffffffffffffffffffff16600160009054906101000a900473ffffffffffffffffffffffffffffffffffffffff1673ffffffffffffffffffffffffffffffffffffffff1614610971576040517f08c379a0000000000000000000000000000000000000000000000000000000008152600401610968906118f5565b60405180910390fd5b60025442116109b5576040517f08c379a00000000000000000000000000000000000000000000000000000000081526004016109ac90611961565b60405180910390fd5b600160009054906101000a900473ffffffffffffffffffffffffffffffffffffffff1673ffffffffffffffffffffffffffffffffffffffff1660008054906101000a900473ffffffffffffffffffffffffffffffffffffffff1673ffffffffffffffffffffffffffffffffffffffff167f8be0079c531659141344cd1fd0a4f28419497f9722a3daafe3b4186f6b6457e060405160405180910390a3600160009054906101000a900473ffffffffffffffffffffffffffffffffffffffff166000806101000a81548173ffffffffffffffffffffffffffffffffffffffff021916908373ffffffffffffffffffffffffffffffffffffffff160217905550565b6000610ac9610ac2610eec565b84846110bd565b6001905092915050565b6000600254905090565b610ae5610eec565b73ffffffffffffffffffffffffffffffffffffffff1660008054906101000a900473ffffffffffffffffffffffffffffffffffffffff1673ffffffffffffffffffffffffffffffffffffffff1614610b72576040517f08c379a0000000000000000000000000000000000000000000000000000000008152600401610b6990611863565b60405180910390fd5b60008054906101000a900473ffffffffffffffffffffffffffffffffffffffff16600160006101000a81548173ffffffffffffffffffffffffffffffffffffffff021916908373ffffffffffffffffffffffffffffffffffffffff16021790555060008060006101000a81548173ffffffffffffffffffffffffffffffffffffffff021916908373ffffffffffffffffffffffffffffffffffffffff1602179055508042610c2091906119b0565b600281905550600073ffffffffffffffffffffffffffffffffffffffff1660008054906101000a900473ffffffffffffffffffffffffffffffffffffffff1673ffffffffffffffffffffffffffffffffffffffff167f8be0079c531659141344cd1fd0a4f28419497f9722a3daafe3b4186f6b6457e060405160405180910390a350565b6000600460008473ffffffffffffffffffffffffffffffffffffffff1673ffffffffffffffffffffffffffffffffffffffff16815260200190815260200160002060008373ffffffffffffffffffffffffffffffffffffffff1673ffffffffffffffffffffffffffffffffffffffff16815260200190815260200160002054905092915050565b610d33610eec565b73ffffffffffffffffffffffffffffffffffffffff1660008054906101000a900473ffffffffffffffffffffffffffffffffffffffff1673ffffffffffffffffffffffffffffffffffffffff1614610dc0576040517f08c379a0000000000000000000000000000000000000000000000000000000008152600401610db790611863565b60405180910390fd5b600073ffffffffffffffffffffffffffffffffffffffff168173ffffffffffffffffffffffffffffffffffffffff1603610e2f576040517f08c379a0000000000000000000000000000000000000000000000000000000008152600401610e2690611a56565b60405180910390fd5b8073ffffffffffffffffffffffffffffffffffffffff1660008054906101000a900473ffffffffffffffffffffffffffffffffffffffff1673ffffffffffffffffffffffffffffffffffffffff167f8be0079c531659141344cd1fd0a4f28419497f9722a3daafe3b4186f6b6457e060405160405180910390a3806000806101000a81548173ffffffffffffffffffffffffffffffffffffffff021916908373ffffffffffffffffffffffffffffffffffffffff16021790555050565b600033905090565b600073ffffffffffffffffffffffffffffffffffffffff168373ffffffffffffffffffffffffffffffffffffffff1603610f63576040517f08c379a0000000000000000000000000000000000000000000000000000000008152600401610f5a90611ae8565b60405180910390fd5b600073ffffffffffffffffffffffffffffffffffffffff168273ffffffffffffffffffffffffffffffffffffffff1603610fd2576040517f08c379a0000000000000000000000000000000000000000000000000000000008152600401610fc990611b7a565b60405180910390fd5b80600460008573ffffffffffffffffffffffffffffffffffffffff1673ffffffffffffffffffffffffffffffffffffffff16815260200190815260200160002060008473ffffffffffffffffffffffffffffffffffffffff1673ffffffffffffffffffffffffffffffffffffffff168152602001908152602001600020819055508173ffffffffffffffffffffffffffffffffffffffff168373ffffffffffffffffffffffffffffffffffffffff167f8c5be1e5ebec7d5bd14f71427d1e84f3dd0314c0f7b2291e5b200ac8c7c3b925836040516110b0919061164e565b60405180910390a3505050565b600073ffffffffffffffffffffffffffffffffffffffff168373ffffffffffffffffffffffffffffffffffffffff160361112c576040517f08c379a000000000000000000000000000000000000000000000000000000000815260040161112390611c0c565b60405180910390fd5b600073ffffffffffffffffffffffffffffffffffffffff168273ffffffffffffffffffffffffffffffffffffffff160361119b576040517f08c379a000000000000000000000000000000000000000000000000000000000815260040161119290611c9e565b60405180910390fd5b600081116111de576040517f08c379a00000000000000000000000000000000000000000000000000000000081526004016111d590611d30565b60405180910390fd5b61123081600360008673ffffffffffffffffffffffffffffffffffffffff1673ffffffffffffffffffffffffffffffffffffffff1681526020019081526020016000205461143490919063ffffffff16565b600360008573ffffffffffffffffffffffffffffffffffffffff1673ffffffffffffffffffffffffffffffffffffffff168152602001908152602001600020819055506112c581600360008573ffffffffffffffffffffffffffffffffffffffff1673ffffffffffffffffffffffffffffffffffffffff168152602001908152602001600020546113d690919063ffffffff16565b600360008473ffffffffffffffffffffffffffffffffffffffff1673ffffffffffffffffffffffffffffffffffffffff168152602001908152602001600020819055508173ffffffffffffffffffffffffffffffffffffffff168373ffffffffffffffffffffffffffffffffffffffff167fddf252ad1be2c89b69c2b068fc378daa952ba7f163c4a11628f55a4df523b3ef83604051611365919061164e565b60405180910390a3505050565b60008383111582906113ba576040517f08c379a00000000000000000000000000000000000000000000000000000000081526004016113b1919061150e565b60405180910390fd5b50600083856113c99190611d50565b9050809150509392505050565b60008082846113e591906119b0565b90508381101561142a576040517f08c379a000000000000000000000000000000000000000000000000000000000815260040161142190611dd0565b60405180910390fd5b8091505092915050565b600061147683836040518060400160405280601e81526020017f536166654d6174683a207375627472616374696f6e206f766572666c6f770000815250611372565b905092915050565b600081519050919050565b600082825260208201905092915050565b60005b838110156114b857808201518184015260208101905061149d565b60008484015250505050565b6000601f19601f8301169050919050565b60006114e08261147e565b6114ea8185611489565b93506114fa81856020860161149a565b611503816114c4565b840191505092915050565b6000602082019050818103600083015261152881846114d5565b905092915050565b600080fd5b600073ffffffffffffffffffffffffffffffffffffffff82169050919050565b600061156082611535565b9050919050565b61157081611555565b811461157b57600080fd5b50565b60008135905061158d81611567565b92915050565b6000819050919050565b6115a681611593565b81146115b157600080fd5b50565b6000813590506115c38161159d565b92915050565b600080604083850312156115e0576115df611530565b5b60006115ee8582860161157e565b92505060206115ff858286016115b4565b9150509250929050565b60008115159050919050565b61161e81611609565b82525050565b60006020820190506116396000830184611615565b92915050565b61164881611593565b82525050565b6000602082019050611663600083018461163f565b92915050565b60008060006060848603121561168257611681611530565b5b60006116908682870161157e565b93505060206116a18682870161157e565b92505060406116b2868287016115b4565b9150509250925092565b600060ff82169050919050565b6116d2816116bc565b82525050565b60006020820190506116ed60008301846116c9565b92915050565b60006020828403121561170957611708611530565b5b60006117178482850161157e565b91505092915050565b61172981611555565b82525050565b60006020820190506117446000830184611720565b92915050565b6000602082840312156117605761175f611530565b5b600061176e848285016115b4565b91505092915050565b6000806040838503121561178e5761178d611530565b5b600061179c8582860161157e565b92505060206117ad8582860161157e565b9150509250929050565b7f4e487b7100000000000000000000000000000000000000000000000000000000600052602260045260246000fd5b600060028204905060018216806117fe57607f821691505b602082108103611811576118106117b7565b5b50919050565b7f4f776e61626c653a2063616c6c6572206973206e6f7420746865206f776e6572600082015250565b600061184d602083611489565b915061185882611817565b602082019050919050565b6000602082019050818103600083015261187c81611840565b9050919050565b7f596f7520646f6e27742068617665207065726d697373696f6e20746f20756e6c60008201527f6f636b0000000000000000000000000000000000000000000000000000000000602082015250565b60006118df602383611489565b91506118ea82611883565b604082019050919050565b6000602082019050818103600083015261190e816118d2565b9050919050565b7f436f6e7472616374206973206c6f636b656420756e74696c2037206461797300600082015250565b600061194b601f83611489565b915061195682611915565b602082019050919050565b6000602082019050818103600083015261197a8161193e565b9050919050565b7f4e487b7100000000000000000000000000000000000000000000000000000000600052601160045260246000fd5b60006119bb82611593565b91506119c683611593565b92508282019050808211156119de576119dd611981565b5b92915050565b7f4f776e61626c653a206e6577206f776e657220697320746865207a65726f206160008201527f6464726573730000000000000000000000000000000000000000000000000000602082015250565b6000611a40602683611489565b9150611a4b826119e4565b604082019050919050565b60006020820190508181036000830152611a6f81611a33565b9050919050565b7f45524332303a20617070726f76652066726f6d20746865207a65726f2061646460008201527f7265737300000000000000000000000000000000000000000000000000000000602082015250565b6000611ad2602483611489565b9150611add82611a76565b604082019050919050565b60006020820190508181036000830152611b0181611ac5565b9050919050565b7f45524332303a20617070726f766520746f20746865207a65726f20616464726560008201527f7373000000000000000000000000000000000000000000000000000000000000602082015250565b6000611b64602283611489565b9150611b6f82611b08565b604082019050919050565b60006020820190508181036000830152611b9381611b57565b9050919050565b7f45524332303a207472616e736665722066726f6d20746865207a65726f20616460008201527f6472657373000000000000000000000000000000000000000000000000000000602082015250565b6000611bf6602583611489565b9150611c0182611b9a565b604082019050919050565b60006020820190508181036000830152611c2581611be9565b9050919050565b7f45524332303a207472616e7366657220746f20746865207a65726f206164647260008201527f6573730000000000000000000000000000000000000000000000000000000000602082015250565b6000611c88602383611489565b9150611c9382611c2c565b604082019050919050565b60006020820190508181036000830152611cb781611c7b565b9050919050565b7f5472616e7366657220616d6f756e74206d75737420626520677265617465722060008201527f7468616e207a65726f0000000000000000000000000000000000000000000000602082015250565b6000611d1a602983611489565b9150611d2582611cbe565b604082019050919050565b60006020820190508181036000830152611d4981611d0d565b9050919050565b6000611d5b82611593565b9150611d6683611593565b9250828203905081811115611d7e57611d7d611981565b5b92915050565b7f536166654d6174683a206164646974696f6e206f766572666c6f770000000000600082015250565b6000611dba601b83611489565b9150611dc582611d84565b602082019050919050565b60006020820190508181036000830152611de981611dad565b905091905056fe45524332303a207472616e7366657220616d6f756e74206578636565647320616c6c6f77616e636545524332303a2064656372656173656420616c6c6f77616e63652062656c6f77207a65726fa2646970667358221220aa1fb836237f9c08e8f8d018c80ea5afe90358b5eb4baa423cd63e830e86981864736f6c63430008100033",
					"opcodes": "PUSH1 0x80 PUSH1 0x40 MSTORE PUSH1 0x40 MLOAD DUP1 PUSH1 0x40 ADD PUSH1 0x40 MSTORE DUP1 PUSH1 0x8 DUP2 MSTORE PUSH1 0x20 ADD PUSH32 0x4D696C6F20496E75000000000000000000000000000000000000000000000000 DUP2 MSTORE POP PUSH1 0x7 SWAP1 DUP2 PUSH3 0x4A SWAP2 SWAP1 PUSH3 0x4F7 JUMP JUMPDEST POP PUSH1 0x40 MLOAD DUP1 PUSH1 0x40 ADD PUSH1 0x40 MSTORE DUP1 PUSH1 0x4 DUP2 MSTORE PUSH1 0x20 ADD PUSH32 0x4D494C4F00000000000000000000000000000000000000000000000000000000 DUP2 MSTORE POP PUSH1 0x8 SWAP1 DUP2 PUSH3 0x91 SWAP2 SWAP1 PUSH3 0x4F7 JUMP JUMPDEST POP PUSH1 0x12 PUSH1 0x9 PUSH1 0x0 PUSH2 0x100 EXP DUP2 SLOAD DUP2 PUSH1 0xFF MUL NOT AND SWAP1 DUP4 PUSH1 0xFF AND MUL OR SWAP1 SSTORE POP PUSH1 0x9 PUSH1 0x0 SWAP1 SLOAD SWAP1 PUSH2 0x100 EXP SWAP1 DIV PUSH1 0xFF AND PUSH1 0xA PUSH3 0xCC SWAP2 SWAP1 PUSH3 0x76E JUMP JUMPDEST PUSH7 0x2738D24E52000 PUSH3 0xE0 SWAP2 SWAP1 PUSH3 0x7BF JUMP JUMPDEST PUSH1 0xA SSTORE CALLVALUE DUP1 ISZERO PUSH3 0xF0 JUMPI PUSH1 0x0 DUP1 REVERT JUMPDEST POP PUSH1 0x0 PUSH3 0x103 PUSH3 0x275 PUSH1 0x20 SHL PUSH1 0x20 SHR JUMP JUMPDEST SWAP1 POP DUP1 PUSH1 0x0 DUP1 PUSH2 0x100 EXP DUP2 SLOAD DUP2 PUSH20 0xFFFFFFFFFFFFFFFFFFFFFFFFFFFFFFFFFFFFFFFF MUL NOT AND SWAP1 DUP4 PUSH20 0xFFFFFFFFFFFFFFFFFFFFFFFFFFFFFFFFFFFFFFFF AND MUL OR SWAP1 SSTORE POP DUP1 PUSH20 0xFFFFFFFFFFFFFFFFFFFFFFFFFFFFFFFFFFFFFFFF AND PUSH1 0x0 PUSH20 0xFFFFFFFFFFFFFFFFFFFFFFFFFFFFFFFFFFFFFFFF AND PUSH32 0x8BE0079C531659141344CD1FD0A4F28419497F9722A3DAAFE3B4186F6B6457E0 PUSH1 0x40 MLOAD PUSH1 0x40 MLOAD DUP1 SWAP2 SUB SWAP1 LOG3 POP PUSH1 0xA SLOAD PUSH1 0x3 PUSH1 0x0 PUSH3 0x1B8 PUSH3 0x275 PUSH1 0x20 SHL PUSH1 0x20 SHR JUMP JUMPDEST PUSH20 0xFFFFFFFFFFFFFFFFFFFFFFFFFFFFFFFFFFFFFFFF AND PUSH20 0xFFFFFFFFFFFFFFFFFFFFFFFFFFFFFFFFFFFFFFFF AND DUP2 MSTORE PUSH1 0x20 ADD SWAP1 DUP2 MSTORE PUSH1 0x20 ADD PUSH1 0x0 KECCAK256 DUP2 SWAP1 SSTORE POP PUSH3 0x206 PUSH3 0x275 PUSH1 0x20 SHL PUSH1 0x20 SHR JUMP JUMPDEST PUSH20 0xFFFFFFFFFFFFFFFFFFFFFFFFFFFFFFFFFFFFFFFF AND PUSH1 0x0 PUSH20 0xFFFFFFFFFFFFFFFFFFFFFFFFFFFFFFFFFFFFFFFF AND PUSH32 0xDDF252AD1BE2C89B69C2B068FC378DAA952BA7F163C4A11628F55A4DF523B3EF PUSH1 0xA SLOAD PUSH1 0x40 MLOAD PUSH3 0x267 SWAP2 SWAP1 PUSH3 0x831 JUMP JUMPDEST PUSH1 0x40 MLOAD DUP1 SWAP2 SUB SWAP1 LOG3 PUSH3 0x84E JUMP JUMPDEST PUSH1 0x0 CALLER SWAP1 POP SWAP1 JUMP JUMPDEST PUSH1 0x0 DUP2 MLOAD SWAP1 POP SWAP2 SWAP1 POP JUMP JUMPDEST PUSH32 0x4E487B7100000000000000000000000000000000000000000000000000000000 PUSH1 0x0 MSTORE PUSH1 0x41 PUSH1 0x4 MSTORE PUSH1 0x24 PUSH1 0x0 REVERT JUMPDEST PUSH32 0x4E487B7100000000000000000000000000000000000000000000000000000000 PUSH1 0x0 MSTORE PUSH1 0x22 PUSH1 0x4 MSTORE PUSH1 0x24 PUSH1 0x0 REVERT JUMPDEST PUSH1 0x0 PUSH1 0x2 DUP3 DIV SWAP1 POP PUSH1 0x1 DUP3 AND DUP1 PUSH3 0x2FF JUMPI PUSH1 0x7F DUP3 AND SWAP2 POP JUMPDEST PUSH1 0x20 DUP3 LT DUP2 SUB PUSH3 0x315 JUMPI PUSH3 0x314 PUSH3 0x2B7 JUMP JUMPDEST JUMPDEST POP SWAP2 SWAP1 POP JUMP JUMPDEST PUSH1 0x0 DUP2 SWAP1 POP DUP2 PUSH1 0x0 MSTORE PUSH1 0x20 PUSH1 0x0 KECCAK256 SWAP1 POP SWAP2 SWAP1 POP JUMP JUMPDEST PUSH1 0x0 PUSH1 0x20 PUSH1 0x1F DUP4 ADD DIV SWAP1 POP SWAP2 SWAP1 POP JUMP JUMPDEST PUSH1 0x0 DUP3 DUP3 SHL SWAP1 POP SWAP3 SWAP2 POP POP JUMP JUMPDEST PUSH1 0x0 PUSH1 0x8 DUP4 MUL PUSH3 0x37F PUSH32 0xFFFFFFFFFFFFFFFFFFFFFFFFFFFFFFFFFFFFFFFFFFFFFFFFFFFFFFFFFFFFFFFF DUP3 PUSH3 0x340 JUMP JUMPDEST PUSH3 0x38B DUP7 DUP4 PUSH3 0x340 JUMP JUMPDEST SWAP6 POP DUP1 NOT DUP5 AND SWAP4 POP DUP1 DUP7 AND DUP5 OR SWAP3 POP POP POP SWAP4 SWAP3 POP POP POP JUMP JUMPDEST PUSH1 0x0 DUP2 SWAP1 POP SWAP2 SWAP1 POP JUMP JUMPDEST PUSH1 0x0 DUP2 SWAP1 POP SWAP2 SWAP1 POP JUMP JUMPDEST PUSH1 0x0 PUSH3 0x3D8 PUSH3 0x3D2 PUSH3 0x3CC DUP5 PUSH3 0x3A3 JUMP JUMPDEST PUSH3 0x3AD JUMP JUMPDEST PUSH3 0x3A3 JUMP JUMPDEST SWAP1 POP SWAP2 SWAP1 POP JUMP JUMPDEST PUSH1 0x0 DUP2 SWAP1 POP SWAP2 SWAP1 POP JUMP JUMPDEST PUSH3 0x3F4 DUP4 PUSH3 0x3B7 JUMP JUMPDEST PUSH3 0x40C PUSH3 0x403 DUP3 PUSH3 0x3DF JUMP JUMPDEST DUP5 DUP5 SLOAD PUSH3 0x34D JUMP JUMPDEST DUP3 SSTORE POP POP POP POP JUMP JUMPDEST PUSH1 0x0 SWAP1 JUMP JUMPDEST PUSH3 0x423 PUSH3 0x414 JUMP JUMPDEST PUSH3 0x430 DUP2 DUP5 DUP5 PUSH3 0x3E9 JUMP JUMPDEST POP POP POP JUMP JUMPDEST JUMPDEST DUP2 DUP2 LT ISZERO PUSH3 0x458 JUMPI PUSH3 0x44C PUSH1 0x0 DUP3 PUSH3 0x419 JUMP JUMPDEST PUSH1 0x1 DUP2 ADD SWAP1 POP PUSH3 0x436 JUMP JUMPDEST POP POP JUMP JUMPDEST PUSH1 0x1F DUP3 GT ISZERO PUSH3 0x4A7 JUMPI PUSH3 0x471 DUP2 PUSH3 0x31B JUMP JUMPDEST PUSH3 0x47C DUP5 PUSH3 0x330 JUMP JUMPDEST DUP2 ADD PUSH1 0x20 DUP6 LT ISZERO PUSH3 0x48C JUMPI DUP2 SWAP1 POP JUMPDEST PUSH3 0x4A4 PUSH3 0x49B DUP6 PUSH3 0x330 JUMP JUMPDEST DUP4 ADD DUP3 PUSH3 0x435 JUMP JUMPDEST POP POP JUMPDEST POP POP POP JUMP JUMPDEST PUSH1 0x0 DUP3 DUP3 SHR SWAP1 POP SWAP3 SWAP2 POP POP JUMP JUMPDEST PUSH1 0x0 PUSH3 0x4CC PUSH1 0x0 NOT DUP5 PUSH1 0x8 MUL PUSH3 0x4AC JUMP JUMPDEST NOT DUP1 DUP4 AND SWAP2 POP POP SWAP3 SWAP2 POP POP JUMP JUMPDEST PUSH1 0x0 PUSH3 0x4E7 DUP4 DUP4 PUSH3 0x4B9 JUMP JUMPDEST SWAP2 POP DUP3 PUSH1 0x2 MUL DUP3 OR SWAP1 POP SWAP3 SWAP2 POP POP JUMP JUMPDEST PUSH3 0x502 DUP3 PUSH3 0x27D JUMP JUMPDEST PUSH8 0xFFFFFFFFFFFFFFFF DUP2 GT ISZERO PUSH3 0x51E JUMPI PUSH3 0x51D PUSH3 0x288 JUMP JUMPDEST JUMPDEST PUSH3 0x52A DUP3 SLOAD PUSH3 0x2E6 JUMP JUMPDEST PUSH3 0x537 DUP3 DUP3 DUP6 PUSH3 0x45C JUMP JUMPDEST PUSH1 0x0 PUSH1 0x20 SWAP1 POP PUSH1 0x1F DUP4 GT PUSH1 0x1 DUP2 EQ PUSH3 0x56F JUMPI PUSH1 0x0 DUP5 ISZERO PUSH3 0x55A JUMPI DUP3 DUP8 ADD MLOAD SWAP1 POP JUMPDEST PUSH3 0x566 DUP6 DUP3 PUSH3 0x4D9 JUMP JUMPDEST DUP7 SSTORE POP PUSH3 0x5D6 JUMP JUMPDEST PUSH1 0x1F NOT DUP5 AND PUSH3 0x57F DUP7 PUSH3 0x31B JUMP JUMPDEST PUSH1 0x0 JUMPDEST DUP3 DUP2 LT ISZERO PUSH3 0x5A9 JUMPI DUP5 DUP10 ADD MLOAD DUP3 SSTORE PUSH1 0x1 DUP3 ADD SWAP2 POP PUSH1 0x20 DUP6 ADD SWAP5 POP PUSH1 0x20 DUP2 ADD SWAP1 POP PUSH3 0x582 JUMP JUMPDEST DUP7 DUP4 LT ISZERO PUSH3 0x5C9 JUMPI DUP5 DUP10 ADD MLOAD PUSH3 0x5C5 PUSH1 0x1F DUP10 AND DUP3 PUSH3 0x4B9 JUMP JUMPDEST DUP4 SSTORE POP JUMPDEST PUSH1 0x1 PUSH1 0x2 DUP9 MUL ADD DUP9 SSTORE POP POP POP JUMPDEST POP POP POP POP POP POP JUMP JUMPDEST PUSH32 0x4E487B7100000000000000000000000000000000000000000000000000000000 PUSH1 0x0 MSTORE PUSH1 0x11 PUSH1 0x4 MSTORE PUSH1 0x24 PUSH1 0x0 REVERT JUMPDEST PUSH1 0x0 DUP2 PUSH1 0x1 SHR SWAP1 POP SWAP2 SWAP1 POP JUMP JUMPDEST PUSH1 0x0 DUP1 DUP3 SWAP2 POP DUP4 SWAP1 POP JUMPDEST PUSH1 0x1 DUP6 GT ISZERO PUSH3 0x66C JUMPI DUP1 DUP7 DIV DUP2 GT ISZERO PUSH3 0x644 JUMPI PUSH3 0x643 PUSH3 0x5DE JUMP JUMPDEST JUMPDEST PUSH1 0x1 DUP6 AND ISZERO PUSH3 0x654 JUMPI DUP1 DUP3 MUL SWAP2 POP JUMPDEST DUP1 DUP2 MUL SWAP1 POP PUSH3 0x664 DUP6 PUSH3 0x60D JUMP JUMPDEST SWAP5 POP PUSH3 0x624 JUMP JUMPDEST SWAP5 POP SWAP5 SWAP3 POP POP POP JUMP JUMPDEST PUSH1 0x0 DUP3 PUSH3 0x687 JUMPI PUSH1 0x1 SWAP1 POP PUSH3 0x75A JUMP JUMPDEST DUP2 PUSH3 0x697 JUMPI PUSH1 0x0 SWAP1 POP PUSH3 0x75A JUMP JUMPDEST DUP2 PUSH1 0x1 DUP2 EQ PUSH3 0x6B0 JUMPI PUSH1 0x2 DUP2 EQ PUSH3 0x6BB JUMPI PUSH3 0x6F1 JUMP JUMPDEST PUSH1 0x1 SWAP2 POP POP PUSH3 0x75A JUMP JUMPDEST PUSH1 0xFF DUP5 GT ISZERO PUSH3 0x6D0 JUMPI PUSH3 0x6CF PUSH3 0x5DE JUMP JUMPDEST JUMPDEST DUP4 PUSH1 0x2 EXP SWAP2 POP DUP5 DUP3 GT ISZERO PUSH3 0x6EA JUMPI PUSH3 0x6E9 PUSH3 0x5DE JUMP JUMPDEST JUMPDEST POP PUSH3 0x75A JUMP JUMPDEST POP PUSH1 0x20 DUP4 LT PUSH2 0x133 DUP4 LT AND PUSH1 0x4E DUP5 LT PUSH1 0xB DUP5 LT AND OR ISZERO PUSH3 0x72B JUMPI DUP3 DUP3 EXP SWAP1 POP DUP4 DUP2 GT ISZERO PUSH3 0x725 JUMPI PUSH3 0x724 PUSH3 0x5DE JUMP JUMPDEST JUMPDEST PUSH3 0x75A JUMP JUMPDEST PUSH3 0x73A DUP5 DUP5 DUP5 PUSH1 0x1 PUSH3 0x61A JUMP JUMPDEST SWAP3 POP SWAP1 POP DUP2 DUP5 DIV DUP2 GT ISZERO PUSH3 0x754 JUMPI PUSH3 0x753 PUSH3 0x5DE JUMP JUMPDEST JUMPDEST DUP2 DUP2 MUL SWAP1 POP JUMPDEST SWAP4 SWAP3 POP POP POP JUMP JUMPDEST PUSH1 0x0 PUSH1 0xFF DUP3 AND SWAP1 POP SWAP2 SWAP1 POP JUMP JUMPDEST PUSH1 0x0 PUSH3 0x77B DUP3 PUSH3 0x3A3 JUMP JUMPDEST SWAP2 POP PUSH3 0x788 DUP4 PUSH3 0x761 JUMP JUMPDEST SWAP3 POP PUSH3 0x7B7 PUSH32 0xFFFFFFFFFFFFFFFFFFFFFFFFFFFFFFFFFFFFFFFFFFFFFFFFFFFFFFFFFFFFFFFF DUP5 DUP5 PUSH3 0x675 JUMP JUMPDEST SWAP1 POP SWAP3 SWAP2 POP POP JUMP JUMPDEST PUSH1 0x0 PUSH3 0x7CC DUP3 PUSH3 0x3A3 JUMP JUMPDEST SWAP2 POP PUSH3 0x7D9 DUP4 PUSH3 0x3A3 JUMP JUMPDEST SWAP3 POP DUP2 PUSH32 0xFFFFFFFFFFFFFFFFFFFFFFFFFFFFFFFFFFFFFFFFFFFFFFFFFFFFFFFFFFFFFFFF DIV DUP4 GT DUP3 ISZERO ISZERO AND ISZERO PUSH3 0x815 JUMPI PUSH3 0x814 PUSH3 0x5DE JUMP JUMPDEST JUMPDEST DUP3 DUP3 MUL SWAP1 POP SWAP3 SWAP2 POP POP JUMP JUMPDEST PUSH3 0x82B DUP2 PUSH3 0x3A3 JUMP JUMPDEST DUP3 MSTORE POP POP JUMP JUMPDEST PUSH1 0x0 PUSH1 0x20 DUP3 ADD SWAP1 POP PUSH3 0x848 PUSH1 0x0 DUP4 ADD DUP5 PUSH3 0x820 JUMP JUMPDEST SWAP3 SWAP2 POP POP JUMP JUMPDEST PUSH2 0x1E73 DUP1 PUSH3 0x85E PUSH1 0x0 CODECOPY PUSH1 0x0 RETURN INVALID PUSH1 0x80 PUSH1 0x40 MSTORE CALLVALUE DUP1 ISZERO PUSH2 0x10 JUMPI PUSH1 0x0 DUP1 REVERT JUMPDEST POP PUSH1 0x4 CALLDATASIZE LT PUSH2 0x10B JUMPI PUSH1 0x0 CALLDATALOAD PUSH1 0xE0 SHR DUP1 PUSH4 0x8DA5CB5B GT PUSH2 0xA2 JUMPI DUP1 PUSH4 0xA9059CBB GT PUSH2 0x71 JUMPI DUP1 PUSH4 0xA9059CBB EQ PUSH2 0x2AA JUMPI DUP1 PUSH4 0xB6C52324 EQ PUSH2 0x2DA JUMPI DUP1 PUSH4 0xDD467064 EQ PUSH2 0x2F8 JUMPI DUP1 PUSH4 0xDD62ED3E EQ PUSH2 0x314 JUMPI DUP1 PUSH4 0xF2FDE38B EQ PUSH2 0x344 JUMPI PUSH2 0x10B JUMP JUMPDEST DUP1 PUSH4 0x8DA5CB5B EQ PUSH2 0x234 JUMPI DUP1 PUSH4 0x95D89B41 EQ PUSH2 0x252 JUMPI DUP1 PUSH4 0xA457C2D7 EQ PUSH2 0x270 JUMPI DUP1 PUSH4 0xA69DF4B5 EQ PUSH2 0x2A0 JUMPI PUSH2 0x10B JUMP JUMPDEST DUP1 PUSH4 0x313CE567 GT PUSH2 0xDE JUMPI DUP1 PUSH4 0x313CE567 EQ PUSH2 0x1AC JUMPI DUP1 PUSH4 0x39509351 EQ PUSH2 0x1CA JUMPI DUP1 PUSH4 0x70A08231 EQ PUSH2 0x1FA JUMPI DUP1 PUSH4 0x715018A6 EQ PUSH2 0x22A JUMPI PUSH2 0x10B JUMP JUMPDEST DUP1 PUSH4 0x6FDDE03 EQ PUSH2 0x110 JUMPI DUP1 PUSH4 0x95EA7B3 EQ PUSH2 0x12E JUMPI DUP1 PUSH4 0x18160DDD EQ PUSH2 0x15E JUMPI DUP1 PUSH4 0x23B872DD EQ PUSH2 0x17C JUMPI JUMPDEST PUSH1 0x0 DUP1 REVERT JUMPDEST PUSH2 0x118 PUSH2 0x360 JUMP JUMPDEST PUSH1 0x40 MLOAD PUSH2 0x125 SWAP2 SWAP1 PUSH2 0x150E JUMP JUMPDEST PUSH1 0x40 MLOAD DUP1 SWAP2 SUB SWAP1 RETURN JUMPDEST PUSH2 0x148 PUSH1 0x4 DUP1 CALLDATASIZE SUB DUP2 ADD SWAP1 PUSH2 0x143 SWAP2 SWAP1 PUSH2 0x15C9 JUMP JUMPDEST PUSH2 0x3F2 JUMP JUMPDEST PUSH1 0x40 MLOAD PUSH2 0x155 SWAP2 SWAP1 PUSH2 0x1624 JUMP JUMPDEST PUSH1 0x40 MLOAD DUP1 SWAP2 SUB SWAP1 RETURN JUMPDEST PUSH2 0x166 PUSH2 0x410 JUMP JUMPDEST PUSH1 0x40 MLOAD PUSH2 0x173 SWAP2 SWAP1 PUSH2 0x164E JUMP JUMPDEST PUSH1 0x40 MLOAD DUP1 SWAP2 SUB SWAP1 RETURN JUMPDEST PUSH2 0x196 PUSH1 0x4 DUP1 CALLDATASIZE SUB DUP2 ADD SWAP1 PUSH2 0x191 SWAP2 SWAP1 PUSH2 0x1669 JUMP JUMPDEST PUSH2 0x41A JUMP JUMPDEST PUSH1 0x40 MLOAD PUSH2 0x1A3 SWAP2 SWAP1 PUSH2 0x1624 JUMP JUMPDEST PUSH1 0x40 MLOAD DUP1 SWAP2 SUB SWAP1 RETURN JUMPDEST PUSH2 0x1B4 PUSH2 0x4F3 JUMP JUMPDEST PUSH1 0x40 MLOAD PUSH2 0x1C1 SWAP2 SWAP1 PUSH2 0x16D8 JUMP JUMPDEST PUSH1 0x40 MLOAD DUP1 SWAP2 SUB SWAP1 RETURN JUMPDEST PUSH2 0x1E4 PUSH1 0x4 DUP1 CALLDATASIZE SUB DUP2 ADD SWAP1 PUSH2 0x1DF SWAP2 SWAP1 PUSH2 0x15C9 JUMP JUMPDEST PUSH2 0x50A JUMP JUMPDEST PUSH1 0x40 MLOAD PUSH2 0x1F1 SWAP2 SWAP1 PUSH2 0x1624 JUMP JUMPDEST PUSH1 0x40 MLOAD DUP1 SWAP2 SUB SWAP1 RETURN JUMPDEST PUSH2 0x214 PUSH1 0x4 DUP1 CALLDATASIZE SUB DUP2 ADD SWAP1 PUSH2 0x20F SWAP2 SWAP1 PUSH2 0x16F3 JUMP JUMPDEST PUSH2 0x5BD JUMP JUMPDEST PUSH1 0x40 MLOAD PUSH2 0x221 SWAP2 SWAP1 PUSH2 0x164E JUMP JUMPDEST PUSH1 0x40 MLOAD DUP1 SWAP2 SUB SWAP1 RETURN JUMPDEST PUSH2 0x232 PUSH2 0x606 JUMP JUMPDEST STOP JUMPDEST PUSH2 0x23C PUSH2 0x759 JUMP JUMPDEST PUSH1 0x40 MLOAD PUSH2 0x249 SWAP2 SWAP1 PUSH2 0x172F JUMP JUMPDEST PUSH1 0x40 MLOAD DUP1 SWAP2 SUB SWAP1 RETURN JUMPDEST PUSH2 0x25A PUSH2 0x782 JUMP JUMPDEST PUSH1 0x40 MLOAD PUSH2 0x267 SWAP2 SWAP1 PUSH2 0x150E JUMP JUMPDEST PUSH1 0x40 MLOAD DUP1 SWAP2 SUB SWAP1 RETURN JUMPDEST PUSH2 0x28A PUSH1 0x4 DUP1 CALLDATASIZE SUB DUP2 ADD SWAP1 PUSH2 0x285 SWAP2 SWAP1 PUSH2 0x15C9 JUMP JUMPDEST PUSH2 0x814 JUMP JUMPDEST PUSH1 0x40 MLOAD PUSH2 0x297 SWAP2 SWAP1 PUSH2 0x1624 JUMP JUMPDEST PUSH1 0x40 MLOAD DUP1 SWAP2 SUB SWAP1 RETURN JUMPDEST PUSH2 0x2A8 PUSH2 0x8E1 JUMP JUMPDEST STOP JUMPDEST PUSH2 0x2C4 PUSH1 0x4 DUP1 CALLDATASIZE SUB DUP2 ADD SWAP1 PUSH2 0x2BF SWAP2 SWAP1 PUSH2 0x15C9 JUMP JUMPDEST PUSH2 0xAB5 JUMP JUMPDEST PUSH1 0x40 MLOAD PUSH2 0x2D1 SWAP2 SWAP1 PUSH2 0x1624 JUMP JUMPDEST PUSH1 0x40 MLOAD DUP1 SWAP2 SUB SWAP1 RETURN JUMPDEST PUSH2 0x2E2 PUSH2 0xAD3 JUMP JUMPDEST PUSH1 0x40 MLOAD PUSH2 0x2EF SWAP2 SWAP1 PUSH2 0x164E JUMP JUMPDEST PUSH1 0x40 MLOAD DUP1 SWAP2 SUB SWAP1 RETURN JUMPDEST PUSH2 0x312 PUSH1 0x4 DUP1 CALLDATASIZE SUB DUP2 ADD SWAP1 PUSH2 0x30D SWAP2 SWAP1 PUSH2 0x174A JUMP JUMPDEST PUSH2 0xADD JUMP JUMPDEST STOP JUMPDEST PUSH2 0x32E PUSH1 0x4 DUP1 CALLDATASIZE SUB DUP2 ADD SWAP1 PUSH2 0x329 SWAP2 SWAP1 PUSH2 0x1777 JUMP JUMPDEST PUSH2 0xCA4 JUMP JUMPDEST PUSH1 0x40 MLOAD PUSH2 0x33B SWAP2 SWAP1 PUSH2 0x164E JUMP JUMPDEST PUSH1 0x40 MLOAD DUP1 SWAP2 SUB SWAP1 RETURN JUMPDEST PUSH2 0x35E PUSH1 0x4 DUP1 CALLDATASIZE SUB DUP2 ADD SWAP1 PUSH2 0x359 SWAP2 SWAP1 PUSH2 0x16F3 JUMP JUMPDEST PUSH2 0xD2B JUMP JUMPDEST STOP JUMPDEST PUSH1 0x60 PUSH1 0x7 DUP1 SLOAD PUSH2 0x36F SWAP1 PUSH2 0x17E6 JUMP JUMPDEST DUP1 PUSH1 0x1F ADD PUSH1 0x20 DUP1 SWAP2 DIV MUL PUSH1 0x20 ADD PUSH1 0x40 MLOAD SWAP1 DUP2 ADD PUSH1 0x40 MSTORE DUP1 SWAP3 SWAP2 SWAP1 DUP2 DUP2 MSTORE PUSH1 0x20 ADD DUP3 DUP1 SLOAD PUSH2 0x39B SWAP1 PUSH2 0x17E6 JUMP JUMPDEST DUP1 ISZERO PUSH2 0x3E8 JUMPI DUP1 PUSH1 0x1F LT PUSH2 0x3BD JUMPI PUSH2 0x100 DUP1 DUP4 SLOAD DIV MUL DUP4 MSTORE SWAP2 PUSH1 0x20 ADD SWAP2 PUSH2 0x3E8 JUMP JUMPDEST DUP3 ADD SWAP2 SWAP1 PUSH1 0x0 MSTORE PUSH1 0x20 PUSH1 0x0 KECCAK256 SWAP1 JUMPDEST DUP2 SLOAD DUP2 MSTORE SWAP1 PUSH1 0x1 ADD SWAP1 PUSH1 0x20 ADD DUP1 DUP4 GT PUSH2 0x3CB JUMPI DUP3 SWAP1 SUB PUSH1 0x1F AND DUP3 ADD SWAP2 JUMPDEST POP POP POP POP POP SWAP1 POP SWAP1 JUMP JUMPDEST PUSH1 0x0 PUSH2 0x406 PUSH2 0x3FF PUSH2 0xEEC JUMP JUMPDEST DUP5 DUP5 PUSH2 0xEF4 JUMP JUMPDEST PUSH1 0x1 SWAP1 POP SWAP3 SWAP2 POP POP JUMP JUMPDEST PUSH1 0x0 PUSH1 0xA SLOAD SWAP1 POP SWAP1 JUMP JUMPDEST PUSH1 0x0 PUSH2 0x427 DUP5 DUP5 DUP5 PUSH2 0x10BD JUMP JUMPDEST PUSH2 0x4E8 DUP5 PUSH2 0x433 PUSH2 0xEEC JUMP JUMPDEST PUSH2 0x4E3 DUP6 PUSH1 0x40 MLOAD DUP1 PUSH1 0x60 ADD PUSH1 0x40 MSTORE DUP1 PUSH1 0x28 DUP2 MSTORE PUSH1 0x20 ADD PUSH2 0x1DF1 PUSH1 0x28 SWAP2 CODECOPY PUSH1 0x4 PUSH1 0x0 DUP12 PUSH20 0xFFFFFFFFFFFFFFFFFFFFFFFFFFFFFFFFFFFFFFFF AND PUSH20 0xFFFFFFFFFFFFFFFFFFFFFFFFFFFFFFFFFFFFFFFF AND DUP2 MSTORE PUSH1 0x20 ADD SWAP1 DUP2 MSTORE PUSH1 0x20 ADD PUSH1 0x0 KECCAK256 PUSH1 0x0 PUSH2 0x499 PUSH2 0xEEC JUMP JUMPDEST PUSH20 0xFFFFFFFFFFFFFFFFFFFFFFFFFFFFFFFFFFFFFFFF AND PUSH20 0xFFFFFFFFFFFFFFFFFFFFFFFFFFFFFFFFFFFFFFFF AND DUP2 MSTORE PUSH1 0x20 ADD SWAP1 DUP2 MSTORE PUSH1 0x20 ADD PUSH1 0x0 KECCAK256 SLOAD PUSH2 0x1372 SWAP1 SWAP3 SWAP2 SWAP1 PUSH4 0xFFFFFFFF AND JUMP JUMPDEST PUSH2 0xEF4 JUMP JUMPDEST PUSH1 0x1 SWAP1 POP SWAP4 SWAP3 POP POP POP JUMP JUMPDEST PUSH1 0x0 PUSH1 0x9 PUSH1 0x0 SWAP1 SLOAD SWAP1 PUSH2 0x100 EXP SWAP1 DIV PUSH1 0xFF AND SWAP1 POP SWAP1 JUMP JUMPDEST PUSH1 0x0 PUSH2 0x5B3 PUSH2 0x517 PUSH2 0xEEC JUMP JUMPDEST DUP5 PUSH2 0x5AE DUP6 PUSH1 0x4 PUSH1 0x0 PUSH2 0x528 PUSH2 0xEEC JUMP JUMPDEST PUSH20 0xFFFFFFFFFFFFFFFFFFFFFFFFFFFFFFFFFFFFFFFF AND PUSH20 0xFFFFFFFFFFFFFFFFFFFFFFFFFFFFFFFFFFFFFFFF AND DUP2 MSTORE PUSH1 0x20 ADD SWAP1 DUP2 MSTORE PUSH1 0x20 ADD PUSH1 0x0 KECCAK256 PUSH1 0x0 DUP10 PUSH20 0xFFFFFFFFFFFFFFFFFFFFFFFFFFFFFFFFFFFFFFFF AND PUSH20 0xFFFFFFFFFFFFFFFFFFFFFFFFFFFFFFFFFFFFFFFF AND DUP2 MSTORE PUSH1 0x20 ADD SWAP1 DUP2 MSTORE PUSH1 0x20 ADD PUSH1 0x0 KECCAK256 SLOAD PUSH2 0x13D6 SWAP1 SWAP2 SWAP1 PUSH4 0xFFFFFFFF AND JUMP JUMPDEST PUSH2 0xEF4 JUMP JUMPDEST PUSH1 0x1 SWAP1 POP SWAP3 SWAP2 POP POP JUMP JUMPDEST PUSH1 0x0 PUSH1 0x3 PUSH1 0x0 DUP4 PUSH20 0xFFFFFFFFFFFFFFFFFFFFFFFFFFFFFFFFFFFFFFFF AND PUSH20 0xFFFFFFFFFFFFFFFFFFFFFFFFFFFFFFFFFFFFFFFF AND DUP2 MSTORE PUSH1 0x20 ADD SWAP1 DUP2 MSTORE PUSH1 0x20 ADD PUSH1 0x0 KECCAK256 SLOAD SWAP1 POP SWAP2 SWAP1 POP JUMP JUMPDEST PUSH2 0x60E PUSH2 0xEEC JUMP JUMPDEST PUSH20 0xFFFFFFFFFFFFFFFFFFFFFFFFFFFFFFFFFFFFFFFF AND PUSH1 0x0 DUP1 SLOAD SWAP1 PUSH2 0x100 EXP SWAP1 DIV PUSH20 0xFFFFFFFFFFFFFFFFFFFFFFFFFFFFFFFFFFFFFFFF AND PUSH20 0xFFFFFFFFFFFFFFFFFFFFFFFFFFFFFFFFFFFFFFFF AND EQ PUSH2 0x69B JUMPI PUSH1 0x40 MLOAD PUSH32 0x8C379A000000000000000000000000000000000000000000000000000000000 DUP2 MSTORE PUSH1 0x4 ADD PUSH2 0x692 SWAP1 PUSH2 0x1863 JUMP JUMPDEST PUSH1 0x40 MLOAD DUP1 SWAP2 SUB SWAP1 REVERT JUMPDEST PUSH1 0x0 PUSH20 0xFFFFFFFFFFFFFFFFFFFFFFFFFFFFFFFFFFFFFFFF AND PUSH1 0x0 DUP1 SLOAD SWAP1 PUSH2 0x100 EXP SWAP1 DIV PUSH20 0xFFFFFFFFFFFFFFFFFFFFFFFFFFFFFFFFFFFFFFFF AND PUSH20 0xFFFFFFFFFFFFFFFFFFFFFFFFFFFFFFFFFFFFFFFF AND PUSH32 0x8BE0079C531659141344CD1FD0A4F28419497F9722A3DAAFE3B4186F6B6457E0 PUSH1 0x40 MLOAD PUSH1 0x40 MLOAD DUP1 SWAP2 SUB SWAP1 LOG3 PUSH1 0x0 DUP1 PUSH1 0x0 PUSH2 0x100 EXP DUP2 SLOAD DUP2 PUSH20 0xFFFFFFFFFFFFFFFFFFFFFFFFFFFFFFFFFFFFFFFF MUL NOT AND SWAP1 DUP4 PUSH20 0xFFFFFFFFFFFFFFFFFFFFFFFFFFFFFFFFFFFFFFFF AND MUL OR SWAP1 SSTORE POP JUMP JUMPDEST PUSH1 0x0 DUP1 PUSH1 0x0 SWAP1 SLOAD SWAP1 PUSH2 0x100 EXP SWAP1 DIV PUSH20 0xFFFFFFFFFFFFFFFFFFFFFFFFFFFFFFFFFFFFFFFF AND SWAP1 POP SWAP1 JUMP JUMPDEST PUSH1 0x60 PUSH1 0x8 DUP1 SLOAD PUSH2 0x791 SWAP1 PUSH2 0x17E6 JUMP JUMPDEST DUP1 PUSH1 0x1F ADD PUSH1 0x20 DUP1 SWAP2 DIV MUL PUSH1 0x20 ADD PUSH1 0x40 MLOAD SWAP1 DUP2 ADD PUSH1 0x40 MSTORE DUP1 SWAP3 SWAP2 SWAP1 DUP2 DUP2 MSTORE PUSH1 0x20 ADD DUP3 DUP1 SLOAD PUSH2 0x7BD SWAP1 PUSH2 0x17E6 JUMP JUMPDEST DUP1 ISZERO PUSH2 0x80A JUMPI DUP1 PUSH1 0x1F LT PUSH2 0x7DF JUMPI PUSH2 0x100 DUP1 DUP4 SLOAD DIV MUL DUP4 MSTORE SWAP2 PUSH1 0x20 ADD SWAP2 PUSH2 0x80A JUMP JUMPDEST DUP3 ADD SWAP2 SWAP1 PUSH1 0x0 MSTORE PUSH1 0x20 PUSH1 0x0 KECCAK256 SWAP1 JUMPDEST DUP2 SLOAD DUP2 MSTORE SWAP1 PUSH1 0x1 ADD SWAP1 PUSH1 0x20 ADD DUP1 DUP4 GT PUSH2 0x7ED JUMPI DUP3 SWAP1 SUB PUSH1 0x1F AND DUP3 ADD SWAP2 JUMPDEST POP POP POP POP POP SWAP1 POP SWAP1 JUMP JUMPDEST PUSH1 0x0 PUSH2 0x8D7 PUSH2 0x821 PUSH2 0xEEC JUMP JUMPDEST DUP5 PUSH2 0x8D2 DUP6 PUSH1 0x40 MLOAD DUP1 PUSH1 0x60 ADD PUSH1 0x40 MSTORE DUP1 PUSH1 0x25 DUP2 MSTORE PUSH1 0x20 ADD PUSH2 0x1E19 PUSH1 0x25 SWAP2 CODECOPY PUSH1 0x4 PUSH1 0x0 PUSH2 0x84B PUSH2 0xEEC JUMP JUMPDEST PUSH20 0xFFFFFFFFFFFFFFFFFFFFFFFFFFFFFFFFFFFFFFFF AND PUSH20 0xFFFFFFFFFFFFFFFFFFFFFFFFFFFFFFFFFFFFFFFF AND DUP2 MSTORE PUSH1 0x20 ADD SWAP1 DUP2 MSTORE PUSH1 0x20 ADD PUSH1 0x0 KECCAK256 PUSH1 0x0 DUP11 PUSH20 0xFFFFFFFFFFFFFFFFFFFFFFFFFFFFFFFFFFFFFFFF AND PUSH20 0xFFFFFFFFFFFFFFFFFFFFFFFFFFFFFFFFFFFFFFFF AND DUP2 MSTORE PUSH1 0x20 ADD SWAP1 DUP2 MSTORE PUSH1 0x20 ADD PUSH1 0x0 KECCAK256 SLOAD PUSH2 0x1372 SWAP1 SWAP3 SWAP2 SWAP1 PUSH4 0xFFFFFFFF AND JUMP JUMPDEST PUSH2 0xEF4 JUMP JUMPDEST PUSH1 0x1 SWAP1 POP SWAP3 SWAP2 POP POP JUMP JUMPDEST CALLER PUSH20 0xFFFFFFFFFFFFFFFFFFFFFFFFFFFFFFFFFFFFFFFF AND PUSH1 0x1 PUSH1 0x0 SWAP1 SLOAD SWAP1 PUSH2 0x100 EXP SWAP1 DIV PUSH20 0xFFFFFFFFFFFFFFFFFFFFFFFFFFFFFFFFFFFFFFFF AND PUSH20 0xFFFFFFFFFFFFFFFFFFFFFFFFFFFFFFFFFFFFFFFF AND EQ PUSH2 0x971 JUMPI PUSH1 0x40 MLOAD PUSH32 0x8C379A000000000000000000000000000000000000000000000000000000000 DUP2 MSTORE PUSH1 0x4 ADD PUSH2 0x968 SWAP1 PUSH2 0x18F5 JUMP JUMPDEST PUSH1 0x40 MLOAD DUP1 SWAP2 SUB SWAP1 REVERT JUMPDEST PUSH1 0x2 SLOAD TIMESTAMP GT PUSH2 0x9B5 JUMPI PUSH1 0x40 MLOAD PUSH32 0x8C379A000000000000000000000000000000000000000000000000000000000 DUP2 MSTORE PUSH1 0x4 ADD PUSH2 0x9AC SWAP1 PUSH2 0x1961 JUMP JUMPDEST PUSH1 0x40 MLOAD DUP1 SWAP2 SUB SWAP1 REVERT JUMPDEST PUSH1 0x1 PUSH1 0x0 SWAP1 SLOAD SWAP1 PUSH2 0x100 EXP SWAP1 DIV PUSH20 0xFFFFFFFFFFFFFFFFFFFFFFFFFFFFFFFFFFFFFFFF AND PUSH20 0xFFFFFFFFFFFFFFFFFFFFFFFFFFFFFFFFFFFFFFFF AND PUSH1 0x0 DUP1 SLOAD SWAP1 PUSH2 0x100 EXP SWAP1 DIV PUSH20 0xFFFFFFFFFFFFFFFFFFFFFFFFFFFFFFFFFFFFFFFF AND PUSH20 0xFFFFFFFFFFFFFFFFFFFFFFFFFFFFFFFFFFFFFFFF AND PUSH32 0x8BE0079C531659141344CD1FD0A4F28419497F9722A3DAAFE3B4186F6B6457E0 PUSH1 0x40 MLOAD PUSH1 0x40 MLOAD DUP1 SWAP2 SUB SWAP1 LOG3 PUSH1 0x1 PUSH1 0x0 SWAP1 SLOAD SWAP1 PUSH2 0x100 EXP SWAP1 DIV PUSH20 0xFFFFFFFFFFFFFFFFFFFFFFFFFFFFFFFFFFFFFFFF AND PUSH1 0x0 DUP1 PUSH2 0x100 EXP DUP2 SLOAD DUP2 PUSH20 0xFFFFFFFFFFFFFFFFFFFFFFFFFFFFFFFFFFFFFFFF MUL NOT AND SWAP1 DUP4 PUSH20 0xFFFFFFFFFFFFFFFFFFFFFFFFFFFFFFFFFFFFFFFF AND MUL OR SWAP1 SSTORE POP JUMP JUMPDEST PUSH1 0x0 PUSH2 0xAC9 PUSH2 0xAC2 PUSH2 0xEEC JUMP JUMPDEST DUP5 DUP5 PUSH2 0x10BD JUMP JUMPDEST PUSH1 0x1 SWAP1 POP SWAP3 SWAP2 POP POP JUMP JUMPDEST PUSH1 0x0 PUSH1 0x2 SLOAD SWAP1 POP SWAP1 JUMP JUMPDEST PUSH2 0xAE5 PUSH2 0xEEC JUMP JUMPDEST PUSH20 0xFFFFFFFFFFFFFFFFFFFFFFFFFFFFFFFFFFFFFFFF AND PUSH1 0x0 DUP1 SLOAD SWAP1 PUSH2 0x100 EXP SWAP1 DIV PUSH20 0xFFFFFFFFFFFFFFFFFFFFFFFFFFFFFFFFFFFFFFFF AND PUSH20 0xFFFFFFFFFFFFFFFFFFFFFFFFFFFFFFFFFFFFFFFF AND EQ PUSH2 0xB72 JUMPI PUSH1 0x40 MLOAD PUSH32 0x8C379A000000000000000000000000000000000000000000000000000000000 DUP2 MSTORE PUSH1 0x4 ADD PUSH2 0xB69 SWAP1 PUSH2 0x1863 JUMP JUMPDEST PUSH1 0x40 MLOAD DUP1 SWAP2 SUB SWAP1 REVERT JUMPDEST PUSH1 0x0 DUP1 SLOAD SWAP1 PUSH2 0x100 EXP SWAP1 DIV PUSH20 0xFFFFFFFFFFFFFFFFFFFFFFFFFFFFFFFFFFFFFFFF AND PUSH1 0x1 PUSH1 0x0 PUSH2 0x100 EXP DUP2 SLOAD DUP2 PUSH20 0xFFFFFFFFFFFFFFFFFFFFFFFFFFFFFFFFFFFFFFFF MUL NOT AND SWAP1 DUP4 PUSH20 0xFFFFFFFFFFFFFFFFFFFFFFFFFFFFFFFFFFFFFFFF AND MUL OR SWAP1 SSTORE POP PUSH1 0x0 DUP1 PUSH1 0x0 PUSH2 0x100 EXP DUP2 SLOAD DUP2 PUSH20 0xFFFFFFFFFFFFFFFFFFFFFFFFFFFFFFFFFFFFFFFF MUL NOT AND SWAP1 DUP4 PUSH20 0xFFFFFFFFFFFFFFFFFFFFFFFFFFFFFFFFFFFFFFFF AND MUL OR SWAP1 SSTORE POP DUP1 TIMESTAMP PUSH2 0xC20 SWAP2 SWAP1 PUSH2 0x19B0 JUMP JUMPDEST PUSH1 0x2 DUP2 SWAP1 SSTORE POP PUSH1 0x0 PUSH20 0xFFFFFFFFFFFFFFFFFFFFFFFFFFFFFFFFFFFFFFFF AND PUSH1 0x0 DUP1 SLOAD SWAP1 PUSH2 0x100 EXP SWAP1 DIV PUSH20 0xFFFFFFFFFFFFFFFFFFFFFFFFFFFFFFFFFFFFFFFF AND PUSH20 0xFFFFFFFFFFFFFFFFFFFFFFFFFFFFFFFFFFFFFFFF AND PUSH32 0x8BE0079C531659141344CD1FD0A4F28419497F9722A3DAAFE3B4186F6B6457E0 PUSH1 0x40 MLOAD PUSH1 0x40 MLOAD DUP1 SWAP2 SUB SWAP1 LOG3 POP JUMP JUMPDEST PUSH1 0x0 PUSH1 0x4 PUSH1 0x0 DUP5 PUSH20 0xFFFFFFFFFFFFFFFFFFFFFFFFFFFFFFFFFFFFFFFF AND PUSH20 0xFFFFFFFFFFFFFFFFFFFFFFFFFFFFFFFFFFFFFFFF AND DUP2 MSTORE PUSH1 0x20 ADD SWAP1 DUP2 MSTORE PUSH1 0x20 ADD PUSH1 0x0 KECCAK256 PUSH1 0x0 DUP4 PUSH20 0xFFFFFFFFFFFFFFFFFFFFFFFFFFFFFFFFFFFFFFFF AND PUSH20 0xFFFFFFFFFFFFFFFFFFFFFFFFFFFFFFFFFFFFFFFF AND DUP2 MSTORE PUSH1 0x20 ADD SWAP1 DUP2 MSTORE PUSH1 0x20 ADD PUSH1 0x0 KECCAK256 SLOAD SWAP1 POP SWAP3 SWAP2 POP POP JUMP JUMPDEST PUSH2 0xD33 PUSH2 0xEEC JUMP JUMPDEST PUSH20 0xFFFFFFFFFFFFFFFFFFFFFFFFFFFFFFFFFFFFFFFF AND PUSH1 0x0 DUP1 SLOAD SWAP1 PUSH2 0x100 EXP SWAP1 DIV PUSH20 0xFFFFFFFFFFFFFFFFFFFFFFFFFFFFFFFFFFFFFFFF AND PUSH20 0xFFFFFFFFFFFFFFFFFFFFFFFFFFFFFFFFFFFFFFFF AND EQ PUSH2 0xDC0 JUMPI PUSH1 0x40 MLOAD PUSH32 0x8C379A000000000000000000000000000000000000000000000000000000000 DUP2 MSTORE PUSH1 0x4 ADD PUSH2 0xDB7 SWAP1 PUSH2 0x1863 JUMP JUMPDEST PUSH1 0x40 MLOAD DUP1 SWAP2 SUB SWAP1 REVERT JUMPDEST PUSH1 0x0 PUSH20 0xFFFFFFFFFFFFFFFFFFFFFFFFFFFFFFFFFFFFFFFF AND DUP2 PUSH20 0xFFFFFFFFFFFFFFFFFFFFFFFFFFFFFFFFFFFFFFFF AND SUB PUSH2 0xE2F JUMPI PUSH1 0x40 MLOAD PUSH32 0x8C379A000000000000000000000000000000000000000000000000000000000 DUP2 MSTORE PUSH1 0x4 ADD PUSH2 0xE26 SWAP1 PUSH2 0x1A56 JUMP JUMPDEST PUSH1 0x40 MLOAD DUP1 SWAP2 SUB SWAP1 REVERT JUMPDEST DUP1 PUSH20 0xFFFFFFFFFFFFFFFFFFFFFFFFFFFFFFFFFFFFFFFF AND PUSH1 0x0 DUP1 SLOAD SWAP1 PUSH2 0x100 EXP SWAP1 DIV PUSH20 0xFFFFFFFFFFFFFFFFFFFFFFFFFFFFFFFFFFFFFFFF AND PUSH20 0xFFFFFFFFFFFFFFFFFFFFFFFFFFFFFFFFFFFFFFFF AND PUSH32 0x8BE0079C531659141344CD1FD0A4F28419497F9722A3DAAFE3B4186F6B6457E0 PUSH1 0x40 MLOAD PUSH1 0x40 MLOAD DUP1 SWAP2 SUB SWAP1 LOG3 DUP1 PUSH1 0x0 DUP1 PUSH2 0x100 EXP DUP2 SLOAD DUP2 PUSH20 0xFFFFFFFFFFFFFFFFFFFFFFFFFFFFFFFFFFFFFFFF MUL NOT AND SWAP1 DUP4 PUSH20 0xFFFFFFFFFFFFFFFFFFFFFFFFFFFFFFFFFFFFFFFF AND MUL OR SWAP1 SSTORE POP POP JUMP JUMPDEST PUSH1 0x0 CALLER SWAP1 POP SWAP1 JUMP JUMPDEST PUSH1 0x0 PUSH20 0xFFFFFFFFFFFFFFFFFFFFFFFFFFFFFFFFFFFFFFFF AND DUP4 PUSH20 0xFFFFFFFFFFFFFFFFFFFFFFFFFFFFFFFFFFFFFFFF AND SUB PUSH2 0xF63 JUMPI PUSH1 0x40 MLOAD PUSH32 0x8C379A000000000000000000000000000000000000000000000000000000000 DUP2 MSTORE PUSH1 0x4 ADD PUSH2 0xF5A SWAP1 PUSH2 0x1AE8 JUMP JUMPDEST PUSH1 0x40 MLOAD DUP1 SWAP2 SUB SWAP1 REVERT JUMPDEST PUSH1 0x0 PUSH20 0xFFFFFFFFFFFFFFFFFFFFFFFFFFFFFFFFFFFFFFFF AND DUP3 PUSH20 0xFFFFFFFFFFFFFFFFFFFFFFFFFFFFFFFFFFFFFFFF AND SUB PUSH2 0xFD2 JUMPI PUSH1 0x40 MLOAD PUSH32 0x8C379A000000000000000000000000000000000000000000000000000000000 DUP2 MSTORE PUSH1 0x4 ADD PUSH2 0xFC9 SWAP1 PUSH2 0x1B7A JUMP JUMPDEST PUSH1 0x40 MLOAD DUP1 SWAP2 SUB SWAP1 REVERT JUMPDEST DUP1 PUSH1 0x4 PUSH1 0x0 DUP6 PUSH20 0xFFFFFFFFFFFFFFFFFFFFFFFFFFFFFFFFFFFFFFFF AND PUSH20 0xFFFFFFFFFFFFFFFFFFFFFFFFFFFFFFFFFFFFFFFF AND DUP2 MSTORE PUSH1 0x20 ADD SWAP1 DUP2 MSTORE PUSH1 0x20 ADD PUSH1 0x0 KECCAK256 PUSH1 0x0 DUP5 PUSH20 0xFFFFFFFFFFFFFFFFFFFFFFFFFFFFFFFFFFFFFFFF AND PUSH20 0xFFFFFFFFFFFFFFFFFFFFFFFFFFFFFFFFFFFFFFFF AND DUP2 MSTORE PUSH1 0x20 ADD SWAP1 DUP2 MSTORE PUSH1 0x20 ADD PUSH1 0x0 KECCAK256 DUP2 SWAP1 SSTORE POP DUP2 PUSH20 0xFFFFFFFFFFFFFFFFFFFFFFFFFFFFFFFFFFFFFFFF AND DUP4 PUSH20 0xFFFFFFFFFFFFFFFFFFFFFFFFFFFFFFFFFFFFFFFF AND PUSH32 0x8C5BE1E5EBEC7D5BD14F71427D1E84F3DD0314C0F7B2291E5B200AC8C7C3B925 DUP4 PUSH1 0x40 MLOAD PUSH2 0x10B0 SWAP2 SWAP1 PUSH2 0x164E JUMP JUMPDEST PUSH1 0x40 MLOAD DUP1 SWAP2 SUB SWAP1 LOG3 POP POP POP JUMP JUMPDEST PUSH1 0x0 PUSH20 0xFFFFFFFFFFFFFFFFFFFFFFFFFFFFFFFFFFFFFFFF AND DUP4 PUSH20 0xFFFFFFFFFFFFFFFFFFFFFFFFFFFFFFFFFFFFFFFF AND SUB PUSH2 0x112C JUMPI PUSH1 0x40 MLOAD PUSH32 0x8C379A000000000000000000000000000000000000000000000000000000000 DUP2 MSTORE PUSH1 0x4 ADD PUSH2 0x1123 SWAP1 PUSH2 0x1C0C JUMP JUMPDEST PUSH1 0x40 MLOAD DUP1 SWAP2 SUB SWAP1 REVERT JUMPDEST PUSH1 0x0 PUSH20 0xFFFFFFFFFFFFFFFFFFFFFFFFFFFFFFFFFFFFFFFF AND DUP3 PUSH20 0xFFFFFFFFFFFFFFFFFFFFFFFFFFFFFFFFFFFFFFFF AND SUB PUSH2 0x119B JUMPI PUSH1 0x40 MLOAD PUSH32 0x8C379A000000000000000000000000000000000000000000000000000000000 DUP2 MSTORE PUSH1 0x4 ADD PUSH2 0x1192 SWAP1 PUSH2 0x1C9E JUMP JUMPDEST PUSH1 0x40 MLOAD DUP1 SWAP2 SUB SWAP1 REVERT JUMPDEST PUSH1 0x0 DUP2 GT PUSH2 0x11DE JUMPI PUSH1 0x40 MLOAD PUSH32 0x8C379A000000000000000000000000000000000000000000000000000000000 DUP2 MSTORE PUSH1 0x4 ADD PUSH2 0x11D5 SWAP1 PUSH2 0x1D30 JUMP JUMPDEST PUSH1 0x40 MLOAD DUP1 SWAP2 SUB SWAP1 REVERT JUMPDEST PUSH2 0x1230 DUP2 PUSH1 0x3 PUSH1 0x0 DUP7 PUSH20 0xFFFFFFFFFFFFFFFFFFFFFFFFFFFFFFFFFFFFFFFF AND PUSH20 0xFFFFFFFFFFFFFFFFFFFFFFFFFFFFFFFFFFFFFFFF AND DUP2 MSTORE PUSH1 0x20 ADD SWAP1 DUP2 MSTORE PUSH1 0x20 ADD PUSH1 0x0 KECCAK256 SLOAD PUSH2 0x1434 SWAP1 SWAP2 SWAP1 PUSH4 0xFFFFFFFF AND JUMP JUMPDEST PUSH1 0x3 PUSH1 0x0 DUP6 PUSH20 0xFFFFFFFFFFFFFFFFFFFFFFFFFFFFFFFFFFFFFFFF AND PUSH20 0xFFFFFFFFFFFFFFFFFFFFFFFFFFFFFFFFFFFFFFFF AND DUP2 MSTORE PUSH1 0x20 ADD SWAP1 DUP2 MSTORE PUSH1 0x20 ADD PUSH1 0x0 KECCAK256 DUP2 SWAP1 SSTORE POP PUSH2 0x12C5 DUP2 PUSH1 0x3 PUSH1 0x0 DUP6 PUSH20 0xFFFFFFFFFFFFFFFFFFFFFFFFFFFFFFFFFFFFFFFF AND PUSH20 0xFFFFFFFFFFFFFFFFFFFFFFFFFFFFFFFFFFFFFFFF AND DUP2 MSTORE PUSH1 0x20 ADD SWAP1 DUP2 MSTORE PUSH1 0x20 ADD PUSH1 0x0 KECCAK256 SLOAD PUSH2 0x13D6 SWAP1 SWAP2 SWAP1 PUSH4 0xFFFFFFFF AND JUMP JUMPDEST PUSH1 0x3 PUSH1 0x0 DUP5 PUSH20 0xFFFFFFFFFFFFFFFFFFFFFFFFFFFFFFFFFFFFFFFF AND PUSH20 0xFFFFFFFFFFFFFFFFFFFFFFFFFFFFFFFFFFFFFFFF AND DUP2 MSTORE PUSH1 0x20 ADD SWAP1 DUP2 MSTORE PUSH1 0x20 ADD PUSH1 0x0 KECCAK256 DUP2 SWAP1 SSTORE POP DUP2 PUSH20 0xFFFFFFFFFFFFFFFFFFFFFFFFFFFFFFFFFFFFFFFF AND DUP4 PUSH20 0xFFFFFFFFFFFFFFFFFFFFFFFFFFFFFFFFFFFFFFFF AND PUSH32 0xDDF252AD1BE2C89B69C2B068FC378DAA952BA7F163C4A11628F55A4DF523B3EF DUP4 PUSH1 0x40 MLOAD PUSH2 0x1365 SWAP2 SWAP1 PUSH2 0x164E JUMP JUMPDEST PUSH1 0x40 MLOAD DUP1 SWAP2 SUB SWAP1 LOG3 POP POP POP JUMP JUMPDEST PUSH1 0x0 DUP4 DUP4 GT ISZERO DUP3 SWAP1 PUSH2 0x13BA JUMPI PUSH1 0x40 MLOAD PUSH32 0x8C379A000000000000000000000000000000000000000000000000000000000 DUP2 MSTORE PUSH1 0x4 ADD PUSH2 0x13B1 SWAP2 SWAP1 PUSH2 0x150E JUMP JUMPDEST PUSH1 0x40 MLOAD DUP1 SWAP2 SUB SWAP1 REVERT JUMPDEST POP PUSH1 0x0 DUP4 DUP6 PUSH2 0x13C9 SWAP2 SWAP1 PUSH2 0x1D50 JUMP JUMPDEST SWAP1 POP DUP1 SWAP2 POP POP SWAP4 SWAP3 POP POP POP JUMP JUMPDEST PUSH1 0x0 DUP1 DUP3 DUP5 PUSH2 0x13E5 SWAP2 SWAP1 PUSH2 0x19B0 JUMP JUMPDEST SWAP1 POP DUP4 DUP2 LT ISZERO PUSH2 0x142A JUMPI PUSH1 0x40 MLOAD PUSH32 0x8C379A000000000000000000000000000000000000000000000000000000000 DUP2 MSTORE PUSH1 0x4 ADD PUSH2 0x1421 SWAP1 PUSH2 0x1DD0 JUMP JUMPDEST PUSH1 0x40 MLOAD DUP1 SWAP2 SUB SWAP1 REVERT JUMPDEST DUP1 SWAP2 POP POP SWAP3 SWAP2 POP POP JUMP JUMPDEST PUSH1 0x0 PUSH2 0x1476 DUP4 DUP4 PUSH1 0x40 MLOAD DUP1 PUSH1 0x40 ADD PUSH1 0x40 MSTORE DUP1 PUSH1 0x1E DUP2 MSTORE PUSH1 0x20 ADD PUSH32 0x536166654D6174683A207375627472616374696F6E206F766572666C6F770000 DUP2 MSTORE POP PUSH2 0x1372 JUMP JUMPDEST SWAP1 POP SWAP3 SWAP2 POP POP JUMP JUMPDEST PUSH1 0x0 DUP2 MLOAD SWAP1 POP SWAP2 SWAP1 POP JUMP JUMPDEST PUSH1 0x0 DUP3 DUP3 MSTORE PUSH1 0x20 DUP3 ADD SWAP1 POP SWAP3 SWAP2 POP POP JUMP JUMPDEST PUSH1 0x0 JUMPDEST DUP4 DUP2 LT ISZERO PUSH2 0x14B8 JUMPI DUP1 DUP3 ADD MLOAD DUP2 DUP5 ADD MSTORE PUSH1 0x20 DUP2 ADD SWAP1 POP PUSH2 0x149D JUMP JUMPDEST PUSH1 0x0 DUP5 DUP5 ADD MSTORE POP POP POP POP JUMP JUMPDEST PUSH1 0x0 PUSH1 0x1F NOT PUSH1 0x1F DUP4 ADD AND SWAP1 POP SWAP2 SWAP1 POP JUMP JUMPDEST PUSH1 0x0 PUSH2 0x14E0 DUP3 PUSH2 0x147E JUMP JUMPDEST PUSH2 0x14EA DUP2 DUP6 PUSH2 0x1489 JUMP JUMPDEST SWAP4 POP PUSH2 0x14FA DUP2 DUP6 PUSH1 0x20 DUP7 ADD PUSH2 0x149A JUMP JUMPDEST PUSH2 0x1503 DUP2 PUSH2 0x14C4 JUMP JUMPDEST DUP5 ADD SWAP2 POP POP SWAP3 SWAP2 POP POP JUMP JUMPDEST PUSH1 0x0 PUSH1 0x20 DUP3 ADD SWAP1 POP DUP2 DUP2 SUB PUSH1 0x0 DUP4 ADD MSTORE PUSH2 0x1528 DUP2 DUP5 PUSH2 0x14D5 JUMP JUMPDEST SWAP1 POP SWAP3 SWAP2 POP POP JUMP JUMPDEST PUSH1 0x0 DUP1 REVERT JUMPDEST PUSH1 0x0 PUSH20 0xFFFFFFFFFFFFFFFFFFFFFFFFFFFFFFFFFFFFFFFF DUP3 AND SWAP1 POP SWAP2 SWAP1 POP JUMP JUMPDEST PUSH1 0x0 PUSH2 0x1560 DUP3 PUSH2 0x1535 JUMP JUMPDEST SWAP1 POP SWAP2 SWAP1 POP JUMP JUMPDEST PUSH2 0x1570 DUP2 PUSH2 0x1555 JUMP JUMPDEST DUP2 EQ PUSH2 0x157B JUMPI PUSH1 0x0 DUP1 REVERT JUMPDEST POP JUMP JUMPDEST PUSH1 0x0 DUP2 CALLDATALOAD SWAP1 POP PUSH2 0x158D DUP2 PUSH2 0x1567 JUMP JUMPDEST SWAP3 SWAP2 POP POP JUMP JUMPDEST PUSH1 0x0 DUP2 SWAP1 POP SWAP2 SWAP1 POP JUMP JUMPDEST PUSH2 0x15A6 DUP2 PUSH2 0x1593 JUMP JUMPDEST DUP2 EQ PUSH2 0x15B1 JUMPI PUSH1 0x0 DUP1 REVERT JUMPDEST POP JUMP JUMPDEST PUSH1 0x0 DUP2 CALLDATALOAD SWAP1 POP PUSH2 0x15C3 DUP2 PUSH2 0x159D JUMP JUMPDEST SWAP3 SWAP2 POP POP JUMP JUMPDEST PUSH1 0x0 DUP1 PUSH1 0x40 DUP4 DUP6 SUB SLT ISZERO PUSH2 0x15E0 JUMPI PUSH2 0x15DF PUSH2 0x1530 JUMP JUMPDEST JUMPDEST PUSH1 0x0 PUSH2 0x15EE DUP6 DUP3 DUP7 ADD PUSH2 0x157E JUMP JUMPDEST SWAP3 POP POP PUSH1 0x20 PUSH2 0x15FF DUP6 DUP3 DUP7 ADD PUSH2 0x15B4 JUMP JUMPDEST SWAP2 POP POP SWAP3 POP SWAP3 SWAP1 POP JUMP JUMPDEST PUSH1 0x0 DUP2 ISZERO ISZERO SWAP1 POP SWAP2 SWAP1 POP JUMP JUMPDEST PUSH2 0x161E DUP2 PUSH2 0x1609 JUMP JUMPDEST DUP3 MSTORE POP POP JUMP JUMPDEST PUSH1 0x0 PUSH1 0x20 DUP3 ADD SWAP1 POP PUSH2 0x1639 PUSH1 0x0 DUP4 ADD DUP5 PUSH2 0x1615 JUMP JUMPDEST SWAP3 SWAP2 POP POP JUMP JUMPDEST PUSH2 0x1648 DUP2 PUSH2 0x1593 JUMP JUMPDEST DUP3 MSTORE POP POP JUMP JUMPDEST PUSH1 0x0 PUSH1 0x20 DUP3 ADD SWAP1 POP PUSH2 0x1663 PUSH1 0x0 DUP4 ADD DUP5 PUSH2 0x163F JUMP JUMPDEST SWAP3 SWAP2 POP POP JUMP JUMPDEST PUSH1 0x0 DUP1 PUSH1 0x0 PUSH1 0x60 DUP5 DUP7 SUB SLT ISZERO PUSH2 0x1682 JUMPI PUSH2 0x1681 PUSH2 0x1530 JUMP JUMPDEST JUMPDEST PUSH1 0x0 PUSH2 0x1690 DUP7 DUP3 DUP8 ADD PUSH2 0x157E JUMP JUMPDEST SWAP4 POP POP PUSH1 0x20 PUSH2 0x16A1 DUP7 DUP3 DUP8 ADD PUSH2 0x157E JUMP JUMPDEST SWAP3 POP POP PUSH1 0x40 PUSH2 0x16B2 DUP7 DUP3 DUP8 ADD PUSH2 0x15B4 JUMP JUMPDEST SWAP2 POP POP SWAP3 POP SWAP3 POP SWAP3 JUMP JUMPDEST PUSH1 0x0 PUSH1 0xFF DUP3 AND SWAP1 POP SWAP2 SWAP1 POP JUMP JUMPDEST PUSH2 0x16D2 DUP2 PUSH2 0x16BC JUMP JUMPDEST DUP3 MSTORE POP POP JUMP JUMPDEST PUSH1 0x0 PUSH1 0x20 DUP3 ADD SWAP1 POP PUSH2 0x16ED PUSH1 0x0 DUP4 ADD DUP5 PUSH2 0x16C9 JUMP JUMPDEST SWAP3 SWAP2 POP POP JUMP JUMPDEST PUSH1 0x0 PUSH1 0x20 DUP3 DUP5 SUB SLT ISZERO PUSH2 0x1709 JUMPI PUSH2 0x1708 PUSH2 0x1530 JUMP JUMPDEST JUMPDEST PUSH1 0x0 PUSH2 0x1717 DUP5 DUP3 DUP6 ADD PUSH2 0x157E JUMP JUMPDEST SWAP2 POP POP SWAP3 SWAP2 POP POP JUMP JUMPDEST PUSH2 0x1729 DUP2 PUSH2 0x1555 JUMP JUMPDEST DUP3 MSTORE POP POP JUMP JUMPDEST PUSH1 0x0 PUSH1 0x20 DUP3 ADD SWAP1 POP PUSH2 0x1744 PUSH1 0x0 DUP4 ADD DUP5 PUSH2 0x1720 JUMP JUMPDEST SWAP3 SWAP2 POP POP JUMP JUMPDEST PUSH1 0x0 PUSH1 0x20 DUP3 DUP5 SUB SLT ISZERO PUSH2 0x1760 JUMPI PUSH2 0x175F PUSH2 0x1530 JUMP JUMPDEST JUMPDEST PUSH1 0x0 PUSH2 0x176E DUP5 DUP3 DUP6 ADD PUSH2 0x15B4 JUMP JUMPDEST SWAP2 POP POP SWAP3 SWAP2 POP POP JUMP JUMPDEST PUSH1 0x0 DUP1 PUSH1 0x40 DUP4 DUP6 SUB SLT ISZERO PUSH2 0x178E JUMPI PUSH2 0x178D PUSH2 0x1530 JUMP JUMPDEST JUMPDEST PUSH1 0x0 PUSH2 0x179C DUP6 DUP3 DUP7 ADD PUSH2 0x157E JUMP JUMPDEST SWAP3 POP POP PUSH1 0x20 PUSH2 0x17AD DUP6 DUP3 DUP7 ADD PUSH2 0x157E JUMP JUMPDEST SWAP2 POP POP SWAP3 POP SWAP3 SWAP1 POP JUMP JUMPDEST PUSH32 0x4E487B7100000000000000000000000000000000000000000000000000000000 PUSH1 0x0 MSTORE PUSH1 0x22 PUSH1 0x4 MSTORE PUSH1 0x24 PUSH1 0x0 REVERT JUMPDEST PUSH1 0x0 PUSH1 0x2 DUP3 DIV SWAP1 POP PUSH1 0x1 DUP3 AND DUP1 PUSH2 0x17FE JUMPI PUSH1 0x7F DUP3 AND SWAP2 POP JUMPDEST PUSH1 0x20 DUP3 LT DUP2 SUB PUSH2 0x1811 JUMPI PUSH2 0x1810 PUSH2 0x17B7 JUMP JUMPDEST JUMPDEST POP SWAP2 SWAP1 POP JUMP JUMPDEST PUSH32 0x4F776E61626C653A2063616C6C6572206973206E6F7420746865206F776E6572 PUSH1 0x0 DUP3 ADD MSTORE POP JUMP JUMPDEST PUSH1 0x0 PUSH2 0x184D PUSH1 0x20 DUP4 PUSH2 0x1489 JUMP JUMPDEST SWAP2 POP PUSH2 0x1858 DUP3 PUSH2 0x1817 JUMP JUMPDEST PUSH1 0x20 DUP3 ADD SWAP1 POP SWAP2 SWAP1 POP JUMP JUMPDEST PUSH1 0x0 PUSH1 0x20 DUP3 ADD SWAP1 POP DUP2 DUP2 SUB PUSH1 0x0 DUP4 ADD MSTORE PUSH2 0x187C DUP2 PUSH2 0x1840 JUMP JUMPDEST SWAP1 POP SWAP2 SWAP1 POP JUMP JUMPDEST PUSH32 0x596F7520646F6E27742068617665207065726D697373696F6E20746F20756E6C PUSH1 0x0 DUP3 ADD MSTORE PUSH32 0x6F636B0000000000000000000000000000000000000000000000000000000000 PUSH1 0x20 DUP3 ADD MSTORE POP JUMP JUMPDEST PUSH1 0x0 PUSH2 0x18DF PUSH1 0x23 DUP4 PUSH2 0x1489 JUMP JUMPDEST SWAP2 POP PUSH2 0x18EA DUP3 PUSH2 0x1883 JUMP JUMPDEST PUSH1 0x40 DUP3 ADD SWAP1 POP SWAP2 SWAP1 POP JUMP JUMPDEST PUSH1 0x0 PUSH1 0x20 DUP3 ADD SWAP1 POP DUP2 DUP2 SUB PUSH1 0x0 DUP4 ADD MSTORE PUSH2 0x190E DUP2 PUSH2 0x18D2 JUMP JUMPDEST SWAP1 POP SWAP2 SWAP1 POP JUMP JUMPDEST PUSH32 0x436F6E7472616374206973206C6F636B656420756E74696C2037206461797300 PUSH1 0x0 DUP3 ADD MSTORE POP JUMP JUMPDEST PUSH1 0x0 PUSH2 0x194B PUSH1 0x1F DUP4 PUSH2 0x1489 JUMP JUMPDEST SWAP2 POP PUSH2 0x1956 DUP3 PUSH2 0x1915 JUMP JUMPDEST PUSH1 0x20 DUP3 ADD SWAP1 POP SWAP2 SWAP1 POP JUMP JUMPDEST PUSH1 0x0 PUSH1 0x20 DUP3 ADD SWAP1 POP DUP2 DUP2 SUB PUSH1 0x0 DUP4 ADD MSTORE PUSH2 0x197A DUP2 PUSH2 0x193E JUMP JUMPDEST SWAP1 POP SWAP2 SWAP1 POP JUMP JUMPDEST PUSH32 0x4E487B7100000000000000000000000000000000000000000000000000000000 PUSH1 0x0 MSTORE PUSH1 0x11 PUSH1 0x4 MSTORE PUSH1 0x24 PUSH1 0x0 REVERT JUMPDEST PUSH1 0x0 PUSH2 0x19BB DUP3 PUSH2 0x1593 JUMP JUMPDEST SWAP2 POP PUSH2 0x19C6 DUP4 PUSH2 0x1593 JUMP JUMPDEST SWAP3 POP DUP3 DUP3 ADD SWAP1 POP DUP1 DUP3 GT ISZERO PUSH2 0x19DE JUMPI PUSH2 0x19DD PUSH2 0x1981 JUMP JUMPDEST JUMPDEST SWAP3 SWAP2 POP POP JUMP JUMPDEST PUSH32 0x4F776E61626C653A206E6577206F776E657220697320746865207A65726F2061 PUSH1 0x0 DUP3 ADD MSTORE PUSH32 0x6464726573730000000000000000000000000000000000000000000000000000 PUSH1 0x20 DUP3 ADD MSTORE POP JUMP JUMPDEST PUSH1 0x0 PUSH2 0x1A40 PUSH1 0x26 DUP4 PUSH2 0x1489 JUMP JUMPDEST SWAP2 POP PUSH2 0x1A4B DUP3 PUSH2 0x19E4 JUMP JUMPDEST PUSH1 0x40 DUP3 ADD SWAP1 POP SWAP2 SWAP1 POP JUMP JUMPDEST PUSH1 0x0 PUSH1 0x20 DUP3 ADD SWAP1 POP DUP2 DUP2 SUB PUSH1 0x0 DUP4 ADD MSTORE PUSH2 0x1A6F DUP2 PUSH2 0x1A33 JUMP JUMPDEST SWAP1 POP SWAP2 SWAP1 POP JUMP JUMPDEST PUSH32 0x45524332303A20617070726F76652066726F6D20746865207A65726F20616464 PUSH1 0x0 DUP3 ADD MSTORE PUSH32 0x7265737300000000000000000000000000000000000000000000000000000000 PUSH1 0x20 DUP3 ADD MSTORE POP JUMP JUMPDEST PUSH1 0x0 PUSH2 0x1AD2 PUSH1 0x24 DUP4 PUSH2 0x1489 JUMP JUMPDEST SWAP2 POP PUSH2 0x1ADD DUP3 PUSH2 0x1A76 JUMP JUMPDEST PUSH1 0x40 DUP3 ADD SWAP1 POP SWAP2 SWAP1 POP JUMP JUMPDEST PUSH1 0x0 PUSH1 0x20 DUP3 ADD SWAP1 POP DUP2 DUP2 SUB PUSH1 0x0 DUP4 ADD MSTORE PUSH2 0x1B01 DUP2 PUSH2 0x1AC5 JUMP JUMPDEST SWAP1 POP SWAP2 SWAP1 POP JUMP JUMPDEST PUSH32 0x45524332303A20617070726F766520746F20746865207A65726F206164647265 PUSH1 0x0 DUP3 ADD MSTORE PUSH32 0x7373000000000000000000000000000000000000000000000000000000000000 PUSH1 0x20 DUP3 ADD MSTORE POP JUMP JUMPDEST PUSH1 0x0 PUSH2 0x1B64 PUSH1 0x22 DUP4 PUSH2 0x1489 JUMP JUMPDEST SWAP2 POP PUSH2 0x1B6F DUP3 PUSH2 0x1B08 JUMP JUMPDEST PUSH1 0x40 DUP3 ADD SWAP1 POP SWAP2 SWAP1 POP JUMP JUMPDEST PUSH1 0x0 PUSH1 0x20 DUP3 ADD SWAP1 POP DUP2 DUP2 SUB PUSH1 0x0 DUP4 ADD MSTORE PUSH2 0x1B93 DUP2 PUSH2 0x1B57 JUMP JUMPDEST SWAP1 POP SWAP2 SWAP1 POP JUMP JUMPDEST PUSH32 0x45524332303A207472616E736665722066726F6D20746865207A65726F206164 PUSH1 0x0 DUP3 ADD MSTORE PUSH32 0x6472657373000000000000000000000000000000000000000000000000000000 PUSH1 0x20 DUP3 ADD MSTORE POP JUMP JUMPDEST PUSH1 0x0 PUSH2 0x1BF6 PUSH1 0x25 DUP4 PUSH2 0x1489 JUMP JUMPDEST SWAP2 POP PUSH2 0x1C01 DUP3 PUSH2 0x1B9A JUMP JUMPDEST PUSH1 0x40 DUP3 ADD SWAP1 POP SWAP2 SWAP1 POP JUMP JUMPDEST PUSH1 0x0 PUSH1 0x20 DUP3 ADD SWAP1 POP DUP2 DUP2 SUB PUSH1 0x0 DUP4 ADD MSTORE PUSH2 0x1C25 DUP2 PUSH2 0x1BE9 JUMP JUMPDEST SWAP1 POP SWAP2 SWAP1 POP JUMP JUMPDEST PUSH32 0x45524332303A207472616E7366657220746F20746865207A65726F2061646472 PUSH1 0x0 DUP3 ADD MSTORE PUSH32 0x6573730000000000000000000000000000000000000000000000000000000000 PUSH1 0x20 DUP3 ADD MSTORE POP JUMP JUMPDEST PUSH1 0x0 PUSH2 0x1C88 PUSH1 0x23 DUP4 PUSH2 0x1489 JUMP JUMPDEST SWAP2 POP PUSH2 0x1C93 DUP3 PUSH2 0x1C2C JUMP JUMPDEST PUSH1 0x40 DUP3 ADD SWAP1 POP SWAP2 SWAP1 POP JUMP JUMPDEST PUSH1 0x0 PUSH1 0x20 DUP3 ADD SWAP1 POP DUP2 DUP2 SUB PUSH1 0x0 DUP4 ADD MSTORE PUSH2 0x1CB7 DUP2 PUSH2 0x1C7B JUMP JUMPDEST SWAP1 POP SWAP2 SWAP1 POP JUMP JUMPDEST PUSH32 0x5472616E7366657220616D6F756E74206D757374206265206772656174657220 PUSH1 0x0 DUP3 ADD MSTORE PUSH32 0x7468616E207A65726F0000000000000000000000000000000000000000000000 PUSH1 0x20 DUP3 ADD MSTORE POP JUMP JUMPDEST PUSH1 0x0 PUSH2 0x1D1A PUSH1 0x29 DUP4 PUSH2 0x1489 JUMP JUMPDEST SWAP2 POP PUSH2 0x1D25 DUP3 PUSH2 0x1CBE JUMP JUMPDEST PUSH1 0x40 DUP3 ADD SWAP1 POP SWAP2 SWAP1 POP JUMP JUMPDEST PUSH1 0x0 PUSH1 0x20 DUP3 ADD SWAP1 POP DUP2 DUP2 SUB PUSH1 0x0 DUP4 ADD MSTORE PUSH2 0x1D49 DUP2 PUSH2 0x1D0D JUMP JUMPDEST SWAP1 POP SWAP2 SWAP1 POP JUMP JUMPDEST PUSH1 0x0 PUSH2 0x1D5B DUP3 PUSH2 0x1593 JUMP JUMPDEST SWAP2 POP PUSH2 0x1D66 DUP4 PUSH2 0x1593 JUMP JUMPDEST SWAP3 POP DUP3 DUP3 SUB SWAP1 POP DUP2 DUP2 GT ISZERO PUSH2 0x1D7E JUMPI PUSH2 0x1D7D PUSH2 0x1981 JUMP JUMPDEST JUMPDEST SWAP3 SWAP2 POP POP JUMP JUMPDEST PUSH32 0x536166654D6174683A206164646974696F6E206F766572666C6F770000000000 PUSH1 0x0 DUP3 ADD MSTORE POP JUMP JUMPDEST PUSH1 0x0 PUSH2 0x1DBA PUSH1 0x1B DUP4 PUSH2 0x1489 JUMP JUMPDEST SWAP2 POP PUSH2 0x1DC5 DUP3 PUSH2 0x1D84 JUMP JUMPDEST PUSH1 0x20 DUP3 ADD SWAP1 POP SWAP2 SWAP1 POP JUMP JUMPDEST PUSH1 0x0 PUSH1 0x20 DUP3 ADD SWAP1 POP DUP2 DUP2 SUB PUSH1 0x0 DUP4 ADD MSTORE PUSH2 0x1DE9 DUP2 PUSH2 0x1DAD JUMP JUMPDEST SWAP1 POP SWAP2 SWAP1 POP JUMP INVALID GASLIMIT MSTORE NUMBER ORIGIN ADDRESS GASPRICE KECCAK256 PUSH21 0x72616E7366657220616D6F756E7420657863656564 PUSH20 0x20616C6C6F77616E636545524332303A20646563 PUSH19 0x656173656420616C6C6F77616E63652062656C PUSH16 0x77207A65726FA2646970667358221220 0xAA 0x1F 0xB8 CALLDATASIZE 0x23 PUSH32 0x9C08E8F8D018C80EA5AFE90358B5EB4BAA423CD63E830E86981864736F6C6343 STOP ADDMOD LT STOP CALLER "
				},
				"gasEstimates": {
					"creation": {
						"codeDepositCost": "1559000",
						"executionCost": "infinite",
						"totalCost": "infinite"
					},
					"external": {
						"allowance(address,address)": "infinite",
						"approve(address,uint256)": "infinite",
						"balanceOf(address)": "2908",
						"decimals()": "2502",
						"decreaseAllowance(address,uint256)": "infinite",
						"geUnlockTime()": "2481",
						"increaseAllowance(address,uint256)": "infinite",
						"lock(uint256)": "infinite",
						"name()": "infinite",
						"owner()": "2545",
						"renounceOwnership()": "30380",
						"symbol()": "infinite",
						"totalSupply()": "2505",
						"transfer(address,uint256)": "infinite",
						"transferFrom(address,address,uint256)": "infinite",
						"transferOwnership(address)": "30747",
						"unlock()": "36742"
					},
					"internal": {
						"_approve(address,address,uint256)": "infinite",
						"_transfer(address,address,uint256)": "infinite"
					}
				},
				"methodIdentifiers": {
					"allowance(address,address)": "dd62ed3e",
					"approve(address,uint256)": "095ea7b3",
					"balanceOf(address)": "70a08231",
					"decimals()": "313ce567",
					"decreaseAllowance(address,uint256)": "a457c2d7",
					"geUnlockTime()": "b6c52324",
					"increaseAllowance(address,uint256)": "39509351",
					"lock(uint256)": "dd467064",
					"name()": "06fdde03",
					"owner()": "8da5cb5b",
					"renounceOwnership()": "715018a6",
					"symbol()": "95d89b41",
					"totalSupply()": "18160ddd",
					"transfer(address,uint256)": "a9059cbb",
					"transferFrom(address,address,uint256)": "23b872dd",
					"transferOwnership(address)": "f2fde38b",
					"unlock()": "a69df4b5"
				}
			},
			"storageLayout": {
				"storage": [
					{
						"astId": 492,
						"contract": "ERC20Token.sol:Milo",
						"label": "_owner",
						"offset": 0,
						"slot": "0",
						"type": "t_address"
					},
					{
						"astId": 494,
						"contract": "ERC20Token.sol:Milo",
						"label": "_previousOwner",
						"offset": 0,
						"slot": "1",
						"type": "t_address"
					},
					{
						"astId": 496,
						"contract": "ERC20Token.sol:Milo",
						"label": "_lockTime",
						"offset": 0,
						"slot": "2",
						"type": "t_uint256"
					},
					{
						"astId": 682,
						"contract": "ERC20Token.sol:Milo",
						"label": "_balances",
						"offset": 0,
						"slot": "3",
						"type": "t_mapping(t_address,t_uint256)"
					},
					{
						"astId": 688,
						"contract": "ERC20Token.sol:Milo",
						"label": "_allowances",
						"offset": 0,
						"slot": "4",
						"type": "t_mapping(t_address,t_mapping(t_address,t_uint256))"
					},
					{
						"astId": 692,
						"contract": "ERC20Token.sol:Milo",
						"label": "_isSniper",
						"offset": 0,
						"slot": "5",
						"type": "t_mapping(t_address,t_bool)"
					},
					{
						"astId": 696,
						"contract": "ERC20Token.sol:Milo",
						"label": "_liquidityHolders",
						"offset": 0,
						"slot": "6",
						"type": "t_mapping(t_address,t_bool)"
					},
					{
						"astId": 699,
						"contract": "ERC20Token.sol:Milo",
						"label": "_name",
						"offset": 0,
						"slot": "7",
						"type": "t_string_storage"
					},
					{
						"astId": 702,
						"contract": "ERC20Token.sol:Milo",
						"label": "_symbol",
						"offset": 0,
						"slot": "8",
						"type": "t_string_storage"
					},
					{
						"astId": 705,
						"contract": "ERC20Token.sol:Milo",
						"label": "_decimals",
						"offset": 0,
						"slot": "9",
						"type": "t_uint8"
					},
					{
						"astId": 712,
						"contract": "ERC20Token.sol:Milo",
						"label": "_tTotal",
						"offset": 0,
						"slot": "10",
						"type": "t_uint256"
					}
				],
				"types": {
					"t_address": {
						"encoding": "inplace",
						"label": "address",
						"numberOfBytes": "20"
					},
					"t_bool": {
						"encoding": "inplace",
						"label": "bool",
						"numberOfBytes": "1"
					},
					"t_mapping(t_address,t_bool)": {
						"encoding": "mapping",
						"key": "t_address",
						"label": "mapping(address => bool)",
						"numberOfBytes": "32",
						"value": "t_bool"
					},
					"t_mapping(t_address,t_mapping(t_address,t_uint256))": {
						"encoding": "mapping",
						"key": "t_address",
						"label": "mapping(address => mapping(address => uint256))",
						"numberOfBytes": "32",
						"value": "t_mapping(t_address,t_uint256)"
					},
					"t_mapping(t_address,t_uint256)": {
						"encoding": "mapping",
						"key": "t_address",
						"label": "mapping(address => uint256)",
						"numberOfBytes": "32",
						"value": "t_uint256"
					},
					"t_string_storage": {
						"encoding": "bytes",
						"label": "string",
						"numberOfBytes": "32"
					},
					"t_uint256": {
						"encoding": "inplace",
						"label": "uint256",
						"numberOfBytes": "32"
					},
					"t_uint8": {
						"encoding": "inplace",
						"label": "uint8",
						"numberOfBytes": "1"
					}
				}
			},
			"userdoc": {
				"kind": "user",
				"methods": {},
				"version": 1
			}
		}
	}
}