{
	"UniswapV2Pair.sol": {
		"UniswapV2Pair": {
			"abi": [
				{
					"inputs": [],
					"payable": false,
					"stateMutability": "nonpayable",
					"type": "constructor"
				},
				{
					"anonymous": false,
					"inputs": [
						{
							"indexed": true,
							"internalType": "address",
							"name": "owner",
							"type": "address"
						},
						{
							"indexed": true,
							"internalType": "address",
							"name": "spender",
							"type": "address"
						},
						{
							"indexed": false,
							"internalType": "uint256",
							"name": "value",
							"type": "uint256"
						}
					],
					"name": "Approval",
					"type": "event"
				},
				{
					"anonymous": false,
					"inputs": [
						{
							"indexed": true,
							"internalType": "address",
							"name": "sender",
							"type": "address"
						},
						{
							"indexed": false,
							"internalType": "uint256",
							"name": "amount0",
							"type": "uint256"
						},
						{
							"indexed": false,
							"internalType": "uint256",
							"name": "amount1",
							"type": "uint256"
						},
						{
							"indexed": true,
							"internalType": "address",
							"name": "to",
							"type": "address"
						}
					],
					"name": "Burn",
					"type": "event"
				},
				{
					"anonymous": false,
					"inputs": [
						{
							"indexed": true,
							"internalType": "address",
							"name": "sender",
							"type": "address"
						},
						{
							"indexed": false,
							"internalType": "uint256",
							"name": "amount0",
							"type": "uint256"
						},
						{
							"indexed": false,
							"internalType": "uint256",
							"name": "amount1",
							"type": "uint256"
						}
					],
					"name": "Mint",
					"type": "event"
				},
				{
					"anonymous": false,
					"inputs": [
						{
							"indexed": true,
							"internalType": "address",
							"name": "sender",
							"type": "address"
						},
						{
							"indexed": false,
							"internalType": "uint256",
							"name": "amount0In",
							"type": "uint256"
						},
						{
							"indexed": false,
							"internalType": "uint256",
							"name": "amount1In",
							"type": "uint256"
						},
						{
							"indexed": false,
							"internalType": "uint256",
							"name": "amount0Out",
							"type": "uint256"
						},
						{
							"indexed": false,
							"internalType": "uint256",
							"name": "amount1Out",
							"type": "uint256"
						},
						{
							"indexed": true,
							"internalType": "address",
							"name": "to",
							"type": "address"
						}
					],
					"name": "Swap",
					"type": "event"
				},
				{
					"anonymous": false,
					"inputs": [
						{
							"indexed": false,
							"internalType": "uint112",
							"name": "reserve0",
							"type": "uint112"
						},
						{
							"indexed": false,
							"internalType": "uint112",
							"name": "reserve1",
							"type": "uint112"
						}
					],
					"name": "Sync",
					"type": "event"
				},
				{
					"anonymous": false,
					"inputs": [
						{
							"indexed": true,
							"internalType": "address",
							"name": "from",
							"type": "address"
						},
						{
							"indexed": true,
							"internalType": "address",
							"name": "to",
							"type": "address"
						},
						{
							"indexed": false,
							"internalType": "uint256",
							"name": "value",
							"type": "uint256"
						}
					],
					"name": "Transfer",
					"type": "event"
				},
				{
					"constant": true,
					"inputs": [],
					"name": "DOMAIN_SEPARATOR",
					"outputs": [
						{
							"internalType": "bytes32",
							"name": "",
							"type": "bytes32"
						}
					],
					"payable": false,
					"stateMutability": "view",
					"type": "function"
				},
				{
					"constant": true,
					"inputs": [],
					"name": "MINIMUM_LIQUIDITY",
					"outputs": [
						{
							"internalType": "uint256",
							"name": "",
							"type": "uint256"
						}
					],
					"payable": false,
					"stateMutability": "view",
					"type": "function"
				},
				{
					"constant": true,
					"inputs": [],
					"name": "PERMIT_TYPEHASH",
					"outputs": [
						{
							"internalType": "bytes32",
							"name": "",
							"type": "bytes32"
						}
					],
					"payable": false,
					"stateMutability": "view",
					"type": "function"
				},
				{
					"constant": true,
					"inputs": [
						{
							"internalType": "address",
							"name": "",
							"type": "address"
						},
						{
							"internalType": "address",
							"name": "",
							"type": "address"
						}
					],
					"name": "allowance",
					"outputs": [
						{
							"internalType": "uint256",
							"name": "",
							"type": "uint256"
						}
					],
					"payable": false,
					"stateMutability": "view",
					"type": "function"
				},
				{
					"constant": false,
					"inputs": [
						{
							"internalType": "address",
							"name": "spender",
							"type": "address"
						},
						{
							"internalType": "uint256",
							"name": "value",
							"type": "uint256"
						}
					],
					"name": "approve",
					"outputs": [
						{
							"internalType": "bool",
							"name": "",
							"type": "bool"
						}
					],
					"payable": false,
					"stateMutability": "nonpayable",
					"type": "function"
				},
				{
					"constant": true,
					"inputs": [
						{
							"internalType": "address",
							"name": "",
							"type": "address"
						}
					],
					"name": "balanceOf",
					"outputs": [
						{
							"internalType": "uint256",
							"name": "",
							"type": "uint256"
						}
					],
					"payable": false,
					"stateMutability": "view",
					"type": "function"
				},
				{
					"constant": false,
					"inputs": [
						{
							"internalType": "address",
							"name": "to",
							"type": "address"
						}
					],
					"name": "burn",
					"outputs": [
						{
							"internalType": "uint256",
							"name": "amount0",
							"type": "uint256"
						},
						{
							"internalType": "uint256",
							"name": "amount1",
							"type": "uint256"
						}
					],
					"payable": false,
					"stateMutability": "nonpayable",
					"type": "function"
				},
				{
					"constant": true,
					"inputs": [],
					"name": "decimals",
					"outputs": [
						{
							"internalType": "uint8",
							"name": "",
							"type": "uint8"
						}
					],
					"payable": false,
					"stateMutability": "view",
					"type": "function"
				},
				{
					"constant": true,
					"inputs": [],
					"name": "factory",
					"outputs": [
						{
							"internalType": "address",
							"name": "",
							"type": "address"
						}
					],
					"payable": false,
					"stateMutability": "view",
					"type": "function"
				},
				{
					"constant": true,
					"inputs": [],
					"name": "getReserves",
					"outputs": [
						{
							"internalType": "uint112",
							"name": "_reserve0",
							"type": "uint112"
						},
						{
							"internalType": "uint112",
							"name": "_reserve1",
							"type": "uint112"
						},
						{
							"internalType": "uint32",
							"name": "_blockTimestampLast",
							"type": "uint32"
						}
					],
					"payable": false,
					"stateMutability": "view",
					"type": "function"
				},
				{
					"constant": false,
					"inputs": [
						{
							"internalType": "address",
							"name": "_token0",
							"type": "address"
						},
						{
							"internalType": "address",
							"name": "_token1",
							"type": "address"
						}
					],
					"name": "initialize",
					"outputs": [],
					"payable": false,
					"stateMutability": "nonpayable",
					"type": "function"
				},
				{
					"constant": true,
					"inputs": [],
					"name": "kLast",
					"outputs": [
						{
							"internalType": "uint256",
							"name": "",
							"type": "uint256"
						}
					],
					"payable": false,
					"stateMutability": "view",
					"type": "function"
				},
				{
					"constant": false,
					"inputs": [
						{
							"internalType": "address",
							"name": "to",
							"type": "address"
						}
					],
					"name": "mint",
					"outputs": [
						{
							"internalType": "uint256",
							"name": "liquidity",
							"type": "uint256"
						}
					],
					"payable": false,
					"stateMutability": "nonpayable",
					"type": "function"
				},
				{
					"constant": true,
					"inputs": [],
					"name": "name",
					"outputs": [
						{
							"internalType": "string",
							"name": "",
							"type": "string"
						}
					],
					"payable": false,
					"stateMutability": "view",
					"type": "function"
				},
				{
					"constant": true,
					"inputs": [
						{
							"internalType": "address",
							"name": "",
							"type": "address"
						}
					],
					"name": "nonces",
					"outputs": [
						{
							"internalType": "uint256",
							"name": "",
							"type": "uint256"
						}
					],
					"payable": false,
					"stateMutability": "view",
					"type": "function"
				},
				{
					"constant": false,
					"inputs": [
						{
							"internalType": "address",
							"name": "owner",
							"type": "address"
						},
						{
							"internalType": "address",
							"name": "spender",
							"type": "address"
						},
						{
							"internalType": "uint256",
							"name": "value",
							"type": "uint256"
						},
						{
							"internalType": "uint256",
							"name": "deadline",
							"type": "uint256"
						},
						{
							"internalType": "uint8",
							"name": "v",
							"type": "uint8"
						},
						{
							"internalType": "bytes32",
							"name": "r",
							"type": "bytes32"
						},
						{
							"internalType": "bytes32",
							"name": "s",
							"type": "bytes32"
						}
					],
					"name": "permit",
					"outputs": [],
					"payable": false,
					"stateMutability": "nonpayable",
					"type": "function"
				},
				{
					"constant": true,
					"inputs": [],
					"name": "price0CumulativeLast",
					"outputs": [
						{
							"internalType": "uint256",
							"name": "",
							"type": "uint256"
						}
					],
					"payable": false,
					"stateMutability": "view",
					"type": "function"
				},
				{
					"constant": true,
					"inputs": [],
					"name": "price1CumulativeLast",
					"outputs": [
						{
							"internalType": "uint256",
							"name": "",
							"type": "uint256"
						}
					],
					"payable": false,
					"stateMutability": "view",
					"type": "function"
				},
				{
					"constant": false,
					"inputs": [
						{
							"internalType": "address",
							"name": "to",
							"type": "address"
						}
					],
					"name": "skim",
					"outputs": [],
					"payable": false,
					"stateMutability": "nonpayable",
					"type": "function"
				},
				{
					"constant": false,
					"inputs": [
						{
							"internalType": "uint256",
							"name": "amount0Out",
							"type": "uint256"
						},
						{
							"internalType": "uint256",
							"name": "amount1Out",
							"type": "uint256"
						},
						{
							"internalType": "address",
							"name": "to",
							"type": "address"
						},
						{
							"internalType": "bytes",
							"name": "data",
							"type": "bytes"
						}
					],
					"name": "swap",
					"outputs": [],
					"payable": false,
					"stateMutability": "nonpayable",
					"type": "function"
				},
				{
					"constant": true,
					"inputs": [],
					"name": "symbol",
					"outputs": [
						{
							"internalType": "string",
							"name": "",
							"type": "string"
						}
					],
					"payable": false,
					"stateMutability": "view",
					"type": "function"
				},
				{
					"constant": false,
					"inputs": [],
					"name": "sync",
					"outputs": [],
					"payable": false,
					"stateMutability": "nonpayable",
					"type": "function"
				},
				{
					"constant": true,
					"inputs": [],
					"name": "token0",
					"outputs": [
						{
							"internalType": "address",
							"name": "",
							"type": "address"
						}
					],
					"payable": false,
					"stateMutability": "view",
					"type": "function"
				},
				{
					"constant": true,
					"inputs": [],
					"name": "token1",
					"outputs": [
						{
							"internalType": "address",
							"name": "",
							"type": "address"
						}
					],
					"payable": false,
					"stateMutability": "view",
					"type": "function"
				},
				{
					"constant": true,
					"inputs": [],
					"name": "totalSupply",
					"outputs": [
						{
							"internalType": "uint256",
							"name": "",
							"type": "uint256"
						}
					],
					"payable": false,
					"stateMutability": "view",
					"type": "function"
				},
				{
					"constant": false,
					"inputs": [
						{
							"internalType": "address",
							"name": "to",
							"type": "address"
						},
						{
							"internalType": "uint256",
							"name": "value",
							"type": "uint256"
						}
					],
					"name": "transfer",
					"outputs": [
						{
							"internalType": "bool",
							"name": "",
							"type": "bool"
						}
					],
					"payable": false,
					"stateMutability": "nonpayable",
					"type": "function"
				},
				{
					"constant": false,
					"inputs": [
						{
							"internalType": "address",
							"name": "from",
							"type": "address"
						},
						{
							"internalType": "address",
							"name": "to",
							"type": "address"
						},
						{
							"internalType": "uint256",
							"name": "value",
							"type": "uint256"
						}
					],
					"name": "transferFrom",
					"outputs": [
						{
							"internalType": "bool",
							"name": "",
							"type": "bool"
						}
					],
					"payable": false,
					"stateMutability": "nonpayable",
					"type": "function"
				}
			],
			"devdoc": {
				"methods": {}
			},
			"evm": {
				"assembly": "    /* \"UniswapV2Pair.sol\":290:9787  contract UniswapV2Pair is IUniswapV2Pair, UniswapV2ERC20 {... */\n  mstore(0x40, 0x80)\n    /* \"UniswapV2Pair.sol\":1140:1141  1 */\n  0x01\n    /* \"UniswapV2Pair.sol\":1116:1141  uint private unlocked = 1 */\n  0x0c\n  sstore\n    /* \"UniswapV2Pair.sol\":2196:2254  constructor() public {... */\n  callvalue\n    /* \"--CODEGEN--\":8:17   */\n  dup1\n    /* \"--CODEGEN--\":5:7   */\n  iszero\n  tag_1\n  jumpi\n    /* \"--CODEGEN--\":30:31   */\n  0x00\n    /* \"--CODEGEN--\":27:28   */\n  dup1\n    /* \"--CODEGEN--\":20:32   */\n  revert\n    /* \"--CODEGEN--\":5:7   */\ntag_1:\n  pop\n    /* \"UniswapV2ERC20.sol\":1102:1197  keccak256('EIP712Domain(string name,string version,uint256 chainId,address verifyingContract)') */\n  mload(0x40)\n    /* \"UniswapV2ERC20.sol\":1006:1013  chainid */\n  chainid\n  swap1\n    /* \"UniswapV2ERC20.sol\":1102:1197  keccak256('EIP712Domain(string name,string version,uint256 chainId,address verifyingContract)') */\n  dup1\n  0x52\n  data_8b73c3c69bb8fe3d512ecc4cf759cc79239f7b179b0ffacaa9a75d522b39400f\n  dup3\n  codecopy\n  0x40\n  dup1\n  mload\n  swap2\n  dup3\n  swap1\n  sub\n  0x52\n  add\n  dup3\n  keccak256\n    /* \"UniswapV2ERC20.sol\":1231:1235  name */\n  dup3\n  dup3\n  add\n  dup3\n  mstore\n  0x0a\n  dup4\n  mstore\n  0x556e697377617020563200000000000000000000000000000000000000000000\n  0x20\n  swap4\n  dup5\n  add\n  mstore\n    /* \"UniswapV2ERC20.sol\":1265:1275  bytes('1') */\n  dup2\n  mload\n  dup1\n  dup4\n  add\n  dup4\n  mstore\n  0x01\n  dup2\n  mstore\n  0x3100000000000000000000000000000000000000000000000000000000000000\n  swap1\n  dup5\n  add\n  mstore\n    /* \"UniswapV2ERC20.sol\":1074:1346  abi.encode(... */\n  dup2\n  mload\n  dup1\n  dup5\n  add\n  swap2\n  swap1\n  swap2\n  mstore\n    /* \"UniswapV2ERC20.sol\":1215:1237  keccak256(bytes(name)) */\n  0xbfcc8ef98ffbf7b6c3fec7bf5185b566b9863e35a9d83acd49ad6824b5969738\n    /* \"UniswapV2ERC20.sol\":1074:1346  abi.encode(... */\n  dup2\n  dup4\n  add\n  mstore\n    /* \"UniswapV2ERC20.sol\":1255:1276  keccak256(bytes('1')) */\n  0xc89efdaa54c0f20c7adf612882df0950f5a951637e0307cdcb4c672f298b8bc6\n    /* \"UniswapV2ERC20.sol\":1074:1346  abi.encode(... */\n  0x60\n  dup3\n  add\n  mstore\n  0x80\n  dup2\n  add\n  swap5\n  swap1\n  swap5\n  mstore\n    /* \"UniswapV2ERC20.sol\":1327:1331  this */\n  address\n    /* \"UniswapV2ERC20.sol\":1074:1346  abi.encode(... */\n  0xa0\n  dup1\n  dup7\n  add\n  swap2\n  swap1\n  swap2\n  mstore\n  dup2\n  mload\n    /* \"--CODEGEN--\":26:47   */\n  dup1\n  dup7\n  sub\n    /* \"--CODEGEN--\":22:54   */\n  swap1\n  swap2\n  add\n    /* \"--CODEGEN--\":6:55   */\n  dup2\n  mstore\n    /* \"UniswapV2ERC20.sol\":1074:1346  abi.encode(... */\n  0xc0\n  swap1\n  swap5\n  add\n  swap1\n  mstore\n    /* \"UniswapV2ERC20.sol\":1051:1356  keccak256(... */\n  dup3\n  mload\n  swap3\n  add\n  swap2\n  swap1\n  swap2\n  keccak256\n    /* \"UniswapV2ERC20.sol\":1032:1048  DOMAIN_SEPARATOR */\n  0x03\n    /* \"UniswapV2ERC20.sol\":1032:1356  DOMAIN_SEPARATOR = keccak256(... */\n  sstore\n  pop\n    /* \"UniswapV2Pair.sol\":2227:2234  factory */\n  0x05\n    /* \"UniswapV2Pair.sol\":2227:2247  factory = msg.sender */\n  dup1\n  sload\n  0xffffffffffffffffffffffff0000000000000000000000000000000000000000\n  and\n    /* \"UniswapV2Pair.sol\":2237:2247  msg.sender */\n  caller\n    /* \"UniswapV2Pair.sol\":2227:2247  factory = msg.sender */\n  or\n  swap1\n  sstore\n  0x2c1d\n  dup1\n    /* \"UniswapV2Pair.sol\":290:9787  contract UniswapV2Pair is IUniswapV2Pair, UniswapV2ERC20 {... */\n  dataOffset(sub_0)\n  0x00\n  codecopy\n  0x00\n  return\nstop\ndata_8b73c3c69bb8fe3d512ecc4cf759cc79239f7b179b0ffacaa9a75d522b39400f 454950373132446f6d61696e28737472696e67206e616d652c737472696e672076657273696f6e2c75696e7432353620636861696e49642c6164647265737320766572696679696e67436f6e747261637429\n\nsub_0: assembly {\n        /* \"UniswapV2Pair.sol\":290:9787  contract UniswapV2Pair is IUniswapV2Pair, UniswapV2ERC20 {... */\n      mstore(0x40, 0x80)\n      callvalue\n        /* \"--CODEGEN--\":8:17   */\n      dup1\n        /* \"--CODEGEN--\":5:7   */\n      iszero\n      tag_1\n      jumpi\n        /* \"--CODEGEN--\":30:31   */\n      0x00\n        /* \"--CODEGEN--\":27:28   */\n      dup1\n        /* \"--CODEGEN--\":20:32   */\n      revert\n        /* \"--CODEGEN--\":5:7   */\n    tag_1:\n        /* \"UniswapV2Pair.sol\":290:9787  contract UniswapV2Pair is IUniswapV2Pair, UniswapV2ERC20 {... */\n      pop\n      jumpi(tag_2, lt(calldatasize, 0x04))\n      shr(0xe0, calldataload(0x00))\n      dup1\n      0x6a627842\n      gt\n      tag_30\n      jumpi\n      dup1\n      0xba9a7a56\n      gt\n      tag_31\n      jumpi\n      dup1\n      0xd21220a7\n      gt\n      tag_32\n      jumpi\n      dup1\n      0xd21220a7\n      eq\n      tag_26\n      jumpi\n      dup1\n      0xd505accf\n      eq\n      tag_27\n      jumpi\n      dup1\n      0xdd62ed3e\n      eq\n      tag_28\n      jumpi\n      dup1\n      0xfff6cae9\n      eq\n      tag_29\n      jumpi\n      jump(tag_2)\n    tag_32:\n      dup1\n      0xba9a7a56\n      eq\n      tag_23\n      jumpi\n      dup1\n      0xbc25cf77\n      eq\n      tag_24\n      jumpi\n      dup1\n      0xc45a0155\n      eq\n      tag_25\n      jumpi\n      jump(tag_2)\n    tag_31:\n      dup1\n      0x7ecebe00\n      gt\n      tag_33\n      jumpi\n      dup1\n      0x7ecebe00\n      eq\n      tag_19\n      jumpi\n      dup1\n      0x89afcb44\n      eq\n      tag_20\n      jumpi\n      dup1\n      0x95d89b41\n      eq\n      tag_21\n      jumpi\n      dup1\n      0xa9059cbb\n      eq\n      tag_22\n      jumpi\n      jump(tag_2)\n    tag_33:\n      dup1\n      0x6a627842\n      eq\n      tag_16\n      jumpi\n      dup1\n      0x70a08231\n      eq\n      tag_17\n      jumpi\n      dup1\n      0x7464fc3d\n      eq\n      tag_18\n      jumpi\n      jump(tag_2)\n    tag_30:\n      dup1\n      0x23b872dd\n      gt\n      tag_34\n      jumpi\n      dup1\n      0x3644e515\n      gt\n      tag_35\n      jumpi\n      dup1\n      0x3644e515\n      eq\n      tag_12\n      jumpi\n      dup1\n      0x485cc955\n      eq\n      tag_13\n      jumpi\n      dup1\n      0x5909c0d5\n      eq\n      tag_14\n      jumpi\n      dup1\n      0x5a3d5493\n      eq\n      tag_15\n      jumpi\n      jump(tag_2)\n    tag_35:\n      dup1\n      0x23b872dd\n      eq\n      tag_9\n      jumpi\n      dup1\n      0x30adf81f\n      eq\n      tag_10\n      jumpi\n      dup1\n      0x313ce567\n      eq\n      tag_11\n      jumpi\n      jump(tag_2)\n    tag_34:\n      dup1\n      0x095ea7b3\n      gt\n      tag_36\n      jumpi\n      dup1\n      0x095ea7b3\n      eq\n      tag_6\n      jumpi\n      dup1\n      0x0dfe1681\n      eq\n      tag_7\n      jumpi\n      dup1\n      0x18160ddd\n      eq\n      tag_8\n      jumpi\n      jump(tag_2)\n    tag_36:\n      dup1\n      0x022c0d9f\n      eq\n      tag_3\n      jumpi\n      dup1\n      0x06fdde03\n      eq\n      tag_4\n      jumpi\n      dup1\n      0x0902f1ac\n      eq\n      tag_5\n      jumpi\n    tag_2:\n      0x00\n      dup1\n      revert\n        /* \"UniswapV2Pair.sol\":7347:9208  function swap(uint amount0Out, uint amount1Out, address to, bytes calldata data) external lock {... */\n    tag_3:\n      tag_37\n      0x04\n      dup1\n      calldatasize\n      sub\n        /* \"--CODEGEN--\":13:16   */\n      0x80\n        /* \"--CODEGEN--\":8:11   */\n      dup2\n        /* \"--CODEGEN--\":5:17   */\n      lt\n        /* \"--CODEGEN--\":2:4   */\n      iszero\n      tag_38\n      jumpi\n        /* \"--CODEGEN--\":30:31   */\n      0x00\n        /* \"--CODEGEN--\":27:28   */\n      dup1\n        /* \"--CODEGEN--\":20:32   */\n      revert\n        /* \"--CODEGEN--\":2:4   */\n    tag_38:\n        /* \"UniswapV2Pair.sol\":7347:9208  function swap(uint amount0Out, uint amount1Out, address to, bytes calldata data) external lock {... */\n      dup2\n      calldataload\n      swap2\n      0x20\n      dup2\n      add\n      calldataload\n      swap2\n      0xffffffffffffffffffffffffffffffffffffffff\n      0x40\n      dup4\n      add\n      calldataload\n      and\n      swap2\n      swap1\n      dup2\n      add\n      swap1\n      0x80\n      dup2\n      add\n      0x60\n      dup3\n      add\n      calldataload\n        /* \"--CODEGEN--\":21:32   */\n      0x0100000000\n        /* \"--CODEGEN--\":5:33   */\n      dup2\n      gt\n        /* \"--CODEGEN--\":2:4   */\n      iszero\n      tag_39\n      jumpi\n        /* \"--CODEGEN--\":46:47   */\n      0x00\n        /* \"--CODEGEN--\":43:44   */\n      dup1\n        /* \"--CODEGEN--\":36:48   */\n      revert\n        /* \"--CODEGEN--\":2:4   */\n    tag_39:\n        /* \"UniswapV2Pair.sol\":7347:9208  function swap(uint amount0Out, uint amount1Out, address to, bytes calldata data) external lock {... */\n      dup3\n      add\n        /* \"--CODEGEN--\":35:44   */\n      dup4\n        /* \"--CODEGEN--\":28:32   */\n      0x20\n        /* \"--CODEGEN--\":12:26   */\n      dup3\n        /* \"--CODEGEN--\":8:33   */\n      add\n        /* \"--CODEGEN--\":5:45   */\n      gt\n        /* \"--CODEGEN--\":2:4   */\n      iszero\n      tag_40\n      jumpi\n        /* \"--CODEGEN--\":58:59   */\n      0x00\n        /* \"--CODEGEN--\":55:56   */\n      dup1\n        /* \"--CODEGEN--\":48:60   */\n      revert\n        /* \"--CODEGEN--\":2:4   */\n    tag_40:\n        /* \"UniswapV2Pair.sol\":7347:9208  function swap(uint amount0Out, uint amount1Out, address to, bytes calldata data) external lock {... */\n      dup1\n      calldataload\n      swap1\n      0x20\n      add\n      swap2\n        /* \"--CODEGEN--\":100:109   */\n      dup5\n        /* \"--CODEGEN--\":95:96   */\n      0x01\n        /* \"--CODEGEN--\":81:93   */\n      dup4\n        /* \"--CODEGEN--\":77:97   */\n      mul\n        /* \"--CODEGEN--\":67:75   */\n      dup5\n        /* \"--CODEGEN--\":63:98   */\n      add\n        /* \"--CODEGEN--\":60:110   */\n      gt\n        /* \"--CODEGEN--\":39:50   */\n      0x0100000000\n        /* \"--CODEGEN--\":25:37   */\n      dup4\n        /* \"--CODEGEN--\":22:51   */\n      gt\n        /* \"--CODEGEN--\":11:118   */\n      or\n        /* \"--CODEGEN--\":8:10   */\n      iszero\n      tag_41\n      jumpi\n        /* \"--CODEGEN--\":131:132   */\n      0x00\n        /* \"--CODEGEN--\":128:129   */\n      dup1\n        /* \"--CODEGEN--\":121:133   */\n      revert\n        /* \"--CODEGEN--\":8:10   */\n    tag_41:\n      pop\n        /* \"UniswapV2Pair.sol\":7347:9208  function swap(uint amount0Out, uint amount1Out, address to, bytes calldata data) external lock {... */\n      swap1\n      swap3\n      pop\n      swap1\n      pop\n      tag_42\n      jump\t// in\n    tag_37:\n      stop\n        /* \"UniswapV2ERC20.sol\":184:226  string public constant name = 'Uniswap V2' */\n    tag_4:\n      tag_43\n      tag_44\n      jump\t// in\n    tag_43:\n      0x40\n      dup1\n      mload\n      0x20\n      dup1\n      dup3\n      mstore\n      dup4\n      mload\n      dup2\n      dup4\n      add\n      mstore\n      dup4\n      mload\n      swap2\n      swap3\n      dup4\n      swap3\n      swap1\n      dup4\n      add\n      swap2\n      dup6\n      add\n      swap1\n      dup1\n      dup4\n      dup4\n      0x00\n        /* \"--CODEGEN--\":8:108   */\n    tag_45:\n        /* \"--CODEGEN--\":33:36   */\n      dup4\n        /* \"--CODEGEN--\":30:31   */\n      dup2\n        /* \"--CODEGEN--\":27:37   */\n      lt\n        /* \"--CODEGEN--\":8:108   */\n      iszero\n      tag_47\n      jumpi\n        /* \"--CODEGEN--\":90:101   */\n      dup2\n      dup2\n      add\n        /* \"--CODEGEN--\":84:102   */\n      mload\n        /* \"--CODEGEN--\":71:82   */\n      dup4\n      dup3\n      add\n        /* \"--CODEGEN--\":64:103   */\n      mstore\n        /* \"--CODEGEN--\":52:54   */\n      0x20\n        /* \"--CODEGEN--\":45:55   */\n      add\n        /* \"--CODEGEN--\":8:108   */\n      jump(tag_45)\n    tag_47:\n        /* \"--CODEGEN--\":12:26   */\n      pop\n        /* \"UniswapV2ERC20.sol\":184:226  string public constant name = 'Uniswap V2' */\n      pop\n      pop\n      pop\n      swap1\n      pop\n      swap1\n      dup2\n      add\n      swap1\n      0x1f\n      and\n      dup1\n      iszero\n      tag_48\n      jumpi\n      dup1\n      dup3\n      sub\n      dup1\n      mload\n      0x01\n      dup4\n      0x20\n      sub\n      0x0100\n      exp\n      sub\n      not\n      and\n      dup2\n      mstore\n      0x20\n      add\n      swap2\n      pop\n    tag_48:\n      pop\n      swap3\n      pop\n      pop\n      pop\n      mload(0x40)\n      dup1\n      swap2\n      sub\n      swap1\n      return\n        /* \"UniswapV2Pair.sol\":1284:1511  function getReserves() public view returns (uint112 _reserve0, uint112 _reserve1, uint32 _blockTimestampLast) {... */\n    tag_5:\n      tag_49\n      tag_50\n      jump\t// in\n    tag_49:\n      0x40\n      dup1\n      mload\n      0xffffffffffffffffffffffffffff\n      swap5\n      dup6\n      and\n      dup2\n      mstore\n      swap3\n      swap1\n      swap4\n      and\n      0x20\n      dup4\n      add\n      mstore\n      0xffffffff\n      and\n      dup2\n      dup4\n      add\n      mstore\n      swap1\n      mload\n      swap1\n      dup2\n      swap1\n      sub\n      0x60\n      add\n      swap1\n      return\n        /* \"UniswapV2ERC20.sol\":2177:2321  function approve(address spender, uint value) external returns (bool) {... */\n    tag_6:\n      tag_51\n      0x04\n      dup1\n      calldatasize\n      sub\n        /* \"--CODEGEN--\":13:15   */\n      0x40\n        /* \"--CODEGEN--\":8:11   */\n      dup2\n        /* \"--CODEGEN--\":5:16   */\n      lt\n        /* \"--CODEGEN--\":2:4   */\n      iszero\n      tag_52\n      jumpi\n        /* \"--CODEGEN--\":29:30   */\n      0x00\n        /* \"--CODEGEN--\":26:27   */\n      dup1\n        /* \"--CODEGEN--\":19:31   */\n      revert\n        /* \"--CODEGEN--\":2:4   */\n    tag_52:\n      pop\n        /* \"UniswapV2ERC20.sol\":2177:2321  function approve(address spender, uint value) external returns (bool) {... */\n      0xffffffffffffffffffffffffffffffffffffffff\n      dup2\n      calldataload\n      and\n      swap1\n      0x20\n      add\n      calldataload\n      tag_53\n      jump\t// in\n    tag_51:\n      0x40\n      dup1\n      mload\n      swap2\n      iszero\n      iszero\n      dup3\n      mstore\n      mload\n      swap1\n      dup2\n      swap1\n      sub\n      0x20\n      add\n      swap1\n      return\n        /* \"UniswapV2Pair.sol\":592:613  address public token0 */\n    tag_7:\n      tag_54\n      tag_55\n      jump\t// in\n    tag_54:\n      0x40\n      dup1\n      mload\n      0xffffffffffffffffffffffffffffffffffffffff\n      swap1\n      swap3\n      and\n      dup3\n      mstore\n      mload\n      swap1\n      dup2\n      swap1\n      sub\n      0x20\n      add\n      swap1\n      return\n        /* \"UniswapV2ERC20.sol\":319:343  uint  public totalSupply */\n    tag_8:\n      tag_56\n      tag_57\n      jump\t// in\n    tag_56:\n      0x40\n      dup1\n      mload\n      swap2\n      dup3\n      mstore\n      mload\n      swap1\n      dup2\n      swap1\n      sub\n      0x20\n      add\n      swap1\n      return\n        /* \"UniswapV2ERC20.sol\":2469:2764  function transferFrom(address from, address to, uint value) external returns (bool) {... */\n    tag_9:\n      tag_51\n      0x04\n      dup1\n      calldatasize\n      sub\n        /* \"--CODEGEN--\":13:15   */\n      0x60\n        /* \"--CODEGEN--\":8:11   */\n      dup2\n        /* \"--CODEGEN--\":5:16   */\n      lt\n        /* \"--CODEGEN--\":2:4   */\n      iszero\n      tag_59\n      jumpi\n        /* \"--CODEGEN--\":29:30   */\n      0x00\n        /* \"--CODEGEN--\":26:27   */\n      dup1\n        /* \"--CODEGEN--\":19:31   */\n      revert\n        /* \"--CODEGEN--\":2:4   */\n    tag_59:\n      pop\n        /* \"UniswapV2ERC20.sol\":2469:2764  function transferFrom(address from, address to, uint value) external returns (bool) {... */\n      0xffffffffffffffffffffffffffffffffffffffff\n      dup2\n      calldataload\n      dup2\n      and\n      swap2\n      0x20\n      dup2\n      add\n      calldataload\n      swap1\n      swap2\n      and\n      swap1\n      0x40\n      add\n      calldataload\n      tag_60\n      jump\t// in\n        /* \"UniswapV2ERC20.sol\":605:713  bytes32 public constant PERMIT_TYPEHASH = 0x6e71edae12b1b97f4d1f60370fef10105fa2faae0126114a169c64845d6126c9 */\n    tag_10:\n      tag_56\n      tag_62\n      jump\t// in\n        /* \"UniswapV2ERC20.sol\":278:313  uint8 public constant decimals = 18 */\n    tag_11:\n      tag_63\n      tag_64\n      jump\t// in\n    tag_63:\n      0x40\n      dup1\n      mload\n      0xff\n      swap1\n      swap3\n      and\n      dup3\n      mstore\n      mload\n      swap1\n      dup2\n      swap1\n      sub\n      0x20\n      add\n      swap1\n      return\n        /* \"UniswapV2ERC20.sol\":464:495  bytes32 public DOMAIN_SEPARATOR */\n    tag_12:\n      tag_56\n      tag_66\n      jump\t// in\n        /* \"UniswapV2Pair.sol\":2316:2522  function initialize(address _token0, address _token1) external {... */\n    tag_13:\n      tag_37\n      0x04\n      dup1\n      calldatasize\n      sub\n        /* \"--CODEGEN--\":13:15   */\n      0x40\n        /* \"--CODEGEN--\":8:11   */\n      dup2\n        /* \"--CODEGEN--\":5:16   */\n      lt\n        /* \"--CODEGEN--\":2:4   */\n      iszero\n      tag_68\n      jumpi\n        /* \"--CODEGEN--\":29:30   */\n      0x00\n        /* \"--CODEGEN--\":26:27   */\n      dup1\n        /* \"--CODEGEN--\":19:31   */\n      revert\n        /* \"--CODEGEN--\":2:4   */\n    tag_68:\n      pop\n        /* \"UniswapV2Pair.sol\":2316:2522  function initialize(address _token0, address _token1) external {... */\n      0xffffffffffffffffffffffffffffffffffffffff\n      dup2\n      calldataload\n      dup2\n      and\n      swap2\n      0x20\n      add\n      calldataload\n      and\n      tag_69\n      jump\t// in\n        /* \"UniswapV2Pair.sol\":936:968  uint public price0CumulativeLast */\n    tag_14:\n      tag_56\n      tag_71\n      jump\t// in\n        /* \"UniswapV2Pair.sol\":974:1006  uint public price1CumulativeLast */\n    tag_15:\n      tag_56\n      tag_73\n      jump\t// in\n        /* \"UniswapV2Pair.sol\":4466:5685  function mint(address to) external lock returns (uint liquidity) {... */\n    tag_16:\n      tag_56\n      0x04\n      dup1\n      calldatasize\n      sub\n        /* \"--CODEGEN--\":13:15   */\n      0x20\n        /* \"--CODEGEN--\":8:11   */\n      dup2\n        /* \"--CODEGEN--\":5:16   */\n      lt\n        /* \"--CODEGEN--\":2:4   */\n      iszero\n      tag_75\n      jumpi\n        /* \"--CODEGEN--\":29:30   */\n      0x00\n        /* \"--CODEGEN--\":26:27   */\n      dup1\n        /* \"--CODEGEN--\":19:31   */\n      revert\n        /* \"--CODEGEN--\":2:4   */\n    tag_75:\n      pop\n        /* \"UniswapV2Pair.sol\":4466:5685  function mint(address to) external lock returns (uint liquidity) {... */\n      calldataload\n      0xffffffffffffffffffffffffffffffffffffffff\n      and\n      tag_76\n      jump\t// in\n        /* \"UniswapV2ERC20.sol\":349:390  mapping(address => uint) public balanceOf */\n    tag_17:\n      tag_56\n      0x04\n      dup1\n      calldatasize\n      sub\n        /* \"--CODEGEN--\":13:15   */\n      0x20\n        /* \"--CODEGEN--\":8:11   */\n      dup2\n        /* \"--CODEGEN--\":5:16   */\n      lt\n        /* \"--CODEGEN--\":2:4   */\n      iszero\n      tag_78\n      jumpi\n        /* \"--CODEGEN--\":29:30   */\n      0x00\n        /* \"--CODEGEN--\":26:27   */\n      dup1\n        /* \"--CODEGEN--\":19:31   */\n      revert\n        /* \"--CODEGEN--\":2:4   */\n    tag_78:\n      pop\n        /* \"UniswapV2ERC20.sol\":349:390  mapping(address => uint) public balanceOf */\n      calldataload\n      0xffffffffffffffffffffffffffffffffffffffff\n      and\n      tag_79\n      jump\t// in\n        /* \"UniswapV2Pair.sol\":1012:1029  uint public kLast */\n    tag_18:\n      tag_56\n      tag_81\n      jump\t// in\n        /* \"UniswapV2ERC20.sol\":719:757  mapping(address => uint) public nonces */\n    tag_19:\n      tag_56\n      0x04\n      dup1\n      calldatasize\n      sub\n        /* \"--CODEGEN--\":13:15   */\n      0x20\n        /* \"--CODEGEN--\":8:11   */\n      dup2\n        /* \"--CODEGEN--\":5:16   */\n      lt\n        /* \"--CODEGEN--\":2:4   */\n      iszero\n      tag_83\n      jumpi\n        /* \"--CODEGEN--\":29:30   */\n      0x00\n        /* \"--CODEGEN--\":26:27   */\n      dup1\n        /* \"--CODEGEN--\":19:31   */\n      revert\n        /* \"--CODEGEN--\":2:4   */\n    tag_83:\n      pop\n        /* \"UniswapV2ERC20.sol\":719:757  mapping(address => uint) public nonces */\n      calldataload\n      0xffffffffffffffffffffffffffffffffffffffff\n      and\n      tag_84\n      jump\t// in\n        /* \"UniswapV2Pair.sol\":5794:7238  function burn(address to) external lock returns (uint amount0, uint amount1) {... */\n    tag_20:\n      tag_85\n      0x04\n      dup1\n      calldatasize\n      sub\n        /* \"--CODEGEN--\":13:15   */\n      0x20\n        /* \"--CODEGEN--\":8:11   */\n      dup2\n        /* \"--CODEGEN--\":5:16   */\n      lt\n        /* \"--CODEGEN--\":2:4   */\n      iszero\n      tag_86\n      jumpi\n        /* \"--CODEGEN--\":29:30   */\n      0x00\n        /* \"--CODEGEN--\":26:27   */\n      dup1\n        /* \"--CODEGEN--\":19:31   */\n      revert\n        /* \"--CODEGEN--\":2:4   */\n    tag_86:\n      pop\n        /* \"UniswapV2Pair.sol\":5794:7238  function burn(address to) external lock returns (uint amount0, uint amount1) {... */\n      calldataload\n      0xffffffffffffffffffffffffffffffffffffffff\n      and\n      tag_87\n      jump\t// in\n    tag_85:\n      0x40\n      dup1\n      mload\n      swap3\n      dup4\n      mstore\n      0x20\n      dup4\n      add\n      swap2\n      swap1\n      swap2\n      mstore\n      dup1\n      mload\n      swap2\n      dup3\n      swap1\n      sub\n      add\n      swap1\n      return\n        /* \"UniswapV2ERC20.sol\":232:272  string public constant symbol = 'UNI-V2' */\n    tag_21:\n      tag_43\n      tag_89\n      jump\t// in\n        /* \"UniswapV2ERC20.sol\":2327:2463  function transfer(address to, uint value) external returns (bool) {... */\n    tag_22:\n      tag_51\n      0x04\n      dup1\n      calldatasize\n      sub\n        /* \"--CODEGEN--\":13:15   */\n      0x40\n        /* \"--CODEGEN--\":8:11   */\n      dup2\n        /* \"--CODEGEN--\":5:16   */\n      lt\n        /* \"--CODEGEN--\":2:4   */\n      iszero\n      tag_95\n      jumpi\n        /* \"--CODEGEN--\":29:30   */\n      0x00\n        /* \"--CODEGEN--\":26:27   */\n      dup1\n        /* \"--CODEGEN--\":19:31   */\n      revert\n        /* \"--CODEGEN--\":2:4   */\n    tag_95:\n      pop\n        /* \"UniswapV2ERC20.sol\":2327:2463  function transfer(address to, uint value) external returns (bool) {... */\n      0xffffffffffffffffffffffffffffffffffffffff\n      dup2\n      calldataload\n      and\n      swap1\n      0x20\n      add\n      calldataload\n      tag_96\n      jump\t// in\n        /* \"UniswapV2Pair.sol\":417:463  uint public constant MINIMUM_LIQUIDITY = 10**3 */\n    tag_23:\n      tag_56\n      tag_98\n      jump\t// in\n        /* \"UniswapV2Pair.sol\":9254:9583  function skim(address to) external lock {... */\n    tag_24:\n      tag_37\n      0x04\n      dup1\n      calldatasize\n      sub\n        /* \"--CODEGEN--\":13:15   */\n      0x20\n        /* \"--CODEGEN--\":8:11   */\n      dup2\n        /* \"--CODEGEN--\":5:16   */\n      lt\n        /* \"--CODEGEN--\":2:4   */\n      iszero\n      tag_100\n      jumpi\n        /* \"--CODEGEN--\":29:30   */\n      0x00\n        /* \"--CODEGEN--\":26:27   */\n      dup1\n        /* \"--CODEGEN--\":19:31   */\n      revert\n        /* \"--CODEGEN--\":2:4   */\n    tag_100:\n      pop\n        /* \"UniswapV2Pair.sol\":9254:9583  function skim(address to) external lock {... */\n      calldataload\n      0xffffffffffffffffffffffffffffffffffffffff\n      and\n      tag_101\n      jump\t// in\n        /* \"UniswapV2Pair.sol\":564:586  address public factory */\n    tag_25:\n      tag_54\n      tag_103\n      jump\t// in\n        /* \"UniswapV2Pair.sol\":619:640  address public token1 */\n    tag_26:\n      tag_54\n      tag_105\n      jump\t// in\n        /* \"UniswapV2ERC20.sol\":2770:3432  function permit(address owner, address spender, uint value, uint deadline, uint8 v, bytes32 r, bytes32 s) external {... */\n    tag_27:\n      tag_37\n      0x04\n      dup1\n      calldatasize\n      sub\n        /* \"--CODEGEN--\":13:16   */\n      0xe0\n        /* \"--CODEGEN--\":8:11   */\n      dup2\n        /* \"--CODEGEN--\":5:17   */\n      lt\n        /* \"--CODEGEN--\":2:4   */\n      iszero\n      tag_107\n      jumpi\n        /* \"--CODEGEN--\":30:31   */\n      0x00\n        /* \"--CODEGEN--\":27:28   */\n      dup1\n        /* \"--CODEGEN--\":20:32   */\n      revert\n        /* \"--CODEGEN--\":2:4   */\n    tag_107:\n      pop\n        /* \"UniswapV2ERC20.sol\":2770:3432  function permit(address owner, address spender, uint value, uint deadline, uint8 v, bytes32 r, bytes32 s) external {... */\n      0xffffffffffffffffffffffffffffffffffffffff\n      dup2\n      calldataload\n      dup2\n      and\n      swap2\n      0x20\n      dup2\n      add\n      calldataload\n      swap1\n      swap2\n      and\n      swap1\n      0x40\n      dup2\n      add\n      calldataload\n      swap1\n      0x60\n      dup2\n      add\n      calldataload\n      swap1\n      0xff\n      0x80\n      dup3\n      add\n      calldataload\n      and\n      swap1\n      0xa0\n      dup2\n      add\n      calldataload\n      swap1\n      0xc0\n      add\n      calldataload\n      tag_108\n      jump\t// in\n        /* \"UniswapV2ERC20.sol\":396:457  mapping(address => mapping(address => uint)) public allowance */\n    tag_28:\n      tag_56\n      0x04\n      dup1\n      calldatasize\n      sub\n        /* \"--CODEGEN--\":13:15   */\n      0x40\n        /* \"--CODEGEN--\":8:11   */\n      dup2\n        /* \"--CODEGEN--\":5:16   */\n      lt\n        /* \"--CODEGEN--\":2:4   */\n      iszero\n      tag_110\n      jumpi\n        /* \"--CODEGEN--\":29:30   */\n      0x00\n        /* \"--CODEGEN--\":26:27   */\n      dup1\n        /* \"--CODEGEN--\":19:31   */\n      revert\n        /* \"--CODEGEN--\":2:4   */\n    tag_110:\n      pop\n        /* \"UniswapV2ERC20.sol\":396:457  mapping(address => mapping(address => uint)) public allowance */\n      0xffffffffffffffffffffffffffffffffffffffff\n      dup2\n      calldataload\n      dup2\n      and\n      swap2\n      0x20\n      add\n      calldataload\n      and\n      tag_111\n      jump\t// in\n        /* \"UniswapV2Pair.sol\":9629:9785  function sync() external lock {... */\n    tag_29:\n      tag_37\n      tag_113\n      jump\t// in\n        /* \"UniswapV2Pair.sol\":7347:9208  function swap(uint amount0Out, uint amount1Out, address to, bytes calldata data) external lock {... */\n    tag_42:\n        /* \"UniswapV2Pair.sol\":1181:1189  unlocked */\n      sload(0x0c)\n        /* \"UniswapV2Pair.sol\":1193:1194  1 */\n      0x01\n        /* \"UniswapV2Pair.sol\":1181:1194  unlocked == 1 */\n      eq\n        /* \"UniswapV2Pair.sol\":1173:1216  require(unlocked == 1, 'UniswapV2: LOCKED') */\n      tag_115\n      jumpi\n      0x40\n      dup1\n      mload\n      0x08c379a000000000000000000000000000000000000000000000000000000000\n      dup2\n      mstore\n      0x20\n      0x04\n      dup3\n      add\n      mstore\n      0x11\n      0x24\n      dup3\n      add\n      mstore\n      0x556e697377617056323a204c4f434b4544000000000000000000000000000000\n      0x44\n      dup3\n      add\n      mstore\n      swap1\n      mload\n      swap1\n      dup2\n      swap1\n      sub\n      0x64\n      add\n      swap1\n      revert\n    tag_115:\n        /* \"UniswapV2Pair.sol\":1237:1238  0 */\n      0x00\n        /* \"UniswapV2Pair.sol\":1226:1234  unlocked */\n      0x0c\n        /* \"UniswapV2Pair.sol\":1226:1238  unlocked = 0 */\n      sstore\n        /* \"UniswapV2Pair.sol\":7460:7474  amount0Out > 0 */\n      dup5\n      iszero\n      iszero\n      dup1\n        /* \"UniswapV2Pair.sol\":7460:7492  amount0Out > 0 || amount1Out > 0 */\n      tag_117\n      jumpi\n      pop\n        /* \"UniswapV2Pair.sol\":7491:7492  0 */\n      0x00\n        /* \"UniswapV2Pair.sol\":7478:7488  amount1Out */\n      dup5\n        /* \"UniswapV2Pair.sol\":7478:7492  amount1Out > 0 */\n      gt\n        /* \"UniswapV2Pair.sol\":7460:7492  amount0Out > 0 || amount1Out > 0 */\n    tag_117:\n        /* \"UniswapV2Pair.sol\":7452:7534  require(amount0Out > 0 || amount1Out > 0, 'UniswapV2: INSUFFICIENT_OUTPUT_AMOUNT') */\n      tag_118\n      jumpi\n      mload(0x40)\n      0x08c379a000000000000000000000000000000000000000000000000000000000\n      dup2\n      mstore\n      0x04\n      add\n      dup1\n      dup1\n      0x20\n      add\n      dup3\n      dup2\n      sub\n      dup3\n      mstore\n      0x25\n      dup2\n      mstore\n      0x20\n      add\n      dup1\n      data_05339493da7e2cbe77e17beadf6b91132eb307939495f5f1797bf88d95539e83\n      0x25\n      swap2\n      codecopy\n      0x40\n      add\n      swap2\n      pop\n      pop\n      mload(0x40)\n      dup1\n      swap2\n      sub\n      swap1\n      revert\n    tag_118:\n        /* \"UniswapV2Pair.sol\":7545:7562  uint112 _reserve0 */\n      0x00\n        /* \"UniswapV2Pair.sol\":7564:7581  uint112 _reserve1 */\n      dup1\n        /* \"UniswapV2Pair.sol\":7586:7599  getReserves() */\n      tag_119\n        /* \"UniswapV2Pair.sol\":7586:7597  getReserves */\n      tag_50\n        /* \"UniswapV2Pair.sol\":7586:7599  getReserves() */\n      jump\t// in\n    tag_119:\n        /* \"UniswapV2Pair.sol\":7544:7599  (uint112 _reserve0, uint112 _reserve1,) = getReserves() */\n      pop\n      swap2\n      pop\n      swap2\n      pop\n        /* \"UniswapV2Pair.sol\":7645:7654  _reserve0 */\n      dup2\n        /* \"UniswapV2Pair.sol\":7632:7654  amount0Out < _reserve0 */\n      0xffffffffffffffffffffffffffff\n      and\n        /* \"UniswapV2Pair.sol\":7632:7642  amount0Out */\n      dup8\n        /* \"UniswapV2Pair.sol\":7632:7654  amount0Out < _reserve0 */\n      lt\n        /* \"UniswapV2Pair.sol\":7632:7680  amount0Out < _reserve0 && amount1Out < _reserve1 */\n      dup1\n      iszero\n      tag_120\n      jumpi\n      pop\n        /* \"UniswapV2Pair.sol\":7671:7680  _reserve1 */\n      dup1\n        /* \"UniswapV2Pair.sol\":7658:7680  amount1Out < _reserve1 */\n      0xffffffffffffffffffffffffffff\n      and\n        /* \"UniswapV2Pair.sol\":7658:7668  amount1Out */\n      dup7\n        /* \"UniswapV2Pair.sol\":7658:7680  amount1Out < _reserve1 */\n      lt\n        /* \"UniswapV2Pair.sol\":7632:7680  amount0Out < _reserve0 && amount1Out < _reserve1 */\n    tag_120:\n        /* \"UniswapV2Pair.sol\":7624:7718  require(amount0Out < _reserve0 && amount1Out < _reserve1, 'UniswapV2: INSUFFICIENT_LIQUIDITY') */\n      tag_121\n      jumpi\n      mload(0x40)\n      0x08c379a000000000000000000000000000000000000000000000000000000000\n      dup2\n      mstore\n      0x04\n      add\n      dup1\n      dup1\n      0x20\n      add\n      dup3\n      dup2\n      sub\n      dup3\n      mstore\n      0x21\n      dup2\n      mstore\n      0x20\n      add\n      dup1\n      data_3f354ef449b2a9b081220ce21f57691008110b653edc191d8288e60cef58bb5f\n      0x21\n      swap2\n      codecopy\n      0x40\n      add\n      swap2\n      pop\n      pop\n      mload(0x40)\n      dup1\n      swap2\n      sub\n      swap1\n      revert\n    tag_121:\n        /* \"UniswapV2Pair.sol\":7858:7864  token0 */\n      sload(0x06)\n        /* \"UniswapV2Pair.sol\":7892:7898  token1 */\n      sload(0x07)\n        /* \"UniswapV2Pair.sol\":7729:7742  uint balance0 */\n      0x00\n      swap2\n      dup3\n      swap2\n        /* \"UniswapV2Pair.sol\":7858:7864  token0 */\n      0xffffffffffffffffffffffffffffffffffffffff\n      swap2\n      dup3\n      and\n      swap2\n        /* \"UniswapV2Pair.sol\":7892:7898  token1 */\n      swap1\n      dup2\n      and\n      swap1\n        /* \"UniswapV2Pair.sol\":7916:7929  to != _token0 */\n      dup10\n      and\n      dup3\n      eq\n      dup1\n      iszero\n      swap1\n        /* \"UniswapV2Pair.sol\":7916:7946  to != _token0 && to != _token1 */\n      tag_122\n      jumpi\n      pop\n        /* \"UniswapV2Pair.sol\":7939:7946  _token1 */\n      dup1\n        /* \"UniswapV2Pair.sol\":7933:7946  to != _token1 */\n      0xffffffffffffffffffffffffffffffffffffffff\n      and\n        /* \"UniswapV2Pair.sol\":7933:7935  to */\n      dup10\n        /* \"UniswapV2Pair.sol\":7933:7946  to != _token1 */\n      0xffffffffffffffffffffffffffffffffffffffff\n      and\n      eq\n      iszero\n        /* \"UniswapV2Pair.sol\":7916:7946  to != _token0 && to != _token1 */\n    tag_122:\n        /* \"UniswapV2Pair.sol\":7908:7972  require(to != _token0 && to != _token1, 'UniswapV2: INVALID_TO') */\n      tag_123\n      jumpi\n      0x40\n      dup1\n      mload\n      0x08c379a000000000000000000000000000000000000000000000000000000000\n      dup2\n      mstore\n      0x20\n      0x04\n      dup3\n      add\n      mstore\n      0x15\n      0x24\n      dup3\n      add\n      mstore\n      0x556e697377617056323a20494e56414c49445f544f0000000000000000000000\n      0x44\n      dup3\n      add\n      mstore\n      swap1\n      mload\n      swap1\n      dup2\n      swap1\n      sub\n      0x64\n      add\n      swap1\n      revert\n    tag_123:\n        /* \"UniswapV2Pair.sol\":7986:8000  amount0Out > 0 */\n      dup11\n      iszero\n        /* \"UniswapV2Pair.sol\":7982:8040  if (amount0Out > 0) _safeTransfer(_token0, to, amount0Out) */\n      tag_125\n      jumpi\n        /* \"UniswapV2Pair.sol\":8002:8040  _safeTransfer(_token0, to, amount0Out) */\n      tag_125\n        /* \"UniswapV2Pair.sol\":8016:8023  _token0 */\n      dup3\n        /* \"UniswapV2Pair.sol\":8025:8027  to */\n      dup11\n        /* \"UniswapV2Pair.sol\":8029:8039  amount0Out */\n      dup14\n        /* \"UniswapV2Pair.sol\":8002:8015  _safeTransfer */\n      tag_126\n        /* \"UniswapV2Pair.sol\":8002:8040  _safeTransfer(_token0, to, amount0Out) */\n      jump\t// in\n    tag_125:\n        /* \"UniswapV2Pair.sol\":8088:8102  amount1Out > 0 */\n      dup10\n      iszero\n        /* \"UniswapV2Pair.sol\":8084:8142  if (amount1Out > 0) _safeTransfer(_token1, to, amount1Out) */\n      tag_128\n      jumpi\n        /* \"UniswapV2Pair.sol\":8104:8142  _safeTransfer(_token1, to, amount1Out) */\n      tag_128\n        /* \"UniswapV2Pair.sol\":8118:8125  _token1 */\n      dup2\n        /* \"UniswapV2Pair.sol\":8127:8129  to */\n      dup11\n        /* \"UniswapV2Pair.sol\":8131:8141  amount1Out */\n      dup13\n        /* \"UniswapV2Pair.sol\":8104:8117  _safeTransfer */\n      tag_126\n        /* \"UniswapV2Pair.sol\":8104:8142  _safeTransfer(_token1, to, amount1Out) */\n      jump\t// in\n    tag_128:\n        /* \"UniswapV2Pair.sol\":8190:8205  data.length > 0 */\n      dup7\n      iszero\n        /* \"UniswapV2Pair.sol\":8186:8283  if (data.length > 0) IUniswapV2Callee(to).uniswapV2Call(msg.sender, amount0Out, amount1Out, data) */\n      tag_129\n      jumpi\n        /* \"UniswapV2Pair.sol\":8224:8226  to */\n      dup9\n        /* \"UniswapV2Pair.sol\":8207:8241  IUniswapV2Callee(to).uniswapV2Call */\n      0xffffffffffffffffffffffffffffffffffffffff\n      and\n      0x10d1e85c\n        /* \"UniswapV2Pair.sol\":8242:8252  msg.sender */\n      caller\n        /* \"UniswapV2Pair.sol\":8254:8264  amount0Out */\n      dup14\n        /* \"UniswapV2Pair.sol\":8266:8276  amount1Out */\n      dup14\n        /* \"UniswapV2Pair.sol\":8278:8282  data */\n      dup13\n      dup13\n        /* \"UniswapV2Pair.sol\":8207:8283  IUniswapV2Callee(to).uniswapV2Call(msg.sender, amount0Out, amount1Out, data) */\n      mload(0x40)\n      dup7\n      0xffffffff\n      and\n      0xe0\n      shl\n      dup2\n      mstore\n      0x04\n      add\n      dup1\n      dup7\n      0xffffffffffffffffffffffffffffffffffffffff\n      and\n      0xffffffffffffffffffffffffffffffffffffffff\n      and\n      dup2\n      mstore\n      0x20\n      add\n      dup6\n      dup2\n      mstore\n      0x20\n      add\n      dup5\n      dup2\n      mstore\n      0x20\n      add\n      dup1\n      0x20\n      add\n      dup3\n      dup2\n      sub\n      dup3\n      mstore\n      dup5\n      dup5\n      dup3\n      dup2\n      dup2\n      mstore\n      0x20\n      add\n      swap3\n      pop\n        /* \"--CODEGEN--\":30:33   */\n      dup1\n        /* \"--CODEGEN--\":22:28   */\n      dup3\n        /* \"--CODEGEN--\":14:20   */\n      dup5\n        /* \"--CODEGEN--\":1:34   */\n      calldatacopy\n        /* \"--CODEGEN--\":99:100   */\n      0x00\n        /* \"--CODEGEN--\":93:96   */\n      dup2\n        /* \"--CODEGEN--\":85:91   */\n      dup5\n        /* \"--CODEGEN--\":81:97   */\n      add\n        /* \"--CODEGEN--\":74:101   */\n      mstore\n        /* \"--CODEGEN--\":137:141   */\n      0x1f\n        /* \"--CODEGEN--\":133:142   */\n      not\n        /* \"--CODEGEN--\":126:130   */\n      0x1f\n        /* \"--CODEGEN--\":121:124   */\n      dup3\n        /* \"--CODEGEN--\":117:131   */\n      add\n        /* \"--CODEGEN--\":113:143   */\n      and\n        /* \"--CODEGEN--\":106:143   */\n      swap1\n      pop\n        /* \"--CODEGEN--\":169:172   */\n      dup1\n        /* \"--CODEGEN--\":161:167   */\n      dup4\n        /* \"--CODEGEN--\":157:173   */\n      add\n        /* \"--CODEGEN--\":147:173   */\n      swap3\n      pop\n        /* \"UniswapV2Pair.sol\":8207:8283  IUniswapV2Callee(to).uniswapV2Call(msg.sender, amount0Out, amount1Out, data) */\n      pop\n      pop\n      swap7\n      pop\n      pop\n      pop\n      pop\n      pop\n      pop\n      pop\n      0x00\n      mload(0x40)\n      dup1\n      dup4\n      sub\n      dup2\n      0x00\n      dup8\n      dup1\n      extcodesize\n      iszero\n        /* \"--CODEGEN--\":8:17   */\n      dup1\n        /* \"--CODEGEN--\":5:7   */\n      iszero\n      tag_130\n      jumpi\n        /* \"--CODEGEN--\":30:31   */\n      0x00\n        /* \"--CODEGEN--\":27:28   */\n      dup1\n        /* \"--CODEGEN--\":20:32   */\n      revert\n        /* \"--CODEGEN--\":5:7   */\n    tag_130:\n        /* \"UniswapV2Pair.sol\":8207:8283  IUniswapV2Callee(to).uniswapV2Call(msg.sender, amount0Out, amount1Out, data) */\n      pop\n      gas\n      call\n      iszero\n        /* \"--CODEGEN--\":8:17   */\n      dup1\n        /* \"--CODEGEN--\":5:7   */\n      iszero\n      tag_131\n      jumpi\n        /* \"--CODEGEN--\":45:61   */\n      returndatasize\n        /* \"--CODEGEN--\":42:43   */\n      0x00\n        /* \"--CODEGEN--\":39:40   */\n      dup1\n        /* \"--CODEGEN--\":24:62   */\n      returndatacopy\n        /* \"--CODEGEN--\":77:93   */\n      returndatasize\n        /* \"--CODEGEN--\":74:75   */\n      0x00\n        /* \"--CODEGEN--\":67:94   */\n      revert\n        /* \"--CODEGEN--\":5:7   */\n    tag_131:\n        /* \"UniswapV2Pair.sol\":8207:8283  IUniswapV2Callee(to).uniswapV2Call(msg.sender, amount0Out, amount1Out, data) */\n      pop\n      pop\n      pop\n      pop\n        /* \"UniswapV2Pair.sol\":8186:8283  if (data.length > 0) IUniswapV2Callee(to).uniswapV2Call(msg.sender, amount0Out, amount1Out, data) */\n    tag_129:\n        /* \"UniswapV2Pair.sol\":8304:8344  IERC20(_token0).balanceOf(address(this)) */\n      0x40\n      dup1\n      mload\n      0x70a0823100000000000000000000000000000000000000000000000000000000\n      dup2\n      mstore\n        /* \"UniswapV2Pair.sol\":8338:8342  this */\n      address\n        /* \"UniswapV2Pair.sol\":8304:8344  IERC20(_token0).balanceOf(address(this)) */\n      0x04\n      dup3\n      add\n      mstore\n      swap1\n      mload\n        /* \"UniswapV2Pair.sol\":8304:8329  IERC20(_token0).balanceOf */\n      0xffffffffffffffffffffffffffffffffffffffff\n      dup5\n      and\n      swap2\n      0x70a08231\n      swap2\n        /* \"UniswapV2Pair.sol\":8304:8344  IERC20(_token0).balanceOf(address(this)) */\n      0x24\n      dup1\n      dup4\n      add\n      swap3\n      0x20\n      swap3\n      swap2\n      swap1\n      dup3\n      swap1\n      sub\n      add\n      dup2\n        /* \"UniswapV2Pair.sol\":8304:8329  IERC20(_token0).balanceOf */\n      dup7\n        /* \"UniswapV2Pair.sol\":8304:8344  IERC20(_token0).balanceOf(address(this)) */\n      dup1\n      extcodesize\n      iszero\n        /* \"--CODEGEN--\":5:7   */\n      dup1\n      iszero\n      tag_132\n      jumpi\n        /* \"--CODEGEN--\":30:31   */\n      0x00\n        /* \"--CODEGEN--\":27:28   */\n      dup1\n        /* \"--CODEGEN--\":20:32   */\n      revert\n        /* \"--CODEGEN--\":5:7   */\n    tag_132:\n        /* \"UniswapV2Pair.sol\":8304:8344  IERC20(_token0).balanceOf(address(this)) */\n      pop\n      gas\n      staticcall\n      iszero\n        /* \"--CODEGEN--\":8:17   */\n      dup1\n        /* \"--CODEGEN--\":5:7   */\n      iszero\n      tag_133\n      jumpi\n        /* \"--CODEGEN--\":45:61   */\n      returndatasize\n        /* \"--CODEGEN--\":42:43   */\n      0x00\n        /* \"--CODEGEN--\":39:40   */\n      dup1\n        /* \"--CODEGEN--\":24:62   */\n      returndatacopy\n        /* \"--CODEGEN--\":77:93   */\n      returndatasize\n        /* \"--CODEGEN--\":74:75   */\n      0x00\n        /* \"--CODEGEN--\":67:94   */\n      revert\n        /* \"--CODEGEN--\":5:7   */\n    tag_133:\n        /* \"UniswapV2Pair.sol\":8304:8344  IERC20(_token0).balanceOf(address(this)) */\n      pop\n      pop\n      pop\n      pop\n      mload(0x40)\n      returndatasize\n        /* \"--CODEGEN--\":13:15   */\n      0x20\n        /* \"--CODEGEN--\":8:11   */\n      dup2\n        /* \"--CODEGEN--\":5:16   */\n      lt\n        /* \"--CODEGEN--\":2:4   */\n      iszero\n      tag_134\n      jumpi\n        /* \"--CODEGEN--\":29:30   */\n      0x00\n        /* \"--CODEGEN--\":26:27   */\n      dup1\n        /* \"--CODEGEN--\":19:31   */\n      revert\n        /* \"--CODEGEN--\":2:4   */\n    tag_134:\n      pop\n        /* \"UniswapV2Pair.sol\":8304:8344  IERC20(_token0).balanceOf(address(this)) */\n      mload\n        /* \"UniswapV2Pair.sol\":8365:8405  IERC20(_token1).balanceOf(address(this)) */\n      0x40\n      dup1\n      mload\n      0x70a0823100000000000000000000000000000000000000000000000000000000\n      dup2\n      mstore\n        /* \"UniswapV2Pair.sol\":8399:8403  this */\n      address\n        /* \"UniswapV2Pair.sol\":8365:8405  IERC20(_token1).balanceOf(address(this)) */\n      0x04\n      dup3\n      add\n      mstore\n      swap1\n      mload\n        /* \"UniswapV2Pair.sol\":8304:8344  IERC20(_token0).balanceOf(address(this)) */\n      swap2\n      swap6\n      pop\n        /* \"UniswapV2Pair.sol\":8365:8390  IERC20(_token1).balanceOf */\n      0xffffffffffffffffffffffffffffffffffffffff\n      dup4\n      and\n      swap2\n      0x70a08231\n      swap2\n        /* \"UniswapV2Pair.sol\":8365:8405  IERC20(_token1).balanceOf(address(this)) */\n      0x24\n      dup1\n      dup3\n      add\n      swap3\n        /* \"UniswapV2Pair.sol\":8304:8344  IERC20(_token0).balanceOf(address(this)) */\n      0x20\n      swap3\n        /* \"UniswapV2Pair.sol\":8365:8405  IERC20(_token1).balanceOf(address(this)) */\n      swap1\n      swap2\n      swap1\n      dup3\n      swap1\n      sub\n      add\n      dup2\n        /* \"UniswapV2Pair.sol\":8365:8390  IERC20(_token1).balanceOf */\n      dup7\n        /* \"UniswapV2Pair.sol\":8365:8405  IERC20(_token1).balanceOf(address(this)) */\n      dup1\n      extcodesize\n      iszero\n        /* \"--CODEGEN--\":5:7   */\n      dup1\n      iszero\n      tag_135\n      jumpi\n        /* \"--CODEGEN--\":30:31   */\n      0x00\n        /* \"--CODEGEN--\":27:28   */\n      dup1\n        /* \"--CODEGEN--\":20:32   */\n      revert\n        /* \"--CODEGEN--\":5:7   */\n    tag_135:\n        /* \"UniswapV2Pair.sol\":8365:8405  IERC20(_token1).balanceOf(address(this)) */\n      pop\n      gas\n      staticcall\n      iszero\n        /* \"--CODEGEN--\":8:17   */\n      dup1\n        /* \"--CODEGEN--\":5:7   */\n      iszero\n      tag_136\n      jumpi\n        /* \"--CODEGEN--\":45:61   */\n      returndatasize\n        /* \"--CODEGEN--\":42:43   */\n      0x00\n        /* \"--CODEGEN--\":39:40   */\n      dup1\n        /* \"--CODEGEN--\":24:62   */\n      returndatacopy\n        /* \"--CODEGEN--\":77:93   */\n      returndatasize\n        /* \"--CODEGEN--\":74:75   */\n      0x00\n        /* \"--CODEGEN--\":67:94   */\n      revert\n        /* \"--CODEGEN--\":5:7   */\n    tag_136:\n        /* \"UniswapV2Pair.sol\":8365:8405  IERC20(_token1).balanceOf(address(this)) */\n      pop\n      pop\n      pop\n      pop\n      mload(0x40)\n      returndatasize\n        /* \"--CODEGEN--\":13:15   */\n      0x20\n        /* \"--CODEGEN--\":8:11   */\n      dup2\n        /* \"--CODEGEN--\":5:16   */\n      lt\n        /* \"--CODEGEN--\":2:4   */\n      iszero\n      tag_137\n      jumpi\n        /* \"--CODEGEN--\":29:30   */\n      0x00\n        /* \"--CODEGEN--\":26:27   */\n      dup1\n        /* \"--CODEGEN--\":19:31   */\n      revert\n        /* \"--CODEGEN--\":2:4   */\n    tag_137:\n      pop\n        /* \"UniswapV2Pair.sol\":8365:8405  IERC20(_token1).balanceOf(address(this)) */\n      mload\n      swap3\n      pop\n        /* \"UniswapV2Pair.sol\":8425:8439  uint amount0In */\n      0x00\n      swap2\n      pop\n      pop\n        /* \"UniswapV2Pair.sol\":8453:8475  _reserve0 - amount0Out */\n      0xffffffffffffffffffffffffffff\n      dup6\n      and\n      dup11\n      swap1\n      sub\n        /* \"UniswapV2Pair.sol\":8442:8475  balance0 > _reserve0 - amount0Out */\n      dup4\n      gt\n        /* \"UniswapV2Pair.sol\":8442:8517  balance0 > _reserve0 - amount0Out ? balance0 - (_reserve0 - amount0Out) : 0 */\n      tag_138\n      jumpi\n        /* \"UniswapV2Pair.sol\":8516:8517  0 */\n      0x00\n        /* \"UniswapV2Pair.sol\":8442:8517  balance0 > _reserve0 - amount0Out ? balance0 - (_reserve0 - amount0Out) : 0 */\n      jump(tag_139)\n    tag_138:\n        /* \"UniswapV2Pair.sol\":8502:8512  amount0Out */\n      dup10\n        /* \"UniswapV2Pair.sol\":8490:8499  _reserve0 */\n      dup6\n        /* \"UniswapV2Pair.sol\":8490:8512  _reserve0 - amount0Out */\n      0xffffffffffffffffffffffffffff\n      and\n      sub\n        /* \"UniswapV2Pair.sol\":8478:8486  balance0 */\n      dup4\n        /* \"UniswapV2Pair.sol\":8478:8513  balance0 - (_reserve0 - amount0Out) */\n      sub\n        /* \"UniswapV2Pair.sol\":8442:8517  balance0 > _reserve0 - amount0Out ? balance0 - (_reserve0 - amount0Out) : 0 */\n    tag_139:\n        /* \"UniswapV2Pair.sol\":8425:8517  uint amount0In = balance0 > _reserve0 - amount0Out ? balance0 - (_reserve0 - amount0Out) : 0 */\n      swap1\n      pop\n        /* \"UniswapV2Pair.sol\":8527:8541  uint amount1In */\n      0x00\n        /* \"UniswapV2Pair.sol\":8567:8577  amount1Out */\n      dup10\n        /* \"UniswapV2Pair.sol\":8555:8564  _reserve1 */\n      dup6\n        /* \"UniswapV2Pair.sol\":8555:8577  _reserve1 - amount1Out */\n      0xffffffffffffffffffffffffffff\n      and\n      sub\n        /* \"UniswapV2Pair.sol\":8544:8552  balance1 */\n      dup4\n        /* \"UniswapV2Pair.sol\":8544:8577  balance1 > _reserve1 - amount1Out */\n      gt\n        /* \"UniswapV2Pair.sol\":8544:8619  balance1 > _reserve1 - amount1Out ? balance1 - (_reserve1 - amount1Out) : 0 */\n      tag_140\n      jumpi\n        /* \"UniswapV2Pair.sol\":8618:8619  0 */\n      0x00\n        /* \"UniswapV2Pair.sol\":8544:8619  balance1 > _reserve1 - amount1Out ? balance1 - (_reserve1 - amount1Out) : 0 */\n      jump(tag_141)\n    tag_140:\n        /* \"UniswapV2Pair.sol\":8604:8614  amount1Out */\n      dup10\n        /* \"UniswapV2Pair.sol\":8592:8601  _reserve1 */\n      dup6\n        /* \"UniswapV2Pair.sol\":8592:8614  _reserve1 - amount1Out */\n      0xffffffffffffffffffffffffffff\n      and\n      sub\n        /* \"UniswapV2Pair.sol\":8580:8588  balance1 */\n      dup4\n        /* \"UniswapV2Pair.sol\":8580:8615  balance1 - (_reserve1 - amount1Out) */\n      sub\n        /* \"UniswapV2Pair.sol\":8544:8619  balance1 > _reserve1 - amount1Out ? balance1 - (_reserve1 - amount1Out) : 0 */\n    tag_141:\n        /* \"UniswapV2Pair.sol\":8527:8619  uint amount1In = balance1 > _reserve1 - amount1Out ? balance1 - (_reserve1 - amount1Out) : 0 */\n      swap1\n      pop\n        /* \"UniswapV2Pair.sol\":8649:8650  0 */\n      0x00\n        /* \"UniswapV2Pair.sol\":8637:8646  amount0In */\n      dup3\n        /* \"UniswapV2Pair.sol\":8637:8650  amount0In > 0 */\n      gt\n        /* \"UniswapV2Pair.sol\":8637:8667  amount0In > 0 || amount1In > 0 */\n      dup1\n      tag_142\n      jumpi\n      pop\n        /* \"UniswapV2Pair.sol\":8666:8667  0 */\n      0x00\n        /* \"UniswapV2Pair.sol\":8654:8663  amount1In */\n      dup2\n        /* \"UniswapV2Pair.sol\":8654:8667  amount1In > 0 */\n      gt\n        /* \"UniswapV2Pair.sol\":8637:8667  amount0In > 0 || amount1In > 0 */\n    tag_142:\n        /* \"UniswapV2Pair.sol\":8629:8708  require(amount0In > 0 || amount1In > 0, 'UniswapV2: INSUFFICIENT_INPUT_AMOUNT') */\n      tag_143\n      jumpi\n      mload(0x40)\n      0x08c379a000000000000000000000000000000000000000000000000000000000\n      dup2\n      mstore\n      0x04\n      add\n      dup1\n      dup1\n      0x20\n      add\n      dup3\n      dup2\n      sub\n      dup3\n      mstore\n      0x24\n      dup2\n      mstore\n      0x20\n      add\n      dup1\n      data_10e2efc32d8a31d3b2c11a545b3ed09c2dbabc58ef6de4033929d0002e425b67\n      0x24\n      swap2\n      codecopy\n      0x40\n      add\n      swap2\n      pop\n      pop\n      mload(0x40)\n      dup1\n      swap2\n      sub\n      swap1\n      revert\n    tag_143:\n        /* \"UniswapV2Pair.sol\":8792:8813  uint balance0Adjusted */\n      0x00\n        /* \"UniswapV2Pair.sol\":8816:8856  balance0.mul(1000).sub(amount0In.mul(3)) */\n      tag_144\n        /* \"UniswapV2Pair.sol\":8839:8855  amount0In.mul(3) */\n      tag_145\n        /* \"UniswapV2Pair.sol\":8839:8848  amount0In */\n      dup5\n        /* \"UniswapV2Pair.sol\":8853:8854  3 */\n      0x03\n        /* \"UniswapV2Pair.sol\":8839:8855  amount0In.mul(3) */\n      0xffffffff\n        /* \"UniswapV2Pair.sol\":8839:8852  amount0In.mul */\n      tag_146\n        /* \"UniswapV2Pair.sol\":8839:8855  amount0In.mul(3) */\n      and\n      jump\t// in\n    tag_145:\n        /* \"UniswapV2Pair.sol\":8816:8834  balance0.mul(1000) */\n      tag_147\n        /* \"UniswapV2Pair.sol\":8816:8824  balance0 */\n      dup8\n        /* \"UniswapV2Pair.sol\":8829:8833  1000 */\n      0x03e8\n        /* \"UniswapV2Pair.sol\":8816:8834  balance0.mul(1000) */\n      0xffffffff\n        /* \"UniswapV2Pair.sol\":8816:8828  balance0.mul */\n      tag_146\n        /* \"UniswapV2Pair.sol\":8816:8834  balance0.mul(1000) */\n      and\n      jump\t// in\n    tag_147:\n        /* \"UniswapV2Pair.sol\":8816:8838  balance0.mul(1000).sub */\n      swap1\n        /* \"UniswapV2Pair.sol\":8816:8856  balance0.mul(1000).sub(amount0In.mul(3)) */\n      0xffffffff\n        /* \"UniswapV2Pair.sol\":8816:8838  balance0.mul(1000).sub */\n      tag_148\n        /* \"UniswapV2Pair.sol\":8816:8856  balance0.mul(1000).sub(amount0In.mul(3)) */\n      and\n      jump\t// in\n    tag_144:\n        /* \"UniswapV2Pair.sol\":8792:8856  uint balance0Adjusted = balance0.mul(1000).sub(amount0In.mul(3)) */\n      swap1\n      pop\n        /* \"UniswapV2Pair.sol\":8866:8887  uint balance1Adjusted */\n      0x00\n        /* \"UniswapV2Pair.sol\":8890:8930  balance1.mul(1000).sub(amount1In.mul(3)) */\n      tag_149\n        /* \"UniswapV2Pair.sol\":8913:8929  amount1In.mul(3) */\n      tag_145\n        /* \"UniswapV2Pair.sol\":8913:8922  amount1In */\n      dup5\n        /* \"UniswapV2Pair.sol\":8927:8928  3 */\n      0x03\n        /* \"UniswapV2Pair.sol\":8913:8929  amount1In.mul(3) */\n      0xffffffff\n        /* \"UniswapV2Pair.sol\":8913:8926  amount1In.mul */\n      tag_146\n        /* \"UniswapV2Pair.sol\":8913:8929  amount1In.mul(3) */\n      and\n      jump\t// in\n        /* \"UniswapV2Pair.sol\":8890:8930  balance1.mul(1000).sub(amount1In.mul(3)) */\n    tag_149:\n        /* \"UniswapV2Pair.sol\":8866:8930  uint balance1Adjusted = balance1.mul(1000).sub(amount1In.mul(3)) */\n      swap1\n      pop\n        /* \"UniswapV2Pair.sol\":8990:9033  uint(_reserve0).mul(_reserve1).mul(1000**2) */\n      tag_152\n        /* \"UniswapV2Pair.sol\":9025:9032  1000**2 */\n      0x0f4240\n        /* \"UniswapV2Pair.sol\":8990:9020  uint(_reserve0).mul(_reserve1) */\n      tag_153\n      0xffffffffffffffffffffffffffff\n        /* \"UniswapV2Pair.sol\":8990:9005  uint(_reserve0) */\n      dup12\n      dup2\n      and\n      swap1\n        /* \"UniswapV2Pair.sol\":8990:9020  uint(_reserve0).mul(_reserve1) */\n      dup12\n      and\n      0xffffffff\n        /* \"UniswapV2Pair.sol\":8990:9009  uint(_reserve0).mul */\n      tag_146\n        /* \"UniswapV2Pair.sol\":8990:9020  uint(_reserve0).mul(_reserve1) */\n      and\n      jump\t// in\n    tag_153:\n        /* \"UniswapV2Pair.sol\":8990:9024  uint(_reserve0).mul(_reserve1).mul */\n      swap1\n        /* \"UniswapV2Pair.sol\":8990:9033  uint(_reserve0).mul(_reserve1).mul(1000**2) */\n      0xffffffff\n        /* \"UniswapV2Pair.sol\":8990:9024  uint(_reserve0).mul(_reserve1).mul */\n      tag_146\n        /* \"UniswapV2Pair.sol\":8990:9033  uint(_reserve0).mul(_reserve1).mul(1000**2) */\n      and\n      jump\t// in\n    tag_152:\n        /* \"UniswapV2Pair.sol\":8948:8986  balance0Adjusted.mul(balance1Adjusted) */\n      tag_154\n        /* \"UniswapV2Pair.sol\":8948:8964  balance0Adjusted */\n      dup4\n        /* \"UniswapV2Pair.sol\":8969:8985  balance1Adjusted */\n      dup4\n        /* \"UniswapV2Pair.sol\":8948:8986  balance0Adjusted.mul(balance1Adjusted) */\n      0xffffffff\n        /* \"UniswapV2Pair.sol\":8948:8968  balance0Adjusted.mul */\n      tag_146\n        /* \"UniswapV2Pair.sol\":8948:8986  balance0Adjusted.mul(balance1Adjusted) */\n      and\n      jump\t// in\n    tag_154:\n        /* \"UniswapV2Pair.sol\":8948:9033  balance0Adjusted.mul(balance1Adjusted) >= uint(_reserve0).mul(_reserve1).mul(1000**2) */\n      lt\n      iszero\n        /* \"UniswapV2Pair.sol\":8940:9050  require(balance0Adjusted.mul(balance1Adjusted) >= uint(_reserve0).mul(_reserve1).mul(1000**2), 'UniswapV2: K') */\n      tag_155\n      jumpi\n      0x40\n      dup1\n      mload\n      0x08c379a000000000000000000000000000000000000000000000000000000000\n      dup2\n      mstore\n      0x20\n      0x04\n      dup3\n      add\n      mstore\n      0x0c\n      0x24\n      dup3\n      add\n      mstore\n      0x556e697377617056323a204b0000000000000000000000000000000000000000\n      0x44\n      dup3\n      add\n      mstore\n      swap1\n      mload\n      swap1\n      dup2\n      swap1\n      sub\n      0x64\n      add\n      swap1\n      revert\n    tag_155:\n        /* \"UniswapV2Pair.sol\":1248:1249  _ */\n      pop\n      pop\n        /* \"UniswapV2Pair.sol\":9071:9120  _update(balance0, balance1, _reserve0, _reserve1) */\n      tag_156\n        /* \"UniswapV2Pair.sol\":9079:9087  balance0 */\n      dup5\n        /* \"UniswapV2Pair.sol\":9089:9097  balance1 */\n      dup5\n        /* \"UniswapV2Pair.sol\":9099:9108  _reserve0 */\n      dup9\n        /* \"UniswapV2Pair.sol\":9110:9119  _reserve1 */\n      dup9\n        /* \"UniswapV2Pair.sol\":9071:9078  _update */\n      tag_157\n        /* \"UniswapV2Pair.sol\":9071:9120  _update(balance0, balance1, _reserve0, _reserve1) */\n      jump\t// in\n    tag_156:\n        /* \"UniswapV2Pair.sol\":9135:9201  Swap(msg.sender, amount0In, amount1In, amount0Out, amount1Out, to) */\n      0x40\n      dup1\n      mload\n      dup4\n      dup2\n      mstore\n      0x20\n      dup2\n      add\n      dup4\n      swap1\n      mstore\n      dup1\n      dup3\n      add\n      dup14\n      swap1\n      mstore\n      0x60\n      dup2\n      add\n      dup13\n      swap1\n      mstore\n      swap1\n      mload\n      0xffffffffffffffffffffffffffffffffffffffff\n      dup12\n      and\n      swap2\n        /* \"UniswapV2Pair.sol\":9140:9150  msg.sender */\n      caller\n      swap2\n        /* \"UniswapV2Pair.sol\":9135:9201  Swap(msg.sender, amount0In, amount1In, amount0Out, amount1Out, to) */\n      0xd78ad95fa46c994b6551d0da85fc275fe613ce37657fb8d5e3d130840159d822\n      swap2\n      dup2\n      swap1\n      sub\n      0x80\n      add\n      swap1\n      log3\n      pop\n      pop\n        /* \"UniswapV2Pair.sol\":1270:1271  1 */\n      0x01\n        /* \"UniswapV2Pair.sol\":1259:1267  unlocked */\n      0x0c\n        /* \"UniswapV2Pair.sol\":1259:1271  unlocked = 1 */\n      sstore\n      pop\n      pop\n      pop\n      pop\n      pop\n      pop\n      pop\n      pop\n      pop\n        /* \"UniswapV2Pair.sol\":7347:9208  function swap(uint amount0Out, uint amount1Out, address to, bytes calldata data) external lock {... */\n      jump\t// out\n        /* \"UniswapV2ERC20.sol\":184:226  string public constant name = 'Uniswap V2' */\n    tag_44:\n      mload(0x40)\n      dup1\n      0x40\n      add\n      0x40\n      mstore\n      dup1\n      0x0a\n      dup2\n      mstore\n      0x20\n      add\n      0x556e697377617020563200000000000000000000000000000000000000000000\n      dup2\n      mstore\n      pop\n      dup2\n      jump\t// out\n        /* \"UniswapV2Pair.sol\":1284:1511  function getReserves() public view returns (uint112 _reserve0, uint112 _reserve1, uint32 _blockTimestampLast) {... */\n    tag_50:\n        /* \"UniswapV2Pair.sol\":1416:1424  reserve0 */\n      sload(0x08)\n      0xffffffffffffffffffffffffffff\n      dup1\n      dup3\n      and\n      swap3\n        /* \"UniswapV2Pair.sol\":1446:1454  reserve1 */\n      0x010000000000000000000000000000\n      dup4\n      div\n      swap1\n      swap2\n      and\n      swap2\n        /* \"UniswapV2Pair.sol\":1486:1504  blockTimestampLast */\n      0x0100000000000000000000000000000000000000000000000000000000\n      swap1\n      div\n      0xffffffff\n      and\n      swap1\n        /* \"UniswapV2Pair.sol\":1284:1511  function getReserves() public view returns (uint112 _reserve0, uint112 _reserve1, uint32 _blockTimestampLast) {... */\n      jump\t// out\n        /* \"UniswapV2ERC20.sol\":2177:2321  function approve(address spender, uint value) external returns (bool) {... */\n    tag_53:\n        /* \"UniswapV2ERC20.sol\":2241:2245  bool */\n      0x00\n        /* \"UniswapV2ERC20.sol\":2257:2293  _approve(msg.sender, spender, value) */\n      tag_160\n        /* \"UniswapV2ERC20.sol\":2266:2276  msg.sender */\n      caller\n        /* \"UniswapV2ERC20.sol\":2278:2285  spender */\n      dup5\n        /* \"UniswapV2ERC20.sol\":2287:2292  value */\n      dup5\n        /* \"UniswapV2ERC20.sol\":2257:2265  _approve */\n      tag_161\n        /* \"UniswapV2ERC20.sol\":2257:2293  _approve(msg.sender, spender, value) */\n      jump\t// in\n    tag_160:\n      pop\n        /* \"UniswapV2ERC20.sol\":2310:2314  true */\n      0x01\n        /* \"UniswapV2ERC20.sol\":2177:2321  function approve(address spender, uint value) external returns (bool) {... */\n    tag_159:\n      swap3\n      swap2\n      pop\n      pop\n      jump\t// out\n        /* \"UniswapV2Pair.sol\":592:613  address public token0 */\n    tag_55:\n      and(0xffffffffffffffffffffffffffffffffffffffff, sload(0x06))\n      dup2\n      jump\t// out\n        /* \"UniswapV2ERC20.sol\":319:343  uint  public totalSupply */\n    tag_57:\n      sload(0x00)\n      dup2\n      jump\t// out\n        /* \"UniswapV2ERC20.sol\":2469:2764  function transferFrom(address from, address to, uint value) external returns (bool) {... */\n    tag_60:\n        /* \"UniswapV2ERC20.sol\":2567:2582  allowance[from] */\n      0xffffffffffffffffffffffffffffffffffffffff\n      dup4\n      and\n        /* \"UniswapV2ERC20.sol\":2547:2551  bool */\n      0x00\n        /* \"UniswapV2ERC20.sol\":2567:2582  allowance[from] */\n      swap1\n      dup2\n      mstore\n        /* \"UniswapV2ERC20.sol\":2567:2576  allowance */\n      0x02\n        /* \"UniswapV2ERC20.sol\":2567:2582  allowance[from] */\n      0x20\n      swap1\n      dup2\n      mstore\n      0x40\n      dup1\n      dup4\n      keccak256\n        /* \"UniswapV2ERC20.sol\":2583:2593  msg.sender */\n      caller\n        /* \"UniswapV2ERC20.sol\":2567:2594  allowance[from][msg.sender] */\n      dup5\n      mstore\n      swap1\n      swap2\n      mstore\n      dup2\n      keccak256\n      sload\n        /* \"UniswapV2ERC20.sol\":2603:2605  -1 */\n      0xffffffffffffffffffffffffffffffffffffffffffffffffffffffffffffffff\n        /* \"UniswapV2ERC20.sol\":2567:2606  allowance[from][msg.sender] != uint(-1) */\n      eq\n        /* \"UniswapV2ERC20.sol\":2563:2701  if (allowance[from][msg.sender] != uint(-1)) {... */\n      tag_163\n      jumpi\n        /* \"UniswapV2ERC20.sol\":2652:2667  allowance[from] */\n      0xffffffffffffffffffffffffffffffffffffffff\n      dup5\n      and\n      0x00\n      swap1\n      dup2\n      mstore\n        /* \"UniswapV2ERC20.sol\":2652:2661  allowance */\n      0x02\n        /* \"UniswapV2ERC20.sol\":2652:2667  allowance[from] */\n      0x20\n      swap1\n      dup2\n      mstore\n      0x40\n      dup1\n      dup4\n      keccak256\n        /* \"UniswapV2ERC20.sol\":2668:2678  msg.sender */\n      caller\n        /* \"UniswapV2ERC20.sol\":2652:2679  allowance[from][msg.sender] */\n      dup5\n      mstore\n      swap1\n      swap2\n      mstore\n      swap1\n      keccak256\n      sload\n        /* \"UniswapV2ERC20.sol\":2652:2690  allowance[from][msg.sender].sub(value) */\n      tag_164\n      swap1\n        /* \"UniswapV2ERC20.sol\":2684:2689  value */\n      dup4\n        /* \"UniswapV2ERC20.sol\":2652:2690  allowance[from][msg.sender].sub(value) */\n      0xffffffff\n        /* \"UniswapV2ERC20.sol\":2652:2683  allowance[from][msg.sender].sub */\n      tag_148\n        /* \"UniswapV2ERC20.sol\":2652:2690  allowance[from][msg.sender].sub(value) */\n      and\n      jump\t// in\n    tag_164:\n        /* \"UniswapV2ERC20.sol\":2622:2637  allowance[from] */\n      0xffffffffffffffffffffffffffffffffffffffff\n      dup6\n      and\n      0x00\n      swap1\n      dup2\n      mstore\n        /* \"UniswapV2ERC20.sol\":2622:2631  allowance */\n      0x02\n        /* \"UniswapV2ERC20.sol\":2622:2637  allowance[from] */\n      0x20\n      swap1\n      dup2\n      mstore\n      0x40\n      dup1\n      dup4\n      keccak256\n        /* \"UniswapV2ERC20.sol\":2638:2648  msg.sender */\n      caller\n        /* \"UniswapV2ERC20.sol\":2622:2649  allowance[from][msg.sender] */\n      dup5\n      mstore\n      swap1\n      swap2\n      mstore\n      swap1\n      keccak256\n        /* \"UniswapV2ERC20.sol\":2622:2690  allowance[from][msg.sender] = allowance[from][msg.sender].sub(value) */\n      sstore\n        /* \"UniswapV2ERC20.sol\":2563:2701  if (allowance[from][msg.sender] != uint(-1)) {... */\n    tag_163:\n        /* \"UniswapV2ERC20.sol\":2710:2736  _transfer(from, to, value) */\n      tag_165\n        /* \"UniswapV2ERC20.sol\":2720:2724  from */\n      dup5\n        /* \"UniswapV2ERC20.sol\":2726:2728  to */\n      dup5\n        /* \"UniswapV2ERC20.sol\":2730:2735  value */\n      dup5\n        /* \"UniswapV2ERC20.sol\":2710:2719  _transfer */\n      tag_166\n        /* \"UniswapV2ERC20.sol\":2710:2736  _transfer(from, to, value) */\n      jump\t// in\n    tag_165:\n      pop\n        /* \"UniswapV2ERC20.sol\":2753:2757  true */\n      0x01\n        /* \"UniswapV2ERC20.sol\":2469:2764  function transferFrom(address from, address to, uint value) external returns (bool) {... */\n      swap4\n      swap3\n      pop\n      pop\n      pop\n      jump\t// out\n        /* \"UniswapV2ERC20.sol\":605:713  bytes32 public constant PERMIT_TYPEHASH = 0x6e71edae12b1b97f4d1f60370fef10105fa2faae0126114a169c64845d6126c9 */\n    tag_62:\n        /* \"UniswapV2ERC20.sol\":647:713  0x6e71edae12b1b97f4d1f60370fef10105fa2faae0126114a169c64845d6126c9 */\n      0x6e71edae12b1b97f4d1f60370fef10105fa2faae0126114a169c64845d6126c9\n        /* \"UniswapV2ERC20.sol\":605:713  bytes32 public constant PERMIT_TYPEHASH = 0x6e71edae12b1b97f4d1f60370fef10105fa2faae0126114a169c64845d6126c9 */\n      dup2\n      jump\t// out\n        /* \"UniswapV2ERC20.sol\":278:313  uint8 public constant decimals = 18 */\n    tag_64:\n        /* \"UniswapV2ERC20.sol\":311:313  18 */\n      0x12\n        /* \"UniswapV2ERC20.sol\":278:313  uint8 public constant decimals = 18 */\n      dup2\n      jump\t// out\n        /* \"UniswapV2ERC20.sol\":464:495  bytes32 public DOMAIN_SEPARATOR */\n    tag_66:\n      sload(0x03)\n      dup2\n      jump\t// out\n        /* \"UniswapV2Pair.sol\":2316:2522  function initialize(address _token0, address _token1) external {... */\n    tag_69:\n        /* \"UniswapV2Pair.sol\":2411:2418  factory */\n      and(0xffffffffffffffffffffffffffffffffffffffff, sload(0x05))\n        /* \"UniswapV2Pair.sol\":2397:2407  msg.sender */\n      caller\n        /* \"UniswapV2Pair.sol\":2397:2418  msg.sender == factory */\n      eq\n        /* \"UniswapV2Pair.sol\":2389:2443  require(msg.sender == factory, 'UniswapV2: FORBIDDEN') */\n      tag_168\n      jumpi\n      0x40\n      dup1\n      mload\n      0x08c379a000000000000000000000000000000000000000000000000000000000\n      dup2\n      mstore\n      0x20\n      0x04\n      dup3\n      add\n      mstore\n      0x14\n      0x24\n      dup3\n      add\n      mstore\n      0x556e697377617056323a20464f5242494444454e000000000000000000000000\n      0x44\n      dup3\n      add\n      mstore\n      swap1\n      mload\n      swap1\n      dup2\n      swap1\n      sub\n      0x64\n      add\n      swap1\n      revert\n    tag_168:\n        /* \"UniswapV2Pair.sol\":2473:2479  token0 */\n      0x06\n        /* \"UniswapV2Pair.sol\":2473:2489  token0 = _token0 */\n      dup1\n      sload\n      0xffffffffffffffffffffffffffffffffffffffff\n      swap4\n      dup5\n      and\n      0xffffffffffffffffffffffff0000000000000000000000000000000000000000\n      swap2\n      dup3\n      and\n      or\n      swap1\n      swap2\n      sstore\n        /* \"UniswapV2Pair.sol\":2499:2505  token1 */\n      0x07\n        /* \"UniswapV2Pair.sol\":2499:2515  token1 = _token1 */\n      dup1\n      sload\n      swap3\n      swap1\n      swap4\n      and\n      swap2\n      and\n      or\n      swap1\n      sstore\n        /* \"UniswapV2Pair.sol\":2316:2522  function initialize(address _token0, address _token1) external {... */\n      jump\t// out\n        /* \"UniswapV2Pair.sol\":936:968  uint public price0CumulativeLast */\n    tag_71:\n      sload(0x09)\n      dup2\n      jump\t// out\n        /* \"UniswapV2Pair.sol\":974:1006  uint public price1CumulativeLast */\n    tag_73:\n      sload(0x0a)\n      dup2\n      jump\t// out\n        /* \"UniswapV2Pair.sol\":4466:5685  function mint(address to) external lock returns (uint liquidity) {... */\n    tag_76:\n        /* \"UniswapV2Pair.sol\":4515:4529  uint liquidity */\n      0x00\n        /* \"UniswapV2Pair.sol\":1181:1189  unlocked */\n      sload(0x0c)\n        /* \"UniswapV2Pair.sol\":1193:1194  1 */\n      0x01\n        /* \"UniswapV2Pair.sol\":1181:1194  unlocked == 1 */\n      eq\n        /* \"UniswapV2Pair.sol\":1173:1216  require(unlocked == 1, 'UniswapV2: LOCKED') */\n      tag_170\n      jumpi\n      0x40\n      dup1\n      mload\n      0x08c379a000000000000000000000000000000000000000000000000000000000\n      dup2\n      mstore\n      0x20\n      0x04\n      dup3\n      add\n      mstore\n      0x11\n      0x24\n      dup3\n      add\n      mstore\n      0x556e697377617056323a204c4f434b4544000000000000000000000000000000\n      0x44\n      dup3\n      add\n      mstore\n      swap1\n      mload\n      swap1\n      dup2\n      swap1\n      sub\n      0x64\n      add\n      swap1\n      revert\n    tag_170:\n        /* \"UniswapV2Pair.sol\":1237:1238  0 */\n      0x00\n        /* \"UniswapV2Pair.sol\":1226:1234  unlocked */\n      0x0c\n        /* \"UniswapV2Pair.sol\":1226:1238  unlocked = 0 */\n      dup2\n      swap1\n      sstore\n        /* \"UniswapV2Pair.sol\":1237:1238  0 */\n      dup1\n        /* \"UniswapV2Pair.sol\":4583:4596  getReserves() */\n      tag_172\n        /* \"UniswapV2Pair.sol\":4583:4594  getReserves */\n      tag_50\n        /* \"UniswapV2Pair.sol\":4583:4596  getReserves() */\n      jump\t// in\n    tag_172:\n      pop\n        /* \"UniswapV2Pair.sol\":4644:4650  token0 */\n      sload(0x06)\n        /* \"UniswapV2Pair.sol\":4637:4676  IERC20(token0).balanceOf(address(this)) */\n      0x40\n      dup1\n      mload\n      0x70a0823100000000000000000000000000000000000000000000000000000000\n      dup2\n      mstore\n        /* \"UniswapV2Pair.sol\":4670:4674  this */\n      address\n        /* \"UniswapV2Pair.sol\":4637:4676  IERC20(token0).balanceOf(address(this)) */\n      0x04\n      dup3\n      add\n      mstore\n      swap1\n      mload\n        /* \"UniswapV2Pair.sol\":4541:4596  (uint112 _reserve0, uint112 _reserve1,) = getReserves() */\n      swap4\n      swap6\n      pop\n      swap2\n      swap4\n      pop\n        /* \"UniswapV2Pair.sol\":4621:4634  uint balance0 */\n      0x00\n      swap3\n        /* \"UniswapV2Pair.sol\":4644:4650  token0 */\n      0xffffffffffffffffffffffffffffffffffffffff\n      swap1\n      swap2\n      and\n      swap2\n        /* \"UniswapV2Pair.sol\":4637:4661  IERC20(token0).balanceOf */\n      0x70a08231\n      swap2\n        /* \"UniswapV2Pair.sol\":4637:4676  IERC20(token0).balanceOf(address(this)) */\n      0x24\n      dup1\n      dup4\n      add\n      swap3\n      0x20\n      swap3\n      swap2\n      swap1\n      dup3\n      swap1\n      sub\n      add\n      dup2\n        /* \"UniswapV2Pair.sol\":4644:4650  token0 */\n      dup7\n        /* \"UniswapV2Pair.sol\":4637:4676  IERC20(token0).balanceOf(address(this)) */\n      dup1\n      extcodesize\n      iszero\n        /* \"--CODEGEN--\":5:7   */\n      dup1\n      iszero\n      tag_173\n      jumpi\n        /* \"--CODEGEN--\":30:31   */\n      0x00\n        /* \"--CODEGEN--\":27:28   */\n      dup1\n        /* \"--CODEGEN--\":20:32   */\n      revert\n        /* \"--CODEGEN--\":5:7   */\n    tag_173:\n        /* \"UniswapV2Pair.sol\":4637:4676  IERC20(token0).balanceOf(address(this)) */\n      pop\n      gas\n      staticcall\n      iszero\n        /* \"--CODEGEN--\":8:17   */\n      dup1\n        /* \"--CODEGEN--\":5:7   */\n      iszero\n      tag_174\n      jumpi\n        /* \"--CODEGEN--\":45:61   */\n      returndatasize\n        /* \"--CODEGEN--\":42:43   */\n      0x00\n        /* \"--CODEGEN--\":39:40   */\n      dup1\n        /* \"--CODEGEN--\":24:62   */\n      returndatacopy\n        /* \"--CODEGEN--\":77:93   */\n      returndatasize\n        /* \"--CODEGEN--\":74:75   */\n      0x00\n        /* \"--CODEGEN--\":67:94   */\n      revert\n        /* \"--CODEGEN--\":5:7   */\n    tag_174:\n        /* \"UniswapV2Pair.sol\":4637:4676  IERC20(token0).balanceOf(address(this)) */\n      pop\n      pop\n      pop\n      pop\n      mload(0x40)\n      returndatasize\n        /* \"--CODEGEN--\":13:15   */\n      0x20\n        /* \"--CODEGEN--\":8:11   */\n      dup2\n        /* \"--CODEGEN--\":5:16   */\n      lt\n        /* \"--CODEGEN--\":2:4   */\n      iszero\n      tag_175\n      jumpi\n        /* \"--CODEGEN--\":29:30   */\n      0x00\n        /* \"--CODEGEN--\":26:27   */\n      dup1\n        /* \"--CODEGEN--\":19:31   */\n      revert\n        /* \"--CODEGEN--\":2:4   */\n    tag_175:\n      pop\n        /* \"UniswapV2Pair.sol\":4637:4676  IERC20(token0).balanceOf(address(this)) */\n      mload\n        /* \"UniswapV2Pair.sol\":4709:4715  token1 */\n      sload(0x07)\n        /* \"UniswapV2Pair.sol\":4702:4741  IERC20(token1).balanceOf(address(this)) */\n      0x40\n      dup1\n      mload\n      0x70a0823100000000000000000000000000000000000000000000000000000000\n      dup2\n      mstore\n        /* \"UniswapV2Pair.sol\":4735:4739  this */\n      address\n        /* \"UniswapV2Pair.sol\":4702:4741  IERC20(token1).balanceOf(address(this)) */\n      0x04\n      dup3\n      add\n      mstore\n      swap1\n      mload\n        /* \"UniswapV2Pair.sol\":4637:4676  IERC20(token0).balanceOf(address(this)) */\n      swap3\n      swap4\n      pop\n        /* \"UniswapV2Pair.sol\":4686:4699  uint balance1 */\n      0x00\n      swap3\n        /* \"UniswapV2Pair.sol\":4709:4715  token1 */\n      0xffffffffffffffffffffffffffffffffffffffff\n      swap1\n      swap3\n      and\n      swap2\n        /* \"UniswapV2Pair.sol\":4702:4726  IERC20(token1).balanceOf */\n      0x70a08231\n      swap2\n        /* \"UniswapV2Pair.sol\":4702:4741  IERC20(token1).balanceOf(address(this)) */\n      0x24\n      dup1\n      dup3\n      add\n      swap3\n        /* \"UniswapV2Pair.sol\":4637:4676  IERC20(token0).balanceOf(address(this)) */\n      0x20\n      swap3\n        /* \"UniswapV2Pair.sol\":4702:4741  IERC20(token1).balanceOf(address(this)) */\n      swap1\n      swap2\n      swap1\n      dup3\n      swap1\n      sub\n      add\n      dup2\n        /* \"UniswapV2Pair.sol\":4709:4715  token1 */\n      dup7\n        /* \"UniswapV2Pair.sol\":4702:4741  IERC20(token1).balanceOf(address(this)) */\n      dup1\n      extcodesize\n      iszero\n        /* \"--CODEGEN--\":5:7   */\n      dup1\n      iszero\n      tag_176\n      jumpi\n        /* \"--CODEGEN--\":30:31   */\n      0x00\n        /* \"--CODEGEN--\":27:28   */\n      dup1\n        /* \"--CODEGEN--\":20:32   */\n      revert\n        /* \"--CODEGEN--\":5:7   */\n    tag_176:\n        /* \"UniswapV2Pair.sol\":4702:4741  IERC20(token1).balanceOf(address(this)) */\n      pop\n      gas\n      staticcall\n      iszero\n        /* \"--CODEGEN--\":8:17   */\n      dup1\n        /* \"--CODEGEN--\":5:7   */\n      iszero\n      tag_177\n      jumpi\n        /* \"--CODEGEN--\":45:61   */\n      returndatasize\n        /* \"--CODEGEN--\":42:43   */\n      0x00\n        /* \"--CODEGEN--\":39:40   */\n      dup1\n        /* \"--CODEGEN--\":24:62   */\n      returndatacopy\n        /* \"--CODEGEN--\":77:93   */\n      returndatasize\n        /* \"--CODEGEN--\":74:75   */\n      0x00\n        /* \"--CODEGEN--\":67:94   */\n      revert\n        /* \"--CODEGEN--\":5:7   */\n    tag_177:\n        /* \"UniswapV2Pair.sol\":4702:4741  IERC20(token1).balanceOf(address(this)) */\n      pop\n      pop\n      pop\n      pop\n      mload(0x40)\n      returndatasize\n        /* \"--CODEGEN--\":13:15   */\n      0x20\n        /* \"--CODEGEN--\":8:11   */\n      dup2\n        /* \"--CODEGEN--\":5:16   */\n      lt\n        /* \"--CODEGEN--\":2:4   */\n      iszero\n      tag_178\n      jumpi\n        /* \"--CODEGEN--\":29:30   */\n      0x00\n        /* \"--CODEGEN--\":26:27   */\n      dup1\n        /* \"--CODEGEN--\":19:31   */\n      revert\n        /* \"--CODEGEN--\":2:4   */\n    tag_178:\n      pop\n        /* \"UniswapV2Pair.sol\":4702:4741  IERC20(token1).balanceOf(address(this)) */\n      mload\n      swap1\n      pop\n        /* \"UniswapV2Pair.sol\":4751:4763  uint amount0 */\n      0x00\n        /* \"UniswapV2Pair.sol\":4766:4789  balance0.sub(_reserve0) */\n      tag_179\n        /* \"UniswapV2Pair.sol\":4766:4774  balance0 */\n      dup4\n        /* \"UniswapV2Pair.sol\":4766:4789  balance0.sub(_reserve0) */\n      0xffffffffffffffffffffffffffff\n      dup8\n      and\n      0xffffffff\n        /* \"UniswapV2Pair.sol\":4766:4778  balance0.sub */\n      tag_148\n        /* \"UniswapV2Pair.sol\":4766:4789  balance0.sub(_reserve0) */\n      and\n      jump\t// in\n    tag_179:\n        /* \"UniswapV2Pair.sol\":4751:4789  uint amount0 = balance0.sub(_reserve0) */\n      swap1\n      pop\n        /* \"UniswapV2Pair.sol\":4799:4811  uint amount1 */\n      0x00\n        /* \"UniswapV2Pair.sol\":4814:4837  balance1.sub(_reserve1) */\n      tag_180\n        /* \"UniswapV2Pair.sol\":4814:4822  balance1 */\n      dup4\n        /* \"UniswapV2Pair.sol\":4814:4837  balance1.sub(_reserve1) */\n      0xffffffffffffffffffffffffffff\n      dup8\n      and\n      0xffffffff\n        /* \"UniswapV2Pair.sol\":4814:4826  balance1.sub */\n      tag_148\n        /* \"UniswapV2Pair.sol\":4814:4837  balance1.sub(_reserve1) */\n      and\n      jump\t// in\n    tag_180:\n        /* \"UniswapV2Pair.sol\":4799:4837  uint amount1 = balance1.sub(_reserve1) */\n      swap1\n      pop\n        /* \"UniswapV2Pair.sol\":4848:4858  bool feeOn */\n      0x00\n        /* \"UniswapV2Pair.sol\":4861:4891  _mintFee(_reserve0, _reserve1) */\n      tag_181\n        /* \"UniswapV2Pair.sol\":4870:4879  _reserve0 */\n      dup8\n        /* \"UniswapV2Pair.sol\":4881:4890  _reserve1 */\n      dup8\n        /* \"UniswapV2Pair.sol\":4861:4869  _mintFee */\n      tag_182\n        /* \"UniswapV2Pair.sol\":4861:4891  _mintFee(_reserve0, _reserve1) */\n      jump\t// in\n    tag_181:\n        /* \"UniswapV2Pair.sol\":4901:4918  uint _totalSupply */\n      0x00\n        /* \"UniswapV2Pair.sol\":4921:4932  totalSupply */\n      sload\n        /* \"UniswapV2Pair.sol\":4848:4891  bool feeOn = _mintFee(_reserve0, _reserve1) */\n      swap1\n      swap2\n      pop\n        /* \"UniswapV2Pair.sol\":5024:5041  _totalSupply == 0 */\n      dup1\n        /* \"UniswapV2Pair.sol\":5020:5367  if (_totalSupply == 0) {... */\n      tag_183\n      jumpi\n        /* \"UniswapV2Pair.sol\":5069:5123  Math.sqrt(amount0.mul(amount1)).sub(MINIMUM_LIQUIDITY) */\n      tag_184\n        /* \"UniswapV2Pair.sol\":458:463  10**3 */\n      0x03e8\n        /* \"UniswapV2Pair.sol\":5069:5100  Math.sqrt(amount0.mul(amount1)) */\n      tag_147\n        /* \"UniswapV2Pair.sol\":5079:5099  amount0.mul(amount1) */\n      tag_186\n        /* \"UniswapV2Pair.sol\":5079:5086  amount0 */\n      dup8\n        /* \"UniswapV2Pair.sol\":5091:5098  amount1 */\n      dup8\n        /* \"UniswapV2Pair.sol\":5079:5099  amount0.mul(amount1) */\n      0xffffffff\n        /* \"UniswapV2Pair.sol\":5079:5090  amount0.mul */\n      tag_146\n        /* \"UniswapV2Pair.sol\":5079:5099  amount0.mul(amount1) */\n      and\n      jump\t// in\n    tag_186:\n        /* \"UniswapV2Pair.sol\":5069:5078  Math.sqrt */\n      tag_187\n        /* \"UniswapV2Pair.sol\":5069:5100  Math.sqrt(amount0.mul(amount1)) */\n      jump\t// in\n        /* \"UniswapV2Pair.sol\":5069:5123  Math.sqrt(amount0.mul(amount1)).sub(MINIMUM_LIQUIDITY) */\n    tag_184:\n        /* \"UniswapV2Pair.sol\":5057:5123  liquidity = Math.sqrt(amount0.mul(amount1)).sub(MINIMUM_LIQUIDITY) */\n      swap9\n      pop\n        /* \"UniswapV2Pair.sol\":5136:5172  _mint(address(0), MINIMUM_LIQUIDITY) */\n      tag_188\n        /* \"UniswapV2Pair.sol\":5150:5151  0 */\n      0x00\n        /* \"UniswapV2Pair.sol\":458:463  10**3 */\n      0x03e8\n        /* \"UniswapV2Pair.sol\":5136:5141  _mint */\n      tag_189\n        /* \"UniswapV2Pair.sol\":5136:5172  _mint(address(0), MINIMUM_LIQUIDITY) */\n      jump\t// in\n    tag_188:\n        /* \"UniswapV2Pair.sol\":5020:5367  if (_totalSupply == 0) {... */\n      jump(tag_190)\n    tag_183:\n        /* \"UniswapV2Pair.sol\":5270:5356  Math.min(amount0.mul(_totalSupply) / _reserve0, amount1.mul(_totalSupply) / _reserve1) */\n      tag_191\n        /* \"UniswapV2Pair.sol\":5279:5316  amount0.mul(_totalSupply) / _reserve0 */\n      0xffffffffffffffffffffffffffff\n      dup10\n      and\n        /* \"UniswapV2Pair.sol\":5279:5304  amount0.mul(_totalSupply) */\n      tag_192\n        /* \"UniswapV2Pair.sol\":5279:5286  amount0 */\n      dup7\n        /* \"UniswapV2Pair.sol\":5291:5303  _totalSupply */\n      dup5\n        /* \"UniswapV2Pair.sol\":5279:5304  amount0.mul(_totalSupply) */\n      0xffffffff\n        /* \"UniswapV2Pair.sol\":5279:5290  amount0.mul */\n      tag_146\n        /* \"UniswapV2Pair.sol\":5279:5304  amount0.mul(_totalSupply) */\n      and\n      jump\t// in\n    tag_192:\n        /* \"UniswapV2Pair.sol\":5279:5316  amount0.mul(_totalSupply) / _reserve0 */\n      dup2\n      tag_193\n      jumpi\n      invalid\n    tag_193:\n      div\n        /* \"UniswapV2Pair.sol\":5318:5355  amount1.mul(_totalSupply) / _reserve1 */\n      0xffffffffffffffffffffffffffff\n      dup10\n      and\n        /* \"UniswapV2Pair.sol\":5318:5343  amount1.mul(_totalSupply) */\n      tag_194\n        /* \"UniswapV2Pair.sol\":5318:5325  amount1 */\n      dup7\n        /* \"UniswapV2Pair.sol\":5330:5342  _totalSupply */\n      dup6\n        /* \"UniswapV2Pair.sol\":5318:5343  amount1.mul(_totalSupply) */\n      0xffffffff\n        /* \"UniswapV2Pair.sol\":5318:5329  amount1.mul */\n      tag_146\n        /* \"UniswapV2Pair.sol\":5318:5343  amount1.mul(_totalSupply) */\n      and\n      jump\t// in\n    tag_194:\n        /* \"UniswapV2Pair.sol\":5318:5355  amount1.mul(_totalSupply) / _reserve1 */\n      dup2\n      tag_195\n      jumpi\n      invalid\n    tag_195:\n      div\n        /* \"UniswapV2Pair.sol\":5270:5278  Math.min */\n      tag_196\n        /* \"UniswapV2Pair.sol\":5270:5356  Math.min(amount0.mul(_totalSupply) / _reserve0, amount1.mul(_totalSupply) / _reserve1) */\n      jump\t// in\n    tag_191:\n        /* \"UniswapV2Pair.sol\":5258:5356  liquidity = Math.min(amount0.mul(_totalSupply) / _reserve0, amount1.mul(_totalSupply) / _reserve1) */\n      swap9\n      pop\n        /* \"UniswapV2Pair.sol\":5020:5367  if (_totalSupply == 0) {... */\n    tag_190:\n        /* \"UniswapV2Pair.sol\":5396:5397  0 */\n      0x00\n        /* \"UniswapV2Pair.sol\":5384:5393  liquidity */\n      dup10\n        /* \"UniswapV2Pair.sol\":5384:5397  liquidity > 0 */\n      gt\n        /* \"UniswapV2Pair.sol\":5376:5442  require(liquidity > 0, 'UniswapV2: INSUFFICIENT_LIQUIDITY_MINTED') */\n      tag_197\n      jumpi\n      mload(0x40)\n      0x08c379a000000000000000000000000000000000000000000000000000000000\n      dup2\n      mstore\n      0x04\n      add\n      dup1\n      dup1\n      0x20\n      add\n      dup3\n      dup2\n      sub\n      dup3\n      mstore\n      0x28\n      dup2\n      mstore\n      0x20\n      add\n      dup1\n      data_6591c9f5bf1fefaad109b76a20e25c857b696080c952191f86220f001a83663e\n      0x28\n      swap2\n      codecopy\n      0x40\n      add\n      swap2\n      pop\n      pop\n      mload(0x40)\n      dup1\n      swap2\n      sub\n      swap1\n      revert\n    tag_197:\n        /* \"UniswapV2Pair.sol\":5452:5472  _mint(to, liquidity) */\n      tag_198\n        /* \"UniswapV2Pair.sol\":5458:5460  to */\n      dup11\n        /* \"UniswapV2Pair.sol\":5462:5471  liquidity */\n      dup11\n        /* \"UniswapV2Pair.sol\":5452:5457  _mint */\n      tag_189\n        /* \"UniswapV2Pair.sol\":5452:5472  _mint(to, liquidity) */\n      jump\t// in\n    tag_198:\n        /* \"UniswapV2Pair.sol\":5483:5532  _update(balance0, balance1, _reserve0, _reserve1) */\n      tag_199\n        /* \"UniswapV2Pair.sol\":5491:5499  balance0 */\n      dup7\n        /* \"UniswapV2Pair.sol\":5501:5509  balance1 */\n      dup7\n        /* \"UniswapV2Pair.sol\":5511:5520  _reserve0 */\n      dup11\n        /* \"UniswapV2Pair.sol\":5522:5531  _reserve1 */\n      dup11\n        /* \"UniswapV2Pair.sol\":5483:5490  _update */\n      tag_157\n        /* \"UniswapV2Pair.sol\":5483:5532  _update(balance0, balance1, _reserve0, _reserve1) */\n      jump\t// in\n    tag_199:\n        /* \"UniswapV2Pair.sol\":5546:5551  feeOn */\n      dup2\n        /* \"UniswapV2Pair.sol\":5542:5589  if (feeOn) kLast = uint(reserve0).mul(reserve1) */\n      iszero\n      tag_200\n      jumpi\n        /* \"UniswapV2Pair.sol\":5580:5588  reserve1 */\n      sload(0x08)\n        /* \"UniswapV2Pair.sol\":5561:5589  uint(reserve0).mul(reserve1) */\n      tag_201\n      swap1\n        /* \"UniswapV2Pair.sol\":5580:5588  reserve1 */\n      0xffffffffffffffffffffffffffff\n        /* \"UniswapV2Pair.sol\":5566:5574  reserve0 */\n      dup1\n      dup3\n      and\n      swap2\n        /* \"UniswapV2Pair.sol\":5580:5588  reserve1 */\n      0x010000000000000000000000000000\n      swap1\n      div\n      and\n        /* \"UniswapV2Pair.sol\":5561:5589  uint(reserve0).mul(reserve1) */\n      0xffffffff\n        /* \"UniswapV2Pair.sol\":5561:5579  uint(reserve0).mul */\n      tag_146\n        /* \"UniswapV2Pair.sol\":5561:5589  uint(reserve0).mul(reserve1) */\n      and\n      jump\t// in\n    tag_201:\n        /* \"UniswapV2Pair.sol\":5553:5558  kLast */\n      0x0b\n        /* \"UniswapV2Pair.sol\":5553:5589  kLast = uint(reserve0).mul(reserve1) */\n      sstore\n        /* \"UniswapV2Pair.sol\":5542:5589  if (feeOn) kLast = uint(reserve0).mul(reserve1) */\n    tag_200:\n        /* \"UniswapV2Pair.sol\":5644:5678  Mint(msg.sender, amount0, amount1) */\n      0x40\n      dup1\n      mload\n      dup6\n      dup2\n      mstore\n      0x20\n      dup2\n      add\n      dup6\n      swap1\n      mstore\n      dup2\n      mload\n        /* \"UniswapV2Pair.sol\":5649:5659  msg.sender */\n      caller\n      swap3\n        /* \"UniswapV2Pair.sol\":5644:5678  Mint(msg.sender, amount0, amount1) */\n      0x4c209b5fc8ad50758f13e2e1088ba56a560dff690a1c6fef26394f4c03821c4f\n      swap3\n      dup3\n      swap1\n      sub\n      add\n      swap1\n      log2\n      pop\n      pop\n        /* \"UniswapV2Pair.sol\":1270:1271  1 */\n      0x01\n        /* \"UniswapV2Pair.sol\":1259:1267  unlocked */\n      0x0c\n        /* \"UniswapV2Pair.sol\":1259:1271  unlocked = 1 */\n      sstore\n      pop\n        /* \"UniswapV2Pair.sol\":4466:5685  function mint(address to) external lock returns (uint liquidity) {... */\n      swap5\n      swap7\n      swap6\n      pop\n      pop\n      pop\n      pop\n      pop\n      pop\n      jump\t// out\n        /* \"UniswapV2ERC20.sol\":349:390  mapping(address => uint) public balanceOf */\n    tag_79:\n      mstore(0x20, 0x01)\n      0x00\n      swap1\n      dup2\n      mstore\n      0x40\n      swap1\n      keccak256\n      sload\n      dup2\n      jump\t// out\n        /* \"UniswapV2Pair.sol\":1012:1029  uint public kLast */\n    tag_81:\n      sload(0x0b)\n      dup2\n      jump\t// out\n        /* \"UniswapV2ERC20.sol\":719:757  mapping(address => uint) public nonces */\n    tag_84:\n      mstore(0x20, 0x04)\n      0x00\n      swap1\n      dup2\n      mstore\n      0x40\n      swap1\n      keccak256\n      sload\n      dup2\n      jump\t// out\n        /* \"UniswapV2Pair.sol\":5794:7238  function burn(address to) external lock returns (uint amount0, uint amount1) {... */\n    tag_87:\n        /* \"UniswapV2Pair.sol\":5843:5855  uint amount0 */\n      0x00\n        /* \"UniswapV2Pair.sol\":5857:5869  uint amount1 */\n      dup1\n        /* \"UniswapV2Pair.sol\":1181:1189  unlocked */\n      sload(0x0c)\n        /* \"UniswapV2Pair.sol\":1193:1194  1 */\n      0x01\n        /* \"UniswapV2Pair.sol\":1181:1194  unlocked == 1 */\n      eq\n        /* \"UniswapV2Pair.sol\":1173:1216  require(unlocked == 1, 'UniswapV2: LOCKED') */\n      tag_203\n      jumpi\n      0x40\n      dup1\n      mload\n      0x08c379a000000000000000000000000000000000000000000000000000000000\n      dup2\n      mstore\n      0x20\n      0x04\n      dup3\n      add\n      mstore\n      0x11\n      0x24\n      dup3\n      add\n      mstore\n      0x556e697377617056323a204c4f434b4544000000000000000000000000000000\n      0x44\n      dup3\n      add\n      mstore\n      swap1\n      mload\n      swap1\n      dup2\n      swap1\n      sub\n      0x64\n      add\n      swap1\n      revert\n    tag_203:\n        /* \"UniswapV2Pair.sol\":1237:1238  0 */\n      0x00\n        /* \"UniswapV2Pair.sol\":1226:1234  unlocked */\n      0x0c\n        /* \"UniswapV2Pair.sol\":1226:1238  unlocked = 0 */\n      dup2\n      swap1\n      sstore\n        /* \"UniswapV2Pair.sol\":1237:1238  0 */\n      dup1\n        /* \"UniswapV2Pair.sol\":5923:5936  getReserves() */\n      tag_205\n        /* \"UniswapV2Pair.sol\":5923:5934  getReserves */\n      tag_50\n        /* \"UniswapV2Pair.sol\":5923:5936  getReserves() */\n      jump\t// in\n    tag_205:\n      pop\n        /* \"UniswapV2Pair.sol\":5979:5985  token0 */\n      sload(0x06)\n        /* \"UniswapV2Pair.sol\":6059:6065  token1 */\n      sload(0x07)\n        /* \"UniswapV2Pair.sol\":6137:6177  IERC20(_token0).balanceOf(address(this)) */\n      0x40\n      dup1\n      mload\n      0x70a0823100000000000000000000000000000000000000000000000000000000\n      dup2\n      mstore\n        /* \"UniswapV2Pair.sol\":6171:6175  this */\n      address\n        /* \"UniswapV2Pair.sol\":6137:6177  IERC20(_token0).balanceOf(address(this)) */\n      0x04\n      dup3\n      add\n      mstore\n      swap1\n      mload\n        /* \"UniswapV2Pair.sol\":5881:5936  (uint112 _reserve0, uint112 _reserve1,) = getReserves() */\n      swap5\n      swap7\n      pop\n      swap3\n      swap5\n      pop\n        /* \"UniswapV2Pair.sol\":5979:5985  token0 */\n      0xffffffffffffffffffffffffffffffffffffffff\n      swap2\n      dup3\n      and\n      swap4\n        /* \"UniswapV2Pair.sol\":6059:6065  token1 */\n      swap2\n      and\n      swap2\n        /* \"UniswapV2Pair.sol\":5961:5976  address _token0 */\n      0x00\n      swap2\n        /* \"UniswapV2Pair.sol\":5979:5985  token0 */\n      dup5\n      swap2\n        /* \"UniswapV2Pair.sol\":6137:6162  IERC20(_token0).balanceOf */\n      0x70a08231\n      swap2\n        /* \"UniswapV2Pair.sol\":6137:6177  IERC20(_token0).balanceOf(address(this)) */\n      0x24\n      dup1\n      dup4\n      add\n      swap3\n      0x20\n      swap3\n      swap2\n      swap1\n      dup3\n      swap1\n      sub\n      add\n      dup2\n        /* \"UniswapV2Pair.sol\":5979:5985  token0 */\n      dup7\n        /* \"UniswapV2Pair.sol\":6137:6177  IERC20(_token0).balanceOf(address(this)) */\n      dup1\n      extcodesize\n      iszero\n        /* \"--CODEGEN--\":5:7   */\n      dup1\n      iszero\n      tag_206\n      jumpi\n        /* \"--CODEGEN--\":30:31   */\n      0x00\n        /* \"--CODEGEN--\":27:28   */\n      dup1\n        /* \"--CODEGEN--\":20:32   */\n      revert\n        /* \"--CODEGEN--\":5:7   */\n    tag_206:\n        /* \"UniswapV2Pair.sol\":6137:6177  IERC20(_token0).balanceOf(address(this)) */\n      pop\n      gas\n      staticcall\n      iszero\n        /* \"--CODEGEN--\":8:17   */\n      dup1\n        /* \"--CODEGEN--\":5:7   */\n      iszero\n      tag_207\n      jumpi\n        /* \"--CODEGEN--\":45:61   */\n      returndatasize\n        /* \"--CODEGEN--\":42:43   */\n      0x00\n        /* \"--CODEGEN--\":39:40   */\n      dup1\n        /* \"--CODEGEN--\":24:62   */\n      returndatacopy\n        /* \"--CODEGEN--\":77:93   */\n      returndatasize\n        /* \"--CODEGEN--\":74:75   */\n      0x00\n        /* \"--CODEGEN--\":67:94   */\n      revert\n        /* \"--CODEGEN--\":5:7   */\n    tag_207:\n        /* \"UniswapV2Pair.sol\":6137:6177  IERC20(_token0).balanceOf(address(this)) */\n      pop\n      pop\n      pop\n      pop\n      mload(0x40)\n      returndatasize\n        /* \"--CODEGEN--\":13:15   */\n      0x20\n        /* \"--CODEGEN--\":8:11   */\n      dup2\n        /* \"--CODEGEN--\":5:16   */\n      lt\n        /* \"--CODEGEN--\":2:4   */\n      iszero\n      tag_208\n      jumpi\n        /* \"--CODEGEN--\":29:30   */\n      0x00\n        /* \"--CODEGEN--\":26:27   */\n      dup1\n        /* \"--CODEGEN--\":19:31   */\n      revert\n        /* \"--CODEGEN--\":2:4   */\n    tag_208:\n      pop\n        /* \"UniswapV2Pair.sol\":6137:6177  IERC20(_token0).balanceOf(address(this)) */\n      mload\n        /* \"UniswapV2Pair.sol\":6203:6243  IERC20(_token1).balanceOf(address(this)) */\n      0x40\n      dup1\n      mload\n      0x70a0823100000000000000000000000000000000000000000000000000000000\n      dup2\n      mstore\n        /* \"UniswapV2Pair.sol\":6237:6241  this */\n      address\n        /* \"UniswapV2Pair.sol\":6203:6243  IERC20(_token1).balanceOf(address(this)) */\n      0x04\n      dup3\n      add\n      mstore\n      swap1\n      mload\n        /* \"UniswapV2Pair.sol\":6137:6177  IERC20(_token0).balanceOf(address(this)) */\n      swap2\n      swap3\n      pop\n        /* \"UniswapV2Pair.sol\":6187:6200  uint balance1 */\n      0x00\n      swap2\n        /* \"UniswapV2Pair.sol\":6203:6228  IERC20(_token1).balanceOf */\n      0xffffffffffffffffffffffffffffffffffffffff\n      dup6\n      and\n      swap2\n      0x70a08231\n      swap2\n        /* \"UniswapV2Pair.sol\":6203:6243  IERC20(_token1).balanceOf(address(this)) */\n      0x24\n      dup1\n      dup4\n      add\n      swap3\n        /* \"UniswapV2Pair.sol\":6137:6177  IERC20(_token0).balanceOf(address(this)) */\n      0x20\n      swap3\n        /* \"UniswapV2Pair.sol\":6203:6243  IERC20(_token1).balanceOf(address(this)) */\n      swap2\n      swap1\n      dup3\n      swap1\n      sub\n      add\n      dup2\n        /* \"UniswapV2Pair.sol\":6203:6228  IERC20(_token1).balanceOf */\n      dup7\n        /* \"UniswapV2Pair.sol\":6203:6243  IERC20(_token1).balanceOf(address(this)) */\n      dup1\n      extcodesize\n      iszero\n        /* \"--CODEGEN--\":5:7   */\n      dup1\n      iszero\n      tag_209\n      jumpi\n        /* \"--CODEGEN--\":30:31   */\n      0x00\n        /* \"--CODEGEN--\":27:28   */\n      dup1\n        /* \"--CODEGEN--\":20:32   */\n      revert\n        /* \"--CODEGEN--\":5:7   */\n    tag_209:\n        /* \"UniswapV2Pair.sol\":6203:6243  IERC20(_token1).balanceOf(address(this)) */\n      pop\n      gas\n      staticcall\n      iszero\n        /* \"--CODEGEN--\":8:17   */\n      dup1\n        /* \"--CODEGEN--\":5:7   */\n      iszero\n      tag_210\n      jumpi\n        /* \"--CODEGEN--\":45:61   */\n      returndatasize\n        /* \"--CODEGEN--\":42:43   */\n      0x00\n        /* \"--CODEGEN--\":39:40   */\n      dup1\n        /* \"--CODEGEN--\":24:62   */\n      returndatacopy\n        /* \"--CODEGEN--\":77:93   */\n      returndatasize\n        /* \"--CODEGEN--\":74:75   */\n      0x00\n        /* \"--CODEGEN--\":67:94   */\n      revert\n        /* \"--CODEGEN--\":5:7   */\n    tag_210:\n        /* \"UniswapV2Pair.sol\":6203:6243  IERC20(_token1).balanceOf(address(this)) */\n      pop\n      pop\n      pop\n      pop\n      mload(0x40)\n      returndatasize\n        /* \"--CODEGEN--\":13:15   */\n      0x20\n        /* \"--CODEGEN--\":8:11   */\n      dup2\n        /* \"--CODEGEN--\":5:16   */\n      lt\n        /* \"--CODEGEN--\":2:4   */\n      iszero\n      tag_211\n      jumpi\n        /* \"--CODEGEN--\":29:30   */\n      0x00\n        /* \"--CODEGEN--\":26:27   */\n      dup1\n        /* \"--CODEGEN--\":19:31   */\n      revert\n        /* \"--CODEGEN--\":2:4   */\n    tag_211:\n      pop\n        /* \"UniswapV2Pair.sol\":6203:6243  IERC20(_token1).balanceOf(address(this)) */\n      mload\n        /* \"UniswapV2Pair.sol\":6288:6292  this */\n      address\n        /* \"UniswapV2Pair.sol\":6253:6267  uint liquidity */\n      0x00\n        /* \"UniswapV2Pair.sol\":6270:6294  balanceOf[address(this)] */\n      swap1\n      dup2\n      mstore\n        /* \"UniswapV2Pair.sol\":6270:6279  balanceOf */\n      0x01\n        /* \"UniswapV2Pair.sol\":6203:6243  IERC20(_token1).balanceOf(address(this)) */\n      0x20\n        /* \"UniswapV2Pair.sol\":6270:6294  balanceOf[address(this)] */\n      mstore\n      0x40\n      dup2\n      keccak256\n      sload\n        /* \"UniswapV2Pair.sol\":6203:6243  IERC20(_token1).balanceOf(address(this)) */\n      swap2\n      swap3\n      pop\n        /* \"UniswapV2Pair.sol\":6318:6348  _mintFee(_reserve0, _reserve1) */\n      tag_212\n        /* \"UniswapV2Pair.sol\":6327:6336  _reserve0 */\n      dup9\n        /* \"UniswapV2Pair.sol\":6338:6347  _reserve1 */\n      dup9\n        /* \"UniswapV2Pair.sol\":6318:6326  _mintFee */\n      tag_182\n        /* \"UniswapV2Pair.sol\":6318:6348  _mintFee(_reserve0, _reserve1) */\n      jump\t// in\n    tag_212:\n        /* \"UniswapV2Pair.sol\":6358:6375  uint _totalSupply */\n      0x00\n        /* \"UniswapV2Pair.sol\":6378:6389  totalSupply */\n      sload\n        /* \"UniswapV2Pair.sol\":6305:6348  bool feeOn = _mintFee(_reserve0, _reserve1) */\n      swap1\n      swap2\n      pop\n        /* \"UniswapV2Pair.sol\":6378:6389  totalSupply */\n      dup1\n        /* \"UniswapV2Pair.sol\":6487:6510  liquidity.mul(balance0) */\n      tag_213\n        /* \"UniswapV2Pair.sol\":6487:6496  liquidity */\n      dup5\n        /* \"UniswapV2Pair.sol\":6501:6509  balance0 */\n      dup8\n        /* \"UniswapV2Pair.sol\":6487:6510  liquidity.mul(balance0) */\n      0xffffffff\n        /* \"UniswapV2Pair.sol\":6487:6500  liquidity.mul */\n      tag_146\n        /* \"UniswapV2Pair.sol\":6487:6510  liquidity.mul(balance0) */\n      and\n      jump\t// in\n    tag_213:\n        /* \"UniswapV2Pair.sol\":6487:6525  liquidity.mul(balance0) / _totalSupply */\n      dup2\n      tag_214\n      jumpi\n      invalid\n    tag_214:\n      div\n      swap11\n      pop\n        /* \"UniswapV2Pair.sol\":6619:6631  _totalSupply */\n      dup1\n        /* \"UniswapV2Pair.sol\":6593:6616  liquidity.mul(balance1) */\n      tag_215\n        /* \"UniswapV2Pair.sol\":6593:6602  liquidity */\n      dup5\n        /* \"UniswapV2Pair.sol\":6607:6615  balance1 */\n      dup7\n        /* \"UniswapV2Pair.sol\":6593:6616  liquidity.mul(balance1) */\n      0xffffffff\n        /* \"UniswapV2Pair.sol\":6593:6606  liquidity.mul */\n      tag_146\n        /* \"UniswapV2Pair.sol\":6593:6616  liquidity.mul(balance1) */\n      and\n      jump\t// in\n    tag_215:\n        /* \"UniswapV2Pair.sol\":6593:6631  liquidity.mul(balance1) / _totalSupply */\n      dup2\n      tag_216\n      jumpi\n      invalid\n    tag_216:\n      div\n        /* \"UniswapV2Pair.sol\":6583:6631  amount1 = liquidity.mul(balance1) / _totalSupply */\n      swap10\n      pop\n        /* \"UniswapV2Pair.sol\":6707:6708  0 */\n      0x00\n        /* \"UniswapV2Pair.sol\":6697:6704  amount0 */\n      dup12\n        /* \"UniswapV2Pair.sol\":6697:6708  amount0 > 0 */\n      gt\n        /* \"UniswapV2Pair.sol\":6697:6723  amount0 > 0 && amount1 > 0 */\n      dup1\n      iszero\n      tag_217\n      jumpi\n      pop\n        /* \"UniswapV2Pair.sol\":6722:6723  0 */\n      0x00\n        /* \"UniswapV2Pair.sol\":6712:6719  amount1 */\n      dup11\n        /* \"UniswapV2Pair.sol\":6712:6723  amount1 > 0 */\n      gt\n        /* \"UniswapV2Pair.sol\":6697:6723  amount0 > 0 && amount1 > 0 */\n    tag_217:\n        /* \"UniswapV2Pair.sol\":6689:6768  require(amount0 > 0 && amount1 > 0, 'UniswapV2: INSUFFICIENT_LIQUIDITY_BURNED') */\n      tag_218\n      jumpi\n      mload(0x40)\n      0x08c379a000000000000000000000000000000000000000000000000000000000\n      dup2\n      mstore\n      0x04\n      add\n      dup1\n      dup1\n      0x20\n      add\n      dup3\n      dup2\n      sub\n      dup3\n      mstore\n      0x28\n      dup2\n      mstore\n      0x20\n      add\n      dup1\n      data_57ebfb4dd8b5082cdba0f23c17077e3b0ecb9782a51e0e9a15e9bc8c4b30c562\n      0x28\n      swap2\n      codecopy\n      0x40\n      add\n      swap2\n      pop\n      pop\n      mload(0x40)\n      dup1\n      swap2\n      sub\n      swap1\n      revert\n    tag_218:\n        /* \"UniswapV2Pair.sol\":6778:6809  _burn(address(this), liquidity) */\n      tag_219\n        /* \"UniswapV2Pair.sol\":6792:6796  this */\n      address\n        /* \"UniswapV2Pair.sol\":6799:6808  liquidity */\n      dup5\n        /* \"UniswapV2Pair.sol\":6778:6783  _burn */\n      tag_220\n        /* \"UniswapV2Pair.sol\":6778:6809  _burn(address(this), liquidity) */\n      jump\t// in\n    tag_219:\n        /* \"UniswapV2Pair.sol\":6819:6854  _safeTransfer(_token0, to, amount0) */\n      tag_221\n        /* \"UniswapV2Pair.sol\":6833:6840  _token0 */\n      dup8\n        /* \"UniswapV2Pair.sol\":6842:6844  to */\n      dup14\n        /* \"UniswapV2Pair.sol\":6846:6853  amount0 */\n      dup14\n        /* \"UniswapV2Pair.sol\":6819:6832  _safeTransfer */\n      tag_126\n        /* \"UniswapV2Pair.sol\":6819:6854  _safeTransfer(_token0, to, amount0) */\n      jump\t// in\n    tag_221:\n        /* \"UniswapV2Pair.sol\":6864:6899  _safeTransfer(_token1, to, amount1) */\n      tag_222\n        /* \"UniswapV2Pair.sol\":6878:6885  _token1 */\n      dup7\n        /* \"UniswapV2Pair.sol\":6887:6889  to */\n      dup14\n        /* \"UniswapV2Pair.sol\":6891:6898  amount1 */\n      dup13\n        /* \"UniswapV2Pair.sol\":6864:6877  _safeTransfer */\n      tag_126\n        /* \"UniswapV2Pair.sol\":6864:6899  _safeTransfer(_token1, to, amount1) */\n      jump\t// in\n    tag_222:\n        /* \"UniswapV2Pair.sol\":6920:6960  IERC20(_token0).balanceOf(address(this)) */\n      0x40\n      dup1\n      mload\n      0x70a0823100000000000000000000000000000000000000000000000000000000\n      dup2\n      mstore\n        /* \"UniswapV2Pair.sol\":6954:6958  this */\n      address\n        /* \"UniswapV2Pair.sol\":6920:6960  IERC20(_token0).balanceOf(address(this)) */\n      0x04\n      dup3\n      add\n      mstore\n      swap1\n      mload\n        /* \"UniswapV2Pair.sol\":6920:6945  IERC20(_token0).balanceOf */\n      0xffffffffffffffffffffffffffffffffffffffff\n      dup10\n      and\n      swap2\n      0x70a08231\n      swap2\n        /* \"UniswapV2Pair.sol\":6920:6960  IERC20(_token0).balanceOf(address(this)) */\n      0x24\n      dup1\n      dup4\n      add\n      swap3\n      0x20\n      swap3\n      swap2\n      swap1\n      dup3\n      swap1\n      sub\n      add\n      dup2\n        /* \"UniswapV2Pair.sol\":6920:6945  IERC20(_token0).balanceOf */\n      dup7\n        /* \"UniswapV2Pair.sol\":6920:6960  IERC20(_token0).balanceOf(address(this)) */\n      dup1\n      extcodesize\n      iszero\n        /* \"--CODEGEN--\":5:7   */\n      dup1\n      iszero\n      tag_223\n      jumpi\n        /* \"--CODEGEN--\":30:31   */\n      0x00\n        /* \"--CODEGEN--\":27:28   */\n      dup1\n        /* \"--CODEGEN--\":20:32   */\n      revert\n        /* \"--CODEGEN--\":5:7   */\n    tag_223:\n        /* \"UniswapV2Pair.sol\":6920:6960  IERC20(_token0).balanceOf(address(this)) */\n      pop\n      gas\n      staticcall\n      iszero\n        /* \"--CODEGEN--\":8:17   */\n      dup1\n        /* \"--CODEGEN--\":5:7   */\n      iszero\n      tag_224\n      jumpi\n        /* \"--CODEGEN--\":45:61   */\n      returndatasize\n        /* \"--CODEGEN--\":42:43   */\n      0x00\n        /* \"--CODEGEN--\":39:40   */\n      dup1\n        /* \"--CODEGEN--\":24:62   */\n      returndatacopy\n        /* \"--CODEGEN--\":77:93   */\n      returndatasize\n        /* \"--CODEGEN--\":74:75   */\n      0x00\n        /* \"--CODEGEN--\":67:94   */\n      revert\n        /* \"--CODEGEN--\":5:7   */\n    tag_224:\n        /* \"UniswapV2Pair.sol\":6920:6960  IERC20(_token0).balanceOf(address(this)) */\n      pop\n      pop\n      pop\n      pop\n      mload(0x40)\n      returndatasize\n        /* \"--CODEGEN--\":13:15   */\n      0x20\n        /* \"--CODEGEN--\":8:11   */\n      dup2\n        /* \"--CODEGEN--\":5:16   */\n      lt\n        /* \"--CODEGEN--\":2:4   */\n      iszero\n      tag_225\n      jumpi\n        /* \"--CODEGEN--\":29:30   */\n      0x00\n        /* \"--CODEGEN--\":26:27   */\n      dup1\n        /* \"--CODEGEN--\":19:31   */\n      revert\n        /* \"--CODEGEN--\":2:4   */\n    tag_225:\n      pop\n        /* \"UniswapV2Pair.sol\":6920:6960  IERC20(_token0).balanceOf(address(this)) */\n      mload\n        /* \"UniswapV2Pair.sol\":6981:7021  IERC20(_token1).balanceOf(address(this)) */\n      0x40\n      dup1\n      mload\n      0x70a0823100000000000000000000000000000000000000000000000000000000\n      dup2\n      mstore\n        /* \"UniswapV2Pair.sol\":7015:7019  this */\n      address\n        /* \"UniswapV2Pair.sol\":6981:7021  IERC20(_token1).balanceOf(address(this)) */\n      0x04\n      dup3\n      add\n      mstore\n      swap1\n      mload\n        /* \"UniswapV2Pair.sol\":6920:6960  IERC20(_token0).balanceOf(address(this)) */\n      swap2\n      swap7\n      pop\n        /* \"UniswapV2Pair.sol\":6981:7006  IERC20(_token1).balanceOf */\n      0xffffffffffffffffffffffffffffffffffffffff\n      dup9\n      and\n      swap2\n      0x70a08231\n      swap2\n        /* \"UniswapV2Pair.sol\":6981:7021  IERC20(_token1).balanceOf(address(this)) */\n      0x24\n      dup1\n      dup3\n      add\n      swap3\n        /* \"UniswapV2Pair.sol\":6920:6960  IERC20(_token0).balanceOf(address(this)) */\n      0x20\n      swap3\n        /* \"UniswapV2Pair.sol\":6981:7021  IERC20(_token1).balanceOf(address(this)) */\n      swap1\n      swap2\n      swap1\n      dup3\n      swap1\n      sub\n      add\n      dup2\n        /* \"UniswapV2Pair.sol\":6981:7006  IERC20(_token1).balanceOf */\n      dup7\n        /* \"UniswapV2Pair.sol\":6981:7021  IERC20(_token1).balanceOf(address(this)) */\n      dup1\n      extcodesize\n      iszero\n        /* \"--CODEGEN--\":5:7   */\n      dup1\n      iszero\n      tag_226\n      jumpi\n        /* \"--CODEGEN--\":30:31   */\n      0x00\n        /* \"--CODEGEN--\":27:28   */\n      dup1\n        /* \"--CODEGEN--\":20:32   */\n      revert\n        /* \"--CODEGEN--\":5:7   */\n    tag_226:\n        /* \"UniswapV2Pair.sol\":6981:7021  IERC20(_token1).balanceOf(address(this)) */\n      pop\n      gas\n      staticcall\n      iszero\n        /* \"--CODEGEN--\":8:17   */\n      dup1\n        /* \"--CODEGEN--\":5:7   */\n      iszero\n      tag_227\n      jumpi\n        /* \"--CODEGEN--\":45:61   */\n      returndatasize\n        /* \"--CODEGEN--\":42:43   */\n      0x00\n        /* \"--CODEGEN--\":39:40   */\n      dup1\n        /* \"--CODEGEN--\":24:62   */\n      returndatacopy\n        /* \"--CODEGEN--\":77:93   */\n      returndatasize\n        /* \"--CODEGEN--\":74:75   */\n      0x00\n        /* \"--CODEGEN--\":67:94   */\n      revert\n        /* \"--CODEGEN--\":5:7   */\n    tag_227:\n        /* \"UniswapV2Pair.sol\":6981:7021  IERC20(_token1).balanceOf(address(this)) */\n      pop\n      pop\n      pop\n      pop\n      mload(0x40)\n      returndatasize\n        /* \"--CODEGEN--\":13:15   */\n      0x20\n        /* \"--CODEGEN--\":8:11   */\n      dup2\n        /* \"--CODEGEN--\":5:16   */\n      lt\n        /* \"--CODEGEN--\":2:4   */\n      iszero\n      tag_228\n      jumpi\n        /* \"--CODEGEN--\":29:30   */\n      0x00\n        /* \"--CODEGEN--\":26:27   */\n      dup1\n        /* \"--CODEGEN--\":19:31   */\n      revert\n        /* \"--CODEGEN--\":2:4   */\n    tag_228:\n      pop\n        /* \"UniswapV2Pair.sol\":6981:7021  IERC20(_token1).balanceOf(address(this)) */\n      mload\n      swap4\n      pop\n        /* \"UniswapV2Pair.sol\":7032:7081  _update(balance0, balance1, _reserve0, _reserve1) */\n      tag_229\n        /* \"UniswapV2Pair.sol\":7040:7048  balance0 */\n      dup6\n        /* \"UniswapV2Pair.sol\":6981:7021  IERC20(_token1).balanceOf(address(this)) */\n      dup6\n        /* \"UniswapV2Pair.sol\":7060:7069  _reserve0 */\n      dup12\n        /* \"UniswapV2Pair.sol\":7071:7080  _reserve1 */\n      dup12\n        /* \"UniswapV2Pair.sol\":7032:7039  _update */\n      tag_157\n        /* \"UniswapV2Pair.sol\":7032:7081  _update(balance0, balance1, _reserve0, _reserve1) */\n      jump\t// in\n    tag_229:\n        /* \"UniswapV2Pair.sol\":7095:7100  feeOn */\n      dup2\n        /* \"UniswapV2Pair.sol\":7091:7138  if (feeOn) kLast = uint(reserve0).mul(reserve1) */\n      iszero\n      tag_230\n      jumpi\n        /* \"UniswapV2Pair.sol\":7129:7137  reserve1 */\n      sload(0x08)\n        /* \"UniswapV2Pair.sol\":7110:7138  uint(reserve0).mul(reserve1) */\n      tag_231\n      swap1\n        /* \"UniswapV2Pair.sol\":7129:7137  reserve1 */\n      0xffffffffffffffffffffffffffff\n        /* \"UniswapV2Pair.sol\":7115:7123  reserve0 */\n      dup1\n      dup3\n      and\n      swap2\n        /* \"UniswapV2Pair.sol\":7129:7137  reserve1 */\n      0x010000000000000000000000000000\n      swap1\n      div\n      and\n        /* \"UniswapV2Pair.sol\":7110:7138  uint(reserve0).mul(reserve1) */\n      0xffffffff\n        /* \"UniswapV2Pair.sol\":7110:7128  uint(reserve0).mul */\n      tag_146\n        /* \"UniswapV2Pair.sol\":7110:7138  uint(reserve0).mul(reserve1) */\n      and\n      jump\t// in\n    tag_231:\n        /* \"UniswapV2Pair.sol\":7102:7107  kLast */\n      0x0b\n        /* \"UniswapV2Pair.sol\":7102:7138  kLast = uint(reserve0).mul(reserve1) */\n      sstore\n        /* \"UniswapV2Pair.sol\":7091:7138  if (feeOn) kLast = uint(reserve0).mul(reserve1) */\n    tag_230:\n        /* \"UniswapV2Pair.sol\":7193:7231  Burn(msg.sender, amount0, amount1, to) */\n      0x40\n      dup1\n      mload\n      dup13\n      dup2\n      mstore\n      0x20\n      dup2\n      add\n      dup13\n      swap1\n      mstore\n      dup2\n      mload\n      0xffffffffffffffffffffffffffffffffffffffff\n      dup16\n      and\n      swap3\n        /* \"UniswapV2Pair.sol\":7198:7208  msg.sender */\n      caller\n      swap3\n        /* \"UniswapV2Pair.sol\":7193:7231  Burn(msg.sender, amount0, amount1, to) */\n      0xdccd412f0b1252819cb1fd330b93224ca42612892bb3f4f789976e6d81936496\n      swap3\n      swap1\n      dup2\n      swap1\n      sub\n      swap1\n      swap2\n      add\n      swap1\n      log3\n        /* \"UniswapV2Pair.sol\":1248:1249  _ */\n      pop\n      pop\n      pop\n      pop\n      pop\n      pop\n      pop\n      pop\n      pop\n        /* \"UniswapV2Pair.sol\":1270:1271  1 */\n      0x01\n        /* \"UniswapV2Pair.sol\":1259:1267  unlocked */\n      0x0c\n        /* \"UniswapV2Pair.sol\":1259:1271  unlocked = 1 */\n      dup2\n      swap1\n      sstore\n      pop\n        /* \"UniswapV2Pair.sol\":5794:7238  function burn(address to) external lock returns (uint amount0, uint amount1) {... */\n      swap2\n      pop\n      swap2\n      jump\t// out\n        /* \"UniswapV2ERC20.sol\":232:272  string public constant symbol = 'UNI-V2' */\n    tag_89:\n      mload(0x40)\n      dup1\n      0x40\n      add\n      0x40\n      mstore\n      dup1\n      0x06\n      dup2\n      mstore\n      0x20\n      add\n      0x554e492d56320000000000000000000000000000000000000000000000000000\n      dup2\n      mstore\n      pop\n      dup2\n      jump\t// out\n        /* \"UniswapV2ERC20.sol\":2327:2463  function transfer(address to, uint value) external returns (bool) {... */\n    tag_96:\n        /* \"UniswapV2ERC20.sol\":2387:2391  bool */\n      0x00\n        /* \"UniswapV2ERC20.sol\":2403:2435  _transfer(msg.sender, to, value) */\n      tag_160\n        /* \"UniswapV2ERC20.sol\":2413:2423  msg.sender */\n      caller\n        /* \"UniswapV2ERC20.sol\":2425:2427  to */\n      dup5\n        /* \"UniswapV2ERC20.sol\":2429:2434  value */\n      dup5\n        /* \"UniswapV2ERC20.sol\":2403:2412  _transfer */\n      tag_166\n        /* \"UniswapV2ERC20.sol\":2403:2435  _transfer(msg.sender, to, value) */\n      jump\t// in\n        /* \"UniswapV2Pair.sol\":417:463  uint public constant MINIMUM_LIQUIDITY = 10**3 */\n    tag_98:\n        /* \"UniswapV2Pair.sol\":458:463  10**3 */\n      0x03e8\n        /* \"UniswapV2Pair.sol\":417:463  uint public constant MINIMUM_LIQUIDITY = 10**3 */\n      dup2\n      jump\t// out\n        /* \"UniswapV2Pair.sol\":9254:9583  function skim(address to) external lock {... */\n    tag_101:\n        /* \"UniswapV2Pair.sol\":1181:1189  unlocked */\n      sload(0x0c)\n        /* \"UniswapV2Pair.sol\":1193:1194  1 */\n      0x01\n        /* \"UniswapV2Pair.sol\":1181:1194  unlocked == 1 */\n      eq\n        /* \"UniswapV2Pair.sol\":1173:1216  require(unlocked == 1, 'UniswapV2: LOCKED') */\n      tag_235\n      jumpi\n      0x40\n      dup1\n      mload\n      0x08c379a000000000000000000000000000000000000000000000000000000000\n      dup2\n      mstore\n      0x20\n      0x04\n      dup3\n      add\n      mstore\n      0x11\n      0x24\n      dup3\n      add\n      mstore\n      0x556e697377617056323a204c4f434b4544000000000000000000000000000000\n      0x44\n      dup3\n      add\n      mstore\n      swap1\n      mload\n      swap1\n      dup2\n      swap1\n      sub\n      0x64\n      add\n      swap1\n      revert\n    tag_235:\n        /* \"UniswapV2Pair.sol\":1237:1238  0 */\n      0x00\n        /* \"UniswapV2Pair.sol\":1226:1234  unlocked */\n      0x0c\n        /* \"UniswapV2Pair.sol\":1226:1238  unlocked = 0 */\n      sstore\n        /* \"UniswapV2Pair.sol\":9322:9328  token0 */\n      sload(0x06)\n        /* \"UniswapV2Pair.sol\":9371:9377  token1 */\n      sload(0x07)\n        /* \"UniswapV2Pair.sol\":9474:9482  reserve0 */\n      sload(0x08)\n        /* \"UniswapV2Pair.sol\":9429:9469  IERC20(_token0).balanceOf(address(this)) */\n      0x40\n      dup1\n      mload\n      0x70a0823100000000000000000000000000000000000000000000000000000000\n      dup2\n      mstore\n        /* \"UniswapV2Pair.sol\":9463:9467  this */\n      address\n        /* \"UniswapV2Pair.sol\":9429:9469  IERC20(_token0).balanceOf(address(this)) */\n      0x04\n      dup3\n      add\n      mstore\n      swap1\n      mload\n        /* \"UniswapV2Pair.sol\":9322:9328  token0 */\n      0xffffffffffffffffffffffffffffffffffffffff\n      swap5\n      dup6\n      and\n      swap5\n        /* \"UniswapV2Pair.sol\":9371:9377  token1 */\n      swap1\n      swap4\n      and\n      swap3\n        /* \"UniswapV2Pair.sol\":9402:9484  _safeTransfer(_token0, to, IERC20(_token0).balanceOf(address(this)).sub(reserve0)) */\n      tag_237\n      swap3\n        /* \"UniswapV2Pair.sol\":9322:9328  token0 */\n      dup6\n      swap3\n        /* \"UniswapV2Pair.sol\":9425:9427  to */\n      dup8\n      swap3\n        /* \"UniswapV2Pair.sol\":9429:9483  IERC20(_token0).balanceOf(address(this)).sub(reserve0) */\n      tag_238\n      swap3\n        /* \"UniswapV2Pair.sol\":9474:9482  reserve0 */\n      0xffffffffffffffffffffffffffff\n      and\n      swap2\n        /* \"UniswapV2Pair.sol\":9322:9328  token0 */\n      dup6\n      swap2\n        /* \"UniswapV2Pair.sol\":9429:9454  IERC20(_token0).balanceOf */\n      0x70a08231\n      swap2\n        /* \"UniswapV2Pair.sol\":9429:9469  IERC20(_token0).balanceOf(address(this)) */\n      0x24\n      dup1\n      dup3\n      add\n      swap3\n      0x20\n      swap3\n      swap1\n      swap2\n      swap1\n      dup3\n      swap1\n      sub\n      add\n      dup2\n        /* \"UniswapV2Pair.sol\":9322:9328  token0 */\n      dup7\n        /* \"UniswapV2Pair.sol\":9429:9469  IERC20(_token0).balanceOf(address(this)) */\n      dup1\n      extcodesize\n      iszero\n        /* \"--CODEGEN--\":5:7   */\n      dup1\n      iszero\n      tag_239\n      jumpi\n        /* \"--CODEGEN--\":30:31   */\n      0x00\n        /* \"--CODEGEN--\":27:28   */\n      dup1\n        /* \"--CODEGEN--\":20:32   */\n      revert\n        /* \"--CODEGEN--\":5:7   */\n    tag_239:\n        /* \"UniswapV2Pair.sol\":9429:9469  IERC20(_token0).balanceOf(address(this)) */\n      pop\n      gas\n      staticcall\n      iszero\n        /* \"--CODEGEN--\":8:17   */\n      dup1\n        /* \"--CODEGEN--\":5:7   */\n      iszero\n      tag_240\n      jumpi\n        /* \"--CODEGEN--\":45:61   */\n      returndatasize\n        /* \"--CODEGEN--\":42:43   */\n      0x00\n        /* \"--CODEGEN--\":39:40   */\n      dup1\n        /* \"--CODEGEN--\":24:62   */\n      returndatacopy\n        /* \"--CODEGEN--\":77:93   */\n      returndatasize\n        /* \"--CODEGEN--\":74:75   */\n      0x00\n        /* \"--CODEGEN--\":67:94   */\n      revert\n        /* \"--CODEGEN--\":5:7   */\n    tag_240:\n        /* \"UniswapV2Pair.sol\":9429:9469  IERC20(_token0).balanceOf(address(this)) */\n      pop\n      pop\n      pop\n      pop\n      mload(0x40)\n      returndatasize\n        /* \"--CODEGEN--\":13:15   */\n      0x20\n        /* \"--CODEGEN--\":8:11   */\n      dup2\n        /* \"--CODEGEN--\":5:16   */\n      lt\n        /* \"--CODEGEN--\":2:4   */\n      iszero\n      tag_241\n      jumpi\n        /* \"--CODEGEN--\":29:30   */\n      0x00\n        /* \"--CODEGEN--\":26:27   */\n      dup1\n        /* \"--CODEGEN--\":19:31   */\n      revert\n        /* \"--CODEGEN--\":2:4   */\n    tag_241:\n      pop\n        /* \"UniswapV2Pair.sol\":9429:9469  IERC20(_token0).balanceOf(address(this)) */\n      mload\n      swap1\n        /* \"UniswapV2Pair.sol\":9429:9483  IERC20(_token0).balanceOf(address(this)).sub(reserve0) */\n      0xffffffff\n        /* \"UniswapV2Pair.sol\":9429:9473  IERC20(_token0).balanceOf(address(this)).sub */\n      tag_148\n        /* \"UniswapV2Pair.sol\":9429:9483  IERC20(_token0).balanceOf(address(this)).sub(reserve0) */\n      and\n      jump\t// in\n    tag_238:\n        /* \"UniswapV2Pair.sol\":9402:9415  _safeTransfer */\n      tag_126\n        /* \"UniswapV2Pair.sol\":9402:9484  _safeTransfer(_token0, to, IERC20(_token0).balanceOf(address(this)).sub(reserve0)) */\n      jump\t// in\n    tag_237:\n        /* \"UniswapV2Pair.sol\":9566:9574  reserve1 */\n      sload(0x08)\n        /* \"UniswapV2Pair.sol\":9521:9561  IERC20(_token1).balanceOf(address(this)) */\n      0x40\n      dup1\n      mload\n      0x70a0823100000000000000000000000000000000000000000000000000000000\n      dup2\n      mstore\n        /* \"UniswapV2Pair.sol\":9555:9559  this */\n      address\n        /* \"UniswapV2Pair.sol\":9521:9561  IERC20(_token1).balanceOf(address(this)) */\n      0x04\n      dup3\n      add\n      mstore\n      swap1\n      mload\n        /* \"UniswapV2Pair.sol\":9494:9576  _safeTransfer(_token1, to, IERC20(_token1).balanceOf(address(this)).sub(reserve1)) */\n      tag_242\n      swap3\n        /* \"UniswapV2Pair.sol\":9508:9515  _token1 */\n      dup5\n      swap3\n        /* \"UniswapV2Pair.sol\":9517:9519  to */\n      dup8\n      swap3\n        /* \"UniswapV2Pair.sol\":9521:9575  IERC20(_token1).balanceOf(address(this)).sub(reserve1) */\n      tag_238\n      swap3\n        /* \"UniswapV2Pair.sol\":9566:9574  reserve1 */\n      0x010000000000000000000000000000\n      swap1\n      div\n      0xffffffffffffffffffffffffffff\n      and\n      swap2\n        /* \"UniswapV2Pair.sol\":9521:9546  IERC20(_token1).balanceOf */\n      0xffffffffffffffffffffffffffffffffffffffff\n      dup7\n      and\n      swap2\n      0x70a08231\n      swap2\n        /* \"UniswapV2Pair.sol\":9521:9561  IERC20(_token1).balanceOf(address(this)) */\n      0x24\n      dup1\n      dup3\n      add\n      swap3\n      0x20\n      swap3\n      swap1\n      swap2\n      swap1\n      dup3\n      swap1\n      sub\n      add\n      dup2\n        /* \"UniswapV2Pair.sol\":9521:9546  IERC20(_token1).balanceOf */\n      dup7\n        /* \"UniswapV2Pair.sol\":9521:9561  IERC20(_token1).balanceOf(address(this)) */\n      dup1\n      extcodesize\n      iszero\n        /* \"--CODEGEN--\":5:7   */\n      dup1\n      iszero\n      tag_239\n      jumpi\n        /* \"--CODEGEN--\":30:31   */\n      0x00\n        /* \"--CODEGEN--\":27:28   */\n      dup1\n        /* \"--CODEGEN--\":20:32   */\n      revert\n        /* \"UniswapV2Pair.sol\":9494:9576  _safeTransfer(_token1, to, IERC20(_token1).balanceOf(address(this)).sub(reserve1)) */\n    tag_242:\n      pop\n      pop\n        /* \"UniswapV2Pair.sol\":1270:1271  1 */\n      0x01\n        /* \"UniswapV2Pair.sol\":1259:1267  unlocked */\n      0x0c\n        /* \"UniswapV2Pair.sol\":1259:1271  unlocked = 1 */\n      sstore\n      pop\n        /* \"UniswapV2Pair.sol\":9254:9583  function skim(address to) external lock {... */\n      jump\t// out\n        /* \"UniswapV2Pair.sol\":564:586  address public factory */\n    tag_103:\n      and(0xffffffffffffffffffffffffffffffffffffffff, sload(0x05))\n      dup2\n      jump\t// out\n        /* \"UniswapV2Pair.sol\":619:640  address public token1 */\n    tag_105:\n      and(0xffffffffffffffffffffffffffffffffffffffff, sload(0x07))\n      dup2\n      jump\t// out\n        /* \"UniswapV2ERC20.sol\":2770:3432  function permit(address owner, address spender, uint value, uint deadline, uint8 v, bytes32 r, bytes32 s) external {... */\n    tag_108:\n        /* \"UniswapV2ERC20.sol\":2915:2930  block.timestamp */\n      timestamp\n        /* \"UniswapV2ERC20.sol\":2903:2911  deadline */\n      dup5\n        /* \"UniswapV2ERC20.sol\":2903:2930  deadline >= block.timestamp */\n      lt\n      iszero\n        /* \"UniswapV2ERC20.sol\":2895:2953  require(deadline >= block.timestamp, 'UniswapV2: EXPIRED') */\n      tag_248\n      jumpi\n      0x40\n      dup1\n      mload\n      0x08c379a000000000000000000000000000000000000000000000000000000000\n      dup2\n      mstore\n      0x20\n      0x04\n      dup3\n      add\n      mstore\n      0x12\n      0x24\n      dup3\n      add\n      mstore\n      0x556e697377617056323a20455850495245440000000000000000000000000000\n      0x44\n      dup3\n      add\n      mstore\n      swap1\n      mload\n      swap1\n      dup2\n      swap1\n      sub\n      0x64\n      add\n      swap1\n      revert\n    tag_248:\n        /* \"UniswapV2ERC20.sol\":3065:3081  DOMAIN_SEPARATOR */\n      sload(0x03)\n        /* \"UniswapV2ERC20.sol\":3160:3173  nonces[owner] */\n      0xffffffffffffffffffffffffffffffffffffffff\n      dup1\n      dup10\n      and\n        /* \"UniswapV2ERC20.sol\":2963:2977  bytes32 digest */\n      0x00\n        /* \"UniswapV2ERC20.sol\":3160:3173  nonces[owner] */\n      dup2\n      dup2\n      mstore\n        /* \"UniswapV2ERC20.sol\":3160:3166  nonces */\n      0x04\n        /* \"UniswapV2ERC20.sol\":3160:3173  nonces[owner] */\n      0x20\n      swap1\n      dup2\n      mstore\n      0x40\n      dup1\n      dup4\n      keccak256\n        /* \"UniswapV2ERC20.sol\":3160:3175  nonces[owner]++ */\n      dup1\n      sload\n      0x01\n      dup1\n      dup3\n      add\n      swap1\n      swap3\n      sstore\n        /* \"UniswapV2ERC20.sol\":3109:3186  abi.encode(PERMIT_TYPEHASH, owner, spender, value, nonces[owner]++, deadline) */\n      dup3\n      mload\n        /* \"UniswapV2ERC20.sol\":647:713  0x6e71edae12b1b97f4d1f60370fef10105fa2faae0126114a169c64845d6126c9 */\n      0x6e71edae12b1b97f4d1f60370fef10105fa2faae0126114a169c64845d6126c9\n        /* \"UniswapV2ERC20.sol\":3109:3186  abi.encode(PERMIT_TYPEHASH, owner, spender, value, nonces[owner]++, deadline) */\n      dup2\n      dup7\n      add\n      mstore\n      dup1\n      dup5\n      add\n      swap7\n      swap1\n      swap7\n      mstore\n      swap6\n      dup14\n      and\n      0x60\n      dup7\n      add\n      mstore\n      0x80\n      dup6\n      add\n      dup13\n      swap1\n      mstore\n      0xa0\n      dup6\n      add\n      swap6\n      swap1\n      swap6\n      mstore\n      0xc0\n      dup1\n      dup6\n      add\n      dup12\n      swap1\n      mstore\n      dup2\n      mload\n        /* \"--CODEGEN--\":26:47   */\n      dup1\n      dup7\n      sub\n        /* \"--CODEGEN--\":22:54   */\n      swap1\n      swap2\n      add\n        /* \"--CODEGEN--\":6:55   */\n      dup2\n      mstore\n        /* \"UniswapV2ERC20.sol\":3109:3186  abi.encode(PERMIT_TYPEHASH, owner, spender, value, nonces[owner]++, deadline) */\n      0xe0\n      dup6\n      add\n      dup3\n      mstore\n        /* \"UniswapV2ERC20.sol\":3099:3187  keccak256(abi.encode(PERMIT_TYPEHASH, owner, spender, value, nonces[owner]++, deadline)) */\n      dup1\n      mload\n      swap1\n      dup4\n      add\n      keccak256\n        /* \"UniswapV2ERC20.sol\":3003:3201  abi.encodePacked(... */\n      0x1901000000000000000000000000000000000000000000000000000000000000\n      0x0100\n      dup7\n      add\n      mstore\n      0x0102\n      dup6\n      add\n      swap7\n      swap1\n      swap7\n      mstore\n      0x0122\n      dup1\n      dup6\n      add\n      swap7\n      swap1\n      swap7\n      mstore\n      dup1\n      mload\n        /* \"--CODEGEN--\":26:47   */\n      dup1\n      dup6\n      sub\n        /* \"--CODEGEN--\":22:54   */\n      swap1\n      swap7\n      add\n        /* \"--CODEGEN--\":6:55   */\n      dup7\n      mstore\n        /* \"UniswapV2ERC20.sol\":3003:3201  abi.encodePacked(... */\n      0x0142\n      dup5\n      add\n      dup1\n      dup3\n      mstore\n        /* \"UniswapV2ERC20.sol\":2980:3211  keccak256(... */\n      dup7\n      mload\n      swap7\n      dup4\n      add\n      swap7\n      swap1\n      swap7\n      keccak256\n        /* \"UniswapV2ERC20.sol\":3248:3274  ecrecover(digest, v, r, s) */\n      swap6\n      dup4\n      swap1\n      mstore\n      0x0162\n      dup5\n      add\n      dup1\n      dup3\n      mstore\n      dup7\n      swap1\n      mstore\n      0xff\n      dup10\n      and\n      0x0182\n      dup6\n      add\n      mstore\n      0x01a2\n      dup5\n      add\n      dup9\n      swap1\n      mstore\n      0x01c2\n      dup5\n      add\n      dup8\n      swap1\n      mstore\n      mload\n        /* \"UniswapV2ERC20.sol\":2963:2977  bytes32 digest */\n      swap2\n      swap4\n        /* \"UniswapV2ERC20.sol\":3160:3175  nonces[owner]++ */\n      swap3\n        /* \"UniswapV2ERC20.sol\":3248:3274  ecrecover(digest, v, r, s) */\n      0x01e2\n      dup1\n      dup3\n      add\n      swap4\n      0xffffffffffffffffffffffffffffffffffffffffffffffffffffffffffffffe0\n      dup2\n      add\n      swap3\n      dup2\n      swap1\n      sub\n      swap1\n      swap2\n      add\n      swap1\n        /* \"UniswapV2ERC20.sol\":3160:3175  nonces[owner]++ */\n      dup6\n        /* \"UniswapV2ERC20.sol\":3248:3274  ecrecover(digest, v, r, s) */\n      gas\n      staticcall\n      iszero\n        /* \"--CODEGEN--\":8:17   */\n      dup1\n        /* \"--CODEGEN--\":5:7   */\n      iszero\n      tag_249\n      jumpi\n        /* \"--CODEGEN--\":45:61   */\n      returndatasize\n        /* \"--CODEGEN--\":42:43   */\n      0x00\n        /* \"--CODEGEN--\":39:40   */\n      dup1\n        /* \"--CODEGEN--\":24:62   */\n      returndatacopy\n        /* \"--CODEGEN--\":77:93   */\n      returndatasize\n        /* \"--CODEGEN--\":74:75   */\n      0x00\n        /* \"--CODEGEN--\":67:94   */\n      revert\n        /* \"--CODEGEN--\":5:7   */\n    tag_249:\n      pop\n      pop\n        /* \"UniswapV2ERC20.sol\":3248:3274  ecrecover(digest, v, r, s) */\n      mload(add(0xffffffffffffffffffffffffffffffffffffffffffffffffffffffffffffffe0, mload(0x40)))\n      swap2\n      pop\n      pop\n        /* \"UniswapV2ERC20.sol\":3292:3322  recoveredAddress != address(0) */\n      0xffffffffffffffffffffffffffffffffffffffff\n      dup2\n      and\n      iszero\n      dup1\n      iszero\n      swap1\n        /* \"UniswapV2ERC20.sol\":3292:3351  recoveredAddress != address(0) && recoveredAddress == owner */\n      tag_250\n      jumpi\n      pop\n        /* \"UniswapV2ERC20.sol\":3346:3351  owner */\n      dup9\n        /* \"UniswapV2ERC20.sol\":3326:3351  recoveredAddress == owner */\n      0xffffffffffffffffffffffffffffffffffffffff\n      and\n        /* \"UniswapV2ERC20.sol\":3326:3342  recoveredAddress */\n      dup2\n        /* \"UniswapV2ERC20.sol\":3326:3351  recoveredAddress == owner */\n      0xffffffffffffffffffffffffffffffffffffffff\n      and\n      eq\n        /* \"UniswapV2ERC20.sol\":3292:3351  recoveredAddress != address(0) && recoveredAddress == owner */\n    tag_250:\n        /* \"UniswapV2ERC20.sol\":3284:3384  require(recoveredAddress != address(0) && recoveredAddress == owner, 'UniswapV2: INVALID_SIGNATURE') */\n      tag_251\n      jumpi\n      0x40\n      dup1\n      mload\n      0x08c379a000000000000000000000000000000000000000000000000000000000\n      dup2\n      mstore\n      0x20\n      0x04\n      dup3\n      add\n      mstore\n      0x1c\n      0x24\n      dup3\n      add\n      mstore\n      0x556e697377617056323a20494e56414c49445f5349474e415455524500000000\n      0x44\n      dup3\n      add\n      mstore\n      swap1\n      mload\n      swap1\n      dup2\n      swap1\n      sub\n      0x64\n      add\n      swap1\n      revert\n    tag_251:\n        /* \"UniswapV2ERC20.sol\":3394:3425  _approve(owner, spender, value) */\n      tag_252\n        /* \"UniswapV2ERC20.sol\":3403:3408  owner */\n      dup10\n        /* \"UniswapV2ERC20.sol\":3410:3417  spender */\n      dup10\n        /* \"UniswapV2ERC20.sol\":3419:3424  value */\n      dup10\n        /* \"UniswapV2ERC20.sol\":3394:3402  _approve */\n      tag_161\n        /* \"UniswapV2ERC20.sol\":3394:3425  _approve(owner, spender, value) */\n      jump\t// in\n    tag_252:\n        /* \"UniswapV2ERC20.sol\":2770:3432  function permit(address owner, address spender, uint value, uint deadline, uint8 v, bytes32 r, bytes32 s) external {... */\n      pop\n      pop\n      pop\n      pop\n      pop\n      pop\n      pop\n      pop\n      pop\n      jump\t// out\n        /* \"UniswapV2ERC20.sol\":396:457  mapping(address => mapping(address => uint)) public allowance */\n    tag_111:\n      0x02\n      0x20\n      swap1\n      dup2\n      mstore\n      0x00\n      swap3\n      dup4\n      mstore\n      0x40\n      dup1\n      dup5\n      keccak256\n      swap1\n      swap2\n      mstore\n      swap1\n      dup3\n      mstore\n      swap1\n      keccak256\n      sload\n      dup2\n      jump\t// out\n        /* \"UniswapV2Pair.sol\":9629:9785  function sync() external lock {... */\n    tag_113:\n        /* \"UniswapV2Pair.sol\":1181:1189  unlocked */\n      sload(0x0c)\n        /* \"UniswapV2Pair.sol\":1193:1194  1 */\n      0x01\n        /* \"UniswapV2Pair.sol\":1181:1194  unlocked == 1 */\n      eq\n        /* \"UniswapV2Pair.sol\":1173:1216  require(unlocked == 1, 'UniswapV2: LOCKED') */\n      tag_254\n      jumpi\n      0x40\n      dup1\n      mload\n      0x08c379a000000000000000000000000000000000000000000000000000000000\n      dup2\n      mstore\n      0x20\n      0x04\n      dup3\n      add\n      mstore\n      0x11\n      0x24\n      dup3\n      add\n      mstore\n      0x556e697377617056323a204c4f434b4544000000000000000000000000000000\n      0x44\n      dup3\n      add\n      mstore\n      swap1\n      mload\n      swap1\n      dup2\n      swap1\n      sub\n      0x64\n      add\n      swap1\n      revert\n    tag_254:\n        /* \"UniswapV2Pair.sol\":1237:1238  0 */\n      0x00\n        /* \"UniswapV2Pair.sol\":1226:1234  unlocked */\n      0x0c\n        /* \"UniswapV2Pair.sol\":1226:1238  unlocked = 0 */\n      sstore\n        /* \"UniswapV2Pair.sol\":9684:9690  token0 */\n      sload(0x06)\n        /* \"UniswapV2Pair.sol\":9677:9716  IERC20(token0).balanceOf(address(this)) */\n      0x40\n      dup1\n      mload\n      0x70a0823100000000000000000000000000000000000000000000000000000000\n      dup2\n      mstore\n        /* \"UniswapV2Pair.sol\":9710:9714  this */\n      address\n        /* \"UniswapV2Pair.sol\":9677:9716  IERC20(token0).balanceOf(address(this)) */\n      0x04\n      dup3\n      add\n      mstore\n      swap1\n      mload\n        /* \"UniswapV2Pair.sol\":9669:9778  _update(IERC20(token0).balanceOf(address(this)), IERC20(token1).balanceOf(address(this)), reserve0, reserve1) */\n      tag_256\n      swap3\n        /* \"UniswapV2Pair.sol\":9684:9690  token0 */\n      0xffffffffffffffffffffffffffffffffffffffff\n      and\n      swap2\n        /* \"UniswapV2Pair.sol\":9677:9701  IERC20(token0).balanceOf */\n      0x70a08231\n      swap2\n        /* \"UniswapV2Pair.sol\":9677:9716  IERC20(token0).balanceOf(address(this)) */\n      0x24\n      dup1\n      dup4\n      add\n      swap3\n      0x20\n      swap3\n      swap2\n      swap1\n      dup3\n      swap1\n      sub\n      add\n      dup2\n        /* \"UniswapV2Pair.sol\":9684:9690  token0 */\n      dup7\n        /* \"UniswapV2Pair.sol\":9677:9716  IERC20(token0).balanceOf(address(this)) */\n      dup1\n      extcodesize\n      iszero\n        /* \"--CODEGEN--\":5:7   */\n      dup1\n      iszero\n      tag_257\n      jumpi\n        /* \"--CODEGEN--\":30:31   */\n      0x00\n        /* \"--CODEGEN--\":27:28   */\n      dup1\n        /* \"--CODEGEN--\":20:32   */\n      revert\n        /* \"--CODEGEN--\":5:7   */\n    tag_257:\n        /* \"UniswapV2Pair.sol\":9677:9716  IERC20(token0).balanceOf(address(this)) */\n      pop\n      gas\n      staticcall\n      iszero\n        /* \"--CODEGEN--\":8:17   */\n      dup1\n        /* \"--CODEGEN--\":5:7   */\n      iszero\n      tag_258\n      jumpi\n        /* \"--CODEGEN--\":45:61   */\n      returndatasize\n        /* \"--CODEGEN--\":42:43   */\n      0x00\n        /* \"--CODEGEN--\":39:40   */\n      dup1\n        /* \"--CODEGEN--\":24:62   */\n      returndatacopy\n        /* \"--CODEGEN--\":77:93   */\n      returndatasize\n        /* \"--CODEGEN--\":74:75   */\n      0x00\n        /* \"--CODEGEN--\":67:94   */\n      revert\n        /* \"--CODEGEN--\":5:7   */\n    tag_258:\n        /* \"UniswapV2Pair.sol\":9677:9716  IERC20(token0).balanceOf(address(this)) */\n      pop\n      pop\n      pop\n      pop\n      mload(0x40)\n      returndatasize\n        /* \"--CODEGEN--\":13:15   */\n      0x20\n        /* \"--CODEGEN--\":8:11   */\n      dup2\n        /* \"--CODEGEN--\":5:16   */\n      lt\n        /* \"--CODEGEN--\":2:4   */\n      iszero\n      tag_259\n      jumpi\n        /* \"--CODEGEN--\":29:30   */\n      0x00\n        /* \"--CODEGEN--\":26:27   */\n      dup1\n        /* \"--CODEGEN--\":19:31   */\n      revert\n        /* \"--CODEGEN--\":2:4   */\n    tag_259:\n      pop\n        /* \"UniswapV2Pair.sol\":9677:9716  IERC20(token0).balanceOf(address(this)) */\n      mload\n        /* \"UniswapV2Pair.sol\":9725:9731  token1 */\n      sload(0x07)\n        /* \"UniswapV2Pair.sol\":9718:9757  IERC20(token1).balanceOf(address(this)) */\n      0x40\n      dup1\n      mload\n      0x70a0823100000000000000000000000000000000000000000000000000000000\n      dup2\n      mstore\n        /* \"UniswapV2Pair.sol\":9751:9755  this */\n      address\n        /* \"UniswapV2Pair.sol\":9718:9757  IERC20(token1).balanceOf(address(this)) */\n      0x04\n      dup3\n      add\n      mstore\n      swap1\n      mload\n        /* \"UniswapV2Pair.sol\":9725:9731  token1 */\n      0xffffffffffffffffffffffffffffffffffffffff\n      swap1\n      swap3\n      and\n      swap2\n        /* \"UniswapV2Pair.sol\":9718:9742  IERC20(token1).balanceOf */\n      0x70a08231\n      swap2\n        /* \"UniswapV2Pair.sol\":9718:9757  IERC20(token1).balanceOf(address(this)) */\n      0x24\n      dup1\n      dup3\n      add\n      swap3\n        /* \"UniswapV2Pair.sol\":9677:9716  IERC20(token0).balanceOf(address(this)) */\n      0x20\n      swap3\n        /* \"UniswapV2Pair.sol\":9718:9757  IERC20(token1).balanceOf(address(this)) */\n      swap1\n      swap2\n      swap1\n      dup3\n      swap1\n      sub\n      add\n      dup2\n        /* \"UniswapV2Pair.sol\":9725:9731  token1 */\n      dup7\n        /* \"UniswapV2Pair.sol\":9718:9757  IERC20(token1).balanceOf(address(this)) */\n      dup1\n      extcodesize\n      iszero\n        /* \"--CODEGEN--\":5:7   */\n      dup1\n      iszero\n      tag_260\n      jumpi\n        /* \"--CODEGEN--\":30:31   */\n      0x00\n        /* \"--CODEGEN--\":27:28   */\n      dup1\n        /* \"--CODEGEN--\":20:32   */\n      revert\n        /* \"--CODEGEN--\":5:7   */\n    tag_260:\n        /* \"UniswapV2Pair.sol\":9718:9757  IERC20(token1).balanceOf(address(this)) */\n      pop\n      gas\n      staticcall\n      iszero\n        /* \"--CODEGEN--\":8:17   */\n      dup1\n        /* \"--CODEGEN--\":5:7   */\n      iszero\n      tag_261\n      jumpi\n        /* \"--CODEGEN--\":45:61   */\n      returndatasize\n        /* \"--CODEGEN--\":42:43   */\n      0x00\n        /* \"--CODEGEN--\":39:40   */\n      dup1\n        /* \"--CODEGEN--\":24:62   */\n      returndatacopy\n        /* \"--CODEGEN--\":77:93   */\n      returndatasize\n        /* \"--CODEGEN--\":74:75   */\n      0x00\n        /* \"--CODEGEN--\":67:94   */\n      revert\n        /* \"--CODEGEN--\":5:7   */\n    tag_261:\n        /* \"UniswapV2Pair.sol\":9718:9757  IERC20(token1).balanceOf(address(this)) */\n      pop\n      pop\n      pop\n      pop\n      mload(0x40)\n      returndatasize\n        /* \"--CODEGEN--\":13:15   */\n      0x20\n        /* \"--CODEGEN--\":8:11   */\n      dup2\n        /* \"--CODEGEN--\":5:16   */\n      lt\n        /* \"--CODEGEN--\":2:4   */\n      iszero\n      tag_262\n      jumpi\n        /* \"--CODEGEN--\":29:30   */\n      0x00\n        /* \"--CODEGEN--\":26:27   */\n      dup1\n        /* \"--CODEGEN--\":19:31   */\n      revert\n        /* \"--CODEGEN--\":2:4   */\n    tag_262:\n      pop\n        /* \"UniswapV2Pair.sol\":9718:9757  IERC20(token1).balanceOf(address(this)) */\n      mload\n        /* \"UniswapV2Pair.sol\":9759:9767  reserve0 */\n      sload(0x08)\n      0xffffffffffffffffffffffffffff\n      dup1\n      dup3\n      and\n      swap2\n        /* \"UniswapV2Pair.sol\":9769:9777  reserve1 */\n      0x010000000000000000000000000000\n      swap1\n      div\n      and\n        /* \"UniswapV2Pair.sol\":9669:9676  _update */\n      tag_157\n        /* \"UniswapV2Pair.sol\":9669:9778  _update(IERC20(token0).balanceOf(address(this)), IERC20(token1).balanceOf(address(this)), reserve0, reserve1) */\n      jump\t// in\n    tag_256:\n        /* \"UniswapV2Pair.sol\":1270:1271  1 */\n      0x01\n        /* \"UniswapV2Pair.sol\":1259:1267  unlocked */\n      0x0c\n        /* \"UniswapV2Pair.sol\":1259:1271  unlocked = 1 */\n      sstore\n        /* \"UniswapV2Pair.sol\":9629:9785  function sync() external lock {... */\n      jump\t// out\n        /* \"UniswapV2Pair.sol\":1517:1801  function _safeTransfer(address token, address to, uint value) private {... */\n    tag_126:\n        /* \"UniswapV2Pair.sol\":521:555  bytes('transfer(address,uint256)') */\n      0x40\n      dup1\n      mload\n      dup1\n      dup3\n      add\n      dup3\n      mstore\n      0x19\n      dup2\n      mstore\n      0x7472616e7366657228616464726573732c75696e743235362900000000000000\n      0x20\n      swap2\n      dup3\n      add\n      mstore\n        /* \"UniswapV2Pair.sol\":1644:1687  abi.encodeWithSelector(SELECTOR, to, value) */\n      dup2\n      mload\n        /* \"UniswapV2Pair.sol\":1633:1643  token.call */\n      0xffffffffffffffffffffffffffffffffffffffff\n        /* \"UniswapV2Pair.sol\":1644:1687  abi.encodeWithSelector(SELECTOR, to, value) */\n      dup6\n      dup2\n      and\n      0x24\n      dup4\n      add\n      mstore\n      0x44\n      dup1\n      dup4\n      add\n      dup7\n      swap1\n      mstore\n      dup5\n      mload\n        /* \"--CODEGEN--\":26:47   */\n      dup1\n      dup5\n      sub\n        /* \"--CODEGEN--\":22:54   */\n      swap1\n      swap2\n      add\n        /* \"--CODEGEN--\":6:55   */\n      dup2\n      mstore\n        /* \"UniswapV2Pair.sol\":1644:1687  abi.encodeWithSelector(SELECTOR, to, value) */\n      0x64\n      swap1\n      swap3\n      add\n      dup5\n      mstore\n        /* \"--CODEGEN--\":25:43   */\n      swap2\n      dup2\n      add\n        /* \"--CODEGEN--\":61:78   */\n      dup1\n      mload\n        /* \"UniswapV2Pair.sol\":1644:1687  abi.encodeWithSelector(SELECTOR, to, value) */\n      0xffffffffffffffffffffffffffffffffffffffffffffffffffffffff\n        /* \"--CODEGEN--\":182:197   */\n      and\n        /* \"UniswapV2Pair.sol\":1644:1687  abi.encodeWithSelector(SELECTOR, to, value) */\n      0xa9059cbb00000000000000000000000000000000000000000000000000000000\n        /* \"--CODEGEN--\":179:208   */\n      or\n        /* \"--CODEGEN--\":160:209   */\n      dup2\n      mstore\n        /* \"UniswapV2Pair.sol\":1633:1688  token.call(abi.encodeWithSelector(SELECTOR, to, value)) */\n      swap3\n      mload\n      dup2\n      mload\n        /* \"UniswapV2Pair.sol\":1598:1610  bool success */\n      0x00\n      swap5\n        /* \"UniswapV2Pair.sol\":1612:1629  bytes memory data */\n      0x60\n      swap5\n        /* \"UniswapV2Pair.sol\":1633:1643  token.call */\n      dup10\n      and\n      swap4\n        /* \"UniswapV2Pair.sol\":1644:1687  abi.encodeWithSelector(SELECTOR, to, value) */\n      swap3\n        /* \"UniswapV2Pair.sol\":1633:1688  token.call(abi.encodeWithSelector(SELECTOR, to, value)) */\n      swap2\n      dup3\n      swap2\n        /* \"--CODEGEN--\":25:43   */\n      swap1\n        /* \"UniswapV2Pair.sol\":1633:1688  token.call(abi.encodeWithSelector(SELECTOR, to, value)) */\n      dup1\n      dup4\n        /* \"--CODEGEN--\":25:43   */\n      dup4\n        /* \"--CODEGEN--\":36:189   */\n    tag_264:\n        /* \"--CODEGEN--\":66:68   */\n      0x20\n        /* \"--CODEGEN--\":61:64   */\n      dup4\n        /* \"--CODEGEN--\":58:69   */\n      lt\n        /* \"--CODEGEN--\":36:189   */\n      tag_266\n      jumpi\n        /* \"--CODEGEN--\":176:186   */\n      dup1\n      mload\n        /* \"--CODEGEN--\":164:187   */\n      dup3\n      mstore\n        /* \"--CODEGEN--\":139:151   */\n      0xffffffffffffffffffffffffffffffffffffffffffffffffffffffffffffffe0\n      swap1\n      swap3\n      add\n      swap2\n        /* \"--CODEGEN--\":98:100   */\n      0x20\n        /* \"--CODEGEN--\":89:101   */\n      swap2\n      dup3\n      add\n      swap2\n        /* \"--CODEGEN--\":114:126   */\n      add\n        /* \"--CODEGEN--\":36:189   */\n      jump(tag_264)\n    tag_266:\n        /* \"--CODEGEN--\":274:275   */\n      0x01\n        /* \"--CODEGEN--\":267:270   */\n      dup4\n        /* \"--CODEGEN--\":263:265   */\n      0x20\n        /* \"--CODEGEN--\":259:271   */\n      sub\n        /* \"--CODEGEN--\":254:257   */\n      0x0100\n        /* \"--CODEGEN--\":250:272   */\n      exp\n        /* \"--CODEGEN--\":246:276   */\n      sub\n        /* \"--CODEGEN--\":315:319   */\n      dup1\n        /* \"--CODEGEN--\":311:320   */\n      not\n        /* \"--CODEGEN--\":305:308   */\n      dup3\n        /* \"--CODEGEN--\":299:309   */\n      mload\n        /* \"--CODEGEN--\":295:321   */\n      and\n        /* \"--CODEGEN--\":356:360   */\n      dup2\n        /* \"--CODEGEN--\":350:353   */\n      dup5\n        /* \"--CODEGEN--\":344:354   */\n      mload\n        /* \"--CODEGEN--\":340:361   */\n      and\n        /* \"--CODEGEN--\":389:396   */\n      dup1\n        /* \"--CODEGEN--\":380:387   */\n      dup3\n        /* \"--CODEGEN--\":377:397   */\n      or\n        /* \"--CODEGEN--\":372:375   */\n      dup6\n        /* \"--CODEGEN--\":365:398   */\n      mstore\n        /* \"--CODEGEN--\":3:402   */\n      pop\n      pop\n      pop\n        /* \"UniswapV2Pair.sol\":1633:1688  token.call(abi.encodeWithSelector(SELECTOR, to, value)) */\n      pop\n      pop\n      pop\n      swap1\n      pop\n      add\n      swap2\n      pop\n      pop\n      0x00\n      mload(0x40)\n      dup1\n      dup4\n      sub\n      dup2\n      0x00\n      dup7\n      gas\n      call\n      swap2\n      pop\n      pop\n      returndatasize\n        /* \"--CODEGEN--\":14:15   */\n      dup1\n        /* \"--CODEGEN--\":21:22   */\n      0x00\n        /* \"--CODEGEN--\":16:47   */\n      dup2\n      eq\n      tag_268\n      jumpi\n        /* \"--CODEGEN--\":75:79   */\n      0x40\n        /* \"--CODEGEN--\":69:80   */\n      mload\n        /* \"--CODEGEN--\":64:80   */\n      swap2\n      pop\n        /* \"--CODEGEN--\":144:148   */\n      0x1f\n        /* \"--CODEGEN--\":140:149   */\n      not\n        /* \"--CODEGEN--\":133:137   */\n      0x3f\n        /* \"--CODEGEN--\":115:131   */\n      returndatasize\n        /* \"--CODEGEN--\":111:138   */\n      add\n        /* \"--CODEGEN--\":107:150   */\n      and\n        /* \"--CODEGEN--\":104:105   */\n      dup3\n        /* \"--CODEGEN--\":100:151   */\n      add\n        /* \"--CODEGEN--\":94:98   */\n      0x40\n        /* \"--CODEGEN--\":87:152   */\n      mstore\n        /* \"--CODEGEN--\":169:185   */\n      returndatasize\n        /* \"--CODEGEN--\":166:167   */\n      dup3\n        /* \"--CODEGEN--\":159:186   */\n      mstore\n        /* \"--CODEGEN--\":225:241   */\n      returndatasize\n        /* \"--CODEGEN--\":222:223   */\n      0x00\n        /* \"--CODEGEN--\":215:219   */\n      0x20\n        /* \"--CODEGEN--\":212:213   */\n      dup5\n        /* \"--CODEGEN--\":208:220   */\n      add\n        /* \"--CODEGEN--\":193:242   */\n      returndatacopy\n        /* \"--CODEGEN--\":7:249   */\n      jump(tag_267)\n        /* \"--CODEGEN--\":16:47   */\n    tag_268:\n        /* \"--CODEGEN--\":36:40   */\n      0x60\n        /* \"--CODEGEN--\":31:40   */\n      swap2\n      pop\n        /* \"--CODEGEN--\":7:249   */\n    tag_267:\n      pop\n        /* \"UniswapV2Pair.sol\":1597:1688  (bool success, bytes memory data) = token.call(abi.encodeWithSelector(SELECTOR, to, value)) */\n      swap2\n      pop\n      swap2\n      pop\n        /* \"UniswapV2Pair.sol\":1706:1713  success */\n      dup2\n        /* \"UniswapV2Pair.sol\":1706:1763  success && (data.length == 0 || abi.decode(data, (bool))) */\n      dup1\n      iszero\n      tag_270\n      jumpi\n      pop\n        /* \"UniswapV2Pair.sol\":1718:1729  data.length */\n      dup1\n      mload\n        /* \"UniswapV2Pair.sol\":1718:1734  data.length == 0 */\n      iszero\n      dup1\n        /* \"UniswapV2Pair.sol\":1718:1762  data.length == 0 || abi.decode(data, (bool)) */\n      tag_270\n      jumpi\n      pop\n        /* \"UniswapV2Pair.sol\":1749:1753  data */\n      dup1\n        /* \"UniswapV2Pair.sol\":1738:1762  abi.decode(data, (bool)) */\n      dup1\n      0x20\n      add\n      swap1\n      mload\n        /* \"--CODEGEN--\":13:15   */\n      0x20\n        /* \"--CODEGEN--\":8:11   */\n      dup2\n        /* \"--CODEGEN--\":5:16   */\n      lt\n        /* \"--CODEGEN--\":2:4   */\n      iszero\n      tag_271\n      jumpi\n        /* \"--CODEGEN--\":29:30   */\n      0x00\n        /* \"--CODEGEN--\":26:27   */\n      dup1\n        /* \"--CODEGEN--\":19:31   */\n      revert\n        /* \"--CODEGEN--\":2:4   */\n    tag_271:\n      pop\n        /* \"UniswapV2Pair.sol\":1738:1762  abi.decode(data, (bool)) */\n      mload\n        /* \"UniswapV2Pair.sol\":1718:1762  data.length == 0 || abi.decode(data, (bool)) */\n    tag_270:\n        /* \"UniswapV2Pair.sol\":1698:1794  require(success && (data.length == 0 || abi.decode(data, (bool))), 'UniswapV2: TRANSFER_FAILED') */\n      tag_272\n      jumpi\n      0x40\n      dup1\n      mload\n      0x08c379a000000000000000000000000000000000000000000000000000000000\n      dup2\n      mstore\n      0x20\n      0x04\n      dup3\n      add\n      mstore\n      0x1a\n      0x24\n      dup3\n      add\n      mstore\n      0x556e697377617056323a205452414e534645525f4641494c4544000000000000\n      0x44\n      dup3\n      add\n      mstore\n      swap1\n      mload\n      swap1\n      dup2\n      swap1\n      sub\n      0x64\n      add\n      swap1\n      revert\n    tag_272:\n        /* \"UniswapV2Pair.sol\":1517:1801  function _safeTransfer(address token, address to, uint value) private {... */\n      pop\n      pop\n      pop\n      pop\n      pop\n      jump\t// out\n        /* \"libraries/SafeMath.sol\":420:560  function mul(uint x, uint y) internal pure returns (uint z) {... */\n    tag_146:\n        /* \"libraries/SafeMath.sol\":472:478  uint z */\n      0x00\n        /* \"libraries/SafeMath.sol\":498:504  y == 0 */\n      dup2\n      iszero\n      dup1\n        /* \"libraries/SafeMath.sol\":498:528  y == 0 || (z = x * y) / y == x */\n      tag_274\n      jumpi\n      pop\n      pop\n        /* \"libraries/SafeMath.sol\":513:518  x * y */\n      dup1\n      dup3\n      mul\n        /* \"libraries/SafeMath.sol\":527:528  x */\n      dup3\n        /* \"libraries/SafeMath.sol\":522:523  y */\n      dup3\n        /* \"libraries/SafeMath.sol\":513:518  x * y */\n      dup3\n        /* \"libraries/SafeMath.sol\":522:523  y */\n      dup2\n        /* \"libraries/SafeMath.sol\":508:523  (z = x * y) / y */\n      tag_275\n      jumpi\n      invalid\n    tag_275:\n      div\n        /* \"libraries/SafeMath.sol\":508:528  (z = x * y) / y == x */\n      eq\n        /* \"libraries/SafeMath.sol\":498:528  y == 0 || (z = x * y) / y == x */\n    tag_274:\n        /* \"libraries/SafeMath.sol\":490:553  require(y == 0 || (z = x * y) / y == x, 'ds-math-mul-overflow') */\n      tag_159\n      jumpi\n      0x40\n      dup1\n      mload\n      0x08c379a000000000000000000000000000000000000000000000000000000000\n      dup2\n      mstore\n      0x20\n      0x04\n      dup3\n      add\n      mstore\n      0x14\n      0x24\n      dup3\n      add\n      mstore\n      0x64732d6d6174682d6d756c2d6f766572666c6f77000000000000000000000000\n      0x44\n      dup3\n      add\n      mstore\n      swap1\n      mload\n      swap1\n      dup2\n      swap1\n      sub\n      0x64\n      add\n      swap1\n      revert\n        /* \"libraries/SafeMath.sol\":287:414  function sub(uint x, uint y) internal pure returns (uint z) {... */\n    tag_148:\n        /* \"libraries/SafeMath.sol\":370:375  x - y */\n      dup1\n      dup3\n      sub\n        /* \"libraries/SafeMath.sol\":365:381  (z = x - y) <= x */\n      dup3\n      dup2\n      gt\n      iszero\n        /* \"libraries/SafeMath.sol\":357:407  require((z = x - y) <= x, 'ds-math-sub-underflow') */\n      tag_159\n      jumpi\n      0x40\n      dup1\n      mload\n      0x08c379a000000000000000000000000000000000000000000000000000000000\n      dup2\n      mstore\n      0x20\n      0x04\n      dup3\n      add\n      mstore\n      0x15\n      0x24\n      dup3\n      add\n      mstore\n      0x64732d6d6174682d7375622d756e646572666c6f770000000000000000000000\n      0x44\n      dup3\n      add\n      mstore\n      swap1\n      mload\n      swap1\n      dup2\n      swap1\n      sub\n      0x64\n      add\n      swap1\n      revert\n        /* \"UniswapV2Pair.sol\":2604:3451  function _update(uint balance0, uint balance1, uint112 _reserve0, uint112 _reserve1) private {... */\n    tag_157:\n        /* \"UniswapV2Pair.sol\":2715:2738  balance0 <= uint112(-1) */\n      0xffffffffffffffffffffffffffff\n      dup5\n      gt\n      dup1\n      iszero\n      swap1\n        /* \"UniswapV2Pair.sol\":2715:2765  balance0 <= uint112(-1) && balance1 <= uint112(-1) */\n      tag_280\n      jumpi\n      pop\n        /* \"UniswapV2Pair.sol\":2742:2765  balance1 <= uint112(-1) */\n      0xffffffffffffffffffffffffffff\n      dup4\n      gt\n      iszero\n        /* \"UniswapV2Pair.sol\":2715:2765  balance0 <= uint112(-1) && balance1 <= uint112(-1) */\n    tag_280:\n        /* \"UniswapV2Pair.sol\":2707:2789  require(balance0 <= uint112(-1) && balance1 <= uint112(-1), 'UniswapV2: OVERFLOW') */\n      tag_281\n      jumpi\n      0x40\n      dup1\n      mload\n      0x08c379a000000000000000000000000000000000000000000000000000000000\n      dup2\n      mstore\n      0x20\n      0x04\n      dup3\n      add\n      mstore\n      0x13\n      0x24\n      dup3\n      add\n      mstore\n      0x556e697377617056323a204f564552464c4f5700000000000000000000000000\n      0x44\n      dup3\n      add\n      mstore\n      swap1\n      mload\n      swap1\n      dup2\n      swap1\n      sub\n      0x64\n      add\n      swap1\n      revert\n    tag_281:\n        /* \"UniswapV2Pair.sol\":2902:2920  blockTimestampLast */\n      sload(0x08)\n        /* \"UniswapV2Pair.sol\":2830:2853  block.timestamp % 2**32 */\n      0xffffffff\n        /* \"UniswapV2Pair.sol\":2830:2845  block.timestamp */\n      timestamp\n        /* \"UniswapV2Pair.sol\":2830:2853  block.timestamp % 2**32 */\n      dup2\n      and\n      swap2\n        /* \"UniswapV2Pair.sol\":2902:2920  blockTimestampLast */\n      0x0100000000000000000000000000000000000000000000000000000000\n      swap1\n      div\n      dup2\n      and\n        /* \"UniswapV2Pair.sol\":2885:2920  blockTimestamp - blockTimestampLast */\n      dup3\n      sub\n      swap1\n        /* \"UniswapV2Pair.sol\":2957:2972  timeElapsed > 0 */\n      dup2\n      and\n      iszero\n      dup1\n      iszero\n      swap1\n        /* \"UniswapV2Pair.sol\":2957:2990  timeElapsed > 0 && _reserve0 != 0 */\n      tag_283\n      jumpi\n      pop\n        /* \"UniswapV2Pair.sol\":2976:2990  _reserve0 != 0 */\n      0xffffffffffffffffffffffffffff\n      dup5\n      and\n      iszero\n      iszero\n        /* \"UniswapV2Pair.sol\":2957:2990  timeElapsed > 0 && _reserve0 != 0 */\n    tag_283:\n        /* \"UniswapV2Pair.sol\":2957:3008  timeElapsed > 0 && _reserve0 != 0 && _reserve1 != 0 */\n      dup1\n      iszero\n      tag_284\n      jumpi\n      pop\n        /* \"UniswapV2Pair.sol\":2994:3008  _reserve1 != 0 */\n      0xffffffffffffffffffffffffffff\n      dup4\n      and\n      iszero\n      iszero\n        /* \"UniswapV2Pair.sol\":2957:3008  timeElapsed > 0 && _reserve0 != 0 && _reserve1 != 0 */\n    tag_284:\n        /* \"UniswapV2Pair.sol\":2953:3285  if (timeElapsed > 0 && _reserve0 != 0 && _reserve1 != 0) {... */\n      iszero\n      tag_285\n      jumpi\n        /* \"UniswapV2Pair.sol\":3161:3172  timeElapsed */\n      dup1\n        /* \"UniswapV2Pair.sol\":3108:3172  uint(UQ112x112.encode(_reserve1).uqdiv(_reserve0)) * timeElapsed */\n      0xffffffff\n      and\n        /* \"UniswapV2Pair.sol\":3113:3157  UQ112x112.encode(_reserve1).uqdiv(_reserve0) */\n      tag_286\n        /* \"UniswapV2Pair.sol\":3147:3156  _reserve0 */\n      dup6\n        /* \"UniswapV2Pair.sol\":3113:3140  UQ112x112.encode(_reserve1) */\n      tag_287\n        /* \"UniswapV2Pair.sol\":3130:3139  _reserve1 */\n      dup7\n        /* \"UniswapV2Pair.sol\":3113:3129  UQ112x112.encode */\n      tag_288\n        /* \"UniswapV2Pair.sol\":3113:3140  UQ112x112.encode(_reserve1) */\n      jump\t// in\n    tag_287:\n        /* \"UniswapV2Pair.sol\":3113:3146  UQ112x112.encode(_reserve1).uqdiv */\n      0xffffffffffffffffffffffffffffffffffffffffffffffffffffffff\n      and\n      swap1\n        /* \"UniswapV2Pair.sol\":3113:3157  UQ112x112.encode(_reserve1).uqdiv(_reserve0) */\n      0xffffffff\n        /* \"UniswapV2Pair.sol\":3113:3146  UQ112x112.encode(_reserve1).uqdiv */\n      tag_289\n        /* \"UniswapV2Pair.sol\":3113:3157  UQ112x112.encode(_reserve1).uqdiv(_reserve0) */\n      and\n      jump\t// in\n    tag_286:\n        /* \"UniswapV2Pair.sol\":3084:3104  price0CumulativeLast */\n      0x09\n        /* \"UniswapV2Pair.sol\":3084:3172  price0CumulativeLast += uint(UQ112x112.encode(_reserve1).uqdiv(_reserve0)) * timeElapsed */\n      dup1\n      sload\n        /* \"UniswapV2Pair.sol\":3108:3158  uint(UQ112x112.encode(_reserve1).uqdiv(_reserve0)) */\n      0xffffffffffffffffffffffffffffffffffffffffffffffffffffffff\n      swap3\n      swap1\n      swap3\n      and\n        /* \"UniswapV2Pair.sol\":3108:3172  uint(UQ112x112.encode(_reserve1).uqdiv(_reserve0)) * timeElapsed */\n      swap3\n      swap1\n      swap3\n      mul\n        /* \"UniswapV2Pair.sol\":3084:3172  price0CumulativeLast += uint(UQ112x112.encode(_reserve1).uqdiv(_reserve0)) * timeElapsed */\n      add\n      swap1\n      sstore\n        /* \"UniswapV2Pair.sol\":3210:3274  uint(UQ112x112.encode(_reserve0).uqdiv(_reserve1)) * timeElapsed */\n      0xffffffff\n      dup2\n      and\n        /* \"UniswapV2Pair.sol\":3215:3259  UQ112x112.encode(_reserve0).uqdiv(_reserve1) */\n      tag_290\n        /* \"UniswapV2Pair.sol\":3249:3258  _reserve1 */\n      dup5\n        /* \"UniswapV2Pair.sol\":3215:3242  UQ112x112.encode(_reserve0) */\n      tag_287\n        /* \"UniswapV2Pair.sol\":3232:3241  _reserve0 */\n      dup8\n        /* \"UniswapV2Pair.sol\":3215:3231  UQ112x112.encode */\n      tag_288\n        /* \"UniswapV2Pair.sol\":3215:3242  UQ112x112.encode(_reserve0) */\n      jump\t// in\n        /* \"UniswapV2Pair.sol\":3215:3259  UQ112x112.encode(_reserve0).uqdiv(_reserve1) */\n    tag_290:\n        /* \"UniswapV2Pair.sol\":3186:3206  price1CumulativeLast */\n      0x0a\n        /* \"UniswapV2Pair.sol\":3186:3274  price1CumulativeLast += uint(UQ112x112.encode(_reserve0).uqdiv(_reserve1)) * timeElapsed */\n      dup1\n      sload\n        /* \"UniswapV2Pair.sol\":3210:3260  uint(UQ112x112.encode(_reserve0).uqdiv(_reserve1)) */\n      0xffffffffffffffffffffffffffffffffffffffffffffffffffffffff\n      swap3\n      swap1\n      swap3\n      and\n        /* \"UniswapV2Pair.sol\":3210:3274  uint(UQ112x112.encode(_reserve0).uqdiv(_reserve1)) * timeElapsed */\n      swap3\n      swap1\n      swap3\n      mul\n        /* \"UniswapV2Pair.sol\":3186:3274  price1CumulativeLast += uint(UQ112x112.encode(_reserve0).uqdiv(_reserve1)) * timeElapsed */\n      add\n      swap1\n      sstore\n        /* \"UniswapV2Pair.sol\":2953:3285  if (timeElapsed > 0 && _reserve0 != 0 && _reserve1 != 0) {... */\n    tag_285:\n        /* \"UniswapV2Pair.sol\":3294:3302  reserve0 */\n      0x08\n        /* \"UniswapV2Pair.sol\":3294:3322  reserve0 = uint112(balance0) */\n      dup1\n      sload\n      0xffffffffffffffffffffffffffffffffffff0000000000000000000000000000\n      and\n      0xffffffffffffffffffffffffffff\n      dup9\n      dup2\n      and\n      swap2\n      swap1\n      swap2\n      or\n        /* \"UniswapV2Pair.sol\":3332:3360  reserve1 = uint112(balance1) */\n      0xffffffff0000000000000000000000000000ffffffffffffffffffffffffffff\n      and\n      0x010000000000000000000000000000\n      dup9\n      dup4\n      and\n      dup2\n      mul\n      swap2\n      swap1\n      swap2\n      or\n        /* \"UniswapV2Pair.sol\":3370:3405  blockTimestampLast = blockTimestamp */\n      0xffffffffffffffffffffffffffffffffffffffffffffffffffffffff\n      and\n      0x0100000000000000000000000000000000000000000000000000000000\n      0xffffffff\n      dup8\n      and\n      mul\n      or\n      swap3\n      dup4\n      swap1\n      sstore\n        /* \"UniswapV2Pair.sol\":3420:3444  Sync(reserve0, reserve1) */\n      0x40\n      dup1\n      mload\n        /* \"UniswapV2Pair.sol\":3425:3433  reserve0 */\n      dup5\n      dup5\n      and\n        /* \"UniswapV2Pair.sol\":3420:3444  Sync(reserve0, reserve1) */\n      dup2\n      mstore\n        /* \"UniswapV2Pair.sol\":3435:3443  reserve1 */\n      swap2\n      swap1\n      swap4\n      div\n      swap1\n      swap2\n      and\n        /* \"UniswapV2Pair.sol\":3420:3444  Sync(reserve0, reserve1) */\n      0x20\n      dup3\n      add\n      mstore\n      dup2\n      mload\n      0x1c411e9a96e071241c2f21f7726b17ae89e3cab4c78be50e062b03a9fffbbad1\n      swap3\n      swap2\n      dup2\n      swap1\n      sub\n      swap1\n      swap2\n      add\n      swap1\n      log1\n        /* \"UniswapV2Pair.sol\":2604:3451  function _update(uint balance0, uint balance1, uint112 _reserve0, uint112 _reserve1) private {... */\n      pop\n      pop\n      pop\n      pop\n      pop\n      pop\n      jump\t// out\n        /* \"UniswapV2ERC20.sol\":1783:1949  function _approve(address owner, address spender, uint value) private {... */\n    tag_161:\n        /* \"UniswapV2ERC20.sol\":1863:1879  allowance[owner] */\n      0xffffffffffffffffffffffffffffffffffffffff\n      dup1\n      dup5\n      and\n      0x00\n      dup2\n      dup2\n      mstore\n        /* \"UniswapV2ERC20.sol\":1863:1872  allowance */\n      0x02\n        /* \"UniswapV2ERC20.sol\":1863:1879  allowance[owner] */\n      0x20\n      swap1\n      dup2\n      mstore\n      0x40\n      dup1\n      dup4\n      keccak256\n        /* \"UniswapV2ERC20.sol\":1863:1888  allowance[owner][spender] */\n      swap5\n      dup8\n      and\n      dup1\n      dup5\n      mstore\n      swap5\n      dup3\n      mstore\n      swap2\n      dup3\n      swap1\n      keccak256\n        /* \"UniswapV2ERC20.sol\":1863:1896  allowance[owner][spender] = value */\n      dup6\n      swap1\n      sstore\n        /* \"UniswapV2ERC20.sol\":1911:1942  Approval(owner, spender, value) */\n      dup2\n      mload\n      dup6\n      dup2\n      mstore\n      swap2\n      mload\n      0x8c5be1e5ebec7d5bd14f71427d1e84f3dd0314c0f7b2291e5b200ac8c7c3b925\n      swap3\n      dup2\n      swap1\n      sub\n      swap1\n      swap2\n      add\n      swap1\n      log3\n        /* \"UniswapV2ERC20.sol\":1783:1949  function _approve(address owner, address spender, uint value) private {... */\n      pop\n      pop\n      pop\n      jump\t// out\n        /* \"UniswapV2ERC20.sol\":1955:2171  function _transfer(address from, address to, uint value) private {... */\n    tag_166:\n        /* \"UniswapV2ERC20.sol\":2048:2063  balanceOf[from] */\n      0xffffffffffffffffffffffffffffffffffffffff\n      dup4\n      and\n      0x00\n      swap1\n      dup2\n      mstore\n        /* \"UniswapV2ERC20.sol\":2048:2057  balanceOf */\n      0x01\n        /* \"UniswapV2ERC20.sol\":2048:2063  balanceOf[from] */\n      0x20\n      mstore\n      0x40\n      swap1\n      keccak256\n      sload\n        /* \"UniswapV2ERC20.sol\":2048:2074  balanceOf[from].sub(value) */\n      tag_294\n      swap1\n        /* \"UniswapV2ERC20.sol\":2068:2073  value */\n      dup3\n        /* \"UniswapV2ERC20.sol\":2048:2074  balanceOf[from].sub(value) */\n      0xffffffff\n        /* \"UniswapV2ERC20.sol\":2048:2067  balanceOf[from].sub */\n      tag_148\n        /* \"UniswapV2ERC20.sol\":2048:2074  balanceOf[from].sub(value) */\n      and\n      jump\t// in\n    tag_294:\n        /* \"UniswapV2ERC20.sol\":2030:2045  balanceOf[from] */\n      0xffffffffffffffffffffffffffffffffffffffff\n      dup1\n      dup6\n      and\n      0x00\n      swap1\n      dup2\n      mstore\n        /* \"UniswapV2ERC20.sol\":2030:2039  balanceOf */\n      0x01\n        /* \"UniswapV2ERC20.sol\":2030:2045  balanceOf[from] */\n      0x20\n      mstore\n      0x40\n      dup1\n      dup3\n      keccak256\n        /* \"UniswapV2ERC20.sol\":2030:2074  balanceOf[from] = balanceOf[from].sub(value) */\n      swap4\n      swap1\n      swap4\n      sstore\n        /* \"UniswapV2ERC20.sol\":2100:2113  balanceOf[to] */\n      swap1\n      dup5\n      and\n      dup2\n      mstore\n      keccak256\n      sload\n        /* \"UniswapV2ERC20.sol\":2100:2124  balanceOf[to].add(value) */\n      tag_295\n      swap1\n        /* \"UniswapV2ERC20.sol\":2118:2123  value */\n      dup3\n        /* \"UniswapV2ERC20.sol\":2100:2124  balanceOf[to].add(value) */\n      0xffffffff\n        /* \"UniswapV2ERC20.sol\":2100:2117  balanceOf[to].add */\n      tag_296\n        /* \"UniswapV2ERC20.sol\":2100:2124  balanceOf[to].add(value) */\n      and\n      jump\t// in\n    tag_295:\n        /* \"UniswapV2ERC20.sol\":2084:2097  balanceOf[to] */\n      0xffffffffffffffffffffffffffffffffffffffff\n      dup1\n      dup5\n      and\n      0x00\n      dup2\n      dup2\n      mstore\n        /* \"UniswapV2ERC20.sol\":2084:2093  balanceOf */\n      0x01\n        /* \"UniswapV2ERC20.sol\":2084:2097  balanceOf[to] */\n      0x20\n      swap1\n      dup2\n      mstore\n      0x40\n      swap2\n      dup3\n      swap1\n      keccak256\n        /* \"UniswapV2ERC20.sol\":2084:2124  balanceOf[to] = balanceOf[to].add(value) */\n      swap5\n      swap1\n      swap5\n      sstore\n        /* \"UniswapV2ERC20.sol\":2139:2164  Transfer(from, to, value) */\n      dup1\n      mload\n      dup6\n      dup2\n      mstore\n      swap1\n      mload\n        /* \"UniswapV2ERC20.sol\":2084:2097  balanceOf[to] */\n      swap2\n      swap4\n        /* \"UniswapV2ERC20.sol\":2139:2164  Transfer(from, to, value) */\n      swap3\n      dup8\n      and\n      swap3\n      0xddf252ad1be2c89b69c2b068fc378daa952ba7f163c4a11628f55a4df523b3ef\n      swap3\n      swap2\n      dup3\n      swap1\n      sub\n      add\n      swap1\n      log3\n        /* \"UniswapV2ERC20.sol\":1955:2171  function _transfer(address from, address to, uint value) private {... */\n      pop\n      pop\n      pop\n      jump\t// out\n        /* \"UniswapV2Pair.sol\":3538:4357  function _mintFee(uint112 _reserve0, uint112 _reserve1) private returns (bool feeOn) {... */\n    tag_182:\n        /* \"UniswapV2Pair.sol\":3611:3621  bool feeOn */\n      0x00\n        /* \"UniswapV2Pair.sol\":3633:3646  address feeTo */\n      dup1\n        /* \"UniswapV2Pair.sol\":3667:3674  factory */\n      0x05\n      0x00\n      swap1\n      sload\n      swap1\n      0x0100\n      exp\n      swap1\n      div\n      0xffffffffffffffffffffffffffffffffffffffff\n      and\n        /* \"UniswapV2Pair.sol\":3649:3681  IUniswapV2Factory(factory).feeTo */\n      0xffffffffffffffffffffffffffffffffffffffff\n      and\n      0x017e7e58\n        /* \"UniswapV2Pair.sol\":3649:3683  IUniswapV2Factory(factory).feeTo() */\n      mload(0x40)\n      dup2\n      0xffffffff\n      and\n      0xe0\n      shl\n      dup2\n      mstore\n      0x04\n      add\n      0x20\n      mload(0x40)\n      dup1\n      dup4\n      sub\n      dup2\n      dup7\n      dup1\n      extcodesize\n      iszero\n        /* \"--CODEGEN--\":8:17   */\n      dup1\n        /* \"--CODEGEN--\":5:7   */\n      iszero\n      tag_298\n      jumpi\n        /* \"--CODEGEN--\":30:31   */\n      0x00\n        /* \"--CODEGEN--\":27:28   */\n      dup1\n        /* \"--CODEGEN--\":20:32   */\n      revert\n        /* \"--CODEGEN--\":5:7   */\n    tag_298:\n        /* \"UniswapV2Pair.sol\":3649:3683  IUniswapV2Factory(factory).feeTo() */\n      pop\n      gas\n      staticcall\n      iszero\n        /* \"--CODEGEN--\":8:17   */\n      dup1\n        /* \"--CODEGEN--\":5:7   */\n      iszero\n      tag_299\n      jumpi\n        /* \"--CODEGEN--\":45:61   */\n      returndatasize\n        /* \"--CODEGEN--\":42:43   */\n      0x00\n        /* \"--CODEGEN--\":39:40   */\n      dup1\n        /* \"--CODEGEN--\":24:62   */\n      returndatacopy\n        /* \"--CODEGEN--\":77:93   */\n      returndatasize\n        /* \"--CODEGEN--\":74:75   */\n      0x00\n        /* \"--CODEGEN--\":67:94   */\n      revert\n        /* \"--CODEGEN--\":5:7   */\n    tag_299:\n        /* \"UniswapV2Pair.sol\":3649:3683  IUniswapV2Factory(factory).feeTo() */\n      pop\n      pop\n      pop\n      pop\n      mload(0x40)\n      returndatasize\n        /* \"--CODEGEN--\":13:15   */\n      0x20\n        /* \"--CODEGEN--\":8:11   */\n      dup2\n        /* \"--CODEGEN--\":5:16   */\n      lt\n        /* \"--CODEGEN--\":2:4   */\n      iszero\n      tag_300\n      jumpi\n        /* \"--CODEGEN--\":29:30   */\n      0x00\n        /* \"--CODEGEN--\":26:27   */\n      dup1\n        /* \"--CODEGEN--\":19:31   */\n      revert\n        /* \"--CODEGEN--\":2:4   */\n    tag_300:\n      pop\n        /* \"UniswapV2Pair.sol\":3649:3683  IUniswapV2Factory(factory).feeTo() */\n      mload\n        /* \"UniswapV2Pair.sol\":3744:3749  kLast */\n      sload(0x0b)\n        /* \"UniswapV2Pair.sol\":3701:3720  feeTo != address(0) */\n      0xffffffffffffffffffffffffffffffffffffffff\n      dup3\n      and\n      iszero\n      dup1\n      iszero\n      swap5\n      pop\n        /* \"UniswapV2Pair.sol\":3649:3683  IUniswapV2Factory(factory).feeTo() */\n      swap2\n      swap3\n      pop\n        /* \"UniswapV2Pair.sol\":3744:3749  kLast */\n      swap1\n        /* \"UniswapV2Pair.sol\":3774:4351  if (feeOn) {... */\n      tag_301\n      jumpi\n        /* \"UniswapV2Pair.sol\":3803:3814  _kLast != 0 */\n      dup1\n      iszero\n        /* \"UniswapV2Pair.sol\":3799:4284  if (_kLast != 0) {... */\n      tag_302\n      jumpi\n        /* \"UniswapV2Pair.sol\":3834:3844  uint rootK */\n      0x00\n        /* \"UniswapV2Pair.sol\":3847:3888  Math.sqrt(uint(_reserve0).mul(_reserve1)) */\n      tag_303\n        /* \"UniswapV2Pair.sol\":3857:3887  uint(_reserve0).mul(_reserve1) */\n      tag_186\n      0xffffffffffffffffffffffffffff\n        /* \"UniswapV2Pair.sol\":3857:3872  uint(_reserve0) */\n      dup9\n      dup2\n      and\n      swap1\n        /* \"UniswapV2Pair.sol\":3857:3887  uint(_reserve0).mul(_reserve1) */\n      dup9\n      and\n      0xffffffff\n        /* \"UniswapV2Pair.sol\":3857:3876  uint(_reserve0).mul */\n      tag_146\n        /* \"UniswapV2Pair.sol\":3857:3887  uint(_reserve0).mul(_reserve1) */\n      and\n      jump\t// in\n        /* \"UniswapV2Pair.sol\":3847:3888  Math.sqrt(uint(_reserve0).mul(_reserve1)) */\n    tag_303:\n        /* \"UniswapV2Pair.sol\":3834:3888  uint rootK = Math.sqrt(uint(_reserve0).mul(_reserve1)) */\n      swap1\n      pop\n        /* \"UniswapV2Pair.sol\":3906:3920  uint rootKLast */\n      0x00\n        /* \"UniswapV2Pair.sol\":3923:3940  Math.sqrt(_kLast) */\n      tag_305\n        /* \"UniswapV2Pair.sol\":3933:3939  _kLast */\n      dup4\n        /* \"UniswapV2Pair.sol\":3923:3932  Math.sqrt */\n      tag_187\n        /* \"UniswapV2Pair.sol\":3923:3940  Math.sqrt(_kLast) */\n      jump\t// in\n    tag_305:\n        /* \"UniswapV2Pair.sol\":3906:3940  uint rootKLast = Math.sqrt(_kLast) */\n      swap1\n      pop\n        /* \"UniswapV2Pair.sol\":3970:3979  rootKLast */\n      dup1\n        /* \"UniswapV2Pair.sol\":3962:3967  rootK */\n      dup3\n        /* \"UniswapV2Pair.sol\":3962:3979  rootK > rootKLast */\n      gt\n        /* \"UniswapV2Pair.sol\":3958:4270  if (rootK > rootKLast) {... */\n      iszero\n      tag_306\n      jumpi\n        /* \"UniswapV2Pair.sol\":4003:4017  uint numerator */\n      0x00\n        /* \"UniswapV2Pair.sol\":4020:4057  totalSupply.mul(rootK.sub(rootKLast)) */\n      tag_307\n        /* \"UniswapV2Pair.sol\":4036:4056  rootK.sub(rootKLast) */\n      tag_308\n        /* \"UniswapV2Pair.sol\":4036:4041  rootK */\n      dup5\n        /* \"UniswapV2Pair.sol\":4046:4055  rootKLast */\n      dup5\n        /* \"UniswapV2Pair.sol\":4036:4056  rootK.sub(rootKLast) */\n      0xffffffff\n        /* \"UniswapV2Pair.sol\":4036:4045  rootK.sub */\n      tag_148\n        /* \"UniswapV2Pair.sol\":4036:4056  rootK.sub(rootKLast) */\n      and\n      jump\t// in\n    tag_308:\n        /* \"UniswapV2Pair.sol\":4020:4031  totalSupply */\n      sload(0x00)\n      swap1\n        /* \"UniswapV2Pair.sol\":4020:4057  totalSupply.mul(rootK.sub(rootKLast)) */\n      0xffffffff\n        /* \"UniswapV2Pair.sol\":4020:4035  totalSupply.mul */\n      tag_146\n        /* \"UniswapV2Pair.sol\":4020:4057  totalSupply.mul(rootK.sub(rootKLast)) */\n      and\n      jump\t// in\n    tag_307:\n        /* \"UniswapV2Pair.sol\":4003:4057  uint numerator = totalSupply.mul(rootK.sub(rootKLast)) */\n      swap1\n      pop\n        /* \"UniswapV2Pair.sol\":4079:4095  uint denominator */\n      0x00\n        /* \"UniswapV2Pair.sol\":4098:4125  rootK.mul(5).add(rootKLast) */\n      tag_309\n        /* \"UniswapV2Pair.sol\":4115:4124  rootKLast */\n      dup4\n        /* \"UniswapV2Pair.sol\":4098:4110  rootK.mul(5) */\n      tag_310\n        /* \"UniswapV2Pair.sol\":4098:4103  rootK */\n      dup7\n        /* \"UniswapV2Pair.sol\":4108:4109  5 */\n      0x05\n        /* \"UniswapV2Pair.sol\":4098:4110  rootK.mul(5) */\n      0xffffffff\n        /* \"UniswapV2Pair.sol\":4098:4107  rootK.mul */\n      tag_146\n        /* \"UniswapV2Pair.sol\":4098:4110  rootK.mul(5) */\n      and\n      jump\t// in\n    tag_310:\n        /* \"UniswapV2Pair.sol\":4098:4114  rootK.mul(5).add */\n      swap1\n        /* \"UniswapV2Pair.sol\":4098:4125  rootK.mul(5).add(rootKLast) */\n      0xffffffff\n        /* \"UniswapV2Pair.sol\":4098:4114  rootK.mul(5).add */\n      tag_296\n        /* \"UniswapV2Pair.sol\":4098:4125  rootK.mul(5).add(rootKLast) */\n      and\n      jump\t// in\n    tag_309:\n        /* \"UniswapV2Pair.sol\":4079:4125  uint denominator = rootK.mul(5).add(rootKLast) */\n      swap1\n      pop\n        /* \"UniswapV2Pair.sol\":4147:4161  uint liquidity */\n      0x00\n        /* \"UniswapV2Pair.sol\":4176:4187  denominator */\n      dup2\n        /* \"UniswapV2Pair.sol\":4164:4173  numerator */\n      dup4\n        /* \"UniswapV2Pair.sol\":4164:4187  numerator / denominator */\n      dup2\n      tag_311\n      jumpi\n      invalid\n    tag_311:\n      div\n      swap1\n      pop\n        /* \"UniswapV2Pair.sol\":4213:4226  liquidity > 0 */\n      dup1\n      iszero\n        /* \"UniswapV2Pair.sol\":4209:4251  if (liquidity > 0) _mint(feeTo, liquidity) */\n      tag_313\n      jumpi\n        /* \"UniswapV2Pair.sol\":4228:4251  _mint(feeTo, liquidity) */\n      tag_313\n        /* \"UniswapV2Pair.sol\":4234:4239  feeTo */\n      dup8\n        /* \"UniswapV2Pair.sol\":4241:4250  liquidity */\n      dup3\n        /* \"UniswapV2Pair.sol\":4228:4233  _mint */\n      tag_189\n        /* \"UniswapV2Pair.sol\":4228:4251  _mint(feeTo, liquidity) */\n      jump\t// in\n    tag_313:\n        /* \"UniswapV2Pair.sol\":3958:4270  if (rootK > rootKLast) {... */\n      pop\n      pop\n      pop\n    tag_306:\n        /* \"UniswapV2Pair.sol\":3799:4284  if (_kLast != 0) {... */\n      pop\n      pop\n    tag_302:\n        /* \"UniswapV2Pair.sol\":3774:4351  if (feeOn) {... */\n      jump(tag_315)\n    tag_301:\n        /* \"UniswapV2Pair.sol\":4304:4315  _kLast != 0 */\n      dup1\n      iszero\n        /* \"UniswapV2Pair.sol\":4300:4351  if (_kLast != 0) {... */\n      tag_315\n      jumpi\n        /* \"UniswapV2Pair.sol\":4339:4340  0 */\n      0x00\n        /* \"UniswapV2Pair.sol\":4331:4336  kLast */\n      0x0b\n        /* \"UniswapV2Pair.sol\":4331:4340  kLast = 0 */\n      sstore\n        /* \"UniswapV2Pair.sol\":4300:4351  if (_kLast != 0) {... */\n    tag_315:\n        /* \"UniswapV2Pair.sol\":3538:4357  function _mintFee(uint112 _reserve0, uint112 _reserve1) private returns (bool feeOn) {... */\n      pop\n      pop\n      swap3\n      swap2\n      pop\n      pop\n      jump\t// out\n        /* \"libraries/Math.sol\":307:599  function sqrt(uint y) internal pure returns (uint z) {... */\n    tag_187:\n        /* \"libraries/Math.sol\":352:358  uint z */\n      0x00\n        /* \"libraries/Math.sol\":378:379  3 */\n      0x03\n        /* \"libraries/Math.sol\":374:375  y */\n      dup3\n        /* \"libraries/Math.sol\":374:379  y > 3 */\n      gt\n        /* \"libraries/Math.sol\":370:593  if (y > 3) {... */\n      iszero\n      tag_317\n      jumpi\n      pop\n        /* \"libraries/Math.sol\":399:400  y */\n      dup1\n        /* \"libraries/Math.sol\":431:432  1 */\n      0x01\n        /* \"libraries/Math.sol\":427:428  2 */\n      0x02\n        /* \"libraries/Math.sol\":423:428  y / 2 */\n      dup3\n      div\n        /* \"libraries/Math.sol\":423:432  y / 2 + 1 */\n      add\n        /* \"libraries/Math.sol\":446:535  while (x < z) {... */\n    tag_319:\n        /* \"libraries/Math.sol\":457:458  z */\n      dup2\n        /* \"libraries/Math.sol\":453:454  x */\n      dup2\n        /* \"libraries/Math.sol\":453:458  x < z */\n      lt\n        /* \"libraries/Math.sol\":446:535  while (x < z) {... */\n      iszero\n      tag_320\n      jumpi\n        /* \"libraries/Math.sol\":482:483  x */\n      dup1\n        /* \"libraries/Math.sol\":478:483  z = x */\n      swap2\n      pop\n        /* \"libraries/Math.sol\":519:520  2 */\n      0x02\n        /* \"libraries/Math.sol\":514:515  x */\n      dup2\n        /* \"libraries/Math.sol\":510:511  x */\n      dup3\n        /* \"libraries/Math.sol\":506:507  y */\n      dup6\n        /* \"libraries/Math.sol\":506:511  y / x */\n      dup2\n      tag_321\n      jumpi\n      invalid\n    tag_321:\n      div\n        /* \"libraries/Math.sol\":506:515  y / x + x */\n      add\n        /* \"libraries/Math.sol\":505:520  (y / x + x) / 2 */\n      dup2\n      tag_322\n      jumpi\n      invalid\n    tag_322:\n      div\n        /* \"libraries/Math.sol\":501:520  x = (y / x + x) / 2 */\n      swap1\n      pop\n        /* \"libraries/Math.sol\":446:535  while (x < z) {... */\n      jump(tag_319)\n    tag_320:\n        /* \"libraries/Math.sol\":370:593  if (y > 3) {... */\n      pop\n      jump(tag_324)\n    tag_317:\n        /* \"libraries/Math.sol\":555:561  y != 0 */\n      dup2\n      iszero\n        /* \"libraries/Math.sol\":551:593  if (y != 0) {... */\n      tag_324\n      jumpi\n      pop\n        /* \"libraries/Math.sol\":581:582  1 */\n      0x01\n        /* \"libraries/Math.sol\":551:593  if (y != 0) {... */\n    tag_324:\n        /* \"libraries/Math.sol\":307:599  function sqrt(uint y) internal pure returns (uint z) {... */\n      swap2\n      swap1\n      pop\n      jump\t// out\n        /* \"UniswapV2ERC20.sol\":1369:1566  function _mint(address to, uint value) internal {... */\n    tag_189:\n        /* \"UniswapV2ERC20.sol\":1441:1452  totalSupply */\n      sload(0x00)\n        /* \"UniswapV2ERC20.sol\":1441:1463  totalSupply.add(value) */\n      tag_326\n      swap1\n        /* \"UniswapV2ERC20.sol\":1457:1462  value */\n      dup3\n        /* \"UniswapV2ERC20.sol\":1441:1463  totalSupply.add(value) */\n      0xffffffff\n        /* \"UniswapV2ERC20.sol\":1441:1456  totalSupply.add */\n      tag_296\n        /* \"UniswapV2ERC20.sol\":1441:1463  totalSupply.add(value) */\n      and\n      jump\t// in\n    tag_326:\n        /* \"UniswapV2ERC20.sol\":1427:1438  totalSupply */\n      0x00\n        /* \"UniswapV2ERC20.sol\":1427:1463  totalSupply = totalSupply.add(value) */\n      swap1\n      dup2\n      sstore\n        /* \"UniswapV2ERC20.sol\":1489:1502  balanceOf[to] */\n      0xffffffffffffffffffffffffffffffffffffffff\n      dup4\n      and\n      dup2\n      mstore\n        /* \"UniswapV2ERC20.sol\":1489:1498  balanceOf */\n      0x01\n        /* \"UniswapV2ERC20.sol\":1489:1502  balanceOf[to] */\n      0x20\n      mstore\n      0x40\n      swap1\n      keccak256\n      sload\n        /* \"UniswapV2ERC20.sol\":1489:1513  balanceOf[to].add(value) */\n      tag_327\n      swap1\n        /* \"UniswapV2ERC20.sol\":1507:1512  value */\n      dup3\n        /* \"UniswapV2ERC20.sol\":1489:1513  balanceOf[to].add(value) */\n      0xffffffff\n        /* \"UniswapV2ERC20.sol\":1489:1506  balanceOf[to].add */\n      tag_296\n        /* \"UniswapV2ERC20.sol\":1489:1513  balanceOf[to].add(value) */\n      and\n      jump\t// in\n    tag_327:\n        /* \"UniswapV2ERC20.sol\":1473:1486  balanceOf[to] */\n      0xffffffffffffffffffffffffffffffffffffffff\n      dup4\n      and\n      0x00\n      dup2\n      dup2\n      mstore\n        /* \"UniswapV2ERC20.sol\":1473:1482  balanceOf */\n      0x01\n        /* \"UniswapV2ERC20.sol\":1473:1486  balanceOf[to] */\n      0x20\n      swap1\n      dup2\n      mstore\n      0x40\n      dup1\n      dup4\n      keccak256\n        /* \"UniswapV2ERC20.sol\":1473:1513  balanceOf[to] = balanceOf[to].add(value) */\n      swap5\n      swap1\n      swap5\n      sstore\n        /* \"UniswapV2ERC20.sol\":1528:1559  Transfer(address(0), to, value) */\n      dup4\n      mload\n      dup6\n      dup2\n      mstore\n      swap4\n      mload\n        /* \"UniswapV2ERC20.sol\":1473:1486  balanceOf[to] */\n      swap3\n      swap4\n      swap2\n      swap3\n        /* \"UniswapV2ERC20.sol\":1528:1559  Transfer(address(0), to, value) */\n      0xddf252ad1be2c89b69c2b068fc378daa952ba7f163c4a11628f55a4df523b3ef\n      swap3\n      dup2\n      swap1\n      sub\n      swap1\n      swap2\n      add\n      swap1\n      log3\n        /* \"UniswapV2ERC20.sol\":1369:1566  function _mint(address to, uint value) internal {... */\n      pop\n      pop\n      jump\t// out\n        /* \"libraries/Math.sol\":98:192  function min(uint x, uint y) internal pure returns (uint z) {... */\n    tag_196:\n        /* \"libraries/Math.sol\":150:156  uint z */\n      0x00\n        /* \"libraries/Math.sol\":176:177  y */\n      dup2\n        /* \"libraries/Math.sol\":172:173  x */\n      dup4\n        /* \"libraries/Math.sol\":172:177  x < y */\n      lt\n        /* \"libraries/Math.sol\":172:185  x < y ? x : y */\n      tag_329\n      jumpi\n        /* \"libraries/Math.sol\":184:185  y */\n      dup2\n        /* \"libraries/Math.sol\":172:185  x < y ? x : y */\n      jump(tag_330)\n    tag_329:\n        /* \"libraries/Math.sol\":180:181  x */\n      dup3\n        /* \"libraries/Math.sol\":172:185  x < y ? x : y */\n    tag_330:\n        /* \"libraries/Math.sol\":168:185  z = x < y ? x : y */\n      swap4\n        /* \"libraries/Math.sol\":98:192  function min(uint x, uint y) internal pure returns (uint z) {... */\n      swap3\n      pop\n      pop\n      pop\n      jump\t// out\n        /* \"UniswapV2ERC20.sol\":1572:1777  function _burn(address from, uint value) internal {... */\n    tag_220:\n        /* \"UniswapV2ERC20.sol\":1650:1665  balanceOf[from] */\n      0xffffffffffffffffffffffffffffffffffffffff\n      dup3\n      and\n      0x00\n      swap1\n      dup2\n      mstore\n        /* \"UniswapV2ERC20.sol\":1650:1659  balanceOf */\n      0x01\n        /* \"UniswapV2ERC20.sol\":1650:1665  balanceOf[from] */\n      0x20\n      mstore\n      0x40\n      swap1\n      keccak256\n      sload\n        /* \"UniswapV2ERC20.sol\":1650:1676  balanceOf[from].sub(value) */\n      tag_332\n      swap1\n        /* \"UniswapV2ERC20.sol\":1670:1675  value */\n      dup3\n        /* \"UniswapV2ERC20.sol\":1650:1676  balanceOf[from].sub(value) */\n      0xffffffff\n        /* \"UniswapV2ERC20.sol\":1650:1669  balanceOf[from].sub */\n      tag_148\n        /* \"UniswapV2ERC20.sol\":1650:1676  balanceOf[from].sub(value) */\n      and\n      jump\t// in\n    tag_332:\n        /* \"UniswapV2ERC20.sol\":1632:1647  balanceOf[from] */\n      0xffffffffffffffffffffffffffffffffffffffff\n      dup4\n      and\n      0x00\n      swap1\n      dup2\n      mstore\n        /* \"UniswapV2ERC20.sol\":1632:1641  balanceOf */\n      0x01\n        /* \"UniswapV2ERC20.sol\":1632:1647  balanceOf[from] */\n      0x20\n      mstore\n      0x40\n      dup2\n      keccak256\n        /* \"UniswapV2ERC20.sol\":1632:1676  balanceOf[from] = balanceOf[from].sub(value) */\n      swap2\n      swap1\n      swap2\n      sstore\n        /* \"UniswapV2ERC20.sol\":1700:1711  totalSupply */\n      sload\n        /* \"UniswapV2ERC20.sol\":1700:1722  totalSupply.sub(value) */\n      tag_333\n      swap1\n        /* \"UniswapV2ERC20.sol\":1716:1721  value */\n      dup3\n        /* \"UniswapV2ERC20.sol\":1700:1722  totalSupply.sub(value) */\n      0xffffffff\n        /* \"UniswapV2ERC20.sol\":1700:1715  totalSupply.sub */\n      tag_148\n        /* \"UniswapV2ERC20.sol\":1700:1722  totalSupply.sub(value) */\n      and\n      jump\t// in\n    tag_333:\n        /* \"UniswapV2ERC20.sol\":1686:1697  totalSupply */\n      0x00\n        /* \"UniswapV2ERC20.sol\":1686:1722  totalSupply = totalSupply.sub(value) */\n      swap1\n      dup2\n      sstore\n        /* \"UniswapV2ERC20.sol\":1737:1770  Transfer(from, address(0), value) */\n      0x40\n      dup1\n      mload\n      dup4\n      dup2\n      mstore\n      swap1\n      mload\n      0xffffffffffffffffffffffffffffffffffffffff\n      dup6\n      and\n      swap2\n      0xddf252ad1be2c89b69c2b068fc378daa952ba7f163c4a11628f55a4df523b3ef\n      swap2\n      swap1\n      dup2\n      swap1\n      sub\n      0x20\n      add\n      swap1\n      log3\n        /* \"UniswapV2ERC20.sol\":1572:1777  function _burn(address from, uint value) internal {... */\n      pop\n      pop\n      jump\t// out\n        /* \"libraries/UQ112x112.sol\":283:401  function encode(uint112 y) internal pure returns (uint224 z) {... */\n    tag_288:\n        /* \"libraries/UQ112x112.sol\":358:368  uint224(y) */\n      0xffffffffffffffffffffffffffff\n      and\n        /* \"libraries/UQ112x112.sol\":231:237  2**112 */\n      0x010000000000000000000000000000\n        /* \"libraries/UQ112x112.sol\":358:375  uint224(y) * Q112 */\n      mul\n      swap1\n        /* \"libraries/UQ112x112.sol\":283:401  function encode(uint112 y) internal pure returns (uint224 z) {... */\n      jump\t// out\n        /* \"libraries/UQ112x112.sol\":469:575  function uqdiv(uint224 x, uint112 y) internal pure returns (uint224 z) {... */\n    tag_289:\n        /* \"libraries/UQ112x112.sol\":529:538  uint224 z */\n      0x00\n        /* \"libraries/UQ112x112.sol\":558:568  uint224(y) */\n      0xffffffffffffffffffffffffffff\n      dup3\n      and\n        /* \"libraries/UQ112x112.sol\":554:568  x / uint224(y) */\n      0xffffffffffffffffffffffffffffffffffffffffffffffffffffffff\n      dup5\n      and\n        /* \"libraries/UQ112x112.sol\":558:568  uint224(y) */\n      dup2\n        /* \"libraries/UQ112x112.sol\":554:568  x / uint224(y) */\n      tag_336\n      jumpi\n      invalid\n    tag_336:\n      div\n      swap4\n        /* \"libraries/UQ112x112.sol\":469:575  function uqdiv(uint224 x, uint112 y) internal pure returns (uint224 z) {... */\n      swap3\n      pop\n      pop\n      pop\n      jump\t// out\n        /* \"libraries/SafeMath.sol\":155:281  function add(uint x, uint y) internal pure returns (uint z) {... */\n    tag_296:\n        /* \"libraries/SafeMath.sol\":238:243  x + y */\n      dup1\n      dup3\n      add\n        /* \"libraries/SafeMath.sol\":233:249  (z = x + y) >= x */\n      dup3\n      dup2\n      lt\n      iszero\n        /* \"libraries/SafeMath.sol\":225:274  require((z = x + y) >= x, 'ds-math-add-overflow') */\n      tag_159\n      jumpi\n      0x40\n      dup1\n      mload\n      0x08c379a000000000000000000000000000000000000000000000000000000000\n      dup2\n      mstore\n      0x20\n      0x04\n      dup3\n      add\n      mstore\n      0x14\n      0x24\n      dup3\n      add\n      mstore\n      0x64732d6d6174682d6164642d6f766572666c6f77000000000000000000000000\n      0x44\n      dup3\n      add\n      mstore\n      swap1\n      mload\n      swap1\n      dup2\n      swap1\n      sub\n      0x64\n      add\n      swap1\n      revert\n    stop\n    data_05339493da7e2cbe77e17beadf6b91132eb307939495f5f1797bf88d95539e83 556e697377617056323a20494e53554646494349454e545f4f55545055545f414d4f554e54\n    data_10e2efc32d8a31d3b2c11a545b3ed09c2dbabc58ef6de4033929d0002e425b67 556e697377617056323a20494e53554646494349454e545f494e5055545f414d4f554e54\n    data_3f354ef449b2a9b081220ce21f57691008110b653edc191d8288e60cef58bb5f 556e697377617056323a20494e53554646494349454e545f4c4951554944495459\n    data_57ebfb4dd8b5082cdba0f23c17077e3b0ecb9782a51e0e9a15e9bc8c4b30c562 556e697377617056323a20494e53554646494349454e545f4c49515549444954595f4255524e4544\n    data_6591c9f5bf1fefaad109b76a20e25c857b696080c952191f86220f001a83663e 556e697377617056323a20494e53554646494349454e545f4c49515549444954595f4d494e544544\n\n    auxdata: 0xa265627a7a723158203a68b3755d9ab5c240a50e39c44d92acafc3bf040bfaa8266d250e8b0cff458164736f6c63430005100032\n}\n",
				"bytecode": {
					"linkReferences": {},
					"object": "60806040526001600c5534801561001557600080fd5b506040514690806052612d228239604080519182900360520182208282018252600a8352692ab734b9bbb0b8102b1960b11b6020938401528151808301835260018152603160f81b908401528151808401919091527fbfcc8ef98ffbf7b6c3fec7bf5185b566b9863e35a9d83acd49ad6824b5969738818301527fc89efdaa54c0f20c7adf612882df0950f5a951637e0307cdcb4c672f298b8bc6606082015260808101949094523060a0808601919091528151808603909101815260c09094019052825192019190912060035550600580546001600160a01b03191633179055612c1d806101056000396000f3fe608060405234801561001057600080fd5b50600436106101b95760003560e01c80636a627842116100f9578063ba9a7a5611610097578063d21220a711610071578063d21220a7146105da578063d505accf146105e2578063dd62ed3e14610640578063fff6cae91461067b576101b9565b8063ba9a7a5614610597578063bc25cf771461059f578063c45a0155146105d2576101b9565b80637ecebe00116100d35780637ecebe00146104d757806389afcb441461050a57806395d89b4114610556578063a9059cbb1461055e576101b9565b80636a6278421461046957806370a082311461049c5780637464fc3d146104cf576101b9565b806323b872dd116101665780633644e515116101405780633644e51514610416578063485cc9551461041e5780635909c0d5146104595780635a3d549314610461576101b9565b806323b872dd146103ad57806330adf81f146103f0578063313ce567146103f8576101b9565b8063095ea7b311610197578063095ea7b3146103155780630dfe16811461036257806318160ddd14610393576101b9565b8063022c0d9f146101be57806306fdde03146102595780630902f1ac146102d6575b600080fd5b610257600480360360808110156101d457600080fd5b81359160208101359173ffffffffffffffffffffffffffffffffffffffff604083013516919081019060808101606082013564010000000081111561021857600080fd5b82018360208201111561022a57600080fd5b8035906020019184600183028401116401000000008311171561024c57600080fd5b509092509050610683565b005b610261610d57565b6040805160208082528351818301528351919283929083019185019080838360005b8381101561029b578181015183820152602001610283565b50505050905090810190601f1680156102c85780820380516001836020036101000a031916815260200191505b509250505060405180910390f35b6102de610d90565b604080516dffffffffffffffffffffffffffff948516815292909316602083015263ffffffff168183015290519081900360600190f35b61034e6004803603604081101561032b57600080fd5b5073ffffffffffffffffffffffffffffffffffffffff8135169060200135610de5565b604080519115158252519081900360200190f35b61036a610dfc565b6040805173ffffffffffffffffffffffffffffffffffffffff9092168252519081900360200190f35b61039b610e18565b60408051918252519081900360200190f35b61034e600480360360608110156103c357600080fd5b5073ffffffffffffffffffffffffffffffffffffffff813581169160208101359091169060400135610e1e565b61039b610efd565b610400610f21565b6040805160ff9092168252519081900360200190f35b61039b610f26565b6102576004803603604081101561043457600080fd5b5073ffffffffffffffffffffffffffffffffffffffff81358116916020013516610f2c565b61039b611005565b61039b61100b565b61039b6004803603602081101561047f57600080fd5b503573ffffffffffffffffffffffffffffffffffffffff16611011565b61039b600480360360208110156104b257600080fd5b503573ffffffffffffffffffffffffffffffffffffffff166113cb565b61039b6113dd565b61039b600480360360208110156104ed57600080fd5b503573ffffffffffffffffffffffffffffffffffffffff166113e3565b61053d6004803603602081101561052057600080fd5b503573ffffffffffffffffffffffffffffffffffffffff166113f5565b6040805192835260208301919091528051918290030190f35b610261611892565b61034e6004803603604081101561057457600080fd5b5073ffffffffffffffffffffffffffffffffffffffff81351690602001356118cb565b61039b6118d8565b610257600480360360208110156105b557600080fd5b503573ffffffffffffffffffffffffffffffffffffffff166118de565b61036a611ad4565b61036a611af0565b610257600480360360e08110156105f857600080fd5b5073ffffffffffffffffffffffffffffffffffffffff813581169160208101359091169060408101359060608101359060ff6080820135169060a08101359060c00135611b0c565b61039b6004803603604081101561065657600080fd5b5073ffffffffffffffffffffffffffffffffffffffff81358116916020013516611dd8565b610257611df5565b600c546001146106f457604080517f08c379a000000000000000000000000000000000000000000000000000000000815260206004820152601160248201527f556e697377617056323a204c4f434b4544000000000000000000000000000000604482015290519081900360640190fd5b6000600c55841515806107075750600084115b61075c576040517f08c379a0000000000000000000000000000000000000000000000000000000008152600401808060200182810382526025815260200180612b2f6025913960400191505060405180910390fd5b600080610767610d90565b5091509150816dffffffffffffffffffffffffffff168710801561079a5750806dffffffffffffffffffffffffffff1686105b6107ef576040517f08c379a0000000000000000000000000000000000000000000000000000000008152600401808060200182810382526021815260200180612b786021913960400191505060405180910390fd5b600654600754600091829173ffffffffffffffffffffffffffffffffffffffff91821691908116908916821480159061085457508073ffffffffffffffffffffffffffffffffffffffff168973ffffffffffffffffffffffffffffffffffffffff1614155b6108bf57604080517f08c379a000000000000000000000000000000000000000000000000000000000815260206004820152601560248201527f556e697377617056323a20494e56414c49445f544f0000000000000000000000604482015290519081900360640190fd5b8a156108d0576108d0828a8d611fdb565b89156108e1576108e1818a8c611fdb565b86156109c3578873ffffffffffffffffffffffffffffffffffffffff166310d1e85c338d8d8c8c6040518663ffffffff1660e01b8152600401808673ffffffffffffffffffffffffffffffffffffffff1673ffffffffffffffffffffffffffffffffffffffff168152602001858152602001848152602001806020018281038252848482818152602001925080828437600081840152601f19601f8201169050808301925050509650505050505050600060405180830381600087803b1580156109aa57600080fd5b505af11580156109be573d6000803e3d6000fd5b505050505b604080517f70a08231000000000000000000000000000000000000000000000000000000008152306004820152905173ffffffffffffffffffffffffffffffffffffffff8416916370a08231916024808301926020929190829003018186803b158015610a2f57600080fd5b505afa158015610a43573d6000803e3d6000fd5b505050506040513d6020811015610a5957600080fd5b5051604080517f70a08231000000000000000000000000000000000000000000000000000000008152306004820152905191955073ffffffffffffffffffffffffffffffffffffffff8316916370a0823191602480820192602092909190829003018186803b158015610acb57600080fd5b505afa158015610adf573d6000803e3d6000fd5b505050506040513d6020811015610af557600080fd5b5051925060009150506dffffffffffffffffffffffffffff85168a90038311610b1f576000610b35565b89856dffffffffffffffffffffffffffff160383035b9050600089856dffffffffffffffffffffffffffff16038311610b59576000610b6f565b89856dffffffffffffffffffffffffffff160383035b90506000821180610b805750600081115b610bd5576040517f08c379a0000000000000000000000000000000000000000000000000000000008152600401808060200182810382526024815260200180612b546024913960400191505060405180910390fd5b6000610c09610beb84600363ffffffff6121e816565b610bfd876103e863ffffffff6121e816565b9063ffffffff61226e16565b90506000610c21610beb84600363ffffffff6121e816565b9050610c59620f4240610c4d6dffffffffffffffffffffffffffff8b8116908b1663ffffffff6121e816565b9063ffffffff6121e816565b610c69838363ffffffff6121e816565b1015610cd657604080517f08c379a000000000000000000000000000000000000000000000000000000000815260206004820152600c60248201527f556e697377617056323a204b0000000000000000000000000000000000000000604482015290519081900360640190fd5b5050610ce4848488886122e0565b60408051838152602081018390528082018d9052606081018c9052905173ffffffffffffffffffffffffffffffffffffffff8b169133917fd78ad95fa46c994b6551d0da85fc275fe613ce37657fb8d5e3d130840159d8229181900360800190a350506001600c55505050505050505050565b6040518060400160405280600a81526020017f556e69737761702056320000000000000000000000000000000000000000000081525081565b6008546dffffffffffffffffffffffffffff808216926e0100000000000000000000000000008304909116917c0100000000000000000000000000000000000000000000000000000000900463ffffffff1690565b6000610df233848461259c565b5060015b92915050565b60065473ffffffffffffffffffffffffffffffffffffffff1681565b60005481565b73ffffffffffffffffffffffffffffffffffffffff831660009081526002602090815260408083203384529091528120547fffffffffffffffffffffffffffffffffffffffffffffffffffffffffffffffff14610ee85773ffffffffffffffffffffffffffffffffffffffff84166000908152600260209081526040808320338452909152902054610eb6908363ffffffff61226e16565b73ffffffffffffffffffffffffffffffffffffffff851660009081526002602090815260408083203384529091529020555b610ef384848461260b565b5060019392505050565b7f6e71edae12b1b97f4d1f60370fef10105fa2faae0126114a169c64845d6126c981565b601281565b60035481565b60055473ffffffffffffffffffffffffffffffffffffffff163314610fb257604080517f08c379a000000000000000000000000000000000000000000000000000000000815260206004820152601460248201527f556e697377617056323a20464f5242494444454e000000000000000000000000604482015290519081900360640190fd5b6006805473ffffffffffffffffffffffffffffffffffffffff9384167fffffffffffffffffffffffff00000000000000000000000000000000000000009182161790915560078054929093169116179055565b60095481565b600a5481565b6000600c5460011461108457604080517f08c379a000000000000000000000000000000000000000000000000000000000815260206004820152601160248201527f556e697377617056323a204c4f434b4544000000000000000000000000000000604482015290519081900360640190fd5b6000600c81905580611094610d90565b50600654604080517f70a08231000000000000000000000000000000000000000000000000000000008152306004820152905193955091935060009273ffffffffffffffffffffffffffffffffffffffff909116916370a08231916024808301926020929190829003018186803b15801561110e57600080fd5b505afa158015611122573d6000803e3d6000fd5b505050506040513d602081101561113857600080fd5b5051600754604080517f70a08231000000000000000000000000000000000000000000000000000000008152306004820152905192935060009273ffffffffffffffffffffffffffffffffffffffff909216916370a0823191602480820192602092909190829003018186803b1580156111b157600080fd5b505afa1580156111c5573d6000803e3d6000fd5b505050506040513d60208110156111db57600080fd5b505190506000611201836dffffffffffffffffffffffffffff871663ffffffff61226e16565b90506000611225836dffffffffffffffffffffffffffff871663ffffffff61226e16565b9050600061123387876126ec565b600054909150806112705761125c6103e8610bfd611257878763ffffffff6121e816565b612878565b985061126b60006103e86128ca565b6112cd565b6112ca6dffffffffffffffffffffffffffff8916611294868463ffffffff6121e816565b8161129b57fe5b046dffffffffffffffffffffffffffff89166112bd868563ffffffff6121e816565b816112c457fe5b0461297a565b98505b60008911611326576040517f08c379a0000000000000000000000000000000000000000000000000000000008152600401808060200182810382526028815260200180612bc16028913960400191505060405180910390fd5b6113308a8a6128ca565b61133c86868a8a6122e0565b811561137e5760085461137a906dffffffffffffffffffffffffffff808216916e01000000000000000000000000000090041663ffffffff6121e816565b600b555b6040805185815260208101859052815133927f4c209b5fc8ad50758f13e2e1088ba56a560dff690a1c6fef26394f4c03821c4f928290030190a250506001600c5550949695505050505050565b60016020526000908152604090205481565b600b5481565b60046020526000908152604090205481565b600080600c5460011461146957604080517f08c379a000000000000000000000000000000000000000000000000000000000815260206004820152601160248201527f556e697377617056323a204c4f434b4544000000000000000000000000000000604482015290519081900360640190fd5b6000600c81905580611479610d90565b50600654600754604080517f70a08231000000000000000000000000000000000000000000000000000000008152306004820152905194965092945073ffffffffffffffffffffffffffffffffffffffff9182169391169160009184916370a08231916024808301926020929190829003018186803b1580156114fb57600080fd5b505afa15801561150f573d6000803e3d6000fd5b505050506040513d602081101561152557600080fd5b5051604080517f70a08231000000000000000000000000000000000000000000000000000000008152306004820152905191925060009173ffffffffffffffffffffffffffffffffffffffff8516916370a08231916024808301926020929190829003018186803b15801561159957600080fd5b505afa1580156115ad573d6000803e3d6000fd5b505050506040513d60208110156115c357600080fd5b5051306000908152600160205260408120549192506115e288886126ec565b600054909150806115f9848763ffffffff6121e816565b8161160057fe5b049a5080611614848663ffffffff6121e816565b8161161b57fe5b04995060008b11801561162e575060008a115b611683576040517f08c379a0000000000000000000000000000000000000000000000000000000008152600401808060200182810382526028815260200180612b996028913960400191505060405180910390fd5b61168d3084612992565b611698878d8d611fdb565b6116a3868d8c611fdb565b604080517f70a08231000000000000000000000000000000000000000000000000000000008152306004820152905173ffffffffffffffffffffffffffffffffffffffff8916916370a08231916024808301926020929190829003018186803b15801561170f57600080fd5b505afa158015611723573d6000803e3d6000fd5b505050506040513d602081101561173957600080fd5b5051604080517f70a08231000000000000000000000000000000000000000000000000000000008152306004820152905191965073ffffffffffffffffffffffffffffffffffffffff8816916370a0823191602480820192602092909190829003018186803b1580156117ab57600080fd5b505afa1580156117bf573d6000803e3d6000fd5b505050506040513d60208110156117d557600080fd5b505193506117e585858b8b6122e0565b811561182757600854611823906dffffffffffffffffffffffffffff808216916e01000000000000000000000000000090041663ffffffff6121e816565b600b555b604080518c8152602081018c9052815173ffffffffffffffffffffffffffffffffffffffff8f169233927fdccd412f0b1252819cb1fd330b93224ca42612892bb3f4f789976e6d81936496929081900390910190a35050505050505050506001600c81905550915091565b6040518060400160405280600681526020017f554e492d5632000000000000000000000000000000000000000000000000000081525081565b6000610df233848461260b565b6103e881565b600c5460011461194f57604080517f08c379a000000000000000000000000000000000000000000000000000000000815260206004820152601160248201527f556e697377617056323a204c4f434b4544000000000000000000000000000000604482015290519081900360640190fd5b6000600c55600654600754600854604080517f70a08231000000000000000000000000000000000000000000000000000000008152306004820152905173ffffffffffffffffffffffffffffffffffffffff9485169490931692611a2b9285928792611a26926dffffffffffffffffffffffffffff169185916370a0823191602480820192602092909190829003018186803b1580156119ee57600080fd5b505afa158015611a02573d6000803e3d6000fd5b505050506040513d6020811015611a1857600080fd5b50519063ffffffff61226e16565b611fdb565b600854604080517f70a082310000000000000000000000000000000000000000000000000000000081523060048201529051611aca9284928792611a26926e01000000000000000000000000000090046dffffffffffffffffffffffffffff169173ffffffffffffffffffffffffffffffffffffffff8616916370a0823191602480820192602092909190829003018186803b1580156119ee57600080fd5b50506001600c5550565b60055473ffffffffffffffffffffffffffffffffffffffff1681565b60075473ffffffffffffffffffffffffffffffffffffffff1681565b42841015611b7b57604080517f08c379a000000000000000000000000000000000000000000000000000000000815260206004820152601260248201527f556e697377617056323a20455850495245440000000000000000000000000000604482015290519081900360640190fd5b60035473ffffffffffffffffffffffffffffffffffffffff80891660008181526004602090815260408083208054600180820190925582517f6e71edae12b1b97f4d1f60370fef10105fa2faae0126114a169c64845d6126c98186015280840196909652958d166060860152608085018c905260a085019590955260c08085018b90528151808603909101815260e0850182528051908301207f19010000000000000000000000000000000000000000000000000000000000006101008601526101028501969096526101228085019690965280518085039096018652610142840180825286519683019690962095839052610162840180825286905260ff89166101828501526101a284018890526101c28401879052519193926101e2808201937fffffffffffffffffffffffffffffffffffffffffffffffffffffffffffffffe081019281900390910190855afa158015611cdc573d6000803e3d6000fd5b50506040517fffffffffffffffffffffffffffffffffffffffffffffffffffffffffffffffe0015191505073ffffffffffffffffffffffffffffffffffffffff811615801590611d5757508873ffffffffffffffffffffffffffffffffffffffff168173ffffffffffffffffffffffffffffffffffffffff16145b611dc257604080517f08c379a000000000000000000000000000000000000000000000000000000000815260206004820152601c60248201527f556e697377617056323a20494e56414c49445f5349474e415455524500000000604482015290519081900360640190fd5b611dcd89898961259c565b505050505050505050565b600260209081526000928352604080842090915290825290205481565b600c54600114611e6657604080517f08c379a000000000000000000000000000000000000000000000000000000000815260206004820152601160248201527f556e697377617056323a204c4f434b4544000000000000000000000000000000604482015290519081900360640190fd5b6000600c55600654604080517f70a082310000000000000000000000000000000000000000000000000000000081523060048201529051611fd49273ffffffffffffffffffffffffffffffffffffffff16916370a08231916024808301926020929190829003018186803b158015611edd57600080fd5b505afa158015611ef1573d6000803e3d6000fd5b505050506040513d6020811015611f0757600080fd5b5051600754604080517f70a08231000000000000000000000000000000000000000000000000000000008152306004820152905173ffffffffffffffffffffffffffffffffffffffff909216916370a0823191602480820192602092909190829003018186803b158015611f7a57600080fd5b505afa158015611f8e573d6000803e3d6000fd5b505050506040513d6020811015611fa457600080fd5b50516008546dffffffffffffffffffffffffffff808216916e0100000000000000000000000000009004166122e0565b6001600c55565b604080518082018252601981527f7472616e7366657228616464726573732c75696e743235362900000000000000602091820152815173ffffffffffffffffffffffffffffffffffffffff85811660248301526044808301869052845180840390910181526064909201845291810180517bffffffffffffffffffffffffffffffffffffffffffffffffffffffff167fa9059cbb000000000000000000000000000000000000000000000000000000001781529251815160009460609489169392918291908083835b602083106120e157805182527fffffffffffffffffffffffffffffffffffffffffffffffffffffffffffffffe090920191602091820191016120a4565b6001836020036101000a0380198251168184511680821785525050505050509050019150506000604051808303816000865af19150503d8060008114612143576040519150601f19603f3d011682016040523d82523d6000602084013e612148565b606091505b5091509150818015612176575080511580612176575080806020019051602081101561217357600080fd5b50515b6121e157604080517f08c379a000000000000000000000000000000000000000000000000000000000815260206004820152601a60248201527f556e697377617056323a205452414e534645525f4641494c4544000000000000604482015290519081900360640190fd5b5050505050565b60008115806122035750508082028282828161220057fe5b04145b610df657604080517f08c379a000000000000000000000000000000000000000000000000000000000815260206004820152601460248201527f64732d6d6174682d6d756c2d6f766572666c6f77000000000000000000000000604482015290519081900360640190fd5b80820382811115610df657604080517f08c379a000000000000000000000000000000000000000000000000000000000815260206004820152601560248201527f64732d6d6174682d7375622d756e646572666c6f770000000000000000000000604482015290519081900360640190fd5b6dffffffffffffffffffffffffffff841180159061230c57506dffffffffffffffffffffffffffff8311155b61237757604080517f08c379a000000000000000000000000000000000000000000000000000000000815260206004820152601360248201527f556e697377617056323a204f564552464c4f5700000000000000000000000000604482015290519081900360640190fd5b60085463ffffffff428116917c0100000000000000000000000000000000000000000000000000000000900481168203908116158015906123c757506dffffffffffffffffffffffffffff841615155b80156123e257506dffffffffffffffffffffffffffff831615155b15612492578063ffffffff16612425856123fb86612a57565b7bffffffffffffffffffffffffffffffffffffffffffffffffffffffff169063ffffffff612a7b16565b600980547bffffffffffffffffffffffffffffffffffffffffffffffffffffffff929092169290920201905563ffffffff8116612465846123fb87612a57565b600a80547bffffffffffffffffffffffffffffffffffffffffffffffffffffffff92909216929092020190555b600880547fffffffffffffffffffffffffffffffffffff0000000000000000000000000000166dffffffffffffffffffffffffffff888116919091177fffffffff0000000000000000000000000000ffffffffffffffffffffffffffff166e0100000000000000000000000000008883168102919091177bffffffffffffffffffffffffffffffffffffffffffffffffffffffff167c010000000000000000000000000000000000000000000000000000000063ffffffff871602179283905560408051848416815291909304909116602082015281517f1c411e9a96e071241c2f21f7726b17ae89e3cab4c78be50e062b03a9fffbbad1929181900390910190a1505050505050565b73ffffffffffffffffffffffffffffffffffffffff808416600081815260026020908152604080832094871680845294825291829020859055815185815291517f8c5be1e5ebec7d5bd14f71427d1e84f3dd0314c0f7b2291e5b200ac8c7c3b9259281900390910190a3505050565b73ffffffffffffffffffffffffffffffffffffffff8316600090815260016020526040902054612641908263ffffffff61226e16565b73ffffffffffffffffffffffffffffffffffffffff8085166000908152600160205260408082209390935590841681522054612683908263ffffffff612abc16565b73ffffffffffffffffffffffffffffffffffffffff80841660008181526001602090815260409182902094909455805185815290519193928716927fddf252ad1be2c89b69c2b068fc378daa952ba7f163c4a11628f55a4df523b3ef92918290030190a3505050565b600080600560009054906101000a900473ffffffffffffffffffffffffffffffffffffffff1673ffffffffffffffffffffffffffffffffffffffff1663017e7e586040518163ffffffff1660e01b815260040160206040518083038186803b15801561275757600080fd5b505afa15801561276b573d6000803e3d6000fd5b505050506040513d602081101561278157600080fd5b5051600b5473ffffffffffffffffffffffffffffffffffffffff821615801594509192509061286457801561285f5760006127d86112576dffffffffffffffffffffffffffff88811690881663ffffffff6121e816565b905060006127e583612878565b90508082111561285c576000612813612804848463ffffffff61226e16565b6000549063ffffffff6121e816565b905060006128388361282c86600563ffffffff6121e816565b9063ffffffff612abc16565b9050600081838161284557fe5b04905080156128585761285887826128ca565b5050505b50505b612870565b8015612870576000600b555b505092915050565b600060038211156128bb575080600160028204015b818110156128b5578091506002818285816128a457fe5b0401816128ad57fe5b04905061288d565b506128c5565b81156128c5575060015b919050565b6000546128dd908263ffffffff612abc16565b600090815573ffffffffffffffffffffffffffffffffffffffff8316815260016020526040902054612915908263ffffffff612abc16565b73ffffffffffffffffffffffffffffffffffffffff831660008181526001602090815260408083209490945583518581529351929391927fddf252ad1be2c89b69c2b068fc378daa952ba7f163c4a11628f55a4df523b3ef9281900390910190a35050565b6000818310612989578161298b565b825b9392505050565b73ffffffffffffffffffffffffffffffffffffffff82166000908152600160205260409020546129c8908263ffffffff61226e16565b73ffffffffffffffffffffffffffffffffffffffff831660009081526001602052604081209190915554612a02908263ffffffff61226e16565b600090815560408051838152905173ffffffffffffffffffffffffffffffffffffffff8516917fddf252ad1be2c89b69c2b068fc378daa952ba7f163c4a11628f55a4df523b3ef919081900360200190a35050565b6dffffffffffffffffffffffffffff166e0100000000000000000000000000000290565b60006dffffffffffffffffffffffffffff82167bffffffffffffffffffffffffffffffffffffffffffffffffffffffff841681612ab457fe5b049392505050565b80820182811015610df657604080517f08c379a000000000000000000000000000000000000000000000000000000000815260206004820152601460248201527f64732d6d6174682d6164642d6f766572666c6f77000000000000000000000000604482015290519081900360640190fdfe556e697377617056323a20494e53554646494349454e545f4f55545055545f414d4f554e54556e697377617056323a20494e53554646494349454e545f494e5055545f414d4f554e54556e697377617056323a20494e53554646494349454e545f4c4951554944495459556e697377617056323a20494e53554646494349454e545f4c49515549444954595f4255524e4544556e697377617056323a20494e53554646494349454e545f4c49515549444954595f4d494e544544a265627a7a723158203a68b3755d9ab5c240a50e39c44d92acafc3bf040bfaa8266d250e8b0cff458164736f6c63430005100032454950373132446f6d61696e28737472696e67206e616d652c737472696e672076657273696f6e2c75696e7432353620636861696e49642c6164647265737320766572696679696e67436f6e747261637429",
					"opcodes": "PUSH1 0x80 PUSH1 0x40 MSTORE PUSH1 0x1 PUSH1 0xC SSTORE CALLVALUE DUP1 ISZERO PUSH2 0x15 JUMPI PUSH1 0x0 DUP1 REVERT JUMPDEST POP PUSH1 0x40 MLOAD CHAINID SWAP1 DUP1 PUSH1 0x52 PUSH2 0x2D22 DUP3 CODECOPY PUSH1 0x40 DUP1 MLOAD SWAP2 DUP3 SWAP1 SUB PUSH1 0x52 ADD DUP3 KECCAK256 DUP3 DUP3 ADD DUP3 MSTORE PUSH1 0xA DUP4 MSTORE PUSH10 0x2AB734B9BBB0B8102B19 PUSH1 0xB1 SHL PUSH1 0x20 SWAP4 DUP5 ADD MSTORE DUP2 MLOAD DUP1 DUP4 ADD DUP4 MSTORE PUSH1 0x1 DUP2 MSTORE PUSH1 0x31 PUSH1 0xF8 SHL SWAP1 DUP5 ADD MSTORE DUP2 MLOAD DUP1 DUP5 ADD SWAP2 SWAP1 SWAP2 MSTORE PUSH32 0xBFCC8EF98FFBF7B6C3FEC7BF5185B566B9863E35A9D83ACD49AD6824B5969738 DUP2 DUP4 ADD MSTORE PUSH32 0xC89EFDAA54C0F20C7ADF612882DF0950F5A951637E0307CDCB4C672F298B8BC6 PUSH1 0x60 DUP3 ADD MSTORE PUSH1 0x80 DUP2 ADD SWAP5 SWAP1 SWAP5 MSTORE ADDRESS PUSH1 0xA0 DUP1 DUP7 ADD SWAP2 SWAP1 SWAP2 MSTORE DUP2 MLOAD DUP1 DUP7 SUB SWAP1 SWAP2 ADD DUP2 MSTORE PUSH1 0xC0 SWAP1 SWAP5 ADD SWAP1 MSTORE DUP3 MLOAD SWAP3 ADD SWAP2 SWAP1 SWAP2 KECCAK256 PUSH1 0x3 SSTORE POP PUSH1 0x5 DUP1 SLOAD PUSH1 0x1 PUSH1 0x1 PUSH1 0xA0 SHL SUB NOT AND CALLER OR SWAP1 SSTORE PUSH2 0x2C1D DUP1 PUSH2 0x105 PUSH1 0x0 CODECOPY PUSH1 0x0 RETURN INVALID PUSH1 0x80 PUSH1 0x40 MSTORE CALLVALUE DUP1 ISZERO PUSH2 0x10 JUMPI PUSH1 0x0 DUP1 REVERT JUMPDEST POP PUSH1 0x4 CALLDATASIZE LT PUSH2 0x1B9 JUMPI PUSH1 0x0 CALLDATALOAD PUSH1 0xE0 SHR DUP1 PUSH4 0x6A627842 GT PUSH2 0xF9 JUMPI DUP1 PUSH4 0xBA9A7A56 GT PUSH2 0x97 JUMPI DUP1 PUSH4 0xD21220A7 GT PUSH2 0x71 JUMPI DUP1 PUSH4 0xD21220A7 EQ PUSH2 0x5DA JUMPI DUP1 PUSH4 0xD505ACCF EQ PUSH2 0x5E2 JUMPI DUP1 PUSH4 0xDD62ED3E EQ PUSH2 0x640 JUMPI DUP1 PUSH4 0xFFF6CAE9 EQ PUSH2 0x67B JUMPI PUSH2 0x1B9 JUMP JUMPDEST DUP1 PUSH4 0xBA9A7A56 EQ PUSH2 0x597 JUMPI DUP1 PUSH4 0xBC25CF77 EQ PUSH2 0x59F JUMPI DUP1 PUSH4 0xC45A0155 EQ PUSH2 0x5D2 JUMPI PUSH2 0x1B9 JUMP JUMPDEST DUP1 PUSH4 0x7ECEBE00 GT PUSH2 0xD3 JUMPI DUP1 PUSH4 0x7ECEBE00 EQ PUSH2 0x4D7 JUMPI DUP1 PUSH4 0x89AFCB44 EQ PUSH2 0x50A JUMPI DUP1 PUSH4 0x95D89B41 EQ PUSH2 0x556 JUMPI DUP1 PUSH4 0xA9059CBB EQ PUSH2 0x55E JUMPI PUSH2 0x1B9 JUMP JUMPDEST DUP1 PUSH4 0x6A627842 EQ PUSH2 0x469 JUMPI DUP1 PUSH4 0x70A08231 EQ PUSH2 0x49C JUMPI DUP1 PUSH4 0x7464FC3D EQ PUSH2 0x4CF JUMPI PUSH2 0x1B9 JUMP JUMPDEST DUP1 PUSH4 0x23B872DD GT PUSH2 0x166 JUMPI DUP1 PUSH4 0x3644E515 GT PUSH2 0x140 JUMPI DUP1 PUSH4 0x3644E515 EQ PUSH2 0x416 JUMPI DUP1 PUSH4 0x485CC955 EQ PUSH2 0x41E JUMPI DUP1 PUSH4 0x5909C0D5 EQ PUSH2 0x459 JUMPI DUP1 PUSH4 0x5A3D5493 EQ PUSH2 0x461 JUMPI PUSH2 0x1B9 JUMP JUMPDEST DUP1 PUSH4 0x23B872DD EQ PUSH2 0x3AD JUMPI DUP1 PUSH4 0x30ADF81F EQ PUSH2 0x3F0 JUMPI DUP1 PUSH4 0x313CE567 EQ PUSH2 0x3F8 JUMPI PUSH2 0x1B9 JUMP JUMPDEST DUP1 PUSH4 0x95EA7B3 GT PUSH2 0x197 JUMPI DUP1 PUSH4 0x95EA7B3 EQ PUSH2 0x315 JUMPI DUP1 PUSH4 0xDFE1681 EQ PUSH2 0x362 JUMPI DUP1 PUSH4 0x18160DDD EQ PUSH2 0x393 JUMPI PUSH2 0x1B9 JUMP JUMPDEST DUP1 PUSH4 0x22C0D9F EQ PUSH2 0x1BE JUMPI DUP1 PUSH4 0x6FDDE03 EQ PUSH2 0x259 JUMPI DUP1 PUSH4 0x902F1AC EQ PUSH2 0x2D6 JUMPI JUMPDEST PUSH1 0x0 DUP1 REVERT JUMPDEST PUSH2 0x257 PUSH1 0x4 DUP1 CALLDATASIZE SUB PUSH1 0x80 DUP2 LT ISZERO PUSH2 0x1D4 JUMPI PUSH1 0x0 DUP1 REVERT JUMPDEST DUP2 CALLDATALOAD SWAP2 PUSH1 0x20 DUP2 ADD CALLDATALOAD SWAP2 PUSH20 0xFFFFFFFFFFFFFFFFFFFFFFFFFFFFFFFFFFFFFFFF PUSH1 0x40 DUP4 ADD CALLDATALOAD AND SWAP2 SWAP1 DUP2 ADD SWAP1 PUSH1 0x80 DUP2 ADD PUSH1 0x60 DUP3 ADD CALLDATALOAD PUSH5 0x100000000 DUP2 GT ISZERO PUSH2 0x218 JUMPI PUSH1 0x0 DUP1 REVERT JUMPDEST DUP3 ADD DUP4 PUSH1 0x20 DUP3 ADD GT ISZERO PUSH2 0x22A JUMPI PUSH1 0x0 DUP1 REVERT JUMPDEST DUP1 CALLDATALOAD SWAP1 PUSH1 0x20 ADD SWAP2 DUP5 PUSH1 0x1 DUP4 MUL DUP5 ADD GT PUSH5 0x100000000 DUP4 GT OR ISZERO PUSH2 0x24C JUMPI PUSH1 0x0 DUP1 REVERT JUMPDEST POP SWAP1 SWAP3 POP SWAP1 POP PUSH2 0x683 JUMP JUMPDEST STOP JUMPDEST PUSH2 0x261 PUSH2 0xD57 JUMP JUMPDEST PUSH1 0x40 DUP1 MLOAD PUSH1 0x20 DUP1 DUP3 MSTORE DUP4 MLOAD DUP2 DUP4 ADD MSTORE DUP4 MLOAD SWAP2 SWAP3 DUP4 SWAP3 SWAP1 DUP4 ADD SWAP2 DUP6 ADD SWAP1 DUP1 DUP4 DUP4 PUSH1 0x0 JUMPDEST DUP4 DUP2 LT ISZERO PUSH2 0x29B JUMPI DUP2 DUP2 ADD MLOAD DUP4 DUP3 ADD MSTORE PUSH1 0x20 ADD PUSH2 0x283 JUMP JUMPDEST POP POP POP POP SWAP1 POP SWAP1 DUP2 ADD SWAP1 PUSH1 0x1F AND DUP1 ISZERO PUSH2 0x2C8 JUMPI DUP1 DUP3 SUB DUP1 MLOAD PUSH1 0x1 DUP4 PUSH1 0x20 SUB PUSH2 0x100 EXP SUB NOT AND DUP2 MSTORE PUSH1 0x20 ADD SWAP2 POP JUMPDEST POP SWAP3 POP POP POP PUSH1 0x40 MLOAD DUP1 SWAP2 SUB SWAP1 RETURN JUMPDEST PUSH2 0x2DE PUSH2 0xD90 JUMP JUMPDEST PUSH1 0x40 DUP1 MLOAD PUSH14 0xFFFFFFFFFFFFFFFFFFFFFFFFFFFF SWAP5 DUP6 AND DUP2 MSTORE SWAP3 SWAP1 SWAP4 AND PUSH1 0x20 DUP4 ADD MSTORE PUSH4 0xFFFFFFFF AND DUP2 DUP4 ADD MSTORE SWAP1 MLOAD SWAP1 DUP2 SWAP1 SUB PUSH1 0x60 ADD SWAP1 RETURN JUMPDEST PUSH2 0x34E PUSH1 0x4 DUP1 CALLDATASIZE SUB PUSH1 0x40 DUP2 LT ISZERO PUSH2 0x32B JUMPI PUSH1 0x0 DUP1 REVERT JUMPDEST POP PUSH20 0xFFFFFFFFFFFFFFFFFFFFFFFFFFFFFFFFFFFFFFFF DUP2 CALLDATALOAD AND SWAP1 PUSH1 0x20 ADD CALLDATALOAD PUSH2 0xDE5 JUMP JUMPDEST PUSH1 0x40 DUP1 MLOAD SWAP2 ISZERO ISZERO DUP3 MSTORE MLOAD SWAP1 DUP2 SWAP1 SUB PUSH1 0x20 ADD SWAP1 RETURN JUMPDEST PUSH2 0x36A PUSH2 0xDFC JUMP JUMPDEST PUSH1 0x40 DUP1 MLOAD PUSH20 0xFFFFFFFFFFFFFFFFFFFFFFFFFFFFFFFFFFFFFFFF SWAP1 SWAP3 AND DUP3 MSTORE MLOAD SWAP1 DUP2 SWAP1 SUB PUSH1 0x20 ADD SWAP1 RETURN JUMPDEST PUSH2 0x39B PUSH2 0xE18 JUMP JUMPDEST PUSH1 0x40 DUP1 MLOAD SWAP2 DUP3 MSTORE MLOAD SWAP1 DUP2 SWAP1 SUB PUSH1 0x20 ADD SWAP1 RETURN JUMPDEST PUSH2 0x34E PUSH1 0x4 DUP1 CALLDATASIZE SUB PUSH1 0x60 DUP2 LT ISZERO PUSH2 0x3C3 JUMPI PUSH1 0x0 DUP1 REVERT JUMPDEST POP PUSH20 0xFFFFFFFFFFFFFFFFFFFFFFFFFFFFFFFFFFFFFFFF DUP2 CALLDATALOAD DUP2 AND SWAP2 PUSH1 0x20 DUP2 ADD CALLDATALOAD SWAP1 SWAP2 AND SWAP1 PUSH1 0x40 ADD CALLDATALOAD PUSH2 0xE1E JUMP JUMPDEST PUSH2 0x39B PUSH2 0xEFD JUMP JUMPDEST PUSH2 0x400 PUSH2 0xF21 JUMP JUMPDEST PUSH1 0x40 DUP1 MLOAD PUSH1 0xFF SWAP1 SWAP3 AND DUP3 MSTORE MLOAD SWAP1 DUP2 SWAP1 SUB PUSH1 0x20 ADD SWAP1 RETURN JUMPDEST PUSH2 0x39B PUSH2 0xF26 JUMP JUMPDEST PUSH2 0x257 PUSH1 0x4 DUP1 CALLDATASIZE SUB PUSH1 0x40 DUP2 LT ISZERO PUSH2 0x434 JUMPI PUSH1 0x0 DUP1 REVERT JUMPDEST POP PUSH20 0xFFFFFFFFFFFFFFFFFFFFFFFFFFFFFFFFFFFFFFFF DUP2 CALLDATALOAD DUP2 AND SWAP2 PUSH1 0x20 ADD CALLDATALOAD AND PUSH2 0xF2C JUMP JUMPDEST PUSH2 0x39B PUSH2 0x1005 JUMP JUMPDEST PUSH2 0x39B PUSH2 0x100B JUMP JUMPDEST PUSH2 0x39B PUSH1 0x4 DUP1 CALLDATASIZE SUB PUSH1 0x20 DUP2 LT ISZERO PUSH2 0x47F JUMPI PUSH1 0x0 DUP1 REVERT JUMPDEST POP CALLDATALOAD PUSH20 0xFFFFFFFFFFFFFFFFFFFFFFFFFFFFFFFFFFFFFFFF AND PUSH2 0x1011 JUMP JUMPDEST PUSH2 0x39B PUSH1 0x4 DUP1 CALLDATASIZE SUB PUSH1 0x20 DUP2 LT ISZERO PUSH2 0x4B2 JUMPI PUSH1 0x0 DUP1 REVERT JUMPDEST POP CALLDATALOAD PUSH20 0xFFFFFFFFFFFFFFFFFFFFFFFFFFFFFFFFFFFFFFFF AND PUSH2 0x13CB JUMP JUMPDEST PUSH2 0x39B PUSH2 0x13DD JUMP JUMPDEST PUSH2 0x39B PUSH1 0x4 DUP1 CALLDATASIZE SUB PUSH1 0x20 DUP2 LT ISZERO PUSH2 0x4ED JUMPI PUSH1 0x0 DUP1 REVERT JUMPDEST POP CALLDATALOAD PUSH20 0xFFFFFFFFFFFFFFFFFFFFFFFFFFFFFFFFFFFFFFFF AND PUSH2 0x13E3 JUMP JUMPDEST PUSH2 0x53D PUSH1 0x4 DUP1 CALLDATASIZE SUB PUSH1 0x20 DUP2 LT ISZERO PUSH2 0x520 JUMPI PUSH1 0x0 DUP1 REVERT JUMPDEST POP CALLDATALOAD PUSH20 0xFFFFFFFFFFFFFFFFFFFFFFFFFFFFFFFFFFFFFFFF AND PUSH2 0x13F5 JUMP JUMPDEST PUSH1 0x40 DUP1 MLOAD SWAP3 DUP4 MSTORE PUSH1 0x20 DUP4 ADD SWAP2 SWAP1 SWAP2 MSTORE DUP1 MLOAD SWAP2 DUP3 SWAP1 SUB ADD SWAP1 RETURN JUMPDEST PUSH2 0x261 PUSH2 0x1892 JUMP JUMPDEST PUSH2 0x34E PUSH1 0x4 DUP1 CALLDATASIZE SUB PUSH1 0x40 DUP2 LT ISZERO PUSH2 0x574 JUMPI PUSH1 0x0 DUP1 REVERT JUMPDEST POP PUSH20 0xFFFFFFFFFFFFFFFFFFFFFFFFFFFFFFFFFFFFFFFF DUP2 CALLDATALOAD AND SWAP1 PUSH1 0x20 ADD CALLDATALOAD PUSH2 0x18CB JUMP JUMPDEST PUSH2 0x39B PUSH2 0x18D8 JUMP JUMPDEST PUSH2 0x257 PUSH1 0x4 DUP1 CALLDATASIZE SUB PUSH1 0x20 DUP2 LT ISZERO PUSH2 0x5B5 JUMPI PUSH1 0x0 DUP1 REVERT JUMPDEST POP CALLDATALOAD PUSH20 0xFFFFFFFFFFFFFFFFFFFFFFFFFFFFFFFFFFFFFFFF AND PUSH2 0x18DE JUMP JUMPDEST PUSH2 0x36A PUSH2 0x1AD4 JUMP JUMPDEST PUSH2 0x36A PUSH2 0x1AF0 JUMP JUMPDEST PUSH2 0x257 PUSH1 0x4 DUP1 CALLDATASIZE SUB PUSH1 0xE0 DUP2 LT ISZERO PUSH2 0x5F8 JUMPI PUSH1 0x0 DUP1 REVERT JUMPDEST POP PUSH20 0xFFFFFFFFFFFFFFFFFFFFFFFFFFFFFFFFFFFFFFFF DUP2 CALLDATALOAD DUP2 AND SWAP2 PUSH1 0x20 DUP2 ADD CALLDATALOAD SWAP1 SWAP2 AND SWAP1 PUSH1 0x40 DUP2 ADD CALLDATALOAD SWAP1 PUSH1 0x60 DUP2 ADD CALLDATALOAD SWAP1 PUSH1 0xFF PUSH1 0x80 DUP3 ADD CALLDATALOAD AND SWAP1 PUSH1 0xA0 DUP2 ADD CALLDATALOAD SWAP1 PUSH1 0xC0 ADD CALLDATALOAD PUSH2 0x1B0C JUMP JUMPDEST PUSH2 0x39B PUSH1 0x4 DUP1 CALLDATASIZE SUB PUSH1 0x40 DUP2 LT ISZERO PUSH2 0x656 JUMPI PUSH1 0x0 DUP1 REVERT JUMPDEST POP PUSH20 0xFFFFFFFFFFFFFFFFFFFFFFFFFFFFFFFFFFFFFFFF DUP2 CALLDATALOAD DUP2 AND SWAP2 PUSH1 0x20 ADD CALLDATALOAD AND PUSH2 0x1DD8 JUMP JUMPDEST PUSH2 0x257 PUSH2 0x1DF5 JUMP JUMPDEST PUSH1 0xC SLOAD PUSH1 0x1 EQ PUSH2 0x6F4 JUMPI PUSH1 0x40 DUP1 MLOAD PUSH32 0x8C379A000000000000000000000000000000000000000000000000000000000 DUP2 MSTORE PUSH1 0x20 PUSH1 0x4 DUP3 ADD MSTORE PUSH1 0x11 PUSH1 0x24 DUP3 ADD MSTORE PUSH32 0x556E697377617056323A204C4F434B4544000000000000000000000000000000 PUSH1 0x44 DUP3 ADD MSTORE SWAP1 MLOAD SWAP1 DUP2 SWAP1 SUB PUSH1 0x64 ADD SWAP1 REVERT JUMPDEST PUSH1 0x0 PUSH1 0xC SSTORE DUP5 ISZERO ISZERO DUP1 PUSH2 0x707 JUMPI POP PUSH1 0x0 DUP5 GT JUMPDEST PUSH2 0x75C JUMPI PUSH1 0x40 MLOAD PUSH32 0x8C379A000000000000000000000000000000000000000000000000000000000 DUP2 MSTORE PUSH1 0x4 ADD DUP1 DUP1 PUSH1 0x20 ADD DUP3 DUP2 SUB DUP3 MSTORE PUSH1 0x25 DUP2 MSTORE PUSH1 0x20 ADD DUP1 PUSH2 0x2B2F PUSH1 0x25 SWAP2 CODECOPY PUSH1 0x40 ADD SWAP2 POP POP PUSH1 0x40 MLOAD DUP1 SWAP2 SUB SWAP1 REVERT JUMPDEST PUSH1 0x0 DUP1 PUSH2 0x767 PUSH2 0xD90 JUMP JUMPDEST POP SWAP2 POP SWAP2 POP DUP2 PUSH14 0xFFFFFFFFFFFFFFFFFFFFFFFFFFFF AND DUP8 LT DUP1 ISZERO PUSH2 0x79A JUMPI POP DUP1 PUSH14 0xFFFFFFFFFFFFFFFFFFFFFFFFFFFF AND DUP7 LT JUMPDEST PUSH2 0x7EF JUMPI PUSH1 0x40 MLOAD PUSH32 0x8C379A000000000000000000000000000000000000000000000000000000000 DUP2 MSTORE PUSH1 0x4 ADD DUP1 DUP1 PUSH1 0x20 ADD DUP3 DUP2 SUB DUP3 MSTORE PUSH1 0x21 DUP2 MSTORE PUSH1 0x20 ADD DUP1 PUSH2 0x2B78 PUSH1 0x21 SWAP2 CODECOPY PUSH1 0x40 ADD SWAP2 POP POP PUSH1 0x40 MLOAD DUP1 SWAP2 SUB SWAP1 REVERT JUMPDEST PUSH1 0x6 SLOAD PUSH1 0x7 SLOAD PUSH1 0x0 SWAP2 DUP3 SWAP2 PUSH20 0xFFFFFFFFFFFFFFFFFFFFFFFFFFFFFFFFFFFFFFFF SWAP2 DUP3 AND SWAP2 SWAP1 DUP2 AND SWAP1 DUP10 AND DUP3 EQ DUP1 ISZERO SWAP1 PUSH2 0x854 JUMPI POP DUP1 PUSH20 0xFFFFFFFFFFFFFFFFFFFFFFFFFFFFFFFFFFFFFFFF AND DUP10 PUSH20 0xFFFFFFFFFFFFFFFFFFFFFFFFFFFFFFFFFFFFFFFF AND EQ ISZERO JUMPDEST PUSH2 0x8BF JUMPI PUSH1 0x40 DUP1 MLOAD PUSH32 0x8C379A000000000000000000000000000000000000000000000000000000000 DUP2 MSTORE PUSH1 0x20 PUSH1 0x4 DUP3 ADD MSTORE PUSH1 0x15 PUSH1 0x24 DUP3 ADD MSTORE PUSH32 0x556E697377617056323A20494E56414C49445F544F0000000000000000000000 PUSH1 0x44 DUP3 ADD MSTORE SWAP1 MLOAD SWAP1 DUP2 SWAP1 SUB PUSH1 0x64 ADD SWAP1 REVERT JUMPDEST DUP11 ISZERO PUSH2 0x8D0 JUMPI PUSH2 0x8D0 DUP3 DUP11 DUP14 PUSH2 0x1FDB JUMP JUMPDEST DUP10 ISZERO PUSH2 0x8E1 JUMPI PUSH2 0x8E1 DUP2 DUP11 DUP13 PUSH2 0x1FDB JUMP JUMPDEST DUP7 ISZERO PUSH2 0x9C3 JUMPI DUP9 PUSH20 0xFFFFFFFFFFFFFFFFFFFFFFFFFFFFFFFFFFFFFFFF AND PUSH4 0x10D1E85C CALLER DUP14 DUP14 DUP13 DUP13 PUSH1 0x40 MLOAD DUP7 PUSH4 0xFFFFFFFF AND PUSH1 0xE0 SHL DUP2 MSTORE PUSH1 0x4 ADD DUP1 DUP7 PUSH20 0xFFFFFFFFFFFFFFFFFFFFFFFFFFFFFFFFFFFFFFFF AND PUSH20 0xFFFFFFFFFFFFFFFFFFFFFFFFFFFFFFFFFFFFFFFF AND DUP2 MSTORE PUSH1 0x20 ADD DUP6 DUP2 MSTORE PUSH1 0x20 ADD DUP5 DUP2 MSTORE PUSH1 0x20 ADD DUP1 PUSH1 0x20 ADD DUP3 DUP2 SUB DUP3 MSTORE DUP5 DUP5 DUP3 DUP2 DUP2 MSTORE PUSH1 0x20 ADD SWAP3 POP DUP1 DUP3 DUP5 CALLDATACOPY PUSH1 0x0 DUP2 DUP5 ADD MSTORE PUSH1 0x1F NOT PUSH1 0x1F DUP3 ADD AND SWAP1 POP DUP1 DUP4 ADD SWAP3 POP POP POP SWAP7 POP POP POP POP POP POP POP PUSH1 0x0 PUSH1 0x40 MLOAD DUP1 DUP4 SUB DUP2 PUSH1 0x0 DUP8 DUP1 EXTCODESIZE ISZERO DUP1 ISZERO PUSH2 0x9AA JUMPI PUSH1 0x0 DUP1 REVERT JUMPDEST POP GAS CALL ISZERO DUP1 ISZERO PUSH2 0x9BE JUMPI RETURNDATASIZE PUSH1 0x0 DUP1 RETURNDATACOPY RETURNDATASIZE PUSH1 0x0 REVERT JUMPDEST POP POP POP POP JUMPDEST PUSH1 0x40 DUP1 MLOAD PUSH32 0x70A0823100000000000000000000000000000000000000000000000000000000 DUP2 MSTORE ADDRESS PUSH1 0x4 DUP3 ADD MSTORE SWAP1 MLOAD PUSH20 0xFFFFFFFFFFFFFFFFFFFFFFFFFFFFFFFFFFFFFFFF DUP5 AND SWAP2 PUSH4 0x70A08231 SWAP2 PUSH1 0x24 DUP1 DUP4 ADD SWAP3 PUSH1 0x20 SWAP3 SWAP2 SWAP1 DUP3 SWAP1 SUB ADD DUP2 DUP7 DUP1 EXTCODESIZE ISZERO DUP1 ISZERO PUSH2 0xA2F JUMPI PUSH1 0x0 DUP1 REVERT JUMPDEST POP GAS STATICCALL ISZERO DUP1 ISZERO PUSH2 0xA43 JUMPI RETURNDATASIZE PUSH1 0x0 DUP1 RETURNDATACOPY RETURNDATASIZE PUSH1 0x0 REVERT JUMPDEST POP POP POP POP PUSH1 0x40 MLOAD RETURNDATASIZE PUSH1 0x20 DUP2 LT ISZERO PUSH2 0xA59 JUMPI PUSH1 0x0 DUP1 REVERT JUMPDEST POP MLOAD PUSH1 0x40 DUP1 MLOAD PUSH32 0x70A0823100000000000000000000000000000000000000000000000000000000 DUP2 MSTORE ADDRESS PUSH1 0x4 DUP3 ADD MSTORE SWAP1 MLOAD SWAP2 SWAP6 POP PUSH20 0xFFFFFFFFFFFFFFFFFFFFFFFFFFFFFFFFFFFFFFFF DUP4 AND SWAP2 PUSH4 0x70A08231 SWAP2 PUSH1 0x24 DUP1 DUP3 ADD SWAP3 PUSH1 0x20 SWAP3 SWAP1 SWAP2 SWAP1 DUP3 SWAP1 SUB ADD DUP2 DUP7 DUP1 EXTCODESIZE ISZERO DUP1 ISZERO PUSH2 0xACB JUMPI PUSH1 0x0 DUP1 REVERT JUMPDEST POP GAS STATICCALL ISZERO DUP1 ISZERO PUSH2 0xADF JUMPI RETURNDATASIZE PUSH1 0x0 DUP1 RETURNDATACOPY RETURNDATASIZE PUSH1 0x0 REVERT JUMPDEST POP POP POP POP PUSH1 0x40 MLOAD RETURNDATASIZE PUSH1 0x20 DUP2 LT ISZERO PUSH2 0xAF5 JUMPI PUSH1 0x0 DUP1 REVERT JUMPDEST POP MLOAD SWAP3 POP PUSH1 0x0 SWAP2 POP POP PUSH14 0xFFFFFFFFFFFFFFFFFFFFFFFFFFFF DUP6 AND DUP11 SWAP1 SUB DUP4 GT PUSH2 0xB1F JUMPI PUSH1 0x0 PUSH2 0xB35 JUMP JUMPDEST DUP10 DUP6 PUSH14 0xFFFFFFFFFFFFFFFFFFFFFFFFFFFF AND SUB DUP4 SUB JUMPDEST SWAP1 POP PUSH1 0x0 DUP10 DUP6 PUSH14 0xFFFFFFFFFFFFFFFFFFFFFFFFFFFF AND SUB DUP4 GT PUSH2 0xB59 JUMPI PUSH1 0x0 PUSH2 0xB6F JUMP JUMPDEST DUP10 DUP6 PUSH14 0xFFFFFFFFFFFFFFFFFFFFFFFFFFFF AND SUB DUP4 SUB JUMPDEST SWAP1 POP PUSH1 0x0 DUP3 GT DUP1 PUSH2 0xB80 JUMPI POP PUSH1 0x0 DUP2 GT JUMPDEST PUSH2 0xBD5 JUMPI PUSH1 0x40 MLOAD PUSH32 0x8C379A000000000000000000000000000000000000000000000000000000000 DUP2 MSTORE PUSH1 0x4 ADD DUP1 DUP1 PUSH1 0x20 ADD DUP3 DUP2 SUB DUP3 MSTORE PUSH1 0x24 DUP2 MSTORE PUSH1 0x20 ADD DUP1 PUSH2 0x2B54 PUSH1 0x24 SWAP2 CODECOPY PUSH1 0x40 ADD SWAP2 POP POP PUSH1 0x40 MLOAD DUP1 SWAP2 SUB SWAP1 REVERT JUMPDEST PUSH1 0x0 PUSH2 0xC09 PUSH2 0xBEB DUP5 PUSH1 0x3 PUSH4 0xFFFFFFFF PUSH2 0x21E8 AND JUMP JUMPDEST PUSH2 0xBFD DUP8 PUSH2 0x3E8 PUSH4 0xFFFFFFFF PUSH2 0x21E8 AND JUMP JUMPDEST SWAP1 PUSH4 0xFFFFFFFF PUSH2 0x226E AND JUMP JUMPDEST SWAP1 POP PUSH1 0x0 PUSH2 0xC21 PUSH2 0xBEB DUP5 PUSH1 0x3 PUSH4 0xFFFFFFFF PUSH2 0x21E8 AND JUMP JUMPDEST SWAP1 POP PUSH2 0xC59 PUSH3 0xF4240 PUSH2 0xC4D PUSH14 0xFFFFFFFFFFFFFFFFFFFFFFFFFFFF DUP12 DUP2 AND SWAP1 DUP12 AND PUSH4 0xFFFFFFFF PUSH2 0x21E8 AND JUMP JUMPDEST SWAP1 PUSH4 0xFFFFFFFF PUSH2 0x21E8 AND JUMP JUMPDEST PUSH2 0xC69 DUP4 DUP4 PUSH4 0xFFFFFFFF PUSH2 0x21E8 AND JUMP JUMPDEST LT ISZERO PUSH2 0xCD6 JUMPI PUSH1 0x40 DUP1 MLOAD PUSH32 0x8C379A000000000000000000000000000000000000000000000000000000000 DUP2 MSTORE PUSH1 0x20 PUSH1 0x4 DUP3 ADD MSTORE PUSH1 0xC PUSH1 0x24 DUP3 ADD MSTORE PUSH32 0x556E697377617056323A204B0000000000000000000000000000000000000000 PUSH1 0x44 DUP3 ADD MSTORE SWAP1 MLOAD SWAP1 DUP2 SWAP1 SUB PUSH1 0x64 ADD SWAP1 REVERT JUMPDEST POP POP PUSH2 0xCE4 DUP5 DUP5 DUP9 DUP9 PUSH2 0x22E0 JUMP JUMPDEST PUSH1 0x40 DUP1 MLOAD DUP4 DUP2 MSTORE PUSH1 0x20 DUP2 ADD DUP4 SWAP1 MSTORE DUP1 DUP3 ADD DUP14 SWAP1 MSTORE PUSH1 0x60 DUP2 ADD DUP13 SWAP1 MSTORE SWAP1 MLOAD PUSH20 0xFFFFFFFFFFFFFFFFFFFFFFFFFFFFFFFFFFFFFFFF DUP12 AND SWAP2 CALLER SWAP2 PUSH32 0xD78AD95FA46C994B6551D0DA85FC275FE613CE37657FB8D5E3D130840159D822 SWAP2 DUP2 SWAP1 SUB PUSH1 0x80 ADD SWAP1 LOG3 POP POP PUSH1 0x1 PUSH1 0xC SSTORE POP POP POP POP POP POP POP POP POP JUMP JUMPDEST PUSH1 0x40 MLOAD DUP1 PUSH1 0x40 ADD PUSH1 0x40 MSTORE DUP1 PUSH1 0xA DUP2 MSTORE PUSH1 0x20 ADD PUSH32 0x556E697377617020563200000000000000000000000000000000000000000000 DUP2 MSTORE POP DUP2 JUMP JUMPDEST PUSH1 0x8 SLOAD PUSH14 0xFFFFFFFFFFFFFFFFFFFFFFFFFFFF DUP1 DUP3 AND SWAP3 PUSH15 0x10000000000000000000000000000 DUP4 DIV SWAP1 SWAP2 AND SWAP2 PUSH29 0x100000000000000000000000000000000000000000000000000000000 SWAP1 DIV PUSH4 0xFFFFFFFF AND SWAP1 JUMP JUMPDEST PUSH1 0x0 PUSH2 0xDF2 CALLER DUP5 DUP5 PUSH2 0x259C JUMP JUMPDEST POP PUSH1 0x1 JUMPDEST SWAP3 SWAP2 POP POP JUMP JUMPDEST PUSH1 0x6 SLOAD PUSH20 0xFFFFFFFFFFFFFFFFFFFFFFFFFFFFFFFFFFFFFFFF AND DUP2 JUMP JUMPDEST PUSH1 0x0 SLOAD DUP2 JUMP JUMPDEST PUSH20 0xFFFFFFFFFFFFFFFFFFFFFFFFFFFFFFFFFFFFFFFF DUP4 AND PUSH1 0x0 SWAP1 DUP2 MSTORE PUSH1 0x2 PUSH1 0x20 SWAP1 DUP2 MSTORE PUSH1 0x40 DUP1 DUP4 KECCAK256 CALLER DUP5 MSTORE SWAP1 SWAP2 MSTORE DUP2 KECCAK256 SLOAD PUSH32 0xFFFFFFFFFFFFFFFFFFFFFFFFFFFFFFFFFFFFFFFFFFFFFFFFFFFFFFFFFFFFFFFF EQ PUSH2 0xEE8 JUMPI PUSH20 0xFFFFFFFFFFFFFFFFFFFFFFFFFFFFFFFFFFFFFFFF DUP5 AND PUSH1 0x0 SWAP1 DUP2 MSTORE PUSH1 0x2 PUSH1 0x20 SWAP1 DUP2 MSTORE PUSH1 0x40 DUP1 DUP4 KECCAK256 CALLER DUP5 MSTORE SWAP1 SWAP2 MSTORE SWAP1 KECCAK256 SLOAD PUSH2 0xEB6 SWAP1 DUP4 PUSH4 0xFFFFFFFF PUSH2 0x226E AND JUMP JUMPDEST PUSH20 0xFFFFFFFFFFFFFFFFFFFFFFFFFFFFFFFFFFFFFFFF DUP6 AND PUSH1 0x0 SWAP1 DUP2 MSTORE PUSH1 0x2 PUSH1 0x20 SWAP1 DUP2 MSTORE PUSH1 0x40 DUP1 DUP4 KECCAK256 CALLER DUP5 MSTORE SWAP1 SWAP2 MSTORE SWAP1 KECCAK256 SSTORE JUMPDEST PUSH2 0xEF3 DUP5 DUP5 DUP5 PUSH2 0x260B JUMP JUMPDEST POP PUSH1 0x1 SWAP4 SWAP3 POP POP POP JUMP JUMPDEST PUSH32 0x6E71EDAE12B1B97F4D1F60370FEF10105FA2FAAE0126114A169C64845D6126C9 DUP2 JUMP JUMPDEST PUSH1 0x12 DUP2 JUMP JUMPDEST PUSH1 0x3 SLOAD DUP2 JUMP JUMPDEST PUSH1 0x5 SLOAD PUSH20 0xFFFFFFFFFFFFFFFFFFFFFFFFFFFFFFFFFFFFFFFF AND CALLER EQ PUSH2 0xFB2 JUMPI PUSH1 0x40 DUP1 MLOAD PUSH32 0x8C379A000000000000000000000000000000000000000000000000000000000 DUP2 MSTORE PUSH1 0x20 PUSH1 0x4 DUP3 ADD MSTORE PUSH1 0x14 PUSH1 0x24 DUP3 ADD MSTORE PUSH32 0x556E697377617056323A20464F5242494444454E000000000000000000000000 PUSH1 0x44 DUP3 ADD MSTORE SWAP1 MLOAD SWAP1 DUP2 SWAP1 SUB PUSH1 0x64 ADD SWAP1 REVERT JUMPDEST PUSH1 0x6 DUP1 SLOAD PUSH20 0xFFFFFFFFFFFFFFFFFFFFFFFFFFFFFFFFFFFFFFFF SWAP4 DUP5 AND PUSH32 0xFFFFFFFFFFFFFFFFFFFFFFFF0000000000000000000000000000000000000000 SWAP2 DUP3 AND OR SWAP1 SWAP2 SSTORE PUSH1 0x7 DUP1 SLOAD SWAP3 SWAP1 SWAP4 AND SWAP2 AND OR SWAP1 SSTORE JUMP JUMPDEST PUSH1 0x9 SLOAD DUP2 JUMP JUMPDEST PUSH1 0xA SLOAD DUP2 JUMP JUMPDEST PUSH1 0x0 PUSH1 0xC SLOAD PUSH1 0x1 EQ PUSH2 0x1084 JUMPI PUSH1 0x40 DUP1 MLOAD PUSH32 0x8C379A000000000000000000000000000000000000000000000000000000000 DUP2 MSTORE PUSH1 0x20 PUSH1 0x4 DUP3 ADD MSTORE PUSH1 0x11 PUSH1 0x24 DUP3 ADD MSTORE PUSH32 0x556E697377617056323A204C4F434B4544000000000000000000000000000000 PUSH1 0x44 DUP3 ADD MSTORE SWAP1 MLOAD SWAP1 DUP2 SWAP1 SUB PUSH1 0x64 ADD SWAP1 REVERT JUMPDEST PUSH1 0x0 PUSH1 0xC DUP2 SWAP1 SSTORE DUP1 PUSH2 0x1094 PUSH2 0xD90 JUMP JUMPDEST POP PUSH1 0x6 SLOAD PUSH1 0x40 DUP1 MLOAD PUSH32 0x70A0823100000000000000000000000000000000000000000000000000000000 DUP2 MSTORE ADDRESS PUSH1 0x4 DUP3 ADD MSTORE SWAP1 MLOAD SWAP4 SWAP6 POP SWAP2 SWAP4 POP PUSH1 0x0 SWAP3 PUSH20 0xFFFFFFFFFFFFFFFFFFFFFFFFFFFFFFFFFFFFFFFF SWAP1 SWAP2 AND SWAP2 PUSH4 0x70A08231 SWAP2 PUSH1 0x24 DUP1 DUP4 ADD SWAP3 PUSH1 0x20 SWAP3 SWAP2 SWAP1 DUP3 SWAP1 SUB ADD DUP2 DUP7 DUP1 EXTCODESIZE ISZERO DUP1 ISZERO PUSH2 0x110E JUMPI PUSH1 0x0 DUP1 REVERT JUMPDEST POP GAS STATICCALL ISZERO DUP1 ISZERO PUSH2 0x1122 JUMPI RETURNDATASIZE PUSH1 0x0 DUP1 RETURNDATACOPY RETURNDATASIZE PUSH1 0x0 REVERT JUMPDEST POP POP POP POP PUSH1 0x40 MLOAD RETURNDATASIZE PUSH1 0x20 DUP2 LT ISZERO PUSH2 0x1138 JUMPI PUSH1 0x0 DUP1 REVERT JUMPDEST POP MLOAD PUSH1 0x7 SLOAD PUSH1 0x40 DUP1 MLOAD PUSH32 0x70A0823100000000000000000000000000000000000000000000000000000000 DUP2 MSTORE ADDRESS PUSH1 0x4 DUP3 ADD MSTORE SWAP1 MLOAD SWAP3 SWAP4 POP PUSH1 0x0 SWAP3 PUSH20 0xFFFFFFFFFFFFFFFFFFFFFFFFFFFFFFFFFFFFFFFF SWAP1 SWAP3 AND SWAP2 PUSH4 0x70A08231 SWAP2 PUSH1 0x24 DUP1 DUP3 ADD SWAP3 PUSH1 0x20 SWAP3 SWAP1 SWAP2 SWAP1 DUP3 SWAP1 SUB ADD DUP2 DUP7 DUP1 EXTCODESIZE ISZERO DUP1 ISZERO PUSH2 0x11B1 JUMPI PUSH1 0x0 DUP1 REVERT JUMPDEST POP GAS STATICCALL ISZERO DUP1 ISZERO PUSH2 0x11C5 JUMPI RETURNDATASIZE PUSH1 0x0 DUP1 RETURNDATACOPY RETURNDATASIZE PUSH1 0x0 REVERT JUMPDEST POP POP POP POP PUSH1 0x40 MLOAD RETURNDATASIZE PUSH1 0x20 DUP2 LT ISZERO PUSH2 0x11DB JUMPI PUSH1 0x0 DUP1 REVERT JUMPDEST POP MLOAD SWAP1 POP PUSH1 0x0 PUSH2 0x1201 DUP4 PUSH14 0xFFFFFFFFFFFFFFFFFFFFFFFFFFFF DUP8 AND PUSH4 0xFFFFFFFF PUSH2 0x226E AND JUMP JUMPDEST SWAP1 POP PUSH1 0x0 PUSH2 0x1225 DUP4 PUSH14 0xFFFFFFFFFFFFFFFFFFFFFFFFFFFF DUP8 AND PUSH4 0xFFFFFFFF PUSH2 0x226E AND JUMP JUMPDEST SWAP1 POP PUSH1 0x0 PUSH2 0x1233 DUP8 DUP8 PUSH2 0x26EC JUMP JUMPDEST PUSH1 0x0 SLOAD SWAP1 SWAP2 POP DUP1 PUSH2 0x1270 JUMPI PUSH2 0x125C PUSH2 0x3E8 PUSH2 0xBFD PUSH2 0x1257 DUP8 DUP8 PUSH4 0xFFFFFFFF PUSH2 0x21E8 AND JUMP JUMPDEST PUSH2 0x2878 JUMP JUMPDEST SWAP9 POP PUSH2 0x126B PUSH1 0x0 PUSH2 0x3E8 PUSH2 0x28CA JUMP JUMPDEST PUSH2 0x12CD JUMP JUMPDEST PUSH2 0x12CA PUSH14 0xFFFFFFFFFFFFFFFFFFFFFFFFFFFF DUP10 AND PUSH2 0x1294 DUP7 DUP5 PUSH4 0xFFFFFFFF PUSH2 0x21E8 AND JUMP JUMPDEST DUP2 PUSH2 0x129B JUMPI INVALID JUMPDEST DIV PUSH14 0xFFFFFFFFFFFFFFFFFFFFFFFFFFFF DUP10 AND PUSH2 0x12BD DUP7 DUP6 PUSH4 0xFFFFFFFF PUSH2 0x21E8 AND JUMP JUMPDEST DUP2 PUSH2 0x12C4 JUMPI INVALID JUMPDEST DIV PUSH2 0x297A JUMP JUMPDEST SWAP9 POP JUMPDEST PUSH1 0x0 DUP10 GT PUSH2 0x1326 JUMPI PUSH1 0x40 MLOAD PUSH32 0x8C379A000000000000000000000000000000000000000000000000000000000 DUP2 MSTORE PUSH1 0x4 ADD DUP1 DUP1 PUSH1 0x20 ADD DUP3 DUP2 SUB DUP3 MSTORE PUSH1 0x28 DUP2 MSTORE PUSH1 0x20 ADD DUP1 PUSH2 0x2BC1 PUSH1 0x28 SWAP2 CODECOPY PUSH1 0x40 ADD SWAP2 POP POP PUSH1 0x40 MLOAD DUP1 SWAP2 SUB SWAP1 REVERT JUMPDEST PUSH2 0x1330 DUP11 DUP11 PUSH2 0x28CA JUMP JUMPDEST PUSH2 0x133C DUP7 DUP7 DUP11 DUP11 PUSH2 0x22E0 JUMP JUMPDEST DUP2 ISZERO PUSH2 0x137E JUMPI PUSH1 0x8 SLOAD PUSH2 0x137A SWAP1 PUSH14 0xFFFFFFFFFFFFFFFFFFFFFFFFFFFF DUP1 DUP3 AND SWAP2 PUSH15 0x10000000000000000000000000000 SWAP1 DIV AND PUSH4 0xFFFFFFFF PUSH2 0x21E8 AND JUMP JUMPDEST PUSH1 0xB SSTORE JUMPDEST PUSH1 0x40 DUP1 MLOAD DUP6 DUP2 MSTORE PUSH1 0x20 DUP2 ADD DUP6 SWAP1 MSTORE DUP2 MLOAD CALLER SWAP3 PUSH32 0x4C209B5FC8AD50758F13E2E1088BA56A560DFF690A1C6FEF26394F4C03821C4F SWAP3 DUP3 SWAP1 SUB ADD SWAP1 LOG2 POP POP PUSH1 0x1 PUSH1 0xC SSTORE POP SWAP5 SWAP7 SWAP6 POP POP POP POP POP POP JUMP JUMPDEST PUSH1 0x1 PUSH1 0x20 MSTORE PUSH1 0x0 SWAP1 DUP2 MSTORE PUSH1 0x40 SWAP1 KECCAK256 SLOAD DUP2 JUMP JUMPDEST PUSH1 0xB SLOAD DUP2 JUMP JUMPDEST PUSH1 0x4 PUSH1 0x20 MSTORE PUSH1 0x0 SWAP1 DUP2 MSTORE PUSH1 0x40 SWAP1 KECCAK256 SLOAD DUP2 JUMP JUMPDEST PUSH1 0x0 DUP1 PUSH1 0xC SLOAD PUSH1 0x1 EQ PUSH2 0x1469 JUMPI PUSH1 0x40 DUP1 MLOAD PUSH32 0x8C379A000000000000000000000000000000000000000000000000000000000 DUP2 MSTORE PUSH1 0x20 PUSH1 0x4 DUP3 ADD MSTORE PUSH1 0x11 PUSH1 0x24 DUP3 ADD MSTORE PUSH32 0x556E697377617056323A204C4F434B4544000000000000000000000000000000 PUSH1 0x44 DUP3 ADD MSTORE SWAP1 MLOAD SWAP1 DUP2 SWAP1 SUB PUSH1 0x64 ADD SWAP1 REVERT JUMPDEST PUSH1 0x0 PUSH1 0xC DUP2 SWAP1 SSTORE DUP1 PUSH2 0x1479 PUSH2 0xD90 JUMP JUMPDEST POP PUSH1 0x6 SLOAD PUSH1 0x7 SLOAD PUSH1 0x40 DUP1 MLOAD PUSH32 0x70A0823100000000000000000000000000000000000000000000000000000000 DUP2 MSTORE ADDRESS PUSH1 0x4 DUP3 ADD MSTORE SWAP1 MLOAD SWAP5 SWAP7 POP SWAP3 SWAP5 POP PUSH20 0xFFFFFFFFFFFFFFFFFFFFFFFFFFFFFFFFFFFFFFFF SWAP2 DUP3 AND SWAP4 SWAP2 AND SWAP2 PUSH1 0x0 SWAP2 DUP5 SWAP2 PUSH4 0x70A08231 SWAP2 PUSH1 0x24 DUP1 DUP4 ADD SWAP3 PUSH1 0x20 SWAP3 SWAP2 SWAP1 DUP3 SWAP1 SUB ADD DUP2 DUP7 DUP1 EXTCODESIZE ISZERO DUP1 ISZERO PUSH2 0x14FB JUMPI PUSH1 0x0 DUP1 REVERT JUMPDEST POP GAS STATICCALL ISZERO DUP1 ISZERO PUSH2 0x150F JUMPI RETURNDATASIZE PUSH1 0x0 DUP1 RETURNDATACOPY RETURNDATASIZE PUSH1 0x0 REVERT JUMPDEST POP POP POP POP PUSH1 0x40 MLOAD RETURNDATASIZE PUSH1 0x20 DUP2 LT ISZERO PUSH2 0x1525 JUMPI PUSH1 0x0 DUP1 REVERT JUMPDEST POP MLOAD PUSH1 0x40 DUP1 MLOAD PUSH32 0x70A0823100000000000000000000000000000000000000000000000000000000 DUP2 MSTORE ADDRESS PUSH1 0x4 DUP3 ADD MSTORE SWAP1 MLOAD SWAP2 SWAP3 POP PUSH1 0x0 SWAP2 PUSH20 0xFFFFFFFFFFFFFFFFFFFFFFFFFFFFFFFFFFFFFFFF DUP6 AND SWAP2 PUSH4 0x70A08231 SWAP2 PUSH1 0x24 DUP1 DUP4 ADD SWAP3 PUSH1 0x20 SWAP3 SWAP2 SWAP1 DUP3 SWAP1 SUB ADD DUP2 DUP7 DUP1 EXTCODESIZE ISZERO DUP1 ISZERO PUSH2 0x1599 JUMPI PUSH1 0x0 DUP1 REVERT JUMPDEST POP GAS STATICCALL ISZERO DUP1 ISZERO PUSH2 0x15AD JUMPI RETURNDATASIZE PUSH1 0x0 DUP1 RETURNDATACOPY RETURNDATASIZE PUSH1 0x0 REVERT JUMPDEST POP POP POP POP PUSH1 0x40 MLOAD RETURNDATASIZE PUSH1 0x20 DUP2 LT ISZERO PUSH2 0x15C3 JUMPI PUSH1 0x0 DUP1 REVERT JUMPDEST POP MLOAD ADDRESS PUSH1 0x0 SWAP1 DUP2 MSTORE PUSH1 0x1 PUSH1 0x20 MSTORE PUSH1 0x40 DUP2 KECCAK256 SLOAD SWAP2 SWAP3 POP PUSH2 0x15E2 DUP9 DUP9 PUSH2 0x26EC JUMP JUMPDEST PUSH1 0x0 SLOAD SWAP1 SWAP2 POP DUP1 PUSH2 0x15F9 DUP5 DUP8 PUSH4 0xFFFFFFFF PUSH2 0x21E8 AND JUMP JUMPDEST DUP2 PUSH2 0x1600 JUMPI INVALID JUMPDEST DIV SWAP11 POP DUP1 PUSH2 0x1614 DUP5 DUP7 PUSH4 0xFFFFFFFF PUSH2 0x21E8 AND JUMP JUMPDEST DUP2 PUSH2 0x161B JUMPI INVALID JUMPDEST DIV SWAP10 POP PUSH1 0x0 DUP12 GT DUP1 ISZERO PUSH2 0x162E JUMPI POP PUSH1 0x0 DUP11 GT JUMPDEST PUSH2 0x1683 JUMPI PUSH1 0x40 MLOAD PUSH32 0x8C379A000000000000000000000000000000000000000000000000000000000 DUP2 MSTORE PUSH1 0x4 ADD DUP1 DUP1 PUSH1 0x20 ADD DUP3 DUP2 SUB DUP3 MSTORE PUSH1 0x28 DUP2 MSTORE PUSH1 0x20 ADD DUP1 PUSH2 0x2B99 PUSH1 0x28 SWAP2 CODECOPY PUSH1 0x40 ADD SWAP2 POP POP PUSH1 0x40 MLOAD DUP1 SWAP2 SUB SWAP1 REVERT JUMPDEST PUSH2 0x168D ADDRESS DUP5 PUSH2 0x2992 JUMP JUMPDEST PUSH2 0x1698 DUP8 DUP14 DUP14 PUSH2 0x1FDB JUMP JUMPDEST PUSH2 0x16A3 DUP7 DUP14 DUP13 PUSH2 0x1FDB JUMP JUMPDEST PUSH1 0x40 DUP1 MLOAD PUSH32 0x70A0823100000000000000000000000000000000000000000000000000000000 DUP2 MSTORE ADDRESS PUSH1 0x4 DUP3 ADD MSTORE SWAP1 MLOAD PUSH20 0xFFFFFFFFFFFFFFFFFFFFFFFFFFFFFFFFFFFFFFFF DUP10 AND SWAP2 PUSH4 0x70A08231 SWAP2 PUSH1 0x24 DUP1 DUP4 ADD SWAP3 PUSH1 0x20 SWAP3 SWAP2 SWAP1 DUP3 SWAP1 SUB ADD DUP2 DUP7 DUP1 EXTCODESIZE ISZERO DUP1 ISZERO PUSH2 0x170F JUMPI PUSH1 0x0 DUP1 REVERT JUMPDEST POP GAS STATICCALL ISZERO DUP1 ISZERO PUSH2 0x1723 JUMPI RETURNDATASIZE PUSH1 0x0 DUP1 RETURNDATACOPY RETURNDATASIZE PUSH1 0x0 REVERT JUMPDEST POP POP POP POP PUSH1 0x40 MLOAD RETURNDATASIZE PUSH1 0x20 DUP2 LT ISZERO PUSH2 0x1739 JUMPI PUSH1 0x0 DUP1 REVERT JUMPDEST POP MLOAD PUSH1 0x40 DUP1 MLOAD PUSH32 0x70A0823100000000000000000000000000000000000000000000000000000000 DUP2 MSTORE ADDRESS PUSH1 0x4 DUP3 ADD MSTORE SWAP1 MLOAD SWAP2 SWAP7 POP PUSH20 0xFFFFFFFFFFFFFFFFFFFFFFFFFFFFFFFFFFFFFFFF DUP9 AND SWAP2 PUSH4 0x70A08231 SWAP2 PUSH1 0x24 DUP1 DUP3 ADD SWAP3 PUSH1 0x20 SWAP3 SWAP1 SWAP2 SWAP1 DUP3 SWAP1 SUB ADD DUP2 DUP7 DUP1 EXTCODESIZE ISZERO DUP1 ISZERO PUSH2 0x17AB JUMPI PUSH1 0x0 DUP1 REVERT JUMPDEST POP GAS STATICCALL ISZERO DUP1 ISZERO PUSH2 0x17BF JUMPI RETURNDATASIZE PUSH1 0x0 DUP1 RETURNDATACOPY RETURNDATASIZE PUSH1 0x0 REVERT JUMPDEST POP POP POP POP PUSH1 0x40 MLOAD RETURNDATASIZE PUSH1 0x20 DUP2 LT ISZERO PUSH2 0x17D5 JUMPI PUSH1 0x0 DUP1 REVERT JUMPDEST POP MLOAD SWAP4 POP PUSH2 0x17E5 DUP6 DUP6 DUP12 DUP12 PUSH2 0x22E0 JUMP JUMPDEST DUP2 ISZERO PUSH2 0x1827 JUMPI PUSH1 0x8 SLOAD PUSH2 0x1823 SWAP1 PUSH14 0xFFFFFFFFFFFFFFFFFFFFFFFFFFFF DUP1 DUP3 AND SWAP2 PUSH15 0x10000000000000000000000000000 SWAP1 DIV AND PUSH4 0xFFFFFFFF PUSH2 0x21E8 AND JUMP JUMPDEST PUSH1 0xB SSTORE JUMPDEST PUSH1 0x40 DUP1 MLOAD DUP13 DUP2 MSTORE PUSH1 0x20 DUP2 ADD DUP13 SWAP1 MSTORE DUP2 MLOAD PUSH20 0xFFFFFFFFFFFFFFFFFFFFFFFFFFFFFFFFFFFFFFFF DUP16 AND SWAP3 CALLER SWAP3 PUSH32 0xDCCD412F0B1252819CB1FD330B93224CA42612892BB3F4F789976E6D81936496 SWAP3 SWAP1 DUP2 SWAP1 SUB SWAP1 SWAP2 ADD SWAP1 LOG3 POP POP POP POP POP POP POP POP POP PUSH1 0x1 PUSH1 0xC DUP2 SWAP1 SSTORE POP SWAP2 POP SWAP2 JUMP JUMPDEST PUSH1 0x40 MLOAD DUP1 PUSH1 0x40 ADD PUSH1 0x40 MSTORE DUP1 PUSH1 0x6 DUP2 MSTORE PUSH1 0x20 ADD PUSH32 0x554E492D56320000000000000000000000000000000000000000000000000000 DUP2 MSTORE POP DUP2 JUMP JUMPDEST PUSH1 0x0 PUSH2 0xDF2 CALLER DUP5 DUP5 PUSH2 0x260B JUMP JUMPDEST PUSH2 0x3E8 DUP2 JUMP JUMPDEST PUSH1 0xC SLOAD PUSH1 0x1 EQ PUSH2 0x194F JUMPI PUSH1 0x40 DUP1 MLOAD PUSH32 0x8C379A000000000000000000000000000000000000000000000000000000000 DUP2 MSTORE PUSH1 0x20 PUSH1 0x4 DUP3 ADD MSTORE PUSH1 0x11 PUSH1 0x24 DUP3 ADD MSTORE PUSH32 0x556E697377617056323A204C4F434B4544000000000000000000000000000000 PUSH1 0x44 DUP3 ADD MSTORE SWAP1 MLOAD SWAP1 DUP2 SWAP1 SUB PUSH1 0x64 ADD SWAP1 REVERT JUMPDEST PUSH1 0x0 PUSH1 0xC SSTORE PUSH1 0x6 SLOAD PUSH1 0x7 SLOAD PUSH1 0x8 SLOAD PUSH1 0x40 DUP1 MLOAD PUSH32 0x70A0823100000000000000000000000000000000000000000000000000000000 DUP2 MSTORE ADDRESS PUSH1 0x4 DUP3 ADD MSTORE SWAP1 MLOAD PUSH20 0xFFFFFFFFFFFFFFFFFFFFFFFFFFFFFFFFFFFFFFFF SWAP5 DUP6 AND SWAP5 SWAP1 SWAP4 AND SWAP3 PUSH2 0x1A2B SWAP3 DUP6 SWAP3 DUP8 SWAP3 PUSH2 0x1A26 SWAP3 PUSH14 0xFFFFFFFFFFFFFFFFFFFFFFFFFFFF AND SWAP2 DUP6 SWAP2 PUSH4 0x70A08231 SWAP2 PUSH1 0x24 DUP1 DUP3 ADD SWAP3 PUSH1 0x20 SWAP3 SWAP1 SWAP2 SWAP1 DUP3 SWAP1 SUB ADD DUP2 DUP7 DUP1 EXTCODESIZE ISZERO DUP1 ISZERO PUSH2 0x19EE JUMPI PUSH1 0x0 DUP1 REVERT JUMPDEST POP GAS STATICCALL ISZERO DUP1 ISZERO PUSH2 0x1A02 JUMPI RETURNDATASIZE PUSH1 0x0 DUP1 RETURNDATACOPY RETURNDATASIZE PUSH1 0x0 REVERT JUMPDEST POP POP POP POP PUSH1 0x40 MLOAD RETURNDATASIZE PUSH1 0x20 DUP2 LT ISZERO PUSH2 0x1A18 JUMPI PUSH1 0x0 DUP1 REVERT JUMPDEST POP MLOAD SWAP1 PUSH4 0xFFFFFFFF PUSH2 0x226E AND JUMP JUMPDEST PUSH2 0x1FDB JUMP JUMPDEST PUSH1 0x8 SLOAD PUSH1 0x40 DUP1 MLOAD PUSH32 0x70A0823100000000000000000000000000000000000000000000000000000000 DUP2 MSTORE ADDRESS PUSH1 0x4 DUP3 ADD MSTORE SWAP1 MLOAD PUSH2 0x1ACA SWAP3 DUP5 SWAP3 DUP8 SWAP3 PUSH2 0x1A26 SWAP3 PUSH15 0x10000000000000000000000000000 SWAP1 DIV PUSH14 0xFFFFFFFFFFFFFFFFFFFFFFFFFFFF AND SWAP2 PUSH20 0xFFFFFFFFFFFFFFFFFFFFFFFFFFFFFFFFFFFFFFFF DUP7 AND SWAP2 PUSH4 0x70A08231 SWAP2 PUSH1 0x24 DUP1 DUP3 ADD SWAP3 PUSH1 0x20 SWAP3 SWAP1 SWAP2 SWAP1 DUP3 SWAP1 SUB ADD DUP2 DUP7 DUP1 EXTCODESIZE ISZERO DUP1 ISZERO PUSH2 0x19EE JUMPI PUSH1 0x0 DUP1 REVERT JUMPDEST POP POP PUSH1 0x1 PUSH1 0xC SSTORE POP JUMP JUMPDEST PUSH1 0x5 SLOAD PUSH20 0xFFFFFFFFFFFFFFFFFFFFFFFFFFFFFFFFFFFFFFFF AND DUP2 JUMP JUMPDEST PUSH1 0x7 SLOAD PUSH20 0xFFFFFFFFFFFFFFFFFFFFFFFFFFFFFFFFFFFFFFFF AND DUP2 JUMP JUMPDEST TIMESTAMP DUP5 LT ISZERO PUSH2 0x1B7B JUMPI PUSH1 0x40 DUP1 MLOAD PUSH32 0x8C379A000000000000000000000000000000000000000000000000000000000 DUP2 MSTORE PUSH1 0x20 PUSH1 0x4 DUP3 ADD MSTORE PUSH1 0x12 PUSH1 0x24 DUP3 ADD MSTORE PUSH32 0x556E697377617056323A20455850495245440000000000000000000000000000 PUSH1 0x44 DUP3 ADD MSTORE SWAP1 MLOAD SWAP1 DUP2 SWAP1 SUB PUSH1 0x64 ADD SWAP1 REVERT JUMPDEST PUSH1 0x3 SLOAD PUSH20 0xFFFFFFFFFFFFFFFFFFFFFFFFFFFFFFFFFFFFFFFF DUP1 DUP10 AND PUSH1 0x0 DUP2 DUP2 MSTORE PUSH1 0x4 PUSH1 0x20 SWAP1 DUP2 MSTORE PUSH1 0x40 DUP1 DUP4 KECCAK256 DUP1 SLOAD PUSH1 0x1 DUP1 DUP3 ADD SWAP1 SWAP3 SSTORE DUP3 MLOAD PUSH32 0x6E71EDAE12B1B97F4D1F60370FEF10105FA2FAAE0126114A169C64845D6126C9 DUP2 DUP7 ADD MSTORE DUP1 DUP5 ADD SWAP7 SWAP1 SWAP7 MSTORE SWAP6 DUP14 AND PUSH1 0x60 DUP7 ADD MSTORE PUSH1 0x80 DUP6 ADD DUP13 SWAP1 MSTORE PUSH1 0xA0 DUP6 ADD SWAP6 SWAP1 SWAP6 MSTORE PUSH1 0xC0 DUP1 DUP6 ADD DUP12 SWAP1 MSTORE DUP2 MLOAD DUP1 DUP7 SUB SWAP1 SWAP2 ADD DUP2 MSTORE PUSH1 0xE0 DUP6 ADD DUP3 MSTORE DUP1 MLOAD SWAP1 DUP4 ADD KECCAK256 PUSH32 0x1901000000000000000000000000000000000000000000000000000000000000 PUSH2 0x100 DUP7 ADD MSTORE PUSH2 0x102 DUP6 ADD SWAP7 SWAP1 SWAP7 MSTORE PUSH2 0x122 DUP1 DUP6 ADD SWAP7 SWAP1 SWAP7 MSTORE DUP1 MLOAD DUP1 DUP6 SUB SWAP1 SWAP7 ADD DUP7 MSTORE PUSH2 0x142 DUP5 ADD DUP1 DUP3 MSTORE DUP7 MLOAD SWAP7 DUP4 ADD SWAP7 SWAP1 SWAP7 KECCAK256 SWAP6 DUP4 SWAP1 MSTORE PUSH2 0x162 DUP5 ADD DUP1 DUP3 MSTORE DUP7 SWAP1 MSTORE PUSH1 0xFF DUP10 AND PUSH2 0x182 DUP6 ADD MSTORE PUSH2 0x1A2 DUP5 ADD DUP9 SWAP1 MSTORE PUSH2 0x1C2 DUP5 ADD DUP8 SWAP1 MSTORE MLOAD SWAP2 SWAP4 SWAP3 PUSH2 0x1E2 DUP1 DUP3 ADD SWAP4 PUSH32 0xFFFFFFFFFFFFFFFFFFFFFFFFFFFFFFFFFFFFFFFFFFFFFFFFFFFFFFFFFFFFFFE0 DUP2 ADD SWAP3 DUP2 SWAP1 SUB SWAP1 SWAP2 ADD SWAP1 DUP6 GAS STATICCALL ISZERO DUP1 ISZERO PUSH2 0x1CDC JUMPI RETURNDATASIZE PUSH1 0x0 DUP1 RETURNDATACOPY RETURNDATASIZE PUSH1 0x0 REVERT JUMPDEST POP POP PUSH1 0x40 MLOAD PUSH32 0xFFFFFFFFFFFFFFFFFFFFFFFFFFFFFFFFFFFFFFFFFFFFFFFFFFFFFFFFFFFFFFE0 ADD MLOAD SWAP2 POP POP PUSH20 0xFFFFFFFFFFFFFFFFFFFFFFFFFFFFFFFFFFFFFFFF DUP2 AND ISZERO DUP1 ISZERO SWAP1 PUSH2 0x1D57 JUMPI POP DUP9 PUSH20 0xFFFFFFFFFFFFFFFFFFFFFFFFFFFFFFFFFFFFFFFF AND DUP2 PUSH20 0xFFFFFFFFFFFFFFFFFFFFFFFFFFFFFFFFFFFFFFFF AND EQ JUMPDEST PUSH2 0x1DC2 JUMPI PUSH1 0x40 DUP1 MLOAD PUSH32 0x8C379A000000000000000000000000000000000000000000000000000000000 DUP2 MSTORE PUSH1 0x20 PUSH1 0x4 DUP3 ADD MSTORE PUSH1 0x1C PUSH1 0x24 DUP3 ADD MSTORE PUSH32 0x556E697377617056323A20494E56414C49445F5349474E415455524500000000 PUSH1 0x44 DUP3 ADD MSTORE SWAP1 MLOAD SWAP1 DUP2 SWAP1 SUB PUSH1 0x64 ADD SWAP1 REVERT JUMPDEST PUSH2 0x1DCD DUP10 DUP10 DUP10 PUSH2 0x259C JUMP JUMPDEST POP POP POP POP POP POP POP POP POP JUMP JUMPDEST PUSH1 0x2 PUSH1 0x20 SWAP1 DUP2 MSTORE PUSH1 0x0 SWAP3 DUP4 MSTORE PUSH1 0x40 DUP1 DUP5 KECCAK256 SWAP1 SWAP2 MSTORE SWAP1 DUP3 MSTORE SWAP1 KECCAK256 SLOAD DUP2 JUMP JUMPDEST PUSH1 0xC SLOAD PUSH1 0x1 EQ PUSH2 0x1E66 JUMPI PUSH1 0x40 DUP1 MLOAD PUSH32 0x8C379A000000000000000000000000000000000000000000000000000000000 DUP2 MSTORE PUSH1 0x20 PUSH1 0x4 DUP3 ADD MSTORE PUSH1 0x11 PUSH1 0x24 DUP3 ADD MSTORE PUSH32 0x556E697377617056323A204C4F434B4544000000000000000000000000000000 PUSH1 0x44 DUP3 ADD MSTORE SWAP1 MLOAD SWAP1 DUP2 SWAP1 SUB PUSH1 0x64 ADD SWAP1 REVERT JUMPDEST PUSH1 0x0 PUSH1 0xC SSTORE PUSH1 0x6 SLOAD PUSH1 0x40 DUP1 MLOAD PUSH32 0x70A0823100000000000000000000000000000000000000000000000000000000 DUP2 MSTORE ADDRESS PUSH1 0x4 DUP3 ADD MSTORE SWAP1 MLOAD PUSH2 0x1FD4 SWAP3 PUSH20 0xFFFFFFFFFFFFFFFFFFFFFFFFFFFFFFFFFFFFFFFF AND SWAP2 PUSH4 0x70A08231 SWAP2 PUSH1 0x24 DUP1 DUP4 ADD SWAP3 PUSH1 0x20 SWAP3 SWAP2 SWAP1 DUP3 SWAP1 SUB ADD DUP2 DUP7 DUP1 EXTCODESIZE ISZERO DUP1 ISZERO PUSH2 0x1EDD JUMPI PUSH1 0x0 DUP1 REVERT JUMPDEST POP GAS STATICCALL ISZERO DUP1 ISZERO PUSH2 0x1EF1 JUMPI RETURNDATASIZE PUSH1 0x0 DUP1 RETURNDATACOPY RETURNDATASIZE PUSH1 0x0 REVERT JUMPDEST POP POP POP POP PUSH1 0x40 MLOAD RETURNDATASIZE PUSH1 0x20 DUP2 LT ISZERO PUSH2 0x1F07 JUMPI PUSH1 0x0 DUP1 REVERT JUMPDEST POP MLOAD PUSH1 0x7 SLOAD PUSH1 0x40 DUP1 MLOAD PUSH32 0x70A0823100000000000000000000000000000000000000000000000000000000 DUP2 MSTORE ADDRESS PUSH1 0x4 DUP3 ADD MSTORE SWAP1 MLOAD PUSH20 0xFFFFFFFFFFFFFFFFFFFFFFFFFFFFFFFFFFFFFFFF SWAP1 SWAP3 AND SWAP2 PUSH4 0x70A08231 SWAP2 PUSH1 0x24 DUP1 DUP3 ADD SWAP3 PUSH1 0x20 SWAP3 SWAP1 SWAP2 SWAP1 DUP3 SWAP1 SUB ADD DUP2 DUP7 DUP1 EXTCODESIZE ISZERO DUP1 ISZERO PUSH2 0x1F7A JUMPI PUSH1 0x0 DUP1 REVERT JUMPDEST POP GAS STATICCALL ISZERO DUP1 ISZERO PUSH2 0x1F8E JUMPI RETURNDATASIZE PUSH1 0x0 DUP1 RETURNDATACOPY RETURNDATASIZE PUSH1 0x0 REVERT JUMPDEST POP POP POP POP PUSH1 0x40 MLOAD RETURNDATASIZE PUSH1 0x20 DUP2 LT ISZERO PUSH2 0x1FA4 JUMPI PUSH1 0x0 DUP1 REVERT JUMPDEST POP MLOAD PUSH1 0x8 SLOAD PUSH14 0xFFFFFFFFFFFFFFFFFFFFFFFFFFFF DUP1 DUP3 AND SWAP2 PUSH15 0x10000000000000000000000000000 SWAP1 DIV AND PUSH2 0x22E0 JUMP JUMPDEST PUSH1 0x1 PUSH1 0xC SSTORE JUMP JUMPDEST PUSH1 0x40 DUP1 MLOAD DUP1 DUP3 ADD DUP3 MSTORE PUSH1 0x19 DUP2 MSTORE PUSH32 0x7472616E7366657228616464726573732C75696E743235362900000000000000 PUSH1 0x20 SWAP2 DUP3 ADD MSTORE DUP2 MLOAD PUSH20 0xFFFFFFFFFFFFFFFFFFFFFFFFFFFFFFFFFFFFFFFF DUP6 DUP2 AND PUSH1 0x24 DUP4 ADD MSTORE PUSH1 0x44 DUP1 DUP4 ADD DUP7 SWAP1 MSTORE DUP5 MLOAD DUP1 DUP5 SUB SWAP1 SWAP2 ADD DUP2 MSTORE PUSH1 0x64 SWAP1 SWAP3 ADD DUP5 MSTORE SWAP2 DUP2 ADD DUP1 MLOAD PUSH28 0xFFFFFFFFFFFFFFFFFFFFFFFFFFFFFFFFFFFFFFFFFFFFFFFFFFFFFFFF AND PUSH32 0xA9059CBB00000000000000000000000000000000000000000000000000000000 OR DUP2 MSTORE SWAP3 MLOAD DUP2 MLOAD PUSH1 0x0 SWAP5 PUSH1 0x60 SWAP5 DUP10 AND SWAP4 SWAP3 SWAP2 DUP3 SWAP2 SWAP1 DUP1 DUP4 DUP4 JUMPDEST PUSH1 0x20 DUP4 LT PUSH2 0x20E1 JUMPI DUP1 MLOAD DUP3 MSTORE PUSH32 0xFFFFFFFFFFFFFFFFFFFFFFFFFFFFFFFFFFFFFFFFFFFFFFFFFFFFFFFFFFFFFFE0 SWAP1 SWAP3 ADD SWAP2 PUSH1 0x20 SWAP2 DUP3 ADD SWAP2 ADD PUSH2 0x20A4 JUMP JUMPDEST PUSH1 0x1 DUP4 PUSH1 0x20 SUB PUSH2 0x100 EXP SUB DUP1 NOT DUP3 MLOAD AND DUP2 DUP5 MLOAD AND DUP1 DUP3 OR DUP6 MSTORE POP POP POP POP POP POP SWAP1 POP ADD SWAP2 POP POP PUSH1 0x0 PUSH1 0x40 MLOAD DUP1 DUP4 SUB DUP2 PUSH1 0x0 DUP7 GAS CALL SWAP2 POP POP RETURNDATASIZE DUP1 PUSH1 0x0 DUP2 EQ PUSH2 0x2143 JUMPI PUSH1 0x40 MLOAD SWAP2 POP PUSH1 0x1F NOT PUSH1 0x3F RETURNDATASIZE ADD AND DUP3 ADD PUSH1 0x40 MSTORE RETURNDATASIZE DUP3 MSTORE RETURNDATASIZE PUSH1 0x0 PUSH1 0x20 DUP5 ADD RETURNDATACOPY PUSH2 0x2148 JUMP JUMPDEST PUSH1 0x60 SWAP2 POP JUMPDEST POP SWAP2 POP SWAP2 POP DUP2 DUP1 ISZERO PUSH2 0x2176 JUMPI POP DUP1 MLOAD ISZERO DUP1 PUSH2 0x2176 JUMPI POP DUP1 DUP1 PUSH1 0x20 ADD SWAP1 MLOAD PUSH1 0x20 DUP2 LT ISZERO PUSH2 0x2173 JUMPI PUSH1 0x0 DUP1 REVERT JUMPDEST POP MLOAD JUMPDEST PUSH2 0x21E1 JUMPI PUSH1 0x40 DUP1 MLOAD PUSH32 0x8C379A000000000000000000000000000000000000000000000000000000000 DUP2 MSTORE PUSH1 0x20 PUSH1 0x4 DUP3 ADD MSTORE PUSH1 0x1A PUSH1 0x24 DUP3 ADD MSTORE PUSH32 0x556E697377617056323A205452414E534645525F4641494C4544000000000000 PUSH1 0x44 DUP3 ADD MSTORE SWAP1 MLOAD SWAP1 DUP2 SWAP1 SUB PUSH1 0x64 ADD SWAP1 REVERT JUMPDEST POP POP POP POP POP JUMP JUMPDEST PUSH1 0x0 DUP2 ISZERO DUP1 PUSH2 0x2203 JUMPI POP POP DUP1 DUP3 MUL DUP3 DUP3 DUP3 DUP2 PUSH2 0x2200 JUMPI INVALID JUMPDEST DIV EQ JUMPDEST PUSH2 0xDF6 JUMPI PUSH1 0x40 DUP1 MLOAD PUSH32 0x8C379A000000000000000000000000000000000000000000000000000000000 DUP2 MSTORE PUSH1 0x20 PUSH1 0x4 DUP3 ADD MSTORE PUSH1 0x14 PUSH1 0x24 DUP3 ADD MSTORE PUSH32 0x64732D6D6174682D6D756C2D6F766572666C6F77000000000000000000000000 PUSH1 0x44 DUP3 ADD MSTORE SWAP1 MLOAD SWAP1 DUP2 SWAP1 SUB PUSH1 0x64 ADD SWAP1 REVERT JUMPDEST DUP1 DUP3 SUB DUP3 DUP2 GT ISZERO PUSH2 0xDF6 JUMPI PUSH1 0x40 DUP1 MLOAD PUSH32 0x8C379A000000000000000000000000000000000000000000000000000000000 DUP2 MSTORE PUSH1 0x20 PUSH1 0x4 DUP3 ADD MSTORE PUSH1 0x15 PUSH1 0x24 DUP3 ADD MSTORE PUSH32 0x64732D6D6174682D7375622D756E646572666C6F770000000000000000000000 PUSH1 0x44 DUP3 ADD MSTORE SWAP1 MLOAD SWAP1 DUP2 SWAP1 SUB PUSH1 0x64 ADD SWAP1 REVERT JUMPDEST PUSH14 0xFFFFFFFFFFFFFFFFFFFFFFFFFFFF DUP5 GT DUP1 ISZERO SWAP1 PUSH2 0x230C JUMPI POP PUSH14 0xFFFFFFFFFFFFFFFFFFFFFFFFFFFF DUP4 GT ISZERO JUMPDEST PUSH2 0x2377 JUMPI PUSH1 0x40 DUP1 MLOAD PUSH32 0x8C379A000000000000000000000000000000000000000000000000000000000 DUP2 MSTORE PUSH1 0x20 PUSH1 0x4 DUP3 ADD MSTORE PUSH1 0x13 PUSH1 0x24 DUP3 ADD MSTORE PUSH32 0x556E697377617056323A204F564552464C4F5700000000000000000000000000 PUSH1 0x44 DUP3 ADD MSTORE SWAP1 MLOAD SWAP1 DUP2 SWAP1 SUB PUSH1 0x64 ADD SWAP1 REVERT JUMPDEST PUSH1 0x8 SLOAD PUSH4 0xFFFFFFFF TIMESTAMP DUP2 AND SWAP2 PUSH29 0x100000000000000000000000000000000000000000000000000000000 SWAP1 DIV DUP2 AND DUP3 SUB SWAP1 DUP2 AND ISZERO DUP1 ISZERO SWAP1 PUSH2 0x23C7 JUMPI POP PUSH14 0xFFFFFFFFFFFFFFFFFFFFFFFFFFFF DUP5 AND ISZERO ISZERO JUMPDEST DUP1 ISZERO PUSH2 0x23E2 JUMPI POP PUSH14 0xFFFFFFFFFFFFFFFFFFFFFFFFFFFF DUP4 AND ISZERO ISZERO JUMPDEST ISZERO PUSH2 0x2492 JUMPI DUP1 PUSH4 0xFFFFFFFF AND PUSH2 0x2425 DUP6 PUSH2 0x23FB DUP7 PUSH2 0x2A57 JUMP JUMPDEST PUSH28 0xFFFFFFFFFFFFFFFFFFFFFFFFFFFFFFFFFFFFFFFFFFFFFFFFFFFFFFFF AND SWAP1 PUSH4 0xFFFFFFFF PUSH2 0x2A7B AND JUMP JUMPDEST PUSH1 0x9 DUP1 SLOAD PUSH28 0xFFFFFFFFFFFFFFFFFFFFFFFFFFFFFFFFFFFFFFFFFFFFFFFFFFFFFFFF SWAP3 SWAP1 SWAP3 AND SWAP3 SWAP1 SWAP3 MUL ADD SWAP1 SSTORE PUSH4 0xFFFFFFFF DUP2 AND PUSH2 0x2465 DUP5 PUSH2 0x23FB DUP8 PUSH2 0x2A57 JUMP JUMPDEST PUSH1 0xA DUP1 SLOAD PUSH28 0xFFFFFFFFFFFFFFFFFFFFFFFFFFFFFFFFFFFFFFFFFFFFFFFFFFFFFFFF SWAP3 SWAP1 SWAP3 AND SWAP3 SWAP1 SWAP3 MUL ADD SWAP1 SSTORE JUMPDEST PUSH1 0x8 DUP1 SLOAD PUSH32 0xFFFFFFFFFFFFFFFFFFFFFFFFFFFFFFFFFFFF0000000000000000000000000000 AND PUSH14 0xFFFFFFFFFFFFFFFFFFFFFFFFFFFF DUP9 DUP2 AND SWAP2 SWAP1 SWAP2 OR PUSH32 0xFFFFFFFF0000000000000000000000000000FFFFFFFFFFFFFFFFFFFFFFFFFFFF AND PUSH15 0x10000000000000000000000000000 DUP9 DUP4 AND DUP2 MUL SWAP2 SWAP1 SWAP2 OR PUSH28 0xFFFFFFFFFFFFFFFFFFFFFFFFFFFFFFFFFFFFFFFFFFFFFFFFFFFFFFFF AND PUSH29 0x100000000000000000000000000000000000000000000000000000000 PUSH4 0xFFFFFFFF DUP8 AND MUL OR SWAP3 DUP4 SWAP1 SSTORE PUSH1 0x40 DUP1 MLOAD DUP5 DUP5 AND DUP2 MSTORE SWAP2 SWAP1 SWAP4 DIV SWAP1 SWAP2 AND PUSH1 0x20 DUP3 ADD MSTORE DUP2 MLOAD PUSH32 0x1C411E9A96E071241C2F21F7726B17AE89E3CAB4C78BE50E062B03A9FFFBBAD1 SWAP3 SWAP2 DUP2 SWAP1 SUB SWAP1 SWAP2 ADD SWAP1 LOG1 POP POP POP POP POP POP JUMP JUMPDEST PUSH20 0xFFFFFFFFFFFFFFFFFFFFFFFFFFFFFFFFFFFFFFFF DUP1 DUP5 AND PUSH1 0x0 DUP2 DUP2 MSTORE PUSH1 0x2 PUSH1 0x20 SWAP1 DUP2 MSTORE PUSH1 0x40 DUP1 DUP4 KECCAK256 SWAP5 DUP8 AND DUP1 DUP5 MSTORE SWAP5 DUP3 MSTORE SWAP2 DUP3 SWAP1 KECCAK256 DUP6 SWAP1 SSTORE DUP2 MLOAD DUP6 DUP2 MSTORE SWAP2 MLOAD PUSH32 0x8C5BE1E5EBEC7D5BD14F71427D1E84F3DD0314C0F7B2291E5B200AC8C7C3B925 SWAP3 DUP2 SWAP1 SUB SWAP1 SWAP2 ADD SWAP1 LOG3 POP POP POP JUMP JUMPDEST PUSH20 0xFFFFFFFFFFFFFFFFFFFFFFFFFFFFFFFFFFFFFFFF DUP4 AND PUSH1 0x0 SWAP1 DUP2 MSTORE PUSH1 0x1 PUSH1 0x20 MSTORE PUSH1 0x40 SWAP1 KECCAK256 SLOAD PUSH2 0x2641 SWAP1 DUP3 PUSH4 0xFFFFFFFF PUSH2 0x226E AND JUMP JUMPDEST PUSH20 0xFFFFFFFFFFFFFFFFFFFFFFFFFFFFFFFFFFFFFFFF DUP1 DUP6 AND PUSH1 0x0 SWAP1 DUP2 MSTORE PUSH1 0x1 PUSH1 0x20 MSTORE PUSH1 0x40 DUP1 DUP3 KECCAK256 SWAP4 SWAP1 SWAP4 SSTORE SWAP1 DUP5 AND DUP2 MSTORE KECCAK256 SLOAD PUSH2 0x2683 SWAP1 DUP3 PUSH4 0xFFFFFFFF PUSH2 0x2ABC AND JUMP JUMPDEST PUSH20 0xFFFFFFFFFFFFFFFFFFFFFFFFFFFFFFFFFFFFFFFF DUP1 DUP5 AND PUSH1 0x0 DUP2 DUP2 MSTORE PUSH1 0x1 PUSH1 0x20 SWAP1 DUP2 MSTORE PUSH1 0x40 SWAP2 DUP3 SWAP1 KECCAK256 SWAP5 SWAP1 SWAP5 SSTORE DUP1 MLOAD DUP6 DUP2 MSTORE SWAP1 MLOAD SWAP2 SWAP4 SWAP3 DUP8 AND SWAP3 PUSH32 0xDDF252AD1BE2C89B69C2B068FC378DAA952BA7F163C4A11628F55A4DF523B3EF SWAP3 SWAP2 DUP3 SWAP1 SUB ADD SWAP1 LOG3 POP POP POP JUMP JUMPDEST PUSH1 0x0 DUP1 PUSH1 0x5 PUSH1 0x0 SWAP1 SLOAD SWAP1 PUSH2 0x100 EXP SWAP1 DIV PUSH20 0xFFFFFFFFFFFFFFFFFFFFFFFFFFFFFFFFFFFFFFFF AND PUSH20 0xFFFFFFFFFFFFFFFFFFFFFFFFFFFFFFFFFFFFFFFF AND PUSH4 0x17E7E58 PUSH1 0x40 MLOAD DUP2 PUSH4 0xFFFFFFFF AND PUSH1 0xE0 SHL DUP2 MSTORE PUSH1 0x4 ADD PUSH1 0x20 PUSH1 0x40 MLOAD DUP1 DUP4 SUB DUP2 DUP7 DUP1 EXTCODESIZE ISZERO DUP1 ISZERO PUSH2 0x2757 JUMPI PUSH1 0x0 DUP1 REVERT JUMPDEST POP GAS STATICCALL ISZERO DUP1 ISZERO PUSH2 0x276B JUMPI RETURNDATASIZE PUSH1 0x0 DUP1 RETURNDATACOPY RETURNDATASIZE PUSH1 0x0 REVERT JUMPDEST POP POP POP POP PUSH1 0x40 MLOAD RETURNDATASIZE PUSH1 0x20 DUP2 LT ISZERO PUSH2 0x2781 JUMPI PUSH1 0x0 DUP1 REVERT JUMPDEST POP MLOAD PUSH1 0xB SLOAD PUSH20 0xFFFFFFFFFFFFFFFFFFFFFFFFFFFFFFFFFFFFFFFF DUP3 AND ISZERO DUP1 ISZERO SWAP5 POP SWAP2 SWAP3 POP SWAP1 PUSH2 0x2864 JUMPI DUP1 ISZERO PUSH2 0x285F JUMPI PUSH1 0x0 PUSH2 0x27D8 PUSH2 0x1257 PUSH14 0xFFFFFFFFFFFFFFFFFFFFFFFFFFFF DUP9 DUP2 AND SWAP1 DUP9 AND PUSH4 0xFFFFFFFF PUSH2 0x21E8 AND JUMP JUMPDEST SWAP1 POP PUSH1 0x0 PUSH2 0x27E5 DUP4 PUSH2 0x2878 JUMP JUMPDEST SWAP1 POP DUP1 DUP3 GT ISZERO PUSH2 0x285C JUMPI PUSH1 0x0 PUSH2 0x2813 PUSH2 0x2804 DUP5 DUP5 PUSH4 0xFFFFFFFF PUSH2 0x226E AND JUMP JUMPDEST PUSH1 0x0 SLOAD SWAP1 PUSH4 0xFFFFFFFF PUSH2 0x21E8 AND JUMP JUMPDEST SWAP1 POP PUSH1 0x0 PUSH2 0x2838 DUP4 PUSH2 0x282C DUP7 PUSH1 0x5 PUSH4 0xFFFFFFFF PUSH2 0x21E8 AND JUMP JUMPDEST SWAP1 PUSH4 0xFFFFFFFF PUSH2 0x2ABC AND JUMP JUMPDEST SWAP1 POP PUSH1 0x0 DUP2 DUP4 DUP2 PUSH2 0x2845 JUMPI INVALID JUMPDEST DIV SWAP1 POP DUP1 ISZERO PUSH2 0x2858 JUMPI PUSH2 0x2858 DUP8 DUP3 PUSH2 0x28CA JUMP JUMPDEST POP POP POP JUMPDEST POP POP JUMPDEST PUSH2 0x2870 JUMP JUMPDEST DUP1 ISZERO PUSH2 0x2870 JUMPI PUSH1 0x0 PUSH1 0xB SSTORE JUMPDEST POP POP SWAP3 SWAP2 POP POP JUMP JUMPDEST PUSH1 0x0 PUSH1 0x3 DUP3 GT ISZERO PUSH2 0x28BB JUMPI POP DUP1 PUSH1 0x1 PUSH1 0x2 DUP3 DIV ADD JUMPDEST DUP2 DUP2 LT ISZERO PUSH2 0x28B5 JUMPI DUP1 SWAP2 POP PUSH1 0x2 DUP2 DUP3 DUP6 DUP2 PUSH2 0x28A4 JUMPI INVALID JUMPDEST DIV ADD DUP2 PUSH2 0x28AD JUMPI INVALID JUMPDEST DIV SWAP1 POP PUSH2 0x288D JUMP JUMPDEST POP PUSH2 0x28C5 JUMP JUMPDEST DUP2 ISZERO PUSH2 0x28C5 JUMPI POP PUSH1 0x1 JUMPDEST SWAP2 SWAP1 POP JUMP JUMPDEST PUSH1 0x0 SLOAD PUSH2 0x28DD SWAP1 DUP3 PUSH4 0xFFFFFFFF PUSH2 0x2ABC AND JUMP JUMPDEST PUSH1 0x0 SWAP1 DUP2 SSTORE PUSH20 0xFFFFFFFFFFFFFFFFFFFFFFFFFFFFFFFFFFFFFFFF DUP4 AND DUP2 MSTORE PUSH1 0x1 PUSH1 0x20 MSTORE PUSH1 0x40 SWAP1 KECCAK256 SLOAD PUSH2 0x2915 SWAP1 DUP3 PUSH4 0xFFFFFFFF PUSH2 0x2ABC AND JUMP JUMPDEST PUSH20 0xFFFFFFFFFFFFFFFFFFFFFFFFFFFFFFFFFFFFFFFF DUP4 AND PUSH1 0x0 DUP2 DUP2 MSTORE PUSH1 0x1 PUSH1 0x20 SWAP1 DUP2 MSTORE PUSH1 0x40 DUP1 DUP4 KECCAK256 SWAP5 SWAP1 SWAP5 SSTORE DUP4 MLOAD DUP6 DUP2 MSTORE SWAP4 MLOAD SWAP3 SWAP4 SWAP2 SWAP3 PUSH32 0xDDF252AD1BE2C89B69C2B068FC378DAA952BA7F163C4A11628F55A4DF523B3EF SWAP3 DUP2 SWAP1 SUB SWAP1 SWAP2 ADD SWAP1 LOG3 POP POP JUMP JUMPDEST PUSH1 0x0 DUP2 DUP4 LT PUSH2 0x2989 JUMPI DUP2 PUSH2 0x298B JUMP JUMPDEST DUP3 JUMPDEST SWAP4 SWAP3 POP POP POP JUMP JUMPDEST PUSH20 0xFFFFFFFFFFFFFFFFFFFFFFFFFFFFFFFFFFFFFFFF DUP3 AND PUSH1 0x0 SWAP1 DUP2 MSTORE PUSH1 0x1 PUSH1 0x20 MSTORE PUSH1 0x40 SWAP1 KECCAK256 SLOAD PUSH2 0x29C8 SWAP1 DUP3 PUSH4 0xFFFFFFFF PUSH2 0x226E AND JUMP JUMPDEST PUSH20 0xFFFFFFFFFFFFFFFFFFFFFFFFFFFFFFFFFFFFFFFF DUP4 AND PUSH1 0x0 SWAP1 DUP2 MSTORE PUSH1 0x1 PUSH1 0x20 MSTORE PUSH1 0x40 DUP2 KECCAK256 SWAP2 SWAP1 SWAP2 SSTORE SLOAD PUSH2 0x2A02 SWAP1 DUP3 PUSH4 0xFFFFFFFF PUSH2 0x226E AND JUMP JUMPDEST PUSH1 0x0 SWAP1 DUP2 SSTORE PUSH1 0x40 DUP1 MLOAD DUP4 DUP2 MSTORE SWAP1 MLOAD PUSH20 0xFFFFFFFFFFFFFFFFFFFFFFFFFFFFFFFFFFFFFFFF DUP6 AND SWAP2 PUSH32 0xDDF252AD1BE2C89B69C2B068FC378DAA952BA7F163C4A11628F55A4DF523B3EF SWAP2 SWAP1 DUP2 SWAP1 SUB PUSH1 0x20 ADD SWAP1 LOG3 POP POP JUMP JUMPDEST PUSH14 0xFFFFFFFFFFFFFFFFFFFFFFFFFFFF AND PUSH15 0x10000000000000000000000000000 MUL SWAP1 JUMP JUMPDEST PUSH1 0x0 PUSH14 0xFFFFFFFFFFFFFFFFFFFFFFFFFFFF DUP3 AND PUSH28 0xFFFFFFFFFFFFFFFFFFFFFFFFFFFFFFFFFFFFFFFFFFFFFFFFFFFFFFFF DUP5 AND DUP2 PUSH2 0x2AB4 JUMPI INVALID JUMPDEST DIV SWAP4 SWAP3 POP POP POP JUMP JUMPDEST DUP1 DUP3 ADD DUP3 DUP2 LT ISZERO PUSH2 0xDF6 JUMPI PUSH1 0x40 DUP1 MLOAD PUSH32 0x8C379A000000000000000000000000000000000000000000000000000000000 DUP2 MSTORE PUSH1 0x20 PUSH1 0x4 DUP3 ADD MSTORE PUSH1 0x14 PUSH1 0x24 DUP3 ADD MSTORE PUSH32 0x64732D6D6174682D6164642D6F766572666C6F77000000000000000000000000 PUSH1 0x44 DUP3 ADD MSTORE SWAP1 MLOAD SWAP1 DUP2 SWAP1 SUB PUSH1 0x64 ADD SWAP1 REVERT INVALID SSTORE PUSH15 0x697377617056323A20494E53554646 0x49 NUMBER 0x49 GASLIMIT 0x4E SLOAD 0x5F 0x4F SSTORE SLOAD POP SSTORE SLOAD 0x5F COINBASE 0x4D 0x4F SSTORE 0x4E SLOAD SSTORE PUSH15 0x697377617056323A20494E53554646 0x49 NUMBER 0x49 GASLIMIT 0x4E SLOAD 0x5F 0x49 0x4E POP SSTORE SLOAD 0x5F COINBASE 0x4D 0x4F SSTORE 0x4E SLOAD SSTORE PUSH15 0x697377617056323A20494E53554646 0x49 NUMBER 0x49 GASLIMIT 0x4E SLOAD 0x5F 0x4C 0x49 MLOAD SSTORE 0x49 DIFFICULTY 0x49 SLOAD MSIZE SSTORE PUSH15 0x697377617056323A20494E53554646 0x49 NUMBER 0x49 GASLIMIT 0x4E SLOAD 0x5F 0x4C 0x49 MLOAD SSTORE 0x49 DIFFICULTY 0x49 SLOAD MSIZE 0x5F TIMESTAMP SSTORE MSTORE 0x4E GASLIMIT DIFFICULTY SSTORE PUSH15 0x697377617056323A20494E53554646 0x49 NUMBER 0x49 GASLIMIT 0x4E SLOAD 0x5F 0x4C 0x49 MLOAD SSTORE 0x49 DIFFICULTY 0x49 SLOAD MSIZE 0x5F 0x4D 0x49 0x4E SLOAD GASLIMIT DIFFICULTY LOG2 PUSH6 0x627A7A723158 KECCAK256 GASPRICE PUSH9 0xB3755D9AB5C240A50E CODECOPY 0xC4 0x4D SWAP3 0xAC 0xAF 0xC3 0xBF DIV SIGNEXTEND STATICCALL 0xA8 0x26 PUSH14 0x250E8B0CFF458164736F6C634300 SDIV LT STOP ORIGIN GASLIMIT 0x49 POP CALLDATACOPY BALANCE ORIGIN DIFFICULTY PUSH16 0x6D61696E28737472696E67206E616D65 0x2C PUSH20 0x7472696E672076657273696F6E2C75696E743235 CALLDATASIZE KECCAK256 PUSH4 0x6861696E 0x49 PUSH5 0x2C61646472 PUSH6 0x737320766572 PUSH10 0x6679696E67436F6E7472 PUSH2 0x6374 0x29 "
				},
				"gasEstimates": {
					"creation": {
						"codeDepositCost": "2258600",
						"executionCost": "infinite",
						"totalCost": "infinite"
					},
					"external": {
						"DOMAIN_SEPARATOR()": "1043",
						"MINIMUM_LIQUIDITY()": "243",
						"PERMIT_TYPEHASH()": "266",
						"allowance(address,address)": "1293",
						"approve(address,uint256)": "22342",
						"balanceOf(address)": "1180",
						"burn(address)": "infinite",
						"decimals()": "297",
						"factory()": "1102",
						"getReserves()": "1204",
						"initialize(address,address)": "42777",
						"kLast()": "1088",
						"mint(address)": "infinite",
						"name()": "infinite",
						"nonces(address)": "1157",
						"permit(address,address,uint256,uint256,uint8,bytes32,bytes32)": "infinite",
						"price0CumulativeLast()": "1087",
						"price1CumulativeLast()": "1109",
						"skim(address)": "infinite",
						"swap(uint256,uint256,address,bytes)": "infinite",
						"symbol()": "infinite",
						"sync()": "infinite",
						"token0()": "1081",
						"token1()": "1057",
						"totalSupply()": "1088",
						"transfer(address,uint256)": "infinite",
						"transferFrom(address,address,uint256)": "infinite"
					},
					"internal": {
						"_mintFee(uint112,uint112)": "infinite",
						"_safeTransfer(address,address,uint256)": "infinite",
						"_update(uint256,uint256,uint112,uint112)": "infinite"
					}
				},
				"methodIdentifiers": {
					"DOMAIN_SEPARATOR()": "3644e515",
					"MINIMUM_LIQUIDITY()": "ba9a7a56",
					"PERMIT_TYPEHASH()": "30adf81f",
					"allowance(address,address)": "dd62ed3e",
					"approve(address,uint256)": "095ea7b3",
					"balanceOf(address)": "70a08231",
					"burn(address)": "89afcb44",
					"decimals()": "313ce567",
					"factory()": "c45a0155",
					"getReserves()": "0902f1ac",
					"initialize(address,address)": "485cc955",
					"kLast()": "7464fc3d",
					"mint(address)": "6a627842",
					"name()": "06fdde03",
					"nonces(address)": "7ecebe00",
					"permit(address,address,uint256,uint256,uint8,bytes32,bytes32)": "d505accf",
					"price0CumulativeLast()": "5909c0d5",
					"price1CumulativeLast()": "5a3d5493",
					"skim(address)": "bc25cf77",
					"swap(uint256,uint256,address,bytes)": "022c0d9f",
					"symbol()": "95d89b41",
					"sync()": "fff6cae9",
					"token0()": "0dfe1681",
					"token1()": "d21220a7",
					"totalSupply()": "18160ddd",
					"transfer(address,uint256)": "a9059cbb",
					"transferFrom(address,address,uint256)": "23b872dd"
				}
			},
			"storageLayout": {
				"storage": [
					{
						"astId": 19,
						"contract": "UniswapV2Pair.sol:UniswapV2Pair",
						"label": "totalSupply",
						"offset": 0,
						"slot": "0",
						"type": "t_uint256"
					},
					{
						"astId": 23,
						"contract": "UniswapV2Pair.sol:UniswapV2Pair",
						"label": "balanceOf",
						"offset": 0,
						"slot": "1",
						"type": "t_mapping(t_address,t_uint256)"
					},
					{
						"astId": 29,
						"contract": "UniswapV2Pair.sol:UniswapV2Pair",
						"label": "allowance",
						"offset": 0,
						"slot": "2",
						"type": "t_mapping(t_address,t_mapping(t_address,t_uint256))"
					},
					{
						"astId": 31,
						"contract": "UniswapV2Pair.sol:UniswapV2Pair",
						"label": "DOMAIN_SEPARATOR",
						"offset": 0,
						"slot": "3",
						"type": "t_bytes32"
					},
					{
						"astId": 38,
						"contract": "UniswapV2Pair.sol:UniswapV2Pair",
						"label": "nonces",
						"offset": 0,
						"slot": "4",
						"type": "t_mapping(t_address,t_uint256)"
					},
					{
						"astId": 625,
						"contract": "UniswapV2Pair.sol:UniswapV2Pair",
						"label": "factory",
						"offset": 0,
						"slot": "5",
						"type": "t_address"
					},
					{
						"astId": 627,
						"contract": "UniswapV2Pair.sol:UniswapV2Pair",
						"label": "token0",
						"offset": 0,
						"slot": "6",
						"type": "t_address"
					},
					{
						"astId": 629,
						"contract": "UniswapV2Pair.sol:UniswapV2Pair",
						"label": "token1",
						"offset": 0,
						"slot": "7",
						"type": "t_address"
					},
					{
						"astId": 631,
						"contract": "UniswapV2Pair.sol:UniswapV2Pair",
						"label": "reserve0",
						"offset": 0,
						"slot": "8",
						"type": "t_uint112"
					},
					{
						"astId": 633,
						"contract": "UniswapV2Pair.sol:UniswapV2Pair",
						"label": "reserve1",
						"offset": 14,
						"slot": "8",
						"type": "t_uint112"
					},
					{
						"astId": 635,
						"contract": "UniswapV2Pair.sol:UniswapV2Pair",
						"label": "blockTimestampLast",
						"offset": 28,
						"slot": "8",
						"type": "t_uint32"
					},
					{
						"astId": 637,
						"contract": "UniswapV2Pair.sol:UniswapV2Pair",
						"label": "price0CumulativeLast",
						"offset": 0,
						"slot": "9",
						"type": "t_uint256"
					},
					{
						"astId": 639,
						"contract": "UniswapV2Pair.sol:UniswapV2Pair",
						"label": "price1CumulativeLast",
						"offset": 0,
						"slot": "10",
						"type": "t_uint256"
					},
					{
						"astId": 641,
						"contract": "UniswapV2Pair.sol:UniswapV2Pair",
						"label": "kLast",
						"offset": 0,
						"slot": "11",
						"type": "t_uint256"
					},
					{
						"astId": 644,
						"contract": "UniswapV2Pair.sol:UniswapV2Pair",
						"label": "unlocked",
						"offset": 0,
						"slot": "12",
						"type": "t_uint256"
					}
				],
				"types": {
					"t_address": {
						"encoding": "inplace",
						"label": "address",
						"numberOfBytes": "20"
					},
					"t_bytes32": {
						"encoding": "inplace",
						"label": "bytes32",
						"numberOfBytes": "32"
					},
					"t_mapping(t_address,t_mapping(t_address,t_uint256))": {
						"encoding": "mapping",
						"key": "t_address",
						"label": "mapping(address => mapping(address => uint256))",
						"numberOfBytes": "32",
						"value": "t_mapping(t_address,t_uint256)"
					},
					"t_mapping(t_address,t_uint256)": {
						"encoding": "mapping",
						"key": "t_address",
						"label": "mapping(address => uint256)",
						"numberOfBytes": "32",
						"value": "t_uint256"
					},
					"t_uint112": {
						"encoding": "inplace",
						"label": "uint112",
						"numberOfBytes": "14"
					},
					"t_uint256": {
						"encoding": "inplace",
						"label": "uint256",
						"numberOfBytes": "32"
					},
					"t_uint32": {
						"encoding": "inplace",
						"label": "uint32",
						"numberOfBytes": "4"
					}
				}
			},
			"userdoc": {
				"methods": {}
			}
		}
	}
}